{
  "contractName": "DerifyDerivative",
  "abi": [
    {
      "inputs": [
        {
          "internalType": "address",
          "name": "_token",
          "type": "address"
        }
      ],
      "stateMutability": "nonpayable",
      "type": "constructor"
    },
    {
      "anonymous": false,
      "inputs": [
        {
          "indexed": true,
          "internalType": "address",
          "name": "trader",
          "type": "address"
        },
        {
          "indexed": false,
          "internalType": "address",
          "name": "token",
          "type": "address"
        },
        {
          "indexed": false,
          "internalType": "uint256",
          "name": "timestamp",
          "type": "uint256"
        }
      ],
      "name": "CancelOrderedPositions",
      "type": "event"
    },
    {
      "anonymous": false,
      "inputs": [
        {
          "indexed": true,
          "internalType": "address",
          "name": "trader",
          "type": "address"
        },
        {
          "indexed": false,
          "internalType": "address",
          "name": "token",
          "type": "address"
        },
        {
          "indexed": false,
          "internalType": "enum IDerifyDerivative.TradeType",
          "name": "tradeType",
          "type": "uint8"
        },
        {
          "indexed": false,
          "internalType": "enum IDerifyDerivative.Side",
          "name": "side",
          "type": "uint8"
        },
        {
          "indexed": false,
          "internalType": "uint256",
          "name": "size",
          "type": "uint256"
        },
        {
          "indexed": false,
          "internalType": "uint256",
          "name": "price",
          "type": "uint256"
        },
        {
          "indexed": false,
          "internalType": "uint256",
          "name": "tradingFee",
          "type": "uint256"
        },
        {
          "indexed": false,
          "internalType": "int256",
          "name": "positionChangeFee",
          "type": "int256"
        },
        {
          "indexed": false,
          "internalType": "int256",
          "name": "pnlUsdt",
          "type": "int256"
        },
        {
          "indexed": false,
          "internalType": "uint256",
          "name": "timestamp",
          "type": "uint256"
        }
      ],
      "name": "Close",
      "type": "event"
    },
    {
      "anonymous": false,
      "inputs": [
        {
          "indexed": true,
          "internalType": "address",
          "name": "trader",
          "type": "address"
        },
        {
          "indexed": false,
          "internalType": "address",
          "name": "token",
          "type": "address"
        },
        {
          "indexed": false,
          "internalType": "enum IDerifyDerivative.Side",
          "name": "side",
          "type": "uint8"
        },
        {
          "indexed": false,
          "internalType": "uint256",
          "name": "size",
          "type": "uint256"
        },
        {
          "indexed": false,
          "internalType": "uint256",
          "name": "price",
          "type": "uint256"
        },
        {
          "indexed": false,
          "internalType": "uint256",
          "name": "leverage",
          "type": "uint256"
        },
        {
          "indexed": false,
          "internalType": "uint256",
          "name": "limitTimestamp",
          "type": "uint256"
        },
        {
          "indexed": false,
          "internalType": "uint256",
          "name": "timestamp",
          "type": "uint256"
        }
      ],
      "name": "CloseLimit",
      "type": "event"
    },
    {
      "anonymous": false,
      "inputs": [
        {
          "indexed": true,
          "internalType": "address",
          "name": "trader",
          "type": "address"
        },
        {
          "indexed": false,
          "internalType": "address",
          "name": "token",
          "type": "address"
        },
        {
          "indexed": false,
          "internalType": "enum IDerifyDerivative.Side",
          "name": "side",
          "type": "uint8"
        },
        {
          "indexed": false,
          "internalType": "enum IDerifyDerivative.StopType",
          "name": "stopType",
          "type": "uint8"
        },
        {
          "indexed": false,
          "internalType": "uint256",
          "name": "timestamp",
          "type": "uint256"
        }
      ],
      "name": "CloseStop",
      "type": "event"
    },
    {
      "anonymous": false,
      "inputs": [
        {
          "indexed": false,
          "internalType": "enum IDerifyDerivative.Side",
          "name": "side",
          "type": "uint8"
        },
        {
          "indexed": false,
          "internalType": "uint256",
          "name": "totalSize",
          "type": "uint256"
        },
        {
          "indexed": false,
          "internalType": "uint256",
          "name": "averagePrice",
          "type": "uint256"
        },
        {
          "indexed": false,
          "internalType": "uint256",
          "name": "timestamp",
          "type": "uint256"
        }
      ],
      "name": "GlobleDataUpdate",
      "type": "event"
    },
    {
      "anonymous": false,
      "inputs": [
        {
          "indexed": true,
          "internalType": "address",
          "name": "trader",
          "type": "address"
        },
        {
          "indexed": false,
          "internalType": "address",
          "name": "token",
          "type": "address"
        },
        {
          "indexed": false,
          "internalType": "enum IDerifyDerivative.TradeType",
          "name": "tradeType",
          "type": "uint8"
        },
        {
          "indexed": false,
          "internalType": "enum IDerifyDerivative.Side",
          "name": "side",
          "type": "uint8"
        },
        {
          "indexed": false,
          "internalType": "uint256",
          "name": "size",
          "type": "uint256"
        },
        {
          "indexed": false,
          "internalType": "uint256",
          "name": "price",
          "type": "uint256"
        },
        {
          "indexed": false,
          "internalType": "uint256",
          "name": "leverage",
          "type": "uint256"
        },
        {
          "indexed": false,
          "internalType": "uint256",
          "name": "tradingFee",
          "type": "uint256"
        },
        {
          "indexed": false,
          "internalType": "int256",
          "name": "positionChangeFee",
          "type": "int256"
        },
        {
          "indexed": false,
          "internalType": "uint256",
          "name": "timestamp",
          "type": "uint256"
        }
      ],
      "name": "Open",
      "type": "event"
    },
    {
      "anonymous": false,
      "inputs": [
        {
          "indexed": true,
          "internalType": "address",
          "name": "trader",
          "type": "address"
        },
        {
          "indexed": false,
          "internalType": "address",
          "name": "token",
          "type": "address"
        },
        {
          "indexed": false,
          "internalType": "enum IDerifyDerivative.Side",
          "name": "side",
          "type": "uint8"
        },
        {
          "indexed": false,
          "internalType": "uint256",
          "name": "size",
          "type": "uint256"
        },
        {
          "indexed": false,
          "internalType": "uint256",
          "name": "price",
          "type": "uint256"
        },
        {
          "indexed": false,
          "internalType": "uint256",
          "name": "leverage",
          "type": "uint256"
        },
        {
          "indexed": false,
          "internalType": "uint256",
          "name": "timestamp",
          "type": "uint256"
        }
      ],
      "name": "OpenLimit",
      "type": "event"
    },
    {
      "anonymous": false,
      "inputs": [
        {
          "indexed": true,
          "internalType": "address",
          "name": "trader",
          "type": "address"
        },
        {
          "indexed": false,
          "internalType": "address",
          "name": "token",
          "type": "address"
        },
        {
          "indexed": false,
          "internalType": "enum IDerifyDerivative.Side",
          "name": "side",
          "type": "uint8"
        },
        {
          "indexed": false,
          "internalType": "enum IDerifyDerivative.StopType",
          "name": "stopType",
          "type": "uint8"
        },
        {
          "indexed": false,
          "internalType": "uint256",
          "name": "stopPrice",
          "type": "uint256"
        },
        {
          "indexed": false,
          "internalType": "uint256",
          "name": "timestamp",
          "type": "uint256"
        }
      ],
      "name": "OpenStop",
      "type": "event"
    },
    {
      "anonymous": false,
      "inputs": [
        {
          "indexed": true,
          "internalType": "bytes32",
          "name": "role",
          "type": "bytes32"
        },
        {
          "indexed": true,
          "internalType": "bytes32",
          "name": "previousAdminRole",
          "type": "bytes32"
        },
        {
          "indexed": true,
          "internalType": "bytes32",
          "name": "newAdminRole",
          "type": "bytes32"
        }
      ],
      "name": "RoleAdminChanged",
      "type": "event"
    },
    {
      "anonymous": false,
      "inputs": [
        {
          "indexed": true,
          "internalType": "bytes32",
          "name": "role",
          "type": "bytes32"
        },
        {
          "indexed": true,
          "internalType": "address",
          "name": "account",
          "type": "address"
        },
        {
          "indexed": true,
          "internalType": "address",
          "name": "sender",
          "type": "address"
        }
      ],
      "name": "RoleGranted",
      "type": "event"
    },
    {
      "anonymous": false,
      "inputs": [
        {
          "indexed": true,
          "internalType": "bytes32",
          "name": "role",
          "type": "bytes32"
        },
        {
          "indexed": true,
          "internalType": "address",
          "name": "account",
          "type": "address"
        },
        {
          "indexed": true,
          "internalType": "address",
          "name": "sender",
          "type": "address"
        }
      ],
      "name": "RoleRevoked",
      "type": "event"
    },
    {
      "inputs": [],
      "name": "CALLER_ROLE",
      "outputs": [
        {
          "internalType": "bytes32",
          "name": "",
          "type": "bytes32"
        }
      ],
      "stateMutability": "view",
      "type": "function"
    },
    {
      "inputs": [],
      "name": "CONTRACT_DECIMAL",
      "outputs": [
        {
          "internalType": "uint256",
          "name": "",
          "type": "uint256"
        }
      ],
      "stateMutability": "view",
      "type": "function"
    },
    {
      "inputs": [],
      "name": "DEFAULT_ADMIN_ROLE",
      "outputs": [
        {
          "internalType": "bytes32",
          "name": "",
          "type": "bytes32"
        }
      ],
      "stateMutability": "view",
      "type": "function"
    },
    {
      "inputs": [],
      "name": "exchange",
      "outputs": [
        {
          "internalType": "address",
          "name": "",
          "type": "address"
        }
      ],
      "stateMutability": "view",
      "type": "function"
    },
    {
      "inputs": [],
      "name": "gRatio",
      "outputs": [
        {
          "internalType": "uint256",
          "name": "",
          "type": "uint256"
        }
      ],
      "stateMutability": "view",
      "type": "function"
    },
    {
      "inputs": [
        {
          "internalType": "bytes32",
          "name": "role",
          "type": "bytes32"
        }
      ],
      "name": "getRoleAdmin",
      "outputs": [
        {
          "internalType": "bytes32",
          "name": "",
          "type": "bytes32"
        }
      ],
      "stateMutability": "view",
      "type": "function"
    },
    {
      "inputs": [
        {
          "internalType": "bytes32",
          "name": "role",
          "type": "bytes32"
        },
        {
          "internalType": "uint256",
          "name": "index",
          "type": "uint256"
        }
      ],
      "name": "getRoleMember",
      "outputs": [
        {
          "internalType": "address",
          "name": "",
          "type": "address"
        }
      ],
      "stateMutability": "view",
      "type": "function"
    },
    {
      "inputs": [
        {
          "internalType": "bytes32",
          "name": "role",
          "type": "bytes32"
        }
      ],
      "name": "getRoleMemberCount",
      "outputs": [
        {
          "internalType": "uint256",
          "name": "",
          "type": "uint256"
        }
      ],
      "stateMutability": "view",
      "type": "function"
    },
    {
      "inputs": [
        {
          "internalType": "bytes32",
          "name": "role",
          "type": "bytes32"
        },
        {
          "internalType": "address",
          "name": "account",
          "type": "address"
        }
      ],
      "name": "grantRole",
      "outputs": [],
      "stateMutability": "nonpayable",
      "type": "function"
    },
    {
      "inputs": [
        {
          "internalType": "bytes32",
          "name": "role",
          "type": "bytes32"
        },
        {
          "internalType": "address",
          "name": "account",
          "type": "address"
        }
      ],
      "name": "hasRole",
      "outputs": [
        {
          "internalType": "bool",
          "name": "",
          "type": "bool"
        }
      ],
      "stateMutability": "view",
      "type": "function"
    },
    {
      "inputs": [],
      "name": "kRatio",
      "outputs": [
        {
          "internalType": "uint256",
          "name": "",
          "type": "uint256"
        }
      ],
      "stateMutability": "view",
      "type": "function"
    },
    {
      "inputs": [],
      "name": "longAveragePrice",
      "outputs": [
        {
          "internalType": "uint256",
          "name": "",
          "type": "uint256"
        }
      ],
      "stateMutability": "view",
      "type": "function"
    },
    {
      "inputs": [],
      "name": "longTotalSize",
      "outputs": [
        {
          "internalType": "uint256",
          "name": "",
          "type": "uint256"
        }
      ],
      "stateMutability": "view",
      "type": "function"
    },
    {
      "inputs": [],
      "name": "maxLeverage",
      "outputs": [
        {
          "internalType": "uint256",
          "name": "",
          "type": "uint256"
        }
      ],
      "stateMutability": "view",
      "type": "function"
    },
    {
      "inputs": [],
      "name": "maxLimitOrderSize",
      "outputs": [
        {
          "internalType": "uint256",
          "name": "",
          "type": "uint256"
        }
      ],
      "stateMutability": "view",
      "type": "function"
    },
    {
      "inputs": [
        {
          "internalType": "bytes32",
          "name": "role",
          "type": "bytes32"
        },
        {
          "internalType": "address",
          "name": "account",
          "type": "address"
        }
      ],
      "name": "renounceRole",
      "outputs": [],
      "stateMutability": "nonpayable",
      "type": "function"
    },
    {
      "inputs": [
        {
          "internalType": "bytes32",
          "name": "role",
          "type": "bytes32"
        },
        {
          "internalType": "address",
          "name": "account",
          "type": "address"
        }
      ],
      "name": "revokeRole",
      "outputs": [],
      "stateMutability": "nonpayable",
      "type": "function"
    },
    {
      "inputs": [],
      "name": "roRatio",
      "outputs": [
        {
          "internalType": "uint256",
          "name": "",
          "type": "uint256"
        }
      ],
      "stateMutability": "view",
      "type": "function"
    },
    {
      "inputs": [],
      "name": "shortAveragePrice",
      "outputs": [
        {
          "internalType": "uint256",
          "name": "",
          "type": "uint256"
        }
      ],
      "stateMutability": "view",
      "type": "function"
    },
    {
      "inputs": [],
      "name": "shortTotalSize",
      "outputs": [
        {
          "internalType": "uint256",
          "name": "",
          "type": "uint256"
        }
      ],
      "stateMutability": "view",
      "type": "function"
    },
    {
      "inputs": [
        {
          "internalType": "bytes4",
          "name": "interfaceId",
          "type": "bytes4"
        }
      ],
      "name": "supportsInterface",
      "outputs": [
        {
          "internalType": "bool",
          "name": "",
          "type": "bool"
        }
      ],
      "stateMutability": "view",
      "type": "function"
    },
    {
      "inputs": [],
      "name": "token",
      "outputs": [
        {
          "internalType": "address",
          "name": "",
          "type": "address"
        }
      ],
      "stateMutability": "view",
      "type": "function"
    },
    {
      "inputs": [],
      "name": "tradingFeeBrokerRatio",
      "outputs": [
        {
          "internalType": "uint256",
          "name": "",
          "type": "uint256"
        }
      ],
      "stateMutability": "view",
      "type": "function"
    },
    {
      "inputs": [],
      "name": "tradingFeeInusranceRatio",
      "outputs": [
        {
          "internalType": "uint256",
          "name": "",
          "type": "uint256"
        }
      ],
      "stateMutability": "view",
      "type": "function"
    },
    {
      "inputs": [],
      "name": "tradingFeePmrRatio",
      "outputs": [
        {
          "internalType": "uint256",
          "name": "",
          "type": "uint256"
        }
      ],
      "stateMutability": "view",
      "type": "function"
    },
    {
      "inputs": [],
      "name": "tradingFeeRatio",
      "outputs": [
        {
          "internalType": "uint256",
          "name": "",
          "type": "uint256"
        }
      ],
      "stateMutability": "view",
      "type": "function"
    },
    {
      "inputs": [
        {
          "internalType": "address",
          "name": "_exchange",
          "type": "address"
        },
        {
          "internalType": "address",
          "name": "_clearing",
          "type": "address"
        },
        {
          "internalType": "address",
          "name": "_aggregator",
          "type": "address"
        },
        {
          "internalType": "uint256",
          "name": "_tradingFeeRatio",
          "type": "uint256"
        },
        {
          "internalType": "uint256",
          "name": "_tradingFeePmrRatio",
          "type": "uint256"
        },
        {
          "internalType": "uint256",
          "name": "_tradingFeeInusranceRatio",
          "type": "uint256"
        },
        {
          "internalType": "uint256",
          "name": "_tradingFeeBrokerRatio",
          "type": "uint256"
        },
        {
          "internalType": "uint256",
          "name": "_kRatio",
          "type": "uint256"
        },
        {
          "internalType": "uint256",
          "name": "_gRatio",
          "type": "uint256"
        },
        {
          "internalType": "uint256",
          "name": "_roRatio",
          "type": "uint256"
        },
        {
          "internalType": "uint256",
          "name": "_maxLeverage",
          "type": "uint256"
        },
        {
          "internalType": "uint256",
          "name": "_maxLimitOrderSize",
          "type": "uint256"
        }
      ],
      "name": "initialize",
      "outputs": [],
      "stateMutability": "nonpayable",
      "type": "function"
    },
    {
      "inputs": [
        {
          "internalType": "enum IDerifyDerivative.TradeType",
          "name": "tradeType",
          "type": "uint8"
        },
        {
          "internalType": "address",
          "name": "trader",
          "type": "address"
        },
        {
          "internalType": "address",
          "name": "theBroker",
          "type": "address"
        },
        {
          "internalType": "enum IDerifyDerivative.Side",
          "name": "side",
          "type": "uint8"
        },
        {
          "internalType": "uint256",
          "name": "size",
          "type": "uint256"
        },
        {
          "internalType": "uint256",
          "name": "openPrice",
          "type": "uint256"
        },
        {
          "internalType": "uint256",
          "name": "leverage",
          "type": "uint256"
        }
      ],
      "name": "openMarketPricePosition",
      "outputs": [],
      "stateMutability": "nonpayable",
      "type": "function"
    },
    {
      "inputs": [
        {
          "internalType": "address",
          "name": "trader",
          "type": "address"
        },
        {
          "internalType": "enum IDerifyDerivative.Side",
          "name": "side",
          "type": "uint8"
        },
        {
          "internalType": "uint256",
          "name": "size",
          "type": "uint256"
        },
        {
          "internalType": "uint256",
          "name": "limitPrice",
          "type": "uint256"
        },
        {
          "internalType": "uint256",
          "name": "leverage",
          "type": "uint256"
        }
      ],
      "name": "orderLimitPricePosition",
      "outputs": [],
      "stateMutability": "nonpayable",
      "type": "function"
    },
    {
      "inputs": [
        {
          "internalType": "enum IDerifyDerivative.TradeType",
          "name": "tradeType",
          "type": "uint8"
        },
        {
          "internalType": "address",
          "name": "trader",
          "type": "address"
        },
        {
          "internalType": "address",
          "name": "theBroker",
          "type": "address"
        },
        {
          "internalType": "enum IDerifyDerivative.Side",
          "name": "side",
          "type": "uint8"
        },
        {
          "internalType": "uint256",
          "name": "size",
          "type": "uint256"
        }
      ],
      "name": "closePositionByTrader",
      "outputs": [],
      "stateMutability": "nonpayable",
      "type": "function"
    },
    {
      "inputs": [
        {
          "internalType": "address",
          "name": "trader",
          "type": "address"
        },
        {
          "internalType": "address",
          "name": "theBroker",
          "type": "address"
        },
        {
          "internalType": "enum IDerifyDerivative.Side",
          "name": "side",
          "type": "uint8"
        }
      ],
      "name": "closePositionByLiquidation",
      "outputs": [],
      "stateMutability": "nonpayable",
      "type": "function"
    },
    {
      "inputs": [
        {
          "internalType": "address",
          "name": "trader",
          "type": "address"
        },
        {
          "internalType": "address",
          "name": "theBroker",
          "type": "address"
        }
      ],
      "name": "closeDerivativePositions",
      "outputs": [],
      "stateMutability": "nonpayable",
      "type": "function"
    },
    {
      "inputs": [
        {
          "internalType": "address",
          "name": "trader",
          "type": "address"
        }
      ],
      "name": "cancelDerivativeOrderedPositions",
      "outputs": [],
      "stateMutability": "nonpayable",
      "type": "function"
    },
    {
      "inputs": [
        {
          "internalType": "address",
          "name": "trader",
          "type": "address"
        },
        {
          "internalType": "enum IDerifyDerivative.Side",
          "name": "side",
          "type": "uint8"
        },
        {
          "internalType": "uint256",
          "name": "index",
          "type": "uint256"
        },
        {
          "internalType": "uint256",
          "name": "size",
          "type": "uint256"
        },
        {
          "internalType": "uint256",
          "name": "price",
          "type": "uint256"
        },
        {
          "internalType": "uint256",
          "name": "leverage",
          "type": "uint256"
        },
        {
          "internalType": "uint256",
          "name": "limitTimestamp",
          "type": "uint256"
        }
      ],
      "name": "deleteOrderedLimitPositions",
      "outputs": [],
      "stateMutability": "nonpayable",
      "type": "function"
    },
    {
      "inputs": [
        {
          "internalType": "address",
          "name": "trader",
          "type": "address"
        }
      ],
      "name": "removeTrader",
      "outputs": [],
      "stateMutability": "nonpayable",
      "type": "function"
    },
    {
      "inputs": [
        {
          "internalType": "enum IDerifyDerivative.Side",
          "name": "side",
          "type": "uint8"
        },
        {
          "internalType": "enum IDerifyDerivative.StopType",
          "name": "stopType",
          "type": "uint8"
        },
        {
          "internalType": "uint256",
          "name": "takeProfitPrice",
          "type": "uint256"
        },
        {
          "internalType": "uint256",
          "name": "stopLossPrice",
          "type": "uint256"
        }
      ],
      "name": "orderStopPosition",
      "outputs": [],
      "stateMutability": "nonpayable",
      "type": "function"
    },
    {
      "inputs": [
        {
          "internalType": "enum IDerifyDerivative.Side",
          "name": "side",
          "type": "uint8"
        },
        {
          "internalType": "enum IDerifyDerivative.StopType",
          "name": "orderStopType",
          "type": "uint8"
        },
        {
          "internalType": "uint256",
          "name": "orderPrice",
          "type": "uint256"
        },
        {
          "internalType": "enum IDerifyDerivative.StopType",
          "name": "cancelStopType",
          "type": "uint8"
        }
      ],
      "name": "orderAndCancelStopPosition",
      "outputs": [],
      "stateMutability": "nonpayable",
      "type": "function"
    },
    {
      "inputs": [
        {
          "internalType": "enum IDerifyDerivative.StopType",
          "name": "stopType",
          "type": "uint8"
        },
        {
          "internalType": "enum IDerifyDerivative.Side",
          "name": "side",
          "type": "uint8"
        }
      ],
      "name": "cancelOrderedStopPosition",
      "outputs": [],
      "stateMutability": "nonpayable",
      "type": "function"
    },
    {
      "inputs": [
        {
          "internalType": "enum IDerifyDerivative.Side",
          "name": "side",
          "type": "uint8"
        },
        {
          "internalType": "uint256",
          "name": "timestamp",
          "type": "uint256"
        }
      ],
      "name": "cancelOrderedLimitPosition",
      "outputs": [],
      "stateMutability": "nonpayable",
      "type": "function"
    },
    {
      "inputs": [],
      "name": "getSpotPrice",
      "outputs": [
        {
          "internalType": "uint256",
          "name": "price",
          "type": "uint256"
        }
      ],
      "stateMutability": "view",
      "type": "function"
    },
    {
      "inputs": [],
      "name": "getAllTraders",
      "outputs": [
        {
          "internalType": "address[]",
          "name": "",
          "type": "address[]"
        }
      ],
      "stateMutability": "view",
      "type": "function"
    },
    {
      "inputs": [
        {
          "internalType": "address",
          "name": "trader",
          "type": "address"
        }
      ],
      "name": "getTraderDerivativePositions",
      "outputs": [
        {
          "components": [
            {
              "internalType": "bool",
              "name": "isUsed",
              "type": "bool"
            },
            {
              "components": [
                {
                  "internalType": "bool",
                  "name": "isUsed",
                  "type": "bool"
                },
                {
                  "internalType": "uint256",
                  "name": "size",
                  "type": "uint256"
                },
                {
                  "internalType": "uint256",
                  "name": "price",
                  "type": "uint256"
                },
                {
                  "internalType": "uint256",
                  "name": "leverage",
                  "type": "uint256"
                },
                {
                  "internalType": "uint256",
                  "name": "timestamp",
                  "type": "uint256"
                }
              ],
              "internalType": "struct IDerifyDerivative.Position",
              "name": "long",
              "type": "tuple"
            },
            {
              "components": [
                {
                  "internalType": "bool",
                  "name": "isUsed",
                  "type": "bool"
                },
                {
                  "internalType": "uint256",
                  "name": "size",
                  "type": "uint256"
                },
                {
                  "internalType": "uint256",
                  "name": "price",
                  "type": "uint256"
                },
                {
                  "internalType": "uint256",
                  "name": "leverage",
                  "type": "uint256"
                },
                {
                  "internalType": "uint256",
                  "name": "timestamp",
                  "type": "uint256"
                }
              ],
              "internalType": "struct IDerifyDerivative.Position",
              "name": "short",
              "type": "tuple"
            },
            {
              "components": [
                {
                  "internalType": "bool",
                  "name": "isUsed",
                  "type": "bool"
                },
                {
                  "internalType": "uint256",
                  "name": "size",
                  "type": "uint256"
                },
                {
                  "internalType": "uint256",
                  "name": "price",
                  "type": "uint256"
                },
                {
                  "internalType": "uint256",
                  "name": "leverage",
                  "type": "uint256"
                },
                {
                  "internalType": "uint256",
                  "name": "timestamp",
                  "type": "uint256"
                }
              ],
              "internalType": "struct IDerifyDerivative.Position[]",
              "name": "longOrderOpenPosition",
              "type": "tuple[]"
            },
            {
              "components": [
                {
                  "internalType": "bool",
                  "name": "isUsed",
                  "type": "bool"
                },
                {
                  "internalType": "uint256",
                  "name": "size",
                  "type": "uint256"
                },
                {
                  "internalType": "uint256",
                  "name": "price",
                  "type": "uint256"
                },
                {
                  "internalType": "uint256",
                  "name": "leverage",
                  "type": "uint256"
                },
                {
                  "internalType": "uint256",
                  "name": "timestamp",
                  "type": "uint256"
                }
              ],
              "internalType": "struct IDerifyDerivative.Position[]",
              "name": "shortOrderOpenPosition",
              "type": "tuple[]"
            },
            {
              "components": [
                {
                  "internalType": "bool",
                  "name": "isUsed",
                  "type": "bool"
                },
                {
                  "internalType": "uint256",
                  "name": "stopPrice",
                  "type": "uint256"
                },
                {
                  "internalType": "uint256",
                  "name": "timestamp",
                  "type": "uint256"
                }
              ],
              "internalType": "struct IDerifyDerivative.StopPosition",
              "name": "longOrderStopProfitPosition",
              "type": "tuple"
            },
            {
              "components": [
                {
                  "internalType": "bool",
                  "name": "isUsed",
                  "type": "bool"
                },
                {
                  "internalType": "uint256",
                  "name": "stopPrice",
                  "type": "uint256"
                },
                {
                  "internalType": "uint256",
                  "name": "timestamp",
                  "type": "uint256"
                }
              ],
              "internalType": "struct IDerifyDerivative.StopPosition",
              "name": "longOrderStopLossPosition",
              "type": "tuple"
            },
            {
              "components": [
                {
                  "internalType": "bool",
                  "name": "isUsed",
                  "type": "bool"
                },
                {
                  "internalType": "uint256",
                  "name": "stopPrice",
                  "type": "uint256"
                },
                {
                  "internalType": "uint256",
                  "name": "timestamp",
                  "type": "uint256"
                }
              ],
              "internalType": "struct IDerifyDerivative.StopPosition",
              "name": "shortOrderStopProfitPosition",
              "type": "tuple"
            },
            {
              "components": [
                {
                  "internalType": "bool",
                  "name": "isUsed",
                  "type": "bool"
                },
                {
                  "internalType": "uint256",
                  "name": "stopPrice",
                  "type": "uint256"
                },
                {
                  "internalType": "uint256",
                  "name": "timestamp",
                  "type": "uint256"
                }
              ],
              "internalType": "struct IDerifyDerivative.StopPosition",
              "name": "shortOrderStopLossPosition",
              "type": "tuple"
            }
          ],
          "internalType": "struct IDerifyDerivative.DerivativePositions",
          "name": "",
          "type": "tuple"
        }
      ],
      "stateMutability": "view",
      "type": "function"
    },
    {
      "inputs": [],
      "name": "getPositionChangeFeeRatio",
      "outputs": [
        {
          "internalType": "int256",
          "name": "ratio",
          "type": "int256"
        }
      ],
      "stateMutability": "view",
      "type": "function"
    },
    {
      "inputs": [
        {
          "internalType": "int256",
          "name": "nakedPositionDiff",
          "type": "int256"
        },
        {
          "internalType": "int256",
          "name": "ratioSum",
          "type": "int256"
        }
      ],
      "name": "getPositionChangeFee",
      "outputs": [
        {
          "internalType": "int256",
          "name": "positionChangeFee",
          "type": "int256"
        }
      ],
      "stateMutability": "view",
      "type": "function"
    },
    {
      "inputs": [],
      "name": "getTokenTotalUnrealizedPnl",
      "outputs": [
        {
          "internalType": "int256",
          "name": "tokenTotalUnrealizedPnl",
          "type": "int256"
        }
      ],
      "stateMutability": "view",
      "type": "function"
    },
    {
      "inputs": [],
      "name": "getSideTotalAmount",
      "outputs": [
        {
          "internalType": "uint256",
          "name": "longTotalAmount",
          "type": "uint256"
        },
        {
          "internalType": "uint256",
          "name": "shortTotalAmount",
          "type": "uint256"
        }
      ],
      "stateMutability": "view",
      "type": "function"
    }
  ],
  "bytecode": "0x60806040523480156200001157600080fd5b506040516200520b3803806200520b833981016040819052620000349162000243565b600380546001600160a01b0319166001600160a01b038316179055620000d760006200005d3390565b6001600160a01b0316638da5cb5b6040518163ffffffff1660e01b815260040160206040518083038186803b1580156200009657600080fd5b505afa158015620000ab573d6000803e3d6000fd5b505050506040513d601f19601f82011682018060405250810190620000d1919062000243565b620000de565b5062000273565b620000ea8282620000ee565b5050565b6200010582826200013160201b62002e521760201c565b60008281526001602090815260409091206200012c91839062002ed6620001d1821b17901c565b505050565b6000828152602081815260408083206001600160a01b038516845290915290205460ff16620000ea576000828152602081815260408083206001600160a01b03851684529091529020805460ff191660011790556200018d3390565b6001600160a01b0316816001600160a01b0316837f2f8788117e7eff1d82e926ec794901d17c78024a50270940304540a733656f0d60405160405180910390a45050565b6000620001e8836001600160a01b038416620001f1565b90505b92915050565b60008181526001830160205260408120546200023a57508154600181810184556000848152602080822090930184905584548482528286019093526040902091909155620001eb565b506000620001eb565b60006020828403121562000255578081fd5b81516001600160a01b03811681146200026c578182fd5b9392505050565b614f8880620002836000396000f3fe608060405234801561001057600080fd5b506004361061028a5760003560e01c80639010d07c1161015c578063cfc0afee116100ce578063dc76fabc11610087578063dc76fabc14610562578063dc9d35a61461056a578063dcfc600714610573578063e4a71a9f1461057c578063ee28b1141461058f578063fc0c546a1461059857600080fd5b8063cfc0afee14610504578063d257d8921461050d578063d2f6bc9314610520578063d2f7265a14610533578063d547741f14610546578063db76aff61461055957600080fd5b8063acfa07a411610120578063acfa07a4146104b0578063ae3302c2146104c3578063b8c1b9a6146104cc578063ca15c873146104d5578063cac21359146104e8578063cfaf63d7146104fb57600080fd5b80639010d07c1461044257806391d148541461046d5780639fa45d5614610480578063a217fddf14610495578063a956a0e71461049d57600080fd5b80632a8eab92116102005780634eaeb4fc116101b95780634eaeb4fc146103ce5780636676bd12146103e1578063774237fc146103f45780637e710ada146104095780637ff3f8ad14610412578063815080351461042f57600080fd5b80632a8eab921461036e5780632f2ff15d1461038157806333d7281414610394578063353a813a1461039f57806336568abe146103a857806345a65aaa146103bb57600080fd5b8063131c941c11610252578063131c941c146103095780631a33193d1461031157806323eab1d71461031a578063248a9ca3146103235780632766ef86146103465780632a7fe8b31461036657600080fd5b806301ffc9a71461028f57806304b0e349146102b75780630708710f146102cc5780630a1f194f146102df57806310d5c412146102f2575b600080fd5b6102a261029d366004614562565b6105ab565b60405190151581526020015b60405180910390f35b6102ca6102c53660046144a8565b6105d6565b005b6102ca6102da36600461434c565b610905565b6102ca6102ed366004614332565b610c86565b6102fb600e5481565b6040519081526020016102ae565b6102fb610da2565b6102fb600a5481565b6102fb600c5481565b6102fb610331366004614507565b60009081526020819052604090206001015490565b610359610354366004614332565b610e15565b6040516102ae9190614b21565b6102fb6110a9565b6102ca61037c3660046146e1565b6110b8565b6102ca61038f36600461451f565b6115e8565b6102fb6305f5e10081565b6102fb60085481565b6102ca6103b636600461451f565b61160d565b6102ca6103c9366004614684565b61168b565b6102ca6103dc36600461458a565b6116b8565b6102ca6103ef366004614332565b611a85565b6102fb600080516020614ef383398151915281565b6102fb600f5481565b61041a611ba0565b604080519283526020830191909152016102ae565b6102ca61043d366004614414565b611bb4565b610455610450366004614541565b611ca2565b6040516001600160a01b0390911681526020016102ae565b6102a261047b36600461451f565b611cc1565b610488611cea565b6040516102ae9190614a47565b6102fb600081565b6102ca6104ab366004614621565b611cf6565b6102ca6104be36600461437e565b6123fe565b6102fb600b5481565b6102fb60045481565b6102fb6104e3366004614507565b612494565b6102ca6104f636600461464c565b6124ab565b6102fb600d5481565b6102fb60065481565b6102ca61051b3660046145dc565b61274b565b6102ca61052e36600461445a565b612b3a565b600254610455906001600160a01b031681565b6102ca61055436600461451f565b612e17565b6102fb60075481565b6102fb612e3c565b6102fb60055481565b6102fb60095481565b6102fb61058a366004614541565b612e46565b6102fb60105481565b600354610455906001600160a01b031681565b60006001600160e01b03198216635a05180f60e01b14806105d057506105d082612eeb565b92915050565b600080516020614ef38339815191526105ee81612f20565b6001600160a01b0388166000908152601260205260409020600b01600188600281111561062b57634e487b7160e01b600052602160045260246000fd5b141561064e57506001600160a01b0388166000908152601260205260409020600c015b805460005b818110156108a3578683828154811061067c57634e487b7160e01b600052603260045260246000fd5b9060005260206000209060050201600201541480156106cb5750848382815481106106b757634e487b7160e01b600052603260045260246000fd5b906000526020600020906005020160040154145b80156107075750858382815481106106f357634e487b7160e01b600052603260045260246000fd5b906000526020600020906005020160030154145b15610891578783828154811061072d57634e487b7160e01b600052603260045260246000fd5b90600052602060002090600502016001015414156108455782610751600184614e04565b8154811061076f57634e487b7160e01b600052603260045260246000fd5b906000526020600020906005020183828154811061079d57634e487b7160e01b600052603260045260246000fd5b600091825260209091208254600590920201805460ff191660ff9092161515919091178155600180830154908201556002808301549082015560038083015490820155600491820154910155825483908061080857634e487b7160e01b600052603160045260246000fd5b600082815260208120600560001990930192830201805460ff191681556001810182905560028101829055600381018290556004015590556108a3565b8783828154811061086657634e487b7160e01b600052603260045260246000fd5b906000526020600020906005020160010160008282546108869190614e04565b909155506108a39050565b8061089b81614e5e565b915050610653565b506003546040516001600160a01b038c8116927faac377db72f02d9db7ce3ebc6fb0545dcefe5e3465daea7a947353e67873efff926108f192909116908d908c908c908c908c9042906149a0565b60405180910390a250505050505050505050565b600080516020614ef383398151915261091d81612f20565b6001600160a01b0383166000908152601260205260409020600201541580159061096157506001600160a01b03831660009081526012602052604090206007015415155b15610a49576001600160a01b03831660009081526012602052604090206007810154600290910154106109ee576001600160a01b0383166000908152601260205260408120600701546109ba9160089186918691612f2d565b6001600160a01b0383166000908152601260205260409020600701546109e99060089085908590600190612f2d565b610a49565b6001600160a01b038316600090815260126020526040902060020154610a1d9060089085908590600190612f2d565b6001600160a01b038316600090815260126020526040812060020154610a499160089186918691612f2d565b6001600160a01b03831660009081526012602052604090206002015415610b63576002546003546040516325c9cca160e11b81526000926001600160a01b0390811692634b93994292610aa69290911690889086906004016148b2565b60206040518083038186803b158015610abe57600080fd5b505afa158015610ad2573d6000803e3d6000fd5b505050506040513d601f19601f82011682018060405250810190610af69190614751565b90508015610b61576001600160a01b038416600090815260126020526040902060020154811015610b3557610b3060098585600085612f2d565b610b61565b6001600160a01b038416600090815260126020526040812060020154610b619160099187918791612f2d565b505b6001600160a01b03831660009081526012602052604090206007015415610c81576002546003546040516325c9cca160e11b81526000926001600160a01b0390811692634b93994292610bc1929091169088906001906004016148b2565b60206040518083038186803b158015610bd957600080fd5b505afa158015610bed573d6000803e3d6000fd5b505050506040513d601f19601f82011682018060405250810190610c119190614751565b90508015610c7f576001600160a01b038416600090815260126020526040902060070154811015610c5057610c4b60098585600185612f2d565b610c7f565b6001600160a01b038416600090815260126020526040902060070154610c7f9060099086908690600190612f2d565b505b505050565b600080516020614ef3833981519152610c9e81612f20565b610ca96013836130b0565b506001600160a01b0382166000908152601260205260408120805460ff19908116825560018201805482169055600282018390556003820183905560048201839055600582018390556006820180549091169055600781018290556008810182905560098101829055600a810182905590610d27600b830182614179565b610d35600c83016000614179565b50600d8101805460ff199081169091556000600e8301819055600f8301819055601083018054831690556011830181905560128301819055601383018054831690556014830181905560158301819055601683018054909216909155601782018190556018909101555050565b600080610dad6130c5565b90506305f5e100600f5482610dc29190614dc5565b600d54610dcf9190614d23565b610dd99190614ce1565b91506305f5e10081601054610dee9190614dc5565b600e54610dfb9190614d23565b610e059190614ce1565b610e0f9083614c88565b91505090565b610e1d61419a565b6001600160a01b0382166000908152601260209081526040808320815161012081018352815460ff90811615158252835160a080820186526001850154831615158252600285015482880152600385015482870152600485015460608084019190915260058601546080808501919091528589019390935286519182018752600686015490931615158152600785015481880152600885015481870152600985015481840152600a8501549181019190915282850152600b8301805485518188028101880190965280865292969395918701949390929184015b82821015610f5a5760008481526020908190206040805160a08101825260058602909201805460ff161515835260018082015484860152600282015492840192909252600381015460608401526004015460808301529083529092019101610ef7565b505050508152602001600c8201805480602002602001604051908101604052809291908181526020016000905b82821015610fea5760008481526020908190206040805160a08101825260058602909201805460ff161515835260018082015484860152600282015492840192909252600381015460608401526004015460808301529083529092019101610f87565b505050908252506040805160608082018352600d85015460ff90811615158352600e860154602084810191909152600f870154848601528086019390935283518083018552601087015482161515815260118701548185015260128701548186015284860152835180830185526013870154821615158152601487015481850152601587015481860152828601528351918201845260168601541615158152601785015491810191909152601890930154908301526080015292915050565b60006110b3613163565b905090565b600080516020614ef38339815191526110d081612f20565b600b548211156111275760405162461bcd60e51b815260206004820152601c60248201527f44445f4f4d50503a204d41585f4c455645524147455f4558434545440000000060448201526064015b60405180910390fd5b611132601388613225565b15801561115857506001600160a01b03871660009081526012602052604090205460ff16155b1561118d57611168601388612ed6565b506001600160a01b0387166000908152601260205260409020805460ff191660011790555b600061119f61119a613163565b613247565b905060006111b6600e54600d5461119a9190614dc5565b905060008760028111156111da57634e487b7160e01b600052602160045260246000fd5b141561134e576001600160a01b03891660009081526012602052604090206001015460ff166112a5576040518060a0016040528060011515815260200187815260200186815260200185815260200142815250601260008b6001600160a01b03166001600160a01b0316815260200190815260200160002060010160008201518160000160006101000a81548160ff02191690831515021790555060208201518160010155604082015181600201556060820151816003015560808201518160040155905050611303565b6001600160a01b038916600090815260126020526040902060038101546002909101546112d4919087896132ad565b6001600160a01b038b166000908152601260205260409020600281019190915560038101919091556004018490555b611313600f54600d5487896132ad565b600d819055600f829055604051600080516020614f1383398151915292611341926000929091904290614ac5565b60405180910390a16114b8565b6001600160a01b03891660009081526012602052604090206006015460ff16611413576040518060a0016040528060011515815260200187815260200186815260200185815260200142815250601260008b6001600160a01b03166001600160a01b0316815260200190815260200160002060060160008201518160000160006101000a81548160ff02191690831515021790555060208201518160010155604082015181600201556060820151816003015560808201518160040155905050611471565b6001600160a01b03891660009081526012602052604090206008810154600790910154611442919087896132ad565b6001600160a01b038b166000908152601260205260409020600781019190915560088101919091556009018490555b611481601054600e5487896132ad565b600e8190556010829055604051600080516020614f13833981519152926114af926001929091904290614ac5565b60405180910390a15b60006305f5e10080600454888a6114cf9190614da6565b6114d99190614da6565b6114e39190614d0f565b6114ed9190614d0f565b90506114fa818b8b613334565b600060018c600981111561151e57634e487b7160e01b600052602160045260246000fd5b1461157457600061153061119a613163565b90506000611547600e54600d5461119a9190614dc5565b90506115656115568683614dc5565b6115608489614c88565b6133c4565b9250611571838e61342f565b50505b8a6001600160a01b03167f4358df8c90caca404267536994dff90451dc1b422a3de4d798977695ff458156600360009054906101000a90046001600160a01b03168e8c8c8c8c8989426040516115d2999897969594939291906149e9565b60405180910390a2505050505050505050505050565b60008281526020819052604090206001015461160381612f20565b610c81838361349b565b6001600160a01b038116331461167d5760405162461bcd60e51b815260206004820152602f60248201527f416363657373436f6e74726f6c3a2063616e206f6e6c792072656e6f756e636560448201526e103937b632b9903337b91039b2b63360891b606482015260840161111e565b61168782826134bd565b5050565b600080516020614ef38339815191526116a381612f20565b6116b08686868686612f2d565b505050505050565b3360008560028111156116db57634e487b7160e01b600052602160045260246000fd5b141561186a57600084600281111561170357634e487b7160e01b600052602160045260246000fd5b14801561172f5750600182600281111561172d57634e487b7160e01b600052602160045260246000fd5b145b156117a35760408051606081018252600181526020808201868152428385019081526001600160a01b03861660009081526012938490529485209351600d8501805491151560ff199283161790559151600e85015551600f84015560108301805490911690556011820183905501556119f0565b60018460028111156117c557634e487b7160e01b600052602160045260246000fd5b1480156117f1575060008260028111156117ef57634e487b7160e01b600052602160045260246000fd5b145b156118655760408051606081018252600181526020808201868152428385019081526001600160a01b0386166000908152601293849052948520935160108501805491151560ff19928316179055915160118501555191830191909155600d820180549091169055600e8101829055600f01555b6119f0565b600084600281111561188c57634e487b7160e01b600052602160045260246000fd5b1480156118b8575060018260028111156118b657634e487b7160e01b600052602160045260246000fd5b145b1561192f5760408051606081018252600181526020808201868152428385019081526001600160a01b03861660009081526012909352938220925160138401805491151560ff19928316179055905160148401559251601583015560168201805490931690925560178101829055601801556119f0565b600184600281111561195157634e487b7160e01b600052602160045260246000fd5b14801561197d5750600082600281111561197b57634e487b7160e01b600052602160045260246000fd5b145b156119f05760408051606081018252600181526020808201868152428385019081526001600160a01b03861660009081526012909352938220925160168401805491151560ff19928316179055905160178401559251601883015560138201805490931690925560148101829055601501555b6003546040516001600160a01b03838116927f10f9dee33e0d5b2ff70477dd857ee96582aef2173749c4384c1e7ff7a44ebe6b92611a399290911690899089908990429061491b565b60405180910390a26003546040516001600160a01b0383811692600080516020614f3383398151915292611a7692909116908990879042906148e1565b60405180910390a25050505050565b600080516020614ef3833981519152611a9d81612f20565b6001600160a01b03821660009081526012602081905260408220600d8101805460ff19908116909155600e8201849055600f820184905560108201805482169055601182018490559181018390556013810180548316905560148101839055601581018390556016810180549092169091556017810182905560188101829055611b2c91600b90910190614179565b6001600160a01b0382166000908152601260205260408120611b5391600c90910190614179565b600354604080516001600160a01b039283168152426020820152918416917f62bc0dc58f695cb9794ca48c572c50a028e5b2c53b7fad9faff91da4a5e4d1a8910160405180910390a25050565b600080611bab6134df565b90939092509050565b600080516020614ef3833981519152611bcc81612f20565b600080836002811115611bef57634e487b7160e01b600052602160045260246000fd5b1415611c40576001600160a01b03851660009081526012602052604090206001015460ff16611c1e5750610c7f565b506001600160a01b038416600090815260126020526040902060020154611c87565b6001600160a01b03851660009081526012602052604090206006015460ff16611c695750610c7f565b506001600160a01b0384166000908152601260205260409020600701545b6000611c916130c5565b90506116b060068787878686613531565b6000828152600160205260408120611cba9083613ad6565b9392505050565b6000918252602082815260408084206001600160a01b0393909316845291905290205460ff1690565b60606110b36013613ae2565b336000836002811115611d1957634e487b7160e01b600052602160045260246000fd5b14156120ab5760005b6001600160a01b0382166000908152601260205260409020600b0154811015610c7f576001600160a01b0382166000908152601260205260409020600b01805484919083908110611d8357634e487b7160e01b600052603260045260246000fd5b9060005260206000209060050201600401541415612099576003546001600160a01b038084166000818152601260205260408120600b01805492947faac377db72f02d9db7ce3ebc6fb0545dcefe5e3465daea7a947353e67873efff94169286908110611e0057634e487b7160e01b600052603260045260246000fd5b90600052602060002090600502016001015460126000886001600160a01b03166001600160a01b03168152602001908152602001600020600b018681548110611e5957634e487b7160e01b600052603260045260246000fd5b90600052602060002090600502016002015460126000896001600160a01b03166001600160a01b03168152602001908152602001600020600b018781548110611eb257634e487b7160e01b600052603260045260246000fd5b906000526020600020906005020160030154601260008a6001600160a01b03166001600160a01b03168152602001908152602001600020600b018881548110611f0b57634e487b7160e01b600052603260045260246000fd5b90600052602060002090600502016004015442604051611f3197969594939291906149a0565b60405180910390a26001600160a01b0382166000908152601260205260409020600b018054611f6290600190614e04565b81548110611f8057634e487b7160e01b600052603260045260246000fd5b906000526020600020906005020160126000846001600160a01b03166001600160a01b03168152602001908152602001600020600b018281548110611fd557634e487b7160e01b600052603260045260246000fd5b60009182526020808320845460059390930201805460ff191660ff909316151592909217825560018085015490830155600280850154908301556003808501549083015560049384015493909101929092556001600160a01b0384168152601290915260409020600b0180548061205c57634e487b7160e01b600052603160045260246000fd5b600082815260208120600560001990930192830201805460ff19168155600181018290556002810182905560038101829055600401559055610c7f565b806120a381614e5e565b915050611d22565b60005b6001600160a01b0382166000908152601260205260409020600c0154811015610c7f576001600160a01b0382166000908152601260205260409020600c0180548491908390811061210f57634e487b7160e01b600052603260045260246000fd5b90600052602060002090600502016004015414156123ec576003546001600160a01b038084166000818152601260205260409020600c01805491937faac377db72f02d9db7ce3ebc6fb0545dcefe5e3465daea7a947353e67873efff931691600191908690811061219057634e487b7160e01b600052603260045260246000fd5b90600052602060002090600502016001015460126000886001600160a01b03166001600160a01b03168152602001908152602001600020600c0186815481106121e957634e487b7160e01b600052603260045260246000fd5b90600052602060002090600502016002015460126000896001600160a01b03166001600160a01b03168152602001908152602001600020600c01878154811061224257634e487b7160e01b600052603260045260246000fd5b906000526020600020906005020160030154601260008a6001600160a01b03166001600160a01b03168152602001908152602001600020600c01888154811061229b57634e487b7160e01b600052603260045260246000fd5b906000526020600020906005020160040154426040516122c197969594939291906149a0565b60405180910390a26001600160a01b0382166000908152601260205260409020600c0180546122f290600190614e04565b8154811061231057634e487b7160e01b600052603260045260246000fd5b906000526020600020906005020160126000846001600160a01b03166001600160a01b03168152602001908152602001600020600c01828154811061236557634e487b7160e01b600052603260045260246000fd5b60009182526020808320845460059390930201805460ff191660ff909316151592909217825560018085015490830155600280850154908301556003808501549083015560049384015493909101929092556001600160a01b0384168152601290915260409020600c0180548061205c57634e487b7160e01b600052603160045260246000fd5b806123f681614e5e565b9150506120ae565b600061240981612f20565b612421600080516020614ef38339815191528e613aef565b612439600080516020614ef38339815191528d613aef565b50600280546001600160a01b039d8e166001600160a01b031991821617909155601180549b909d169a1699909917909a55600496909655600594909455600692909255600755600855600955600a55600b9290925550600c55565b60008181526001602052604081206105d090613af9565b3360008260028111156124ce57634e487b7160e01b600052602160045260246000fd5b14156125dd5760008360028111156124f657634e487b7160e01b600052602160045260246000fd5b14806125215750600283600281111561251f57634e487b7160e01b600052602160045260246000fd5b145b15612556576001600160a01b0381166000908152601260205260408120600d8101805460ff19169055600e8101829055600f01555b600183600281111561257857634e487b7160e01b600052602160045260246000fd5b14806125a3575060028360028111156125a157634e487b7160e01b600052602160045260246000fd5b145b156125d8576001600160a01b0381166000908152601260208190526040822060108101805460ff191690556011810183905501555b612709565b60018260028111156125ff57634e487b7160e01b600052602160045260246000fd5b141561270957600083600281111561262757634e487b7160e01b600052602160045260246000fd5b14806126525750600283600281111561265057634e487b7160e01b600052602160045260246000fd5b145b15612687576001600160a01b038116600090815260126020526040812060138101805460ff1916905560148101829055601501555b60018360028111156126a957634e487b7160e01b600052602160045260246000fd5b14806126d4575060028360028111156126d257634e487b7160e01b600052602160045260246000fd5b145b15612709576001600160a01b038116600090815260126020526040812060168101805460ff1916905560178101829055601801555b6003546040516001600160a01b0383811692600080516020614f338339815191529261273e92909116908690889042906148e1565b60405180910390a2505050565b33600084600281111561276e57634e487b7160e01b600052602160045260246000fd5b14806127995750600284600281111561279757634e487b7160e01b600052602160045260246000fd5b145b156129455760008560028111156127c057634e487b7160e01b600052602160045260246000fd5b1480156127e857506001600160a01b03811660009081526012602052604090206001015460ff165b1561284a5760408051606081018252600181526020808201868152428385019081526001600160a01b03861660009081526012909352939091209151600d8301805460ff191691151591909117905551600e8201559051600f909101556128f2565b600185600281111561286c57634e487b7160e01b600052602160045260246000fd5b14801561289457506001600160a01b03811660009081526012602052604090206006015460ff165b156128f25760408051606081018252600181526020808201868152428385019081526001600160a01b0386166000908152601290935293909120915160138301805460ff191691151591909117905551601482015590516015909101555b6003546040516001600160a01b03838116927f10f9dee33e0d5b2ff70477dd857ee96582aef2173749c4384c1e7ff7a44ebe6b9261293c929091169089906000908990429061491b565b60405180910390a25b600184600281111561296757634e487b7160e01b600052602160045260246000fd5b14806129925750600284600281111561299057634e487b7160e01b600052602160045260246000fd5b145b15612b335760008560028111156129b957634e487b7160e01b600052602160045260246000fd5b1480156129e157506001600160a01b03811660009081526012602052604090206001015460ff165b15612a415760408051606081018252600181526020808201858152428385019081526001600160a01b038616600090815260129384905294909420925160108401805460ff19169115159190911790555160118301559151910155612ae9565b6001856002811115612a6357634e487b7160e01b600052602160045260246000fd5b148015612a8b57506001600160a01b03811660009081526012602052604090206006015460ff165b15612ae95760408051606081018252600181526020808201858152428385019081526001600160a01b0386166000908152601290935293909120915160168301805460ff191691151591909117905551601782015590516018909101555b6003546040516001600160a01b03838116927f10f9dee33e0d5b2ff70477dd857ee96582aef2173749c4384c1e7ff7a44ebe6b92611a76929091169089906001908890429061491b565b5050505050565b600080516020614ef3833981519152612b5281612f20565b600b54821115612ba45760405162461bcd60e51b815260206004820152601c60248201527f44445f4f4c50503a204d41585f4c455645524147455f45584345454400000000604482015260640161111e565b612baf601387613225565b158015612bd557506001600160a01b03861660009081526012602052604090205460ff16155b15612c0a57612be5601387612ed6565b506001600160a01b0386166000908152601260205260409020805460ff191660011790555b6001600160a01b0386166000908152601260205260408120600c810154600b90910154612c379190614cc9565b9050600c548110612c8a5760405162461bcd60e51b815260206004820152601760248201527f44445f4f4c50503a204d41585f4c4f535f455843454544000000000000000000604482015260640161111e565b6040805160a0810182526001815260208101879052908101859052606081018490524260808201526000876002811115612cd457634e487b7160e01b600052602160045260246000fd5b1415612d4c576001600160a01b0388166000908152601260209081526040808320600b01805460018082018355918552938390208551600590950201805460ff191694151594909417845591840151918301919091558201516002820155606082015160038201556080820151600490910155612dba565b6001600160a01b0388166000908152601260209081526040808320600c01805460018082018355918552938390208551600590950201805460ff1916941515949094178455918401519183019190915582015160028201556060820151600382015560808201516004909101555b6003546040516001600160a01b038a8116927fe8a343d4164e0a3ca028f41a5245900885d1c4a440df4facd9141a63e3f17c9592612e0592909116908b908b908b908b90429061495f565b60405180910390a25050505050505050565b600082815260208190526040902060010154612e3281612f20565b610c8183836134bd565b60006110b36130c5565b6000611cba83836133c4565b612e5c8282611cc1565b611687576000828152602081815260408083206001600160a01b03851684529091529020805460ff19166001179055612e923390565b6001600160a01b0316816001600160a01b0316837f2f8788117e7eff1d82e926ec794901d17c78024a50270940304540a733656f0d60405160405180910390a45050565b6000611cba836001600160a01b038416613b03565b60006001600160e01b03198216637965db0b60e01b14806105d057506301ffc9a760e01b6001600160e01b03198316146105d0565b612f2a8133613b52565b50565b60008111612f725760405162461bcd60e51b815260206004820152601260248201527144443a20435042545f53495a455f5a45524f60701b604482015260640161111e565b6000612f7c6130c5565b90506003866009811115612fa057634e487b7160e01b600052602160045260246000fd5b1415613012576000836002811115612fc857634e487b7160e01b600052602160045260246000fd5b1415612ff057506001600160a01b0384166000908152601260205260409020600e01546130a2565b506001600160a01b0384166000908152601260205260409020601401546130a2565b600486600981111561303457634e487b7160e01b600052602160045260246000fd5b14156130a257600083600281111561305c57634e487b7160e01b600052602160045260246000fd5b141561308457506001600160a01b0384166000908152601260205260409020601101546130a2565b506001600160a01b0384166000908152601260205260409020601701545b6116b0868686868686613531565b6000611cba836001600160a01b038416613bb6565b600080600080600080601160009054906101000a90046001600160a01b03166001600160a01b031663feaf968c6040518163ffffffff1660e01b815260040160a06040518083038186803b15801561311c57600080fd5b505afa158015613130573d6000803e3d6000fd5b505050506040513d601f19601f820116820180604052508101906131549190614769565b50919998505050505050505050565b600080600260009054906101000a90046001600160a01b03166001600160a01b031663665a11ca6040518163ffffffff1660e01b815260040160206040518083038186803b1580156131b457600080fd5b505afa1580156131c8573d6000803e3d6000fd5b505050506040513d601f19601f820116820180604052508101906131ec9190614751565b90506000806131f96134df565b9092509050600061320a8284614dc5565b905061321c8185600854600954613cd3565b94505050505090565b6001600160a01b03811660009081526001830160205260408120541515611cba565b6000600160ff1b8214156132925760405162461bcd60e51b81526020600482015260126024820152714d6174683a20616273206f766572666c6f7760701b604482015260640161111e565b60008212156132a9576132a482614e79565b6105d0565b5090565b600080806132bb8486614da6565b6132c58789614da6565b6132cf9190614cc9565b90506132db8487614cc9565b91508161331e5760405162461bcd60e51b81526020600482015260116024820152704444463a20434d505f4449565f5a45524f60781b604482015260640161111e565b6133288282614d0f565b92505094509492505050565b600254600554600654600754604051637044a1fb60e11b8152600481018890526001600160a01b03878116602483015286811660448301526064820194909452608481019290925260a482015291169063e08943f69060c401600060405180830381600087803b1580156133a757600080fd5b505af11580156133bb573d6000803e3d6000fd5b50505050505050565b6000806133cf6130c5565b90506000600a5460026133e186613247565b6133eb9190614ce1565b6133f59190614c88565b90506305f5e10081816134088589614d23565b6134129190614ce1565b61341c9190614d23565b6134269190614ce1565b95945050505050565b6002546001600160a01b031663a84d54ce60018361344f86600019614d23565b6040518463ffffffff1660e01b815260040161346d93929190614a94565b600060405180830381600087803b15801561348757600080fd5b505af11580156116b0573d6000803e3d6000fd5b6134a58282612e52565b6000828152600160205260409020610c819082612ed6565b6134c78282613d5c565b6000828152600160205260409020610c8190826130b0565b60008060006134ec6130c5565b90506305f5e10081600d546135019190614da6565b61350b9190614d0f565b92506305f5e10081600e546135209190614da6565b61352a9190614d0f565b9150509091565b600061353f84878585613dc1565b905061354b8187613e8c565b600061355861119a613163565b9050600061356f600e54600d5461119a9190614dc5565b9050600086600281111561359357634e487b7160e01b600052602160045260246000fd5b14156137b857600f54600d546001600160a01b038a166000908152601260205260409020600301546135c792919088613ec0565b600d819055600f829055604051600080516020614f13833981519152926135f5926000929091904290614ac5565b60405180910390a16001600160a01b038816600090815260126020526040902060020154851415613765576001600160a01b038816600090815260126020526040812060018101805460ff191690556002810182905560038101829055600481018290556005810191909155600d015460ff16156136d2576001600160a01b03808916600081815260126020526040808220600d8101805460ff19169055600e8101839055600f0182905560035490519293600080516020614f33833981519152936136c99392909116918b9142906148e1565b60405180910390a25b6001600160a01b03881660009081526012602052604090206010015460ff1615613760576001600160a01b03808916600081815260126020819052604080832060108101805460ff19169055601181018490559091019190915560035490519192600080516020614f338339815191529261375792909116908a9060019042906148e1565b60405180910390a25b6139c3565b6001600160a01b03881660009081526012602052604090206002015461378c908690614e04565b6001600160a01b03891660009081526012602052604090206002810191909155426005909101556139c3565b601054600e546001600160a01b038a166000908152601260205260409020600801546137e692919088613ec0565b600e8190556010829055604051600080516020614f1383398151915292613814926001929091904290614ac5565b60405180910390a16001600160a01b038816600090815260126020526040902060070154851415613974576001600160a01b038816600090815260126020526040812060068101805460ff19169055600781018290556008810182905560098101829055600a8101919091556013015460ff16156138f1576001600160a01b0380891660008181526012602052604080822060138101805460ff191690556014810183905560150182905560035490519293600080516020614f33833981519152936138e89392909116918b9142906148e1565b60405180910390a25b6001600160a01b03881660009081526012602052604090206016015460ff1615613760576001600160a01b0380891660008181526012602052604080822060168101805460ff19169055601781018390556018019190915560035490519192600080516020614f338339815191529261375792909116908a9060019042906148e1565b6001600160a01b03881660009081526012602052604090206007015461399b908690614e04565b6001600160a01b0389166000908152601260205260409020600781019190915542600a909101555b60006305f5e1008060045487896139da9190614da6565b6139e49190614da6565b6139ee9190614d0f565b6139f89190614d0f565b9050613a05818a8a613334565b600060088b6009811115613a2957634e487b7160e01b600052602160045260246000fd5b14613a70576000613a3b61119a613163565b90506000613a52600e54600d5461119a9190614dc5565b9050613a616115568683614dc5565b9250613a6d838d61342f565b50505b6003546040516001600160a01b038c8116927f272ad4f79cb2751d0ab6de33be11d31017ea150a5d6c84abce9415fbf505f1a792613ac192909116908f908d908d908d908a908a908f9042906149e9565b60405180910390a25050505050505050505050565b6000611cba8383613f03565b60606000611cba83613f3b565b611687828261349b565b60006105d0825490565b6000818152600183016020526040812054613b4a575081546001818101845560008481526020808220909301849055845484825282860190935260409020919091556105d0565b5060006105d0565b613b5c8282611cc1565b61168757613b74816001600160a01b03166014613f97565b613b7f836020613f97565b604051602001613b9092919061483d565b60408051601f198184030181529082905262461bcd60e51b825261111e91600401614aee565b60008181526001830160205260408120548015613cc9576000613bda600183614e04565b8554909150600090613bee90600190614e04565b9050818114613c6f576000866000018281548110613c1c57634e487b7160e01b600052603260045260246000fd5b9060005260206000200154905080876000018481548110613c4d57634e487b7160e01b600052603260045260246000fd5b6000918252602080832090910192909255918252600188019052604090208390555b8554869080613c8e57634e487b7160e01b600052603160045260246000fd5b6001900381819060005260206000200160009055905585600101600086815260200190815260200160002060009055600193505050506105d0565b60009150506105d0565b6000808411613ce457506000613d54565b816305f5e100613cf48587614da6565b613cfe9190614d0f565b1115613d245781613d136305f5e10087614d23565b613d1d9190614ce1565b9050613d54565b613d2e8385614da6565b6305f5e100613d3d8188614d23565b613d479190614d23565b613d519190614ce1565b90505b949350505050565b613d668282611cc1565b15611687576000828152602081815260408083206001600160a01b0385168085529252808320805460ff1916905551339285917ff6391f5c32d9c69d2a47ea670b442974b53935d1edc7fd64eb21e047a839171b9190a45050565b600080856002811115613de457634e487b7160e01b600052602160045260246000fd5b1415613e2d576001600160a01b0384166000908152601260205260409020600301546305f5e10090613e169084614dc5565b613e209085614d23565b613e2a9190614ce1565b90505b6001856002811115613e4f57634e487b7160e01b600052602160045260246000fd5b1415613d54576001600160a01b0384166000908152601260205260409020600801546305f5e10090613e82908490614dc5565b613d479085614d23565b60028054604051635426aa6760e11b81526001600160a01b039091169163a84d54ce9161346d919085908790600401614a94565b60008080613ece8486614da6565b613ed88789614da6565b613ee29190614e04565b9050613eee8487614e04565b91508161331e57600092505094509492505050565b6000826000018281548110613f2857634e487b7160e01b600052603260045260246000fd5b9060005260206000200154905092915050565b606081600001805480602002602001604051908101604052809291908181526020018280548015613f8b57602002820191906000526020600020905b815481526020019060010190808311613f77575b50505050509050919050565b60606000613fa6836002614da6565b613fb1906002614cc9565b67ffffffffffffffff811115613fd757634e487b7160e01b600052604160045260246000fd5b6040519080825280601f01601f191660200182016040528015614001576020820181803683370190505b509050600360fc1b8160008151811061402a57634e487b7160e01b600052603260045260246000fd5b60200101906001600160f81b031916908160001a905350600f60fb1b8160018151811061406757634e487b7160e01b600052603260045260246000fd5b60200101906001600160f81b031916908160001a905350600061408b846002614da6565b614096906001614cc9565b90505b600181111561412a576f181899199a1a9b1b9c1cb0b131b232b360811b85600f16601081106140d857634e487b7160e01b600052603260045260246000fd5b1a60f81b8282815181106140fc57634e487b7160e01b600052603260045260246000fd5b60200101906001600160f81b031916908160001a90535060049490941c9361412381614e47565b9050614099565b508315611cba5760405162461bcd60e51b815260206004820181905260248201527f537472696e67733a20686578206c656e67746820696e73756666696369656e74604482015260640161111e565b5080546000825560050290600052602060002090810190612f2a91906142b8565b6040518061012001604052806000151581526020016141e36040518060a00160405280600015158152602001600081526020016000815260200160008152602001600081525090565b815260200161421c6040518060a00160405280600015158152602001600081526020016000815260200160008152602001600081525090565b81526020016060815260200160608152602001614255604051806060016040528060001515815260200160008152602001600081525090565b81526040805160608101825260008082526020828101829052928201529101908152604080516060810182526000808252602082810182905292820152910190815260408051606081018252600080825260208281018290529282015291015290565b5b808211156132a957805460ff19168155600060018201819055600282018190556003820181905560048201556005016142b9565b80356001600160a01b038116811461430457600080fd5b919050565b8035600a811061430457600080fd5b805169ffffffffffffffffffff8116811461430457600080fd5b600060208284031215614343578081fd5b611cba826142ed565b6000806040838503121561435e578081fd5b614367836142ed565b9150614375602084016142ed565b90509250929050565b6000806000806000806000806000806000806101808d8f0312156143a0578788fd5b6143a98d6142ed565b9b506143b760208e016142ed565b9a506143c560408e016142ed565b9b9e9a9d509a9b60608101359b5060808101359a60a08201359a5060c0820135995060e08201359850610100820135975061012082013596506101408201359550610160909101359350915050565b600080600060608486031215614428578283fd5b614431846142ed565b925061443f602085016142ed565b9150604084013561444f81614ee5565b809150509250925092565b600080600080600060a08688031215614471578081fd5b61447a866142ed565b9450602086013561448a81614ee5565b94979496505050506040830135926060810135926080909101359150565b600080600080600080600060e0888a0312156144c2578283fd5b6144cb886142ed565b965060208801356144db81614ee5565b96999698505050506040850135946060810135946080820135945060a0820135935060c0909101359150565b600060208284031215614518578081fd5b5035919050565b60008060408385031215614531578182fd5b82359150614375602084016142ed565b60008060408385031215614553578182fd5b50508035926020909101359150565b600060208284031215614573578081fd5b81356001600160e01b031981168114611cba578182fd5b6000806000806080858703121561459f578182fd5b84356145aa81614ee5565b935060208501356145ba81614ee5565b92506040850135915060608501356145d181614ee5565b939692955090935050565b600080600080608085870312156145f1578182fd5b84356145fc81614ee5565b9350602085013561460c81614ee5565b93969395505050506040820135916060013590565b60008060408385031215614633578182fd5b823561463e81614ee5565b946020939093013593505050565b6000806040838503121561465e578182fd5b823561466981614ee5565b9150602083013561467981614ee5565b809150509250929050565b600080600080600060a0868803121561469b578283fd5b6146a486614309565b94506146b2602087016142ed565b93506146c0604087016142ed565b925060608601356146d081614ee5565b949793965091946080013592915050565b600080600080600080600060e0888a0312156146fb578081fd5b61470488614309565b9650614712602089016142ed565b9550614720604089016142ed565b9450606088013561473081614ee5565b9699959850939660808101359560a0820135955060c0909101359350915050565b600060208284031215614762578081fd5b5051919050565b600080600080600060a08688031215614780578283fd5b61478986614318565b94506020860151935060408601519250606086015191506147ac60808701614318565b90509295509295909350565b6000815180845260208085019450808401835b8381101561481e5761480b878351805115158252602081015160208301526040810151604083015260608101516060830152608081015160808301525050565b60a09690960195908201906001016147cb565b509495945050505050565b600a811061483957614839614ebf565b9052565b7f416363657373436f6e74726f6c3a206163636f756e7420000000000000000000815260008351614875816017850160208801614e1b565b7001034b99036b4b9b9b4b733903937b6329607d1b60179184019182015283516148a6816028840160208801614e1b565b01602801949350505050565b6001600160a01b03848116825283166020820152606081016148d383614ed5565b826040830152949350505050565b6001600160a01b0385168152608081016148fa85614ed5565b84602083015261490984614ed5565b60408201939093526060015292915050565b6001600160a01b038616815260a0810161493486614ed5565b85602083015261494385614ed5565b8460408301528360608301528260808301529695505050505050565b6001600160a01b038716815260c0810161497887614ed5565b602082019690965260408101949094526060840192909252608083015260a090910152919050565b6001600160a01b038816815260e081016149b988614ed5565b8760208301528660408301528560608301528460808301528360a08301528260c083015298975050505050505050565b6001600160a01b038a1681526101208101614a07602083018b614829565b614a1089614ed5565b60408201989098526060810196909652608086019490945260a085019290925260c084015260e08301526101009091015292915050565b6020808252825182820181905260009190848201906040850190845b81811015614a885783516001600160a01b031683529284019291840191600101614a63565b50909695505050505050565b6060810160078510614aa857614aa8614ebf565b9381526001600160a01b0392909216602083015260409091015290565b60808101614ad286614ed5565b9481526020810193909352604083019190915260609091015290565b6020815260008251806020840152614b0d816040850160208701614e1b565b601f01601f19169190910160400192915050565b60208152614b3460208201835115159052565b60006020830151614b756040840182805115158252602081015160208301526040810151604083015260608101516060830152608081015160808301525050565b506040838101518051151560e085015260208101516101008501529081015161012084015260608101516101408401526080810151610160840152506060830151610320610180840152614bcd6103408401826147b8565b90506080840151601f19848303016101a0850152614beb82826147b8565b60a0860151805115156101c08701526020808201516101e088015260409182015161020088015260c0880151805115156102208901528082015161024089015282015161026088015260e088015180511515610280890152808201516102a08901528201516102c088015261010090970151805115156102e088015296870151610300870152959095015161032090940193909352509192915050565b600080821280156001600160ff1b0384900385131615614caa57614caa614e93565b600160ff1b8390038412811615614cc357614cc3614e93565b50500190565b60008219821115614cdc57614cdc614e93565b500190565b600082614cf057614cf0614ea9565b600160ff1b821460001984141615614d0a57614d0a614e93565b500590565b600082614d1e57614d1e614ea9565b500490565b60006001600160ff1b0381841382841380821686840486111615614d4957614d49614e93565b600160ff1b84871282811687830589121615614d6757614d67614e93565b858712925087820587128484161615614d8257614d82614e93565b87850587128184161615614d9857614d98614e93565b505050929093029392505050565b6000816000190483118215151615614dc057614dc0614e93565b500290565b60008083128015600160ff1b850184121615614de357614de3614e93565b6001600160ff1b0384018313811615614dfe57614dfe614e93565b50500390565b600082821015614e1657614e16614e93565b500390565b60005b83811015614e36578181015183820152602001614e1e565b83811115610c7f5750506000910152565b600081614e5657614e56614e93565b506000190190565b6000600019821415614e7257614e72614e93565b5060010190565b6000600160ff1b821415614e8f57614e8f614e93565b0390565b634e487b7160e01b600052601160045260246000fd5b634e487b7160e01b600052601260045260246000fd5b634e487b7160e01b600052602160045260246000fd5b60038110612f2a57612f2a614ebf565b60038110612f2a57600080fdfe843c3a00fa95510a35f425371231fd3fe4642e719cb4595160763d6d02594b50c5d570a7e11ca3e04e6b89d279a207493cd3fa3bde8cb424df6344b94b5c797c5a232dae7e223a989c64f5a3eb3dd79c4d65e5e050bd924d0bd8e6487a6543dda2646970667358221220deafcf299896d2f5dab5725e1dbe183706ee7d3570ac768fc958aeede33d885a64736f6c63430008040033",
  "immutableReferences": {},
  "source": "// SPDX-License-Identifier: GPL-3.0-or-later\r\npragma solidity 0.8.4;\r\n\r\nimport \"@openzeppelin/contracts/utils/Context.sol\";\r\nimport \"@openzeppelin/contracts/access/AccessControlEnumerable.sol\";\r\nimport \"@openzeppelin/contracts/utils/structs/EnumerableSet.sol\";\r\nimport \"@chainlink/contracts/src/v0.8/interfaces/AggregatorV3Interface.sol\";\r\n\r\nimport \"./interfaces/IDerifyExchange.sol\";\r\nimport \"./interfaces/IDerifyDerivative.sol\";\r\nimport \"./interfaces/IDerifyFactory.sol\";\r\n\r\nimport \"./libraries/DerifyMath.sol\";\r\nimport \"./libraries/DerifyHelper.sol\";\r\n\r\ncontract DerifyDerivative is IDerifyDerivative, Context, AccessControlEnumerable {\r\n    /// @dev  Add the library methods\r\n    using EnumerableSet for EnumerableSet.AddressSet;\r\n\r\n    /// @dev  Create a new role identifier for the caller role\r\n    bytes32 public constant CALLER_ROLE = keccak256(\"CALLER_ROLE\");\r\n\r\n    /// @dev the exchange address \r\n    address public exchange;\r\n    /// @dev the token of the derivative \r\n    address public token;\r\n\r\n    /// @inheritdoc IDerifyDerivative\r\n    uint256 public override tradingFeeRatio;\r\n    /// @inheritdoc IDerifyDerivative\r\n    uint256 public override tradingFeePmrRatio;\r\n    /// @inheritdoc IDerifyDerivative\r\n    uint256 public override tradingFeeInusranceRatio;\r\n    /// @inheritdoc IDerifyDerivative\r\n    uint256 public override tradingFeeBrokerRatio;\r\n    /// @inheritdoc IDerifyDerivative\r\n    uint256 public override kRatio;\r\n    /// @inheritdoc IDerifyDerivative\r\n    uint256 public override gRatio;\r\n    /// @inheritdoc IDerifyDerivative\r\n    uint256 public override roRatio;\r\n    /// @inheritdoc IDerifyDerivative\r\n    uint256 public override maxLeverage;\r\n    /// @inheritdoc IDerifyDerivative\r\n    uint256 public override maxLimitOrderSize;\r\n\r\n    /// @inheritdoc IDerifyDerivative\r\n    uint256 public override longTotalSize;\r\n    /// @inheritdoc IDerifyDerivative\r\n    uint256 public override shortTotalSize;\r\n    /// @inheritdoc IDerifyDerivative\r\n    uint256 public override longAveragePrice;\r\n    /// @inheritdoc IDerifyDerivative\r\n    uint256 public override shortAveragePrice;\r\n\r\n    /// @notice The contract decimals\r\n    uint256 public constant CONTRACT_DECIMAL = 10**8;\r\n\r\n    /// @dev chainlink price feed\r\n    AggregatorV3Interface internal priceFeed;\r\n\r\n    /// @dev the trader positions under the derivative \r\n    mapping(address => DerivativePositions) private traderAllPositions;\r\n    /// @dev the set of all traders\r\n    EnumerableSet.AddressSet private allTraders;\r\n\r\n    constructor(address _token) {\r\n        token = _token;\r\n        _setupRole(DEFAULT_ADMIN_ROLE, IDerifyFactory(_msgSender()).owner());\r\n    }\r\n\r\n    /// @inheritdoc IDerifyDerivative\r\n    function initialize(\r\n        address _exchange,\r\n        address _clearing,\r\n        address _aggregator,\r\n        uint256 _tradingFeeRatio,\r\n        uint256 _tradingFeePmrRatio,\r\n        uint256 _tradingFeeInusranceRatio,\r\n        uint256 _tradingFeeBrokerRatio,\r\n        uint256 _kRatio,\r\n        uint256 _gRatio,\r\n        uint256 _roRatio,\r\n        uint256 _maxLeverage,\r\n        uint256 _maxLimitOrderSize\r\n    ) external override onlyRole(DEFAULT_ADMIN_ROLE) {\r\n        // setup roles\r\n        _setupRole(CALLER_ROLE, _exchange);\r\n        _setupRole(CALLER_ROLE, _clearing);\r\n\r\n        exchange = _exchange;\r\n        priceFeed = AggregatorV3Interface(_aggregator);\r\n        \r\n        tradingFeeRatio = _tradingFeeRatio;\r\n        tradingFeePmrRatio = _tradingFeePmrRatio;\r\n        tradingFeeInusranceRatio = _tradingFeeInusranceRatio;\r\n        tradingFeeBrokerRatio = _tradingFeeBrokerRatio;\r\n        kRatio = _kRatio;\r\n        gRatio = _gRatio;\r\n        roRatio = _roRatio;\r\n        maxLeverage = _maxLeverage;\r\n        maxLimitOrderSize = _maxLimitOrderSize;\r\n    }\r\n\r\n    /// @inheritdoc IDerifyDerivative\r\n    function openMarketPricePosition(\r\n        TradeType tradeType,\r\n        address trader,\r\n        address theBroker,\r\n        Side side, \r\n        uint256 size, \r\n        uint256 openPrice,\r\n        uint256 leverage\r\n    ) external override onlyRole(CALLER_ROLE) {\r\n        require(leverage <= maxLeverage, \"DD_OMPP: MAX_LEVERAGE_EXCEED\");\r\n        if (!allTraders.contains(trader) && !traderAllPositions[trader].isUsed) {\r\n            allTraders.add(trader);\r\n            traderAllPositions[trader].isUsed = true;\r\n        }\r\n        // compute position change fee ratio before position open\r\n        int256 pcfRatioBefore = DerifyMath.abs(_getPositionChangeFeeRatio());\r\n        int256 nakedPositionBefore = DerifyMath.abs(int256(longTotalSize) - int256(shortTotalSize));\r\n        // open position and update status\r\n        if (side == Side.LONG) {\r\n            if (!traderAllPositions[trader].long.isUsed) {\r\n                traderAllPositions[trader].long = Position(true, size, openPrice, leverage, block.timestamp);\r\n            } else {\r\n                (\r\n                    traderAllPositions[trader].long.price,\r\n                    traderAllPositions[trader].long.size\r\n                ) = DerifyHelper.computeMergePosition(\r\n                    traderAllPositions[trader].long.price,\r\n                    traderAllPositions[trader].long.size,\r\n                    openPrice,\r\n                    size\r\n                );\r\n                traderAllPositions[trader].long.leverage = leverage;\r\n            }\r\n            // update global price and size\r\n            (\r\n                longAveragePrice,\r\n                longTotalSize\r\n            ) = DerifyHelper.computeMergePosition(\r\n                longAveragePrice,\r\n                longTotalSize,\r\n                openPrice,\r\n                size\r\n            );\r\n            emit GlobleDataUpdate(Side.LONG, longTotalSize, longAveragePrice, block.timestamp);\r\n        }\r\n        else {\r\n            if (!traderAllPositions[trader].short.isUsed) {\r\n                traderAllPositions[trader].short = Position(true, size, openPrice, leverage, block.timestamp);\r\n            } else {\r\n                (\r\n                    traderAllPositions[trader].short.price,\r\n                    traderAllPositions[trader].short.size\r\n                ) = DerifyHelper.computeMergePosition(\r\n                    traderAllPositions[trader].short.price,\r\n                    traderAllPositions[trader].short.size,\r\n                    openPrice,\r\n                    size\r\n                );\r\n                traderAllPositions[trader].short.leverage = leverage;\r\n            }\r\n            // update global price and size\r\n            (\r\n                shortAveragePrice,\r\n                shortTotalSize\r\n            ) = DerifyHelper.computeMergePosition(\r\n                shortAveragePrice,\r\n                shortTotalSize,\r\n                openPrice,\r\n                size\r\n            );\r\n            emit GlobleDataUpdate(Side.SHORT, shortTotalSize, shortAveragePrice, block.timestamp);\r\n        }\r\n        // compute and operate trading fee\r\n        uint256 tradingFee = size * openPrice * tradingFeeRatio / CONTRACT_DECIMAL / CONTRACT_DECIMAL;\r\n        _operateTradingFee(tradingFee, trader, theBroker);\r\n        // compute and operate position change fee\r\n        int256 positionChangeFee;\r\n        if (tradeType != TradeType.HedgeMarketPriceOpen) {\r\n            int256 pcfRatioAfter = DerifyMath.abs(_getPositionChangeFeeRatio());\r\n            int256 nakedPositionAfter = DerifyMath.abs(int256(longTotalSize) - int256(shortTotalSize));\r\n            positionChangeFee = _getPositionChangeFee(\r\n                nakedPositionAfter - nakedPositionBefore, \r\n                pcfRatioBefore + pcfRatioAfter\r\n            );\r\n            _operatePositionChangeFee(positionChangeFee, trader);\r\n        }\r\n        // emit event\r\n        emit Open(\r\n            trader, \r\n            token, \r\n            tradeType, \r\n            side, \r\n            size, \r\n            openPrice, \r\n            leverage, \r\n            tradingFee,\r\n            positionChangeFee,\r\n            block.timestamp\r\n        );\r\n    }\r\n\r\n    /// @inheritdoc IDerifyDerivative\r\n    function orderLimitPricePosition(\r\n        address trader,\r\n        Side side, \r\n        uint256 size, \r\n        uint256 limitPrice, \r\n        uint256 leverage\r\n    ) external override onlyRole(CALLER_ROLE) {\r\n        require(leverage <= maxLeverage, \"DD_OLPP: MAX_LEVERAGE_EXCEED\");\r\n        if (!allTraders.contains(trader) && !traderAllPositions[trader].isUsed) {\r\n            allTraders.add(trader);\r\n            traderAllPositions[trader].isUsed = true;\r\n        }\r\n\r\n        uint256 currentSize = traderAllPositions[trader].longOrderOpenPosition.length + traderAllPositions[trader].shortOrderOpenPosition.length;\r\n        require(currentSize < maxLimitOrderSize, \"DD_OLPP: MAX_LOS_EXCEED\");\r\n        Position memory position = Position(true, size, limitPrice, leverage, block.timestamp);\r\n        if (side == Side.LONG) {\r\n            traderAllPositions[trader].longOrderOpenPosition.push(position);\r\n        }\r\n        else {\r\n            traderAllPositions[trader].shortOrderOpenPosition.push(position);\r\n        }\r\n        emit OpenLimit(trader, token, side, size, limitPrice, leverage, block.timestamp);\r\n    }\r\n\r\n    /// @inheritdoc IDerifyDerivative\r\n    function closePositionByTrader(\r\n        TradeType tradeType,\r\n        address trader,\r\n        address theBroker,\r\n        Side side, \r\n        uint256 size\r\n    ) external override onlyRole(CALLER_ROLE) {\r\n        _closePositionByTrader(tradeType, trader, theBroker, side, size);\r\n    }\r\n\r\n    /// @inheritdoc IDerifyDerivative\r\n    function closePositionByLiquidation(\r\n        address trader,\r\n        address theBroker,\r\n        Side side\r\n    ) external override onlyRole(CALLER_ROLE) {\r\n        uint256 size;\r\n        if (side == Side.LONG) {\r\n            if (!traderAllPositions[trader].long.isUsed) {\r\n                return;\r\n            }\r\n            size = traderAllPositions[trader].long.size;\r\n        } else {\r\n            if (!traderAllPositions[trader].short.isUsed) {\r\n                return;\r\n            }\r\n            size = traderAllPositions[trader].short.size;\r\n        }\r\n        uint256 spotPrice = _getSpotPrice();\r\n\r\n        _closePositionCommonPart(TradeType.MandatoryLiquidationClose, trader, theBroker, side, size, spotPrice);\r\n    }\r\n\r\n    /// @inheritdoc IDerifyDerivative\r\n    function closeDerivativePositions(\r\n        address trader,\r\n        address theBroker\r\n    ) external override onlyRole(CALLER_ROLE) {\r\n        // close same size for both long and short position\r\n        if (traderAllPositions[trader].long.size > 0 && traderAllPositions[trader].short.size > 0) {\r\n            if (traderAllPositions[trader].long.size >= traderAllPositions[trader].short.size) {\r\n                _closePositionByTrader(\r\n                    TradeType.AllCloseHedgePart, \r\n                    trader, \r\n                    theBroker, \r\n                    Side.LONG, \r\n                    traderAllPositions[trader].short.size\r\n                );\r\n                _closePositionByTrader(\r\n                    TradeType.AllCloseHedgePart, \r\n                    trader, \r\n                    theBroker, \r\n                    Side.SHORT, \r\n                    traderAllPositions[trader].short.size\r\n                );  \r\n            } else {\r\n                _closePositionByTrader(\r\n                    TradeType.AllCloseHedgePart, \r\n                    trader, \r\n                    theBroker, \r\n                    Side.SHORT, \r\n                    traderAllPositions[trader].long.size\r\n                );\r\n                _closePositionByTrader(\r\n                    TradeType.AllCloseHedgePart, \r\n                    trader, \r\n                    theBroker, \r\n                    Side.LONG, \r\n                    traderAllPositions[trader].long.size\r\n                );\r\n            }\r\n        }\r\n        // close left long position\r\n        if (traderAllPositions[trader].long.size > 0) {\r\n            uint256 longMaxSize = IDerifyExchange(exchange).getCloseUpperBound(token, trader, Side.LONG);\r\n            if (longMaxSize > 0) {\r\n                if (traderAllPositions[trader].long.size > longMaxSize) {\r\n                    _closePositionByTrader(TradeType.AllCloseLeftPart, trader, theBroker, Side.LONG, longMaxSize);\r\n                } else {\r\n                    _closePositionByTrader(\r\n                        TradeType.AllCloseLeftPart, \r\n                        trader, \r\n                        theBroker, \r\n                        Side.LONG, \r\n                        traderAllPositions[trader].long.size\r\n                    );\r\n                }\r\n            }\r\n        }\r\n        // close left short position\r\n        if (traderAllPositions[trader].short.size > 0) {\r\n            uint256 shortMaxSize = IDerifyExchange(exchange).getCloseUpperBound(token, trader, Side.SHORT);\r\n            if (shortMaxSize > 0) {\r\n                if (traderAllPositions[trader].short.size > shortMaxSize) {\r\n                    _closePositionByTrader(TradeType.AllCloseLeftPart, trader, theBroker, Side.SHORT, shortMaxSize);\r\n                } else {\r\n                    _closePositionByTrader(\r\n                        TradeType.AllCloseLeftPart, \r\n                        trader, \r\n                        theBroker, \r\n                        Side.SHORT, \r\n                        traderAllPositions[trader].short.size\r\n                    );\r\n                }\r\n            }\r\n        }\r\n    }\r\n\r\n    /// @inheritdoc IDerifyDerivative\r\n    function cancelDerivativeOrderedPositions(\r\n        address trader\r\n    ) external override onlyRole(CALLER_ROLE) {\r\n        // cancel ordered stop positions\r\n        delete traderAllPositions[trader].longOrderStopProfitPosition;\r\n        delete traderAllPositions[trader].longOrderStopLossPosition;\r\n        delete traderAllPositions[trader].shortOrderStopProfitPosition;\r\n        delete traderAllPositions[trader].shortOrderStopLossPosition;\r\n        // cancel ordered limit price positions\r\n        delete traderAllPositions[trader].longOrderOpenPosition;\r\n        delete traderAllPositions[trader].shortOrderOpenPosition;\r\n        // emit event\r\n        emit CancelOrderedPositions(trader, token, block.timestamp);\r\n    }\r\n\r\n    /// @inheritdoc IDerifyDerivative\r\n    function deleteOrderedLimitPositions(\r\n        address trader,\r\n        Side side,\r\n        uint256 index,\r\n        uint256 size,\r\n        uint256 price,\r\n        uint256 leverage,\r\n        uint256 limitTimestamp\r\n    ) external override onlyRole(CALLER_ROLE) {\r\n        Position[] storage poops = traderAllPositions[trader].longOrderOpenPosition;\r\n        if(side == Side.SHORT) {\r\n            poops = traderAllPositions[trader].shortOrderOpenPosition;\r\n        }\r\n        uint256 len = poops.length;\r\n        for(uint256 k = 0; k < len; k++) {\r\n            // find the right position\r\n            if (poops[k].price == price && poops[k].timestamp == limitTimestamp && poops[k].leverage == leverage) {\r\n                if (poops[k].size == size) {\r\n                    // move the last element into the place to delete element\r\n                    poops[k] = poops[len - 1];\r\n                    poops.pop();\r\n                } else {\r\n                    // update element\r\n                    poops[k].size -= size;\r\n                }\r\n\r\n                break;\r\n            }\r\n        }\r\n\r\n        emit CloseLimit(trader, token, side, size, price, leverage, limitTimestamp, block.timestamp);\r\n    }\r\n\r\n    /// @inheritdoc IDerifyDerivative\r\n    function removeTrader(address trader) external override onlyRole(CALLER_ROLE) {\r\n        allTraders.remove(trader);\r\n        delete traderAllPositions[trader];\r\n    }\r\n\r\n    /// @inheritdoc IDerifyDerivative\r\n    function orderStopPosition(\r\n        Side side,\r\n        StopType stopType,\r\n        uint256 takeProfitPrice,\r\n        uint256 stopLossPrice\r\n    ) external override {\r\n        address trader = _msgSender();\r\n        if (stopType == StopType.TakeProfit || stopType == StopType.TakeProfitStopLoss) {\r\n            if (side == Side.LONG && traderAllPositions[trader].long.isUsed) {\r\n                traderAllPositions[trader].longOrderStopProfitPosition = StopPosition(true, takeProfitPrice, block.timestamp);\r\n            } else if (side == Side.SHORT && traderAllPositions[trader].short.isUsed) {\r\n                traderAllPositions[trader].shortOrderStopProfitPosition = StopPosition(true, takeProfitPrice, block.timestamp);\r\n            }\r\n            emit OpenStop(trader, token, side, StopType.TakeProfit, takeProfitPrice, block.timestamp);\r\n        }\r\n        if (stopType == StopType.StopLoss || stopType == StopType.TakeProfitStopLoss) {\r\n            if (side == Side.LONG && traderAllPositions[trader].long.isUsed) {\r\n                traderAllPositions[trader].longOrderStopLossPosition = StopPosition(true, stopLossPrice, block.timestamp);\r\n            } else if (side == Side.SHORT && traderAllPositions[trader].short.isUsed) {\r\n                traderAllPositions[trader].shortOrderStopLossPosition = StopPosition(true, stopLossPrice, block.timestamp);\r\n            }\r\n            emit OpenStop(trader, token, side, StopType.StopLoss, stopLossPrice, block.timestamp);\r\n        }\r\n    }\r\n\r\n    /// @inheritdoc IDerifyDerivative\r\n    function orderAndCancelStopPosition(\r\n        Side side,\r\n        StopType orderStopType,\r\n        uint256 orderPrice,\r\n        StopType cancelStopType\r\n    ) external override {\r\n        address trader = _msgSender();\r\n        if (side == Side.LONG) {\r\n            if (orderStopType == StopType.TakeProfit && cancelStopType == StopType.StopLoss) {\r\n                traderAllPositions[trader].longOrderStopProfitPosition = StopPosition(true, orderPrice, block.timestamp);\r\n                delete traderAllPositions[trader].longOrderStopLossPosition;\r\n            } else if (orderStopType == StopType.StopLoss && cancelStopType == StopType.TakeProfit) {\r\n                traderAllPositions[trader].longOrderStopLossPosition = StopPosition(true, orderPrice, block.timestamp);\r\n                delete traderAllPositions[trader].longOrderStopProfitPosition;\r\n            }\r\n        } else {\r\n            if (orderStopType == StopType.TakeProfit && cancelStopType == StopType.StopLoss) {\r\n                traderAllPositions[trader].shortOrderStopProfitPosition = StopPosition(true, orderPrice, block.timestamp);\r\n                delete traderAllPositions[trader].shortOrderStopLossPosition;\r\n            } else if (orderStopType == StopType.StopLoss && cancelStopType == StopType.TakeProfit) {\r\n                traderAllPositions[trader].shortOrderStopLossPosition = StopPosition(true, orderPrice, block.timestamp);\r\n                delete traderAllPositions[trader].shortOrderStopProfitPosition;\r\n            }\r\n        }\r\n        emit OpenStop(trader, token, side, orderStopType, orderPrice, block.timestamp);\r\n        emit CloseStop(trader, token, side, cancelStopType, block.timestamp);\r\n    }\r\n\r\n    /// @inheritdoc IDerifyDerivative\r\n    function cancelOrderedStopPosition(\r\n        StopType stopType,\r\n        Side side\r\n    ) external override {\r\n        address trader = _msgSender();\r\n        if (side == Side.LONG) {\r\n            if (stopType == StopType.TakeProfit || stopType == StopType.TakeProfitStopLoss) {\r\n                delete traderAllPositions[trader].longOrderStopProfitPosition;\r\n            } \r\n            if (stopType == StopType.StopLoss || stopType == StopType.TakeProfitStopLoss) {\r\n                delete traderAllPositions[trader].longOrderStopLossPosition;\r\n            }\r\n        } else if (side == Side.SHORT){\r\n            if (stopType == StopType.TakeProfit || stopType == StopType.TakeProfitStopLoss) {\r\n                delete traderAllPositions[trader].shortOrderStopProfitPosition;\r\n            } \r\n            if (stopType == StopType.StopLoss || stopType == StopType.TakeProfitStopLoss) {\r\n                delete traderAllPositions[trader].shortOrderStopLossPosition;\r\n            }\r\n        }\r\n        emit CloseStop(trader, token, side, stopType, block.timestamp);\r\n    }\r\n\r\n    /// @inheritdoc IDerifyDerivative\r\n    function cancelOrderedLimitPosition(\r\n        Side side,\r\n        uint256 timestamp\r\n    ) external override {\r\n        address trader = _msgSender();\r\n        if (side == Side.LONG) {\r\n            for(uint i = 0; i < traderAllPositions[trader].longOrderOpenPosition.length; i++) {\r\n                if (traderAllPositions[trader].longOrderOpenPosition[i].timestamp == timestamp) {\r\n                    emit CloseLimit(\r\n                        trader, \r\n                        token, \r\n                        Side.LONG, \r\n                        traderAllPositions[trader].longOrderOpenPosition[i].size, \r\n                        traderAllPositions[trader].longOrderOpenPosition[i].price, \r\n                        traderAllPositions[trader].longOrderOpenPosition[i].leverage,\r\n                        traderAllPositions[trader].longOrderOpenPosition[i].timestamp, \r\n                        block.timestamp\r\n                    );\r\n                    traderAllPositions[trader].longOrderOpenPosition[i] = traderAllPositions[trader].longOrderOpenPosition[traderAllPositions[trader].longOrderOpenPosition.length - 1];\r\n                    traderAllPositions[trader].longOrderOpenPosition.pop();\r\n                    break;\r\n                }\r\n            }\r\n        } else {\r\n            for(uint i = 0; i < traderAllPositions[trader].shortOrderOpenPosition.length; i++) {\r\n                if (traderAllPositions[trader].shortOrderOpenPosition[i].timestamp == timestamp) {\r\n                    emit CloseLimit(\r\n                        trader, \r\n                        token, \r\n                        Side.SHORT, \r\n                        traderAllPositions[trader].shortOrderOpenPosition[i].size, \r\n                        traderAllPositions[trader].shortOrderOpenPosition[i].price, \r\n                        traderAllPositions[trader].shortOrderOpenPosition[i].leverage,\r\n                        traderAllPositions[trader].shortOrderOpenPosition[i].timestamp, \r\n                        block.timestamp\r\n                    );\r\n                    traderAllPositions[trader].shortOrderOpenPosition[i] = traderAllPositions[trader].shortOrderOpenPosition[traderAllPositions[trader].shortOrderOpenPosition.length - 1];\r\n                    traderAllPositions[trader].shortOrderOpenPosition.pop();\r\n                    break;\r\n                }\r\n            }\r\n        }\r\n    }\r\n\r\n    /// @inheritdoc IDerifyDerivative\r\n    function getSpotPrice() external view override returns (uint256 price) {\r\n        price = _getSpotPrice();\r\n    }\r\n\r\n    /// @inheritdoc IDerifyDerivative\r\n    function getAllTraders() external view override returns(address[] memory) {\r\n        return allTraders.values();\r\n    }\r\n\r\n    /// @inheritdoc IDerifyDerivative\r\n    function getTraderDerivativePositions(\r\n        address trader\r\n    ) external view override returns (DerivativePositions memory) {\r\n        return traderAllPositions[trader];\r\n    }\r\n\r\n    /// @inheritdoc IDerifyDerivative\r\n    function getPositionChangeFeeRatio() external view override returns (int256 ratio) {\r\n        ratio = _getPositionChangeFeeRatio();\r\n    }\r\n\r\n    /// @inheritdoc IDerifyDerivative\r\n    function getPositionChangeFee(\r\n        int256 nakedPositionDiff,\r\n        int256 ratioSum\r\n    ) external view override returns (int256 positionChangeFee) {\r\n        positionChangeFee = _getPositionChangeFee(nakedPositionDiff, ratioSum);\r\n    }\r\n\r\n    /// @inheritdoc IDerifyDerivative\r\n    function getTokenTotalUnrealizedPnl() external view override returns (int256 tokenTotalUnrealizedPnl) {\r\n        uint256 spotPrice = _getSpotPrice();\r\n        tokenTotalUnrealizedPnl = int256(longTotalSize) * (int256(spotPrice) - int256(longAveragePrice)) / int256(CONTRACT_DECIMAL);\r\n        tokenTotalUnrealizedPnl += int256(shortTotalSize) * (int256(shortAveragePrice) - int256(spotPrice)) / int256(CONTRACT_DECIMAL);\r\n    }\r\n\r\n    /// @inheritdoc IDerifyDerivative\r\n    function getSideTotalAmount() external view override returns (\r\n        uint256 longTotalAmount, \r\n        uint256 shortTotalAmount\r\n    ) {\r\n        (longTotalAmount, shortTotalAmount) = _getSideTotalAmount();\r\n    }\r\n\r\n    /// @dev close position \r\n    function _closePositionByTrader(\r\n        TradeType tradeType,\r\n        address trader,\r\n        address theBroker,\r\n        Side side, \r\n        uint256 size\r\n    ) internal {\r\n        require(size > 0, \"DD: CPBT_SIZE_ZERO\");\r\n        uint256 closePrice = _getSpotPrice();\r\n        // use price of ordered position as close price\r\n        if (tradeType == TradeType.StopProfitClose) {\r\n            if (side == Side.LONG) {\r\n                closePrice = traderAllPositions[trader].longOrderStopProfitPosition.stopPrice;\r\n            } else {\r\n                closePrice = traderAllPositions[trader].shortOrderStopProfitPosition.stopPrice;\r\n            }\r\n        } else if (tradeType == TradeType.StopLossClose) {\r\n            if (side == Side.LONG) {\r\n                closePrice = traderAllPositions[trader].longOrderStopLossPosition.stopPrice;\r\n            } else {\r\n                closePrice = traderAllPositions[trader].shortOrderStopLossPosition.stopPrice;\r\n            }\r\n        }\r\n\r\n        _closePositionCommonPart(tradeType, trader, theBroker, side, size, closePrice);\r\n    }\r\n\r\n    /// @dev the common part of close position \r\n    function _closePositionCommonPart(\r\n        TradeType tradeType,\r\n        address trader,\r\n        address theBroker,\r\n        Side side, \r\n        uint256 size,\r\n        uint256 closePrice\r\n    ) internal {\r\n        // compute and operate unrealized profit and loss\r\n        int256 unrealizedPnl = _getUnrealizedPnlFixedSize(side, trader, size, closePrice);\r\n        _operateProfitAndLoss(unrealizedPnl, trader);\r\n        // compute position change fee before close the position\r\n        int256 pcfRatioBefore = DerifyMath.abs(_getPositionChangeFeeRatio());\r\n        int256 nakedPositionBefore = DerifyMath.abs(int256(longTotalSize) - int256(shortTotalSize));\r\n        // close position\r\n        if (side == Side.LONG) {\r\n            // update global price and size\r\n            (\r\n                longAveragePrice,\r\n                longTotalSize\r\n            ) = DerifyHelper.computeDetachPosition(\r\n                longAveragePrice,\r\n                longTotalSize,\r\n                traderAllPositions[trader].long.price,\r\n                size\r\n            );\r\n            emit GlobleDataUpdate(Side.LONG, longTotalSize, longAveragePrice, block.timestamp);\r\n            if (traderAllPositions[trader].long.size == size) {\r\n                delete traderAllPositions[trader].long;\r\n                // close related stop positions\r\n                if (traderAllPositions[trader].longOrderStopProfitPosition.isUsed) {\r\n                    delete traderAllPositions[trader].longOrderStopProfitPosition;\r\n                    emit CloseStop(trader, token, side, StopType.TakeProfit, block.timestamp);\r\n                }\r\n                if (traderAllPositions[trader].longOrderStopLossPosition.isUsed) {\r\n                    delete traderAllPositions[trader].longOrderStopLossPosition;\r\n                    emit CloseStop(trader, token, side, StopType.StopLoss, block.timestamp);\r\n                }\r\n            } else {\r\n                traderAllPositions[trader].long.size = traderAllPositions[trader].long.size - size;\r\n                traderAllPositions[trader].long.timestamp = block.timestamp;\r\n            }\r\n        } else {\r\n            // update global price and size\r\n            (\r\n                shortAveragePrice,\r\n                shortTotalSize\r\n            ) = DerifyHelper.computeDetachPosition(\r\n                shortAveragePrice,\r\n                shortTotalSize,\r\n                traderAllPositions[trader].short.price,\r\n                size\r\n            );\r\n            emit GlobleDataUpdate(Side.SHORT, shortTotalSize, shortAveragePrice, block.timestamp);\r\n            if (traderAllPositions[trader].short.size == size) {\r\n                delete traderAllPositions[trader].short;\r\n                // close related stop positions\r\n                if (traderAllPositions[trader].shortOrderStopProfitPosition.isUsed) {\r\n                    delete traderAllPositions[trader].shortOrderStopProfitPosition;\r\n                    emit CloseStop(trader, token, side, StopType.TakeProfit, block.timestamp);\r\n                }\r\n                if (traderAllPositions[trader].shortOrderStopLossPosition.isUsed) {\r\n                    delete traderAllPositions[trader].shortOrderStopLossPosition;\r\n                    emit CloseStop(trader, token, side, StopType.StopLoss, block.timestamp);\r\n                }\r\n            } else {\r\n                traderAllPositions[trader].short.size = traderAllPositions[trader].short.size - size;\r\n                traderAllPositions[trader].short.timestamp = block.timestamp;\r\n            }\r\n        }\r\n        // compute and operate trading fee\r\n        uint256 tradingFee = size * closePrice * tradingFeeRatio / CONTRACT_DECIMAL / CONTRACT_DECIMAL;\r\n        _operateTradingFee(tradingFee, trader, theBroker);\r\n        // compute and operate position change fee\r\n        int256 positionChangeFee;\r\n        if (tradeType != TradeType.AllCloseHedgePart) {\r\n            int256 pcfRatioAfter = DerifyMath.abs(_getPositionChangeFeeRatio());\r\n            int256 nakedPositionAfter = DerifyMath.abs(int256(longTotalSize) - int256(shortTotalSize));\r\n            positionChangeFee = _getPositionChangeFee(nakedPositionAfter - nakedPositionBefore, pcfRatioBefore + pcfRatioAfter);\r\n            _operatePositionChangeFee(positionChangeFee, trader);\r\n        }\r\n        // emit event\r\n        emit Close(\r\n            trader,\r\n            token,\r\n            tradeType,\r\n            side,\r\n            size,\r\n            closePrice,\r\n            tradingFee,\r\n            positionChangeFee,\r\n            unrealizedPnl,\r\n            block.timestamp\r\n        );\r\n    }\r\n\r\n    /// @dev operate trading fee\r\n    function _operateTradingFee(\r\n        uint256 tradingFee,\r\n        address trader,\r\n        address theBroker\r\n    ) internal {\r\n        IDerifyExchange(exchange).operateTradingFee(\r\n            tradingFee, \r\n            trader, \r\n            theBroker,\r\n            tradingFeePmrRatio, \r\n            tradingFeeInusranceRatio,\r\n            tradingFeeBrokerRatio\r\n        );\r\n    }\r\n\r\n    /// @dev operate position change fee\r\n    function _operatePositionChangeFee(\r\n        int256 positionChangeFee,\r\n        address trader\r\n    ) internal {\r\n        IDerifyExchange(exchange).operateTraderBalance(\r\n            IDerifyExchange.FeeType.PositionChangeFee, \r\n            trader, \r\n            positionChangeFee * -1\r\n        );\r\n    }\r\n\r\n    /// @dev operate profit and loss\r\n    function _operateProfitAndLoss(\r\n        int256 unrealizedPnl,\r\n        address trader\r\n    ) internal {\r\n        IDerifyExchange(exchange).operateTraderBalance(IDerifyExchange.FeeType.ProfitAndLoss, trader, unrealizedPnl);\r\n    }\r\n\r\n    /// @dev get unrelaized profit and loss with fixed size position\r\n    function _getUnrealizedPnlFixedSize(\r\n        Side side, \r\n        address trader, \r\n        uint256 fixedSize,\r\n        uint256 spotPrice\r\n    ) internal view returns (int256 unrealizedPnl) {\r\n        if (side == Side.LONG) {\r\n            unrealizedPnl = int256(fixedSize) * (int256(spotPrice) - int256(traderAllPositions[trader].long.price)) / int256(CONTRACT_DECIMAL);\r\n        }\r\n        if (side == Side.SHORT) {\r\n            unrealizedPnl = int256(fixedSize) * (int256(traderAllPositions[trader].short.price) - int256(spotPrice)) / int256(CONTRACT_DECIMAL);\r\n        }\r\n    }\r\n\r\n    /// @dev get latest price\r\n    function _getSpotPrice() internal view returns (uint256) {\r\n        (\r\n            uint80 roundID, \r\n            int price,\r\n            uint startedAt,\r\n            uint timeStamp,\r\n            uint80 answeredInRound\r\n        ) = priceFeed.latestRoundData();\r\n\r\n        return uint256(price);\r\n    }\r\n\r\n    /// @dev get position change fee ratio\r\n    function _getPositionChangeFeeRatio() internal view returns (int256 ratio) {\r\n        uint256 liquidityPoolBalance = IDerifyExchange(exchange).liquidityPool();\r\n        (uint256 longTotalAmount, uint256 shortTotalAmount) = _getSideTotalAmount();\r\n        int256 diffAmount = int256(longTotalAmount) - int256(shortTotalAmount);\r\n        ratio = DerifyHelper.computePositionChangeFeeRatio(\r\n            diffAmount,\r\n            liquidityPoolBalance,\r\n            kRatio,\r\n            gRatio\r\n        );\r\n    }\r\n\r\n    /// @dev get position change fee\r\n    function _getPositionChangeFee(\r\n        int256 nakedPositionDiff,\r\n        int256 ratioSum\r\n    ) internal view returns (int256 positionChangeFee) {\r\n        uint256 spotPrice = _getSpotPrice();\r\n        int256 thirdPart = DerifyMath.abs(ratioSum) / 2 + int256(roRatio);\r\n        positionChangeFee = nakedPositionDiff * int256(spotPrice) / int256(CONTRACT_DECIMAL) * thirdPart / int256(CONTRACT_DECIMAL);\r\n    }\r\n\r\n    /// @dev get total position amount of one side\r\n    function _getSideTotalAmount() internal view returns (\r\n        uint256 longTotalAmount, \r\n        uint256 shortTotalAmount\r\n    ) {\r\n        uint256 spotPrice = _getSpotPrice();\r\n        longTotalAmount = longTotalSize * spotPrice / CONTRACT_DECIMAL;\r\n        shortTotalAmount = shortTotalSize * spotPrice / CONTRACT_DECIMAL;\r\n    }\r\n}",
  "sourcePath": "C:\\ZW_Others\\github\\Blockchain\\Derify-v1\\derify-core\\contracts\\DerifyDerivative.sol",
  "compiler": {
    "name": "solc",
    "version": "0.8.4+commit.c7e474f2.Emscripten.clang"
  },
  "schemaVersion": "3.4.8",
  "updatedAt": "2022-09-01T05:06:01.813Z",
  "devdoc": {
    "kind": "dev",
    "methods": {
      "cancelDerivativeOrderedPositions(address)": {
        "params": {
          "trader": "The trader address"
        }
      },
      "cancelOrderedLimitPosition(uint8,uint256)": {
        "params": {
          "side": "The side of position",
          "timestamp": "The timestamp of the ordered limit price position"
        }
      },
      "cancelOrderedStopPosition(uint8,uint8)": {
        "params": {
          "side": "The side of position",
          "stopType": "The stop type"
        }
      },
      "closeDerivativePositions(address,address)": {
        "params": {
          "theBroker": "The broker of trader",
          "trader": "The trader address"
        }
      },
      "closePositionByLiquidation(address,address,uint8)": {
        "params": {
          "side": "The side of position",
          "theBroker": "The broker of trader",
          "trader": "The trader address"
        }
      },
      "closePositionByTrader(uint8,address,address,uint8,uint256)": {
        "params": {
          "side": "The side of position",
          "size": "The size",
          "theBroker": "The broker of trader",
          "tradeType": "The trader type",
          "trader": "The trader address"
        }
      },
      "deleteOrderedLimitPositions(address,uint8,uint256,uint256,uint256,uint256,uint256)": {
        "details": "called only by DerifyClearing",
        "params": {
          "index": "The index of the ordered limit price position in array",
          "leverage": "The leverage",
          "limitTimestamp": "The timestamp of the ordered limit price position",
          "price": "The price",
          "side": "The side of position",
          "size": "The size",
          "trader": "The trader address"
        }
      },
      "getPositionChangeFee(int256,int256)": {
        "params": {
          "nakedPositionDiff": "The nakedPositionDiff",
          "ratioSum": "The position change fee ratio sum"
        }
      },
      "getRoleAdmin(bytes32)": {
        "details": "Returns the admin role that controls `role`. See {grantRole} and {revokeRole}. To change a role's admin, use {_setRoleAdmin}."
      },
      "getRoleMember(bytes32,uint256)": {
        "details": "Returns one of the accounts that have `role`. `index` must be a value between 0 and {getRoleMemberCount}, non-inclusive. Role bearers are not sorted in any particular way, and their ordering may change at any point. WARNING: When using {getRoleMember} and {getRoleMemberCount}, make sure you perform all queries on the same block. See the following https://forum.openzeppelin.com/t/iterating-over-elements-on-enumerableset-in-openzeppelin-contracts/2296[forum post] for more information."
      },
      "getRoleMemberCount(bytes32)": {
        "details": "Returns the number of accounts that have `role`. Can be used together with {getRoleMember} to enumerate all bearers of a role."
      },
      "getTraderDerivativePositions(address)": {
        "params": {
          "trader": "The trader address"
        }
      },
      "grantRole(bytes32,address)": {
        "details": "Grants `role` to `account`. If `account` had not been already granted `role`, emits a {RoleGranted} event. Requirements: - the caller must have ``role``'s admin role."
      },
      "hasRole(bytes32,address)": {
        "details": "Returns `true` if `account` has been granted `role`."
      },
      "initialize(address,address,address,uint256,uint256,uint256,uint256,uint256,uint256,uint256,uint256,uint256)": {
        "details": "called only by owner of DerifyFactory"
      },
      "openMarketPricePosition(uint8,address,address,uint8,uint256,uint256,uint256)": {
        "params": {
          "leverage": "The leverage",
          "openPrice": "The open price",
          "side": "The side of position",
          "size": "The size",
          "theBroker": "The broker of trader",
          "trader": "The trader address"
        }
      },
      "orderAndCancelStopPosition(uint8,uint8,uint256,uint8)": {
        "params": {
          "cancelStopType": "The type of ordered position to cancel",
          "orderPrice": "The price of ordered position to order",
          "orderStopType": "The type of ordered position to order",
          "side": "The side of position"
        }
      },
      "orderLimitPricePosition(address,uint8,uint256,uint256,uint256)": {
        "params": {
          "leverage": "The leverage",
          "limitPrice": "The limit price to open",
          "side": "The side of position",
          "size": "The size",
          "trader": "The trader address"
        }
      },
      "orderStopPosition(uint8,uint8,uint256,uint256)": {
        "params": {
          "side": "The side of position",
          "stopLossPrice": "The stop loss price",
          "stopType": "The stop type",
          "takeProfitPrice": "The take profit price"
        }
      },
      "removeTrader(address)": {
        "details": "called only by DerifyExchange",
        "params": {
          "trader": "The trader address"
        }
      },
      "renounceRole(bytes32,address)": {
        "details": "Revokes `role` from the calling account. Roles are often managed via {grantRole} and {revokeRole}: this function's purpose is to provide a mechanism for accounts to lose their privileges if they are compromised (such as when a trusted device is misplaced). If the calling account had been revoked `role`, emits a {RoleRevoked} event. Requirements: - the caller must be `account`."
      },
      "revokeRole(bytes32,address)": {
        "details": "Revokes `role` from `account`. If `account` had been granted `role`, emits a {RoleRevoked} event. Requirements: - the caller must have ``role``'s admin role."
      },
      "supportsInterface(bytes4)": {
        "details": "See {IERC165-supportsInterface}."
      }
    },
    "stateVariables": {
      "CALLER_ROLE": {
        "details": "Create a new role identifier for the caller role"
      },
      "allTraders": {
        "details": "the set of all traders"
      },
      "exchange": {
        "details": "the exchange address "
      },
      "priceFeed": {
        "details": "chainlink price feed"
      },
      "token": {
        "details": "the token of the derivative "
      },
      "traderAllPositions": {
        "details": "the trader positions under the derivative "
      }
    },
    "version": 1
  },
  "userdoc": {
    "events": {
      "CancelOrderedPositions(address,address,uint256)": {
        "notice": "Emit when Cancel all ordered positions"
      },
      "Close(address,address,uint8,uint8,uint256,uint256,uint256,int256,int256,uint256)": {
        "notice": "Emit when Close position"
      },
      "CloseLimit(address,address,uint8,uint256,uint256,uint256,uint256,uint256)": {
        "notice": "Emit when Close limit price position"
      },
      "CloseStop(address,address,uint8,uint8,uint256)": {
        "notice": "Emit when Close stop position"
      },
      "GlobleDataUpdate(uint8,uint256,uint256,uint256)": {
        "notice": "Emit when globle data update"
      },
      "Open(address,address,uint8,uint8,uint256,uint256,uint256,uint256,int256,uint256)": {
        "notice": "Emit when Open position"
      },
      "OpenLimit(address,address,uint8,uint256,uint256,uint256,uint256)": {
        "notice": "Emit when Open limit price position"
      },
      "OpenStop(address,address,uint8,uint8,uint256,uint256)": {
        "notice": "Emit when Open stop position"
      }
    },
    "kind": "user",
    "methods": {
      "CONTRACT_DECIMAL()": {
        "notice": "The contract decimals"
      },
      "cancelDerivativeOrderedPositions(address)": {
        "notice": "Cancel all Order Positions of the trader"
      },
      "cancelOrderedLimitPosition(uint8,uint256)": {
        "notice": "Cancel Order Limit Position"
      },
      "cancelOrderedStopPosition(uint8,uint8)": {
        "notice": "Cancel Order Stop Position"
      },
      "closeDerivativePositions(address,address)": {
        "notice": "Close all positions of trader"
      },
      "closePositionByLiquidation(address,address,uint8)": {
        "notice": "Close position by liquidation"
      },
      "closePositionByTrader(uint8,address,address,uint8,uint256)": {
        "notice": "Close Position"
      },
      "deleteOrderedLimitPositions(address,uint8,uint256,uint256,uint256,uint256,uint256)": {
        "notice": "Delete ordered limit price Positions of the trader"
      },
      "gRatio()": {
        "notice": "G The param used in computing position change fee ratio"
      },
      "getAllTraders()": {
        "notice": "Get all traders"
      },
      "getPositionChangeFee(int256,int256)": {
        "notice": "Get the position change fee"
      },
      "getPositionChangeFeeRatio()": {
        "notice": "Get the position change fee ratio"
      },
      "getSideTotalAmount()": {
        "notice": "Get long total size and short total size of the derivative"
      },
      "getSpotPrice()": {
        "notice": "Get the spot price of the token"
      },
      "getTokenTotalUnrealizedPnl()": {
        "notice": "Get the total unrealized profit and loss of the token derivative"
      },
      "getTraderDerivativePositions(address)": {
        "notice": "Get the DerivativePositions of the trader"
      },
      "initialize(address,address,address,uint256,uint256,uint256,uint256,uint256,uint256,uint256,uint256,uint256)": {
        "notice": "Initialize the contract"
      },
      "kRatio()": {
        "notice": "k The param used in computing position change fee ratio"
      },
      "longAveragePrice()": {
        "notice": "longAveragePrice The long side average price of all positions"
      },
      "longTotalSize()": {
        "notice": "longTotalSize The long side total size"
      },
      "maxLeverage()": {
        "notice": "maxLeverage The max leverage"
      },
      "maxLimitOrderSize()": {
        "notice": "maxLimitOrderSize The max size of limit price order per trader"
      },
      "openMarketPricePosition(uint8,address,address,uint8,uint256,uint256,uint256)": {
        "notice": "Open Market Price Position"
      },
      "orderAndCancelStopPosition(uint8,uint8,uint256,uint8)": {
        "notice": "Order and Cancel take profit or stop loss price Position"
      },
      "orderLimitPricePosition(address,uint8,uint256,uint256,uint256)": {
        "notice": "Order limit price Position"
      },
      "orderStopPosition(uint8,uint8,uint256,uint256)": {
        "notice": "Order stop profit price or loss price Position"
      },
      "removeTrader(address)": {
        "notice": "Remove trader without any positions"
      },
      "roRatio()": {
        "notice": "ro The param used in computing position change fee"
      },
      "shortAveragePrice()": {
        "notice": "shortAveragePrice The short side average price of all positions"
      },
      "shortTotalSize()": {
        "notice": "shortTotalSize The short side total size"
      },
      "tradingFeeBrokerRatio()": {
        "notice": "mining The trading fee for broker reward ratio"
      },
      "tradingFeeInusranceRatio()": {
        "notice": "mining The trading fee for insurance ratio"
      },
      "tradingFeePmrRatio()": {
        "notice": "mining The trading fee for position mining reward ratio"
      },
      "tradingFeeRatio()": {
        "notice": "trading fee ration The param used in computing trading fee"
      }
    },
    "version": 1
  }
}