{
  "contractName": "DerifyExchange",
  "abi": [
    {
      "inputs": [],
      "stateMutability": "nonpayable",
      "type": "constructor"
    },
    {
      "anonymous": false,
      "inputs": [
        {
          "indexed": false,
          "internalType": "uint256",
          "name": "usdAmount",
          "type": "uint256"
        },
        {
          "indexed": false,
          "internalType": "uint256",
          "name": "drfAmount",
          "type": "uint256"
        },
        {
          "indexed": false,
          "internalType": "uint256",
          "name": "gasFee",
          "type": "uint256"
        },
        {
          "indexed": false,
          "internalType": "uint256",
          "name": "timestamp",
          "type": "uint256"
        }
      ],
      "name": "BuyBackDrfUpdate",
      "type": "event"
    },
    {
      "anonymous": false,
      "inputs": [
        {
          "indexed": true,
          "internalType": "address",
          "name": "user",
          "type": "address"
        },
        {
          "indexed": false,
          "internalType": "uint256",
          "name": "amount",
          "type": "uint256"
        },
        {
          "indexed": false,
          "internalType": "int256",
          "name": "balance",
          "type": "int256"
        },
        {
          "indexed": false,
          "internalType": "uint256",
          "name": "timestamp",
          "type": "uint256"
        }
      ],
      "name": "Deposit",
      "type": "event"
    },
    {
      "anonymous": false,
      "inputs": [
        {
          "indexed": false,
          "internalType": "enum IDerifyExchange.PoolUpdateType",
          "name": "poolUpdateType",
          "type": "uint8"
        },
        {
          "indexed": false,
          "internalType": "int256",
          "name": "amount",
          "type": "int256"
        },
        {
          "indexed": false,
          "internalType": "uint256",
          "name": "balance",
          "type": "uint256"
        },
        {
          "indexed": false,
          "internalType": "uint256",
          "name": "timestamp",
          "type": "uint256"
        }
      ],
      "name": "InfurancePoolUpdate",
      "type": "event"
    },
    {
      "anonymous": false,
      "inputs": [
        {
          "indexed": false,
          "internalType": "enum IDerifyExchange.PoolUpdateType",
          "name": "poolUpdateType",
          "type": "uint8"
        },
        {
          "indexed": false,
          "internalType": "int256",
          "name": "amount",
          "type": "int256"
        },
        {
          "indexed": false,
          "internalType": "uint256",
          "name": "balance",
          "type": "uint256"
        },
        {
          "indexed": false,
          "internalType": "uint256",
          "name": "timestamp",
          "type": "uint256"
        }
      ],
      "name": "LiquidityPoolUpdate",
      "type": "event"
    },
    {
      "anonymous": false,
      "inputs": [
        {
          "indexed": true,
          "internalType": "address",
          "name": "previousOwner",
          "type": "address"
        },
        {
          "indexed": true,
          "internalType": "address",
          "name": "newOwner",
          "type": "address"
        }
      ],
      "name": "OwnershipTransferred",
      "type": "event"
    },
    {
      "anonymous": false,
      "inputs": [
        {
          "indexed": false,
          "internalType": "address",
          "name": "account",
          "type": "address"
        }
      ],
      "name": "Paused",
      "type": "event"
    },
    {
      "anonymous": false,
      "inputs": [
        {
          "indexed": true,
          "internalType": "address",
          "name": "user",
          "type": "address"
        },
        {
          "indexed": false,
          "internalType": "uint256",
          "name": "amount",
          "type": "uint256"
        }
      ],
      "name": "Received",
      "type": "event"
    },
    {
      "anonymous": false,
      "inputs": [
        {
          "indexed": true,
          "internalType": "bytes32",
          "name": "role",
          "type": "bytes32"
        },
        {
          "indexed": true,
          "internalType": "bytes32",
          "name": "previousAdminRole",
          "type": "bytes32"
        },
        {
          "indexed": true,
          "internalType": "bytes32",
          "name": "newAdminRole",
          "type": "bytes32"
        }
      ],
      "name": "RoleAdminChanged",
      "type": "event"
    },
    {
      "anonymous": false,
      "inputs": [
        {
          "indexed": true,
          "internalType": "bytes32",
          "name": "role",
          "type": "bytes32"
        },
        {
          "indexed": true,
          "internalType": "address",
          "name": "account",
          "type": "address"
        },
        {
          "indexed": true,
          "internalType": "address",
          "name": "sender",
          "type": "address"
        }
      ],
      "name": "RoleGranted",
      "type": "event"
    },
    {
      "anonymous": false,
      "inputs": [
        {
          "indexed": true,
          "internalType": "bytes32",
          "name": "role",
          "type": "bytes32"
        },
        {
          "indexed": true,
          "internalType": "address",
          "name": "account",
          "type": "address"
        },
        {
          "indexed": true,
          "internalType": "address",
          "name": "sender",
          "type": "address"
        }
      ],
      "name": "RoleRevoked",
      "type": "event"
    },
    {
      "anonymous": false,
      "inputs": [
        {
          "indexed": false,
          "internalType": "enum IDerifyExchange.FeeType",
          "name": "feeType",
          "type": "uint8"
        },
        {
          "indexed": true,
          "internalType": "address",
          "name": "user",
          "type": "address"
        },
        {
          "indexed": false,
          "internalType": "int256",
          "name": "amount",
          "type": "int256"
        },
        {
          "indexed": false,
          "internalType": "int256",
          "name": "balance",
          "type": "int256"
        },
        {
          "indexed": false,
          "internalType": "uint256",
          "name": "timestamp",
          "type": "uint256"
        }
      ],
      "name": "TraderBalanceUpdate",
      "type": "event"
    },
    {
      "anonymous": false,
      "inputs": [
        {
          "indexed": false,
          "internalType": "address",
          "name": "account",
          "type": "address"
        }
      ],
      "name": "Unpaused",
      "type": "event"
    },
    {
      "anonymous": false,
      "inputs": [
        {
          "indexed": true,
          "internalType": "address",
          "name": "user",
          "type": "address"
        },
        {
          "indexed": false,
          "internalType": "int256",
          "name": "amount",
          "type": "int256"
        },
        {
          "indexed": false,
          "internalType": "int256",
          "name": "balance",
          "type": "int256"
        },
        {
          "indexed": false,
          "internalType": "uint256",
          "name": "timestamp",
          "type": "uint256"
        }
      ],
      "name": "Withdraw",
      "type": "event"
    },
    {
      "inputs": [],
      "name": "BUYBACK_ROLE",
      "outputs": [
        {
          "internalType": "bytes32",
          "name": "",
          "type": "bytes32"
        }
      ],
      "stateMutability": "view",
      "type": "function"
    },
    {
      "inputs": [],
      "name": "CLEARING_ROLE",
      "outputs": [
        {
          "internalType": "bytes32",
          "name": "",
          "type": "bytes32"
        }
      ],
      "stateMutability": "view",
      "type": "function"
    },
    {
      "inputs": [],
      "name": "CONTRACT_DECIMAL",
      "outputs": [
        {
          "internalType": "uint256",
          "name": "",
          "type": "uint256"
        }
      ],
      "stateMutability": "view",
      "type": "function"
    },
    {
      "inputs": [],
      "name": "DEFAULT_ADMIN_ROLE",
      "outputs": [
        {
          "internalType": "bytes32",
          "name": "",
          "type": "bytes32"
        }
      ],
      "stateMutability": "view",
      "type": "function"
    },
    {
      "inputs": [],
      "name": "FEE_ROLE",
      "outputs": [
        {
          "internalType": "bytes32",
          "name": "",
          "type": "bytes32"
        }
      ],
      "stateMutability": "view",
      "type": "function"
    },
    {
      "inputs": [],
      "name": "PAUSER_ROLE",
      "outputs": [
        {
          "internalType": "bytes32",
          "name": "",
          "type": "bytes32"
        }
      ],
      "stateMutability": "view",
      "type": "function"
    },
    {
      "inputs": [],
      "name": "REWARD_ROLE",
      "outputs": [
        {
          "internalType": "bytes32",
          "name": "",
          "type": "bytes32"
        }
      ],
      "stateMutability": "view",
      "type": "function"
    },
    {
      "inputs": [],
      "name": "TOKEN_DECIMAL_DIFF",
      "outputs": [
        {
          "internalType": "uint256",
          "name": "",
          "type": "uint256"
        }
      ],
      "stateMutability": "view",
      "type": "function"
    },
    {
      "inputs": [],
      "name": "broker",
      "outputs": [
        {
          "internalType": "address",
          "name": "",
          "type": "address"
        }
      ],
      "stateMutability": "view",
      "type": "function"
    },
    {
      "inputs": [],
      "name": "buyBackFundRatio",
      "outputs": [
        {
          "internalType": "uint256",
          "name": "",
          "type": "uint256"
        }
      ],
      "stateMutability": "view",
      "type": "function"
    },
    {
      "inputs": [],
      "name": "clearing",
      "outputs": [
        {
          "internalType": "address",
          "name": "",
          "type": "address"
        }
      ],
      "stateMutability": "view",
      "type": "function"
    },
    {
      "inputs": [],
      "name": "dexRouter",
      "outputs": [
        {
          "internalType": "address",
          "name": "",
          "type": "address"
        }
      ],
      "stateMutability": "view",
      "type": "function"
    },
    {
      "inputs": [],
      "name": "factory",
      "outputs": [
        {
          "internalType": "address",
          "name": "",
          "type": "address"
        }
      ],
      "stateMutability": "view",
      "type": "function"
    },
    {
      "inputs": [
        {
          "internalType": "bytes32",
          "name": "role",
          "type": "bytes32"
        }
      ],
      "name": "getRoleAdmin",
      "outputs": [
        {
          "internalType": "bytes32",
          "name": "",
          "type": "bytes32"
        }
      ],
      "stateMutability": "view",
      "type": "function"
    },
    {
      "inputs": [
        {
          "internalType": "bytes32",
          "name": "role",
          "type": "bytes32"
        },
        {
          "internalType": "uint256",
          "name": "index",
          "type": "uint256"
        }
      ],
      "name": "getRoleMember",
      "outputs": [
        {
          "internalType": "address",
          "name": "",
          "type": "address"
        }
      ],
      "stateMutability": "view",
      "type": "function"
    },
    {
      "inputs": [
        {
          "internalType": "bytes32",
          "name": "role",
          "type": "bytes32"
        }
      ],
      "name": "getRoleMemberCount",
      "outputs": [
        {
          "internalType": "uint256",
          "name": "",
          "type": "uint256"
        }
      ],
      "stateMutability": "view",
      "type": "function"
    },
    {
      "inputs": [
        {
          "internalType": "bytes32",
          "name": "role",
          "type": "bytes32"
        },
        {
          "internalType": "address",
          "name": "account",
          "type": "address"
        }
      ],
      "name": "grantRole",
      "outputs": [],
      "stateMutability": "nonpayable",
      "type": "function"
    },
    {
      "inputs": [
        {
          "internalType": "bytes32",
          "name": "role",
          "type": "bytes32"
        },
        {
          "internalType": "address",
          "name": "account",
          "type": "address"
        }
      ],
      "name": "hasRole",
      "outputs": [
        {
          "internalType": "bool",
          "name": "",
          "type": "bool"
        }
      ],
      "stateMutability": "view",
      "type": "function"
    },
    {
      "inputs": [],
      "name": "insuranceFundPool",
      "outputs": [
        {
          "internalType": "uint256",
          "name": "",
          "type": "uint256"
        }
      ],
      "stateMutability": "view",
      "type": "function"
    },
    {
      "inputs": [],
      "name": "liquidityPool",
      "outputs": [
        {
          "internalType": "uint256",
          "name": "",
          "type": "uint256"
        }
      ],
      "stateMutability": "view",
      "type": "function"
    },
    {
      "inputs": [],
      "name": "minOpenAmount",
      "outputs": [
        {
          "internalType": "uint256",
          "name": "",
          "type": "uint256"
        }
      ],
      "stateMutability": "view",
      "type": "function"
    },
    {
      "inputs": [],
      "name": "owner",
      "outputs": [
        {
          "internalType": "address",
          "name": "",
          "type": "address"
        }
      ],
      "stateMutability": "view",
      "type": "function"
    },
    {
      "inputs": [],
      "name": "paused",
      "outputs": [
        {
          "internalType": "bool",
          "name": "",
          "type": "bool"
        }
      ],
      "stateMutability": "view",
      "type": "function"
    },
    {
      "inputs": [],
      "name": "renounceOwnership",
      "outputs": [],
      "stateMutability": "nonpayable",
      "type": "function"
    },
    {
      "inputs": [
        {
          "internalType": "bytes32",
          "name": "role",
          "type": "bytes32"
        },
        {
          "internalType": "address",
          "name": "account",
          "type": "address"
        }
      ],
      "name": "renounceRole",
      "outputs": [],
      "stateMutability": "nonpayable",
      "type": "function"
    },
    {
      "inputs": [
        {
          "internalType": "bytes32",
          "name": "role",
          "type": "bytes32"
        },
        {
          "internalType": "address",
          "name": "account",
          "type": "address"
        }
      ],
      "name": "revokeRole",
      "outputs": [],
      "stateMutability": "nonpayable",
      "type": "function"
    },
    {
      "inputs": [],
      "name": "rewards",
      "outputs": [
        {
          "internalType": "address",
          "name": "",
          "type": "address"
        }
      ],
      "stateMutability": "view",
      "type": "function"
    },
    {
      "inputs": [
        {
          "internalType": "bytes4",
          "name": "interfaceId",
          "type": "bytes4"
        }
      ],
      "name": "supportsInterface",
      "outputs": [
        {
          "internalType": "bool",
          "name": "",
          "type": "bool"
        }
      ],
      "stateMutability": "view",
      "type": "function"
    },
    {
      "inputs": [],
      "name": "thetaRatio",
      "outputs": [
        {
          "internalType": "uint256",
          "name": "",
          "type": "uint256"
        }
      ],
      "stateMutability": "view",
      "type": "function"
    },
    {
      "inputs": [],
      "name": "tokenDRF",
      "outputs": [
        {
          "internalType": "address",
          "name": "",
          "type": "address"
        }
      ],
      "stateMutability": "view",
      "type": "function"
    },
    {
      "inputs": [],
      "name": "tokenUSD",
      "outputs": [
        {
          "internalType": "address",
          "name": "",
          "type": "address"
        }
      ],
      "stateMutability": "view",
      "type": "function"
    },
    {
      "inputs": [],
      "name": "totalAccountBalance",
      "outputs": [
        {
          "internalType": "int256",
          "name": "",
          "type": "int256"
        }
      ],
      "stateMutability": "view",
      "type": "function"
    },
    {
      "inputs": [
        {
          "internalType": "address",
          "name": "newOwner",
          "type": "address"
        }
      ],
      "name": "transferOwnership",
      "outputs": [],
      "stateMutability": "nonpayable",
      "type": "function"
    },
    {
      "stateMutability": "payable",
      "type": "receive"
    },
    {
      "inputs": [
        {
          "internalType": "address",
          "name": "_factory",
          "type": "address"
        },
        {
          "internalType": "address",
          "name": "_rewards",
          "type": "address"
        },
        {
          "internalType": "address",
          "name": "_broker",
          "type": "address"
        },
        {
          "internalType": "address",
          "name": "_clearing",
          "type": "address"
        },
        {
          "internalType": "address",
          "name": "_buyBackExecutor",
          "type": "address"
        },
        {
          "internalType": "address",
          "name": "_tokenUSD",
          "type": "address"
        },
        {
          "internalType": "address",
          "name": "_tokenDRF",
          "type": "address"
        },
        {
          "internalType": "address",
          "name": "_dexRouter",
          "type": "address"
        },
        {
          "internalType": "uint256",
          "name": "_thetaRatio",
          "type": "uint256"
        },
        {
          "internalType": "uint256",
          "name": "_buyBackFundRatio",
          "type": "uint256"
        },
        {
          "internalType": "uint256",
          "name": "_minOpenAmount",
          "type": "uint256"
        }
      ],
      "name": "initialize",
      "outputs": [],
      "stateMutability": "nonpayable",
      "type": "function"
    },
    {
      "inputs": [
        {
          "internalType": "uint256",
          "name": "amount",
          "type": "uint256"
        }
      ],
      "name": "deposit",
      "outputs": [],
      "stateMutability": "nonpayable",
      "type": "function"
    },
    {
      "inputs": [
        {
          "internalType": "uint256",
          "name": "amount",
          "type": "uint256"
        }
      ],
      "name": "withdraw",
      "outputs": [],
      "stateMutability": "nonpayable",
      "type": "function"
    },
    {
      "inputs": [
        {
          "internalType": "address",
          "name": "theBroker",
          "type": "address"
        },
        {
          "internalType": "address",
          "name": "token",
          "type": "address"
        },
        {
          "internalType": "enum IDerifyDerivative.Side",
          "name": "side",
          "type": "uint8"
        },
        {
          "internalType": "enum IDerifyExchange.OpenType",
          "name": "openType",
          "type": "uint8"
        },
        {
          "internalType": "enum IDerifyExchange.QuantityType",
          "name": "quantityType",
          "type": "uint8"
        },
        {
          "internalType": "uint256",
          "name": "quantity",
          "type": "uint256"
        },
        {
          "internalType": "uint256",
          "name": "price",
          "type": "uint256"
        },
        {
          "internalType": "uint256",
          "name": "leverage",
          "type": "uint256"
        }
      ],
      "name": "openPosition",
      "outputs": [],
      "stateMutability": "nonpayable",
      "type": "function"
    },
    {
      "inputs": [
        {
          "internalType": "address",
          "name": "theBroker",
          "type": "address"
        },
        {
          "internalType": "address",
          "name": "token",
          "type": "address"
        },
        {
          "internalType": "enum IDerifyDerivative.Side",
          "name": "side",
          "type": "uint8"
        },
        {
          "internalType": "uint256",
          "name": "size",
          "type": "uint256"
        }
      ],
      "name": "closePosition",
      "outputs": [],
      "stateMutability": "nonpayable",
      "type": "function"
    },
    {
      "inputs": [
        {
          "internalType": "address",
          "name": "theBroker",
          "type": "address"
        }
      ],
      "name": "closeAllPositions",
      "outputs": [],
      "stateMutability": "nonpayable",
      "type": "function"
    },
    {
      "inputs": [],
      "name": "cancelAllOrderedPositions",
      "outputs": [],
      "stateMutability": "nonpayable",
      "type": "function"
    },
    {
      "inputs": [
        {
          "internalType": "enum IDerifyExchange.FeeType",
          "name": "feeType",
          "type": "uint8"
        },
        {
          "internalType": "address",
          "name": "trader",
          "type": "address"
        },
        {
          "internalType": "int256",
          "name": "amount",
          "type": "int256"
        }
      ],
      "name": "operateTraderBalance",
      "outputs": [],
      "stateMutability": "nonpayable",
      "type": "function"
    },
    {
      "inputs": [
        {
          "internalType": "uint256",
          "name": "tradingFee",
          "type": "uint256"
        },
        {
          "internalType": "address",
          "name": "trader",
          "type": "address"
        },
        {
          "internalType": "address",
          "name": "theBroker",
          "type": "address"
        },
        {
          "internalType": "uint256",
          "name": "tradingFeePmrRatio",
          "type": "uint256"
        },
        {
          "internalType": "uint256",
          "name": "tradingFeeInusranceRatio",
          "type": "uint256"
        },
        {
          "internalType": "uint256",
          "name": "tradingFeeBrokerRatio",
          "type": "uint256"
        }
      ],
      "name": "operateTradingFee",
      "outputs": [],
      "stateMutability": "nonpayable",
      "type": "function"
    },
    {
      "inputs": [
        {
          "internalType": "address",
          "name": "trader",
          "type": "address"
        },
        {
          "internalType": "uint256",
          "name": "amount",
          "type": "uint256"
        }
      ],
      "name": "exchangeBondByInsuranceFund",
      "outputs": [],
      "stateMutability": "nonpayable",
      "type": "function"
    },
    {
      "inputs": [
        {
          "internalType": "enum IDerifyExchange.PoolUpdateType",
          "name": "poolUpdateType",
          "type": "uint8"
        },
        {
          "internalType": "enum IDerifyExchange.AccountType",
          "name": "from",
          "type": "uint8"
        },
        {
          "internalType": "enum IDerifyExchange.AccountType",
          "name": "to",
          "type": "uint8"
        },
        {
          "internalType": "uint256",
          "name": "value",
          "type": "uint256"
        }
      ],
      "name": "transferPoolFrom",
      "outputs": [],
      "stateMutability": "nonpayable",
      "type": "function"
    },
    {
      "inputs": [
        {
          "internalType": "address",
          "name": "trader",
          "type": "address"
        }
      ],
      "name": "removeTrader",
      "outputs": [],
      "stateMutability": "nonpayable",
      "type": "function"
    },
    {
      "inputs": [
        {
          "internalType": "uint256",
          "name": "amountIn",
          "type": "uint256"
        },
        {
          "internalType": "uint256",
          "name": "amountOutMin",
          "type": "uint256"
        },
        {
          "internalType": "uint256",
          "name": "deadline",
          "type": "uint256"
        },
        {
          "internalType": "uint256",
          "name": "gasFee",
          "type": "uint256"
        }
      ],
      "name": "buyBackDrf",
      "outputs": [],
      "stateMutability": "nonpayable",
      "type": "function"
    },
    {
      "inputs": [],
      "name": "pause",
      "outputs": [],
      "stateMutability": "nonpayable",
      "type": "function"
    },
    {
      "inputs": [],
      "name": "unpause",
      "outputs": [],
      "stateMutability": "nonpayable",
      "type": "function"
    },
    {
      "inputs": [],
      "name": "getSysExchangeBondSizeUpperBound",
      "outputs": [
        {
          "internalType": "uint256",
          "name": "sysMaxBondSize",
          "type": "uint256"
        }
      ],
      "stateMutability": "view",
      "type": "function"
    },
    {
      "inputs": [],
      "name": "getAllTraders",
      "outputs": [
        {
          "internalType": "address[]",
          "name": "",
          "type": "address[]"
        }
      ],
      "stateMutability": "view",
      "type": "function"
    },
    {
      "inputs": [
        {
          "internalType": "address",
          "name": "trader",
          "type": "address"
        }
      ],
      "name": "getTraderAccount",
      "outputs": [
        {
          "internalType": "int256",
          "name": "balance",
          "type": "int256"
        },
        {
          "internalType": "int256",
          "name": "marginBalance",
          "type": "int256"
        },
        {
          "internalType": "uint256",
          "name": "totalMargin",
          "type": "uint256"
        },
        {
          "internalType": "uint256",
          "name": "availableMargin",
          "type": "uint256"
        }
      ],
      "stateMutability": "view",
      "type": "function"
    },
    {
      "inputs": [
        {
          "internalType": "address",
          "name": "trader",
          "type": "address"
        }
      ],
      "name": "getTraderVariables",
      "outputs": [
        {
          "internalType": "int256",
          "name": "marginBalance",
          "type": "int256"
        },
        {
          "internalType": "uint256",
          "name": "totalPositionAmount",
          "type": "uint256"
        },
        {
          "internalType": "int256",
          "name": "marginRate",
          "type": "int256"
        }
      ],
      "stateMutability": "view",
      "type": "function"
    },
    {
      "inputs": [
        {
          "internalType": "address",
          "name": "token",
          "type": "address"
        },
        {
          "internalType": "enum IDerifyDerivative.Side",
          "name": "side",
          "type": "uint8"
        }
      ],
      "name": "getSysOpenUpperBound",
      "outputs": [
        {
          "internalType": "uint256",
          "name": "size",
          "type": "uint256"
        }
      ],
      "stateMutability": "view",
      "type": "function"
    },
    {
      "inputs": [
        {
          "internalType": "address",
          "name": "token",
          "type": "address"
        },
        {
          "internalType": "address",
          "name": "trader",
          "type": "address"
        },
        {
          "internalType": "enum IDerifyExchange.OpenType",
          "name": "openType",
          "type": "uint8"
        },
        {
          "internalType": "uint256",
          "name": "price",
          "type": "uint256"
        },
        {
          "internalType": "uint256",
          "name": "leverage",
          "type": "uint256"
        }
      ],
      "name": "getTraderOpenUpperBound",
      "outputs": [
        {
          "internalType": "uint256",
          "name": "size",
          "type": "uint256"
        },
        {
          "internalType": "uint256",
          "name": "amount",
          "type": "uint256"
        }
      ],
      "stateMutability": "view",
      "type": "function"
    },
    {
      "inputs": [
        {
          "internalType": "address",
          "name": "token",
          "type": "address"
        },
        {
          "internalType": "address",
          "name": "trader",
          "type": "address"
        },
        {
          "internalType": "enum IDerifyDerivative.Side",
          "name": "side",
          "type": "uint8"
        }
      ],
      "name": "getCloseUpperBound",
      "outputs": [
        {
          "internalType": "uint256",
          "name": "size",
          "type": "uint256"
        }
      ],
      "stateMutability": "view",
      "type": "function"
    },
    {
      "inputs": [
        {
          "internalType": "address",
          "name": "token",
          "type": "address"
        },
        {
          "internalType": "enum IDerifyDerivative.Side",
          "name": "side",
          "type": "uint8"
        }
      ],
      "name": "getSysCloseUpperBound",
      "outputs": [
        {
          "internalType": "uint256",
          "name": "size",
          "type": "uint256"
        }
      ],
      "stateMutability": "view",
      "type": "function"
    },
    {
      "inputs": [
        {
          "internalType": "enum IDerifyDerivative.Side",
          "name": "side",
          "type": "uint8"
        },
        {
          "internalType": "uint256",
          "name": "spotPrice",
          "type": "uint256"
        },
        {
          "internalType": "uint256",
          "name": "size",
          "type": "uint256"
        },
        {
          "internalType": "uint256",
          "name": "leverage",
          "type": "uint256"
        },
        {
          "internalType": "uint256",
          "name": "averagePrice",
          "type": "uint256"
        }
      ],
      "name": "getTraderPositionVariables",
      "outputs": [
        {
          "internalType": "uint256",
          "name": "margin",
          "type": "uint256"
        },
        {
          "internalType": "int256",
          "name": "unrealizedPnl",
          "type": "int256"
        },
        {
          "internalType": "int256",
          "name": "returnRate",
          "type": "int256"
        }
      ],
      "stateMutability": "pure",
      "type": "function"
    },
    {
      "inputs": [],
      "name": "getSysTotalPositionAmount",
      "outputs": [
        {
          "internalType": "uint256",
          "name": "sysTotalPositionAmount",
          "type": "uint256"
        }
      ],
      "stateMutability": "view",
      "type": "function"
    }
  ],
  "bytecode": "0x60806040523480156200001157600080fd5b506200001d336200006b565b60016003556004805460ff1916905562000039600033620000bb565b620000657f65d7a28e3265b37a6474929f336521b332c1681b933f6cb9f3376673440d862a33620000bb565b62000208565b600080546001600160a01b038381166001600160a01b0319831681178455604051919092169283917f8be0079c531659141344cd1fd0a4f28419497f9722a3daafe3b4186f6b6457e09190a35050565b620000c78282620000cb565b5050565b620000e282826200010e60201b62002b2d1760201c565b60008281526002602090815260409091206200010991839062002b9862000196821b17901c565b505050565b60008281526001602090815260408083206001600160a01b038516845290915290205460ff16620000c75760008281526001602081815260408084206001600160a01b0386168086529252808420805460ff19169093179092559051339285917f2f8788117e7eff1d82e926ec794901d17c78024a50270940304540a733656f0d9190a45050565b6000620001ad836001600160a01b038416620001b6565b90505b92915050565b6000818152600183016020526040812054620001ff57508154600181810184556000848152602080822090930184905584548482528286019093526040902091909155620001b0565b506000620001b0565b6159bd80620002186000396000f3fe6080604052600436106103845760003560e01c8063715018a6116101d1578063b6b55f2511610102578063d547741f116100a0578063ea26ada21161006f578063ea26ada214610ad2578063f2fde38b14610af2578063f99b0f5014610b12578063fe6671cf14610b3257600080fd5b8063d547741f14610a2a578063e08943f614610a4a578063e63ab1e914610a6a578063e8884f2b14610a9e57600080fd5b8063c21fe9f2116100dc578063c21fe9f2146109ac578063c45a0155146109cc578063ca15c873146109f1578063cdc7045714610a1157600080fd5b8063b6b55f2514610938578063b7f11c2114610958578063bf5acd391461098c57600080fd5b80639fa45d561161016f578063a4ea684411610149578063a4ea6844146108b8578063a84d54ce146108d8578063a8e233d4146108f8578063abff01101461091857600080fd5b80639fa45d5614610861578063a174199114610883578063a217fddf146108a357600080fd5b80638da5cb5b116101ab5780638da5cb5b146107e35780639010d07c1461080157806391d14854146108215780639ec5a8941461084157600080fd5b8063715018a61461079957806374d6e484146107ae5780638456cb59146107ce57600080fd5b80632a0276f8116102b65780634b9399421161025457806360862d691161022357806360862d69146106f3578063665a11ca146107335780636ca0492d146107495780637085daa81461078457600080fd5b80634b9399421461067957806352e07f4a146106995780635c975abb146106b95780635e690e90146106d157600080fd5b806333d728141161029057806333d728141461061657806336568abe1461062e5780633f4ba83a1461064e5780634270c2671461066357600080fd5b80632a0276f8146105b45780632e1a7d4d146105d65780632f2ff15d146105f657600080fd5b80630a1f194f1161032357806314a8fa54116102fd57806314a8fa5414610543578063248a9ca31461055957806327026ac61461058a57806327f24e2d1461059f57600080fd5b80630a1f194f146104ce5780630bc70404146104ee578063127546411461050e57600080fd5b8063027cb7c61161035f578063027cb7c6146104405780630684fb3b146104785780630758d9241461049857806308c19c21146104b857600080fd5b8062093975146103c557806301ffc9a7146103e75780630262ad0c1461041c57600080fd5b366103c05760405134815233907f88a5966d370b9919b20f3e2c13ff65706f196a4e32cc2c12bf57088f885258749060200160405180910390a2005b600080fd5b3480156103d157600080fd5b506103e56103e0366004615313565b610b48565b005b3480156103f357600080fd5b50610407610402366004615042565b611001565b60405190151581526020015b60405180910390f35b34801561042857600080fd5b50610432600e5481565b604051908152602001610413565b34801561044c57600080fd5b50600754610460906001600160a01b031681565b6040516001600160a01b039091168152602001610413565b34801561048457600080fd5b506103e5610493366004614d6c565b61102c565b3480156104a457600080fd5b50600a54610460906001600160a01b031681565b3480156104c457600080fd5b50610432600c5481565b3480156104da57600080fd5b506103e56104e9366004614bc8565b61149e565b3480156104fa57600080fd5b506103e5610509366004614bc8565b6115a4565b34801561051a57600080fd5b5061052e610529366004614cc8565b611658565b60408051928352602083019190915201610413565b34801561054f57600080fd5b5061043260105481565b34801561056557600080fd5b50610432610574366004614fe5565b6000908152600160208190526040909120015490565b34801561059657600080fd5b506103e5611676565b3480156105ab57600080fd5b50610432611727565b3480156105c057600080fd5b5061043260008051602061592883398151915281565b3480156105e257600080fd5b506103e56105f1366004614fe5565b611736565b34801561060257600080fd5b506103e5610611366004614ffd565b611b4a565b34801561062257600080fd5b506104326305f5e10081565b34801561063a57600080fd5b506103e5610649366004614ffd565b611b70565b34801561065a57600080fd5b506103e5611bee565b34801561066f57600080fd5b50610432600d5481565b34801561068557600080fd5b50610432610694366004614d22565b611c23565b3480156106a557600080fd5b506103e56106b4366004614c00565b611c38565b3480156106c557600080fd5b5060045460ff16610407565b3480156106dd57600080fd5b5061043260008051602061590883398151915281565b3480156106ff57600080fd5b5061071361070e366004614bc8565b611d81565b604080519485526020850193909352918301526060820152608001610413565b34801561073f57600080fd5b50610432600f5481565b34801561075557600080fd5b506107696107643660046150e0565b611e48565b60408051938452602084019290925290820152606001610413565b34801561079057600080fd5b50610432611e7f565b3480156107a557600080fd5b506103e56120a8565b3480156107ba57600080fd5b506103e56107c9366004614e7d565b6120de565b3480156107da57600080fd5b506103e561229a565b3480156107ef57600080fd5b506000546001600160a01b0316610460565b34801561080d57600080fd5b5061046061081c366004615021565b6122cc565b34801561082d57600080fd5b5061040761083c366004614ffd565b6122eb565b34801561084d57600080fd5b50600554610460906001600160a01b031681565b34801561086d57600080fd5b50610876612316565b6040516104139190615459565b34801561088f57600080fd5b50600854610460906001600160a01b031681565b3480156108af57600080fd5b50610432600081565b3480156108c457600080fd5b506104326108d3366004614e45565b612322565b3480156108e457600080fd5b506103e56108f336600461506a565b61232e565b34801561090457600080fd5b506103e5610913366004614df5565b612351565b34801561092457600080fd5b50600654610460906001600160a01b031681565b34801561094457600080fd5b506103e5610953366004614fe5565b61245a565b34801561096457600080fd5b506104327fa7c777b85fc58675e1f97f547c6d0658b5454f6e82d1930f8a36716c5ac0de0581565b34801561099857600080fd5b50600954610460906001600160a01b031681565b3480156109b857600080fd5b506103e56109c73660046150ad565b61272c565b3480156109d857600080fd5b506004546104609061010090046001600160a01b031681565b3480156109fd57600080fd5b50610432610a0c366004614fe5565b612757565b348015610a1d57600080fd5b506104326402540be40081565b348015610a3657600080fd5b506103e5610a45366004614ffd565b61276e565b348015610a5657600080fd5b506103e5610a65366004615295565b612794565b348015610a7657600080fd5b506104327f65d7a28e3265b37a6474929f336521b332c1681b933f6cb9f3376673440d862a81565b348015610aaa57600080fd5b506104327fc002a6b5f9f56101ba6339b1b95d171fadf6e41e005b91c80d686aef7516e75981565b348015610ade57600080fd5b50610769610aed366004614bc8565b612a31565b348015610afe57600080fd5b506103e5610b0d366004614bc8565b612a89565b348015610b1e57600080fd5b50610432610b2d366004614e45565b612b21565b348015610b3e57600080fd5b50610432600b5481565b7fa7c777b85fc58675e1f97f547c6d0658b5454f6e82d1930f8a36716c5ac0de05610b7281612bad565b336000610b7d612bb7565b9050610b8984886156d0565b8111610bdc5760405162461bcd60e51b815260206004820152601a60248201527f44453a204255595f4241434b5f414d4f554e545f45584345454400000000000060448201526064015b60405180910390fd5b604080516002808252606082018352600092602083019080368337505060085482519293506001600160a01b031691839150600090610c2b57634e487b7160e01b600052603260045260246000fd5b6001600160a01b039283166020918202929092010152600954825191169082906001908110610c6a57634e487b7160e01b600052603260045260246000fd5b60200260200101906001600160a01b031690816001600160a01b0316815250508760106000828254610c9c919061580b565b9091555050600854600a546001600160a01b039182169163095ea7b39116610cc96402540be4008c6157ad565b6040516001600160e01b031960e085901b1681526001600160a01b0390921660048301526024820152604401602060405180830381600087803b158015610d0f57600080fd5b505af1158015610d23573d6000803e3d6000fd5b505050506040513d601f19601f82011682018060405250810190610d479190614fcb565b50600a546000906001600160a01b03166338ed1739610d6b6402540be4008c6157ad565b610d7a6402540be4008c6157ad565b8560018c6040518663ffffffff1660e01b8152600401610d9e9594939291906155d4565b600060405180830381600087803b158015610db857600080fd5b505af1158015610dcc573d6000803e3d6000fd5b505050506040513d6000823e601f3d908101601f19168201604052610df49190810190614f44565b9050600080516020615968833981519152600a610e138b60001961572a565b60105442604051610e27949392919061549c565b60405180910390a18560106000828254610e41919061580b565b90915550506008546001600160a01b031663a9059cbb85610e676402540be4008a6157ad565b6040516001600160e01b031960e085901b1681526001600160a01b0390921660048301526024820152604401602060405180830381600087803b158015610ead57600080fd5b505af1158015610ec1573d6000803e3d6000fd5b505050506040513d601f19601f82011682018060405250810190610ee59190614fcb565b610f315760405162461bcd60e51b815260206004820152601860248201527f44453a204242445f5553445f5452414e534645525f45525200000000000000006044820152606401610bd3565b7fdc0136d4193d47880c0d833ac816e72d7096b8b8b9d9df1014f6a3e98104a959896402540be4008360018551610f68919061580b565b81518110610f8657634e487b7160e01b600052603260045260246000fd5b6020026020010151610f989190615716565b604080519283526020830191909152810188905242606082015260800160405180910390a1600080516020615968833981519152600b610fda8860001961572a565b60105442604051610fee949392919061549c565b60405180910390a1505050505050505050565b60006001600160e01b03198216635a05180f60e01b1480611026575061102682612c15565b92915050565b60045460ff161561104f5760405162461bcd60e51b8152600401610bd390615575565b3382600087600181111561107357634e487b7160e01b600052602160045260246000fd5b14156110f55761108289612c4a565b6001600160a01b031663dc76fabc6040518163ffffffff1660e01b815260040160206040518083038186803b1580156110ba57600080fd5b505afa1580156110ce573d6000803e3d6000fd5b505050506040513d601f19601f820116820180604052508101906110f29190615123565b90505b84600187600181111561111857634e487b7160e01b600052602160045260246000fd5b141561118957600d548610156111695760405162461bcd60e51b8152602060048201526016602482015275111157d3d40e8813525397d3d4115397d05353d5539560521b6044820152606401610bd3565b816111786305f5e100886157ad565b6111829190615716565b90506111dd565b600d5461119683886157ad565b10156111dd5760405162461bcd60e51b8152602060048201526016602482015275111157d3d40e8813525397d3d4115397d05353d5539560521b6044820152606401610bd3565b60006111ed8b858c8c8a8a612cd3565b90508015611490576111ff8183612d62565b915060028a600281111561122357634e487b7160e01b600052602160045260246000fd5b141561139057600089600181111561124b57634e487b7160e01b600052602160045260246000fd5b146112905760405162461bcd60e51b815260206004820152601560248201527444453a204f505f4552525f545950455f484544474560581b6044820152606401610bd3565b6112998b612c4a565b6001600160a01b0316632a8eab926001868f60006112b8600289615716565b898c6040518863ffffffff1660e01b81526004016112dc97969594939291906154f2565b600060405180830381600087803b1580156112f657600080fd5b505af115801561130a573d6000803e3d6000fd5b505050506113178b612c4a565b6001600160a01b0316632a8eab926001868f82611335600289615716565b898c6040518863ffffffff1660e01b815260040161135997969594939291906154f2565b600060405180830381600087803b15801561137357600080fd5b505af1158015611387573d6000803e3d6000fd5b50505050611490565b60008960018111156113b257634e487b7160e01b600052602160045260246000fd5b14156113f9576113c18b612c4a565b6001600160a01b0316632a8eab926000868f8e87898c6040518863ffffffff1660e01b815260040161135997969594939291906154f2565b600189600181111561141b57634e487b7160e01b600052602160045260246000fd5b14156114905761142a8b612c4a565b6001600160a01b031663d2f6bc93858c85878a6040518663ffffffff1660e01b815260040161145d959493929190615420565b600060405180830381600087803b15801561147757600080fd5b505af115801561148b573d6000803e3d6000fd5b505050505b505050505050505050505050565b6000805160206159088339815191526114b681612bad565b6114c1601283612d78565b506001600160a01b0382166000908152601160205260408120818155600101805460ff191690556114f0612d8d565b905060005b815181101561159e5761152e82828151811061152157634e487b7160e01b600052603260045260246000fd5b6020026020010151612c4a565b604051630a1f194f60e01b81526001600160a01b0386811660048301529190911690630a1f194f90602401600060405180830381600087803b15801561157357600080fd5b505af1158015611587573d6000803e3d6000fd5b50505050808061159690615865565b9150506114f5565b50505050565b3360006115af612d8d565b905060005b815181101561159e576115e082828151811061152157634e487b7160e01b600052603260045260246000fd5b604051630708710f60e01b81526001600160a01b03858116600483015286811660248301529190911690630708710f90604401600060405180830381600087803b15801561162d57600080fd5b505af1158015611641573d6000803e3d6000fd5b50505050808061165090615865565b9150506115b4565b6000806116688787878787612e19565b909890975095505050505050565b336000611681612d8d565b905060005b8151811015611722576116b282828151811061152157634e487b7160e01b600052603260045260246000fd5b60405163333b5e8960e11b81526001600160a01b0385811660048301529190911690636676bd1290602401600060405180830381600087803b1580156116f757600080fd5b505af115801561170b573d6000803e3d6000fd5b50505050808061171a90615865565b915050611686565b505050565b6000611731612bb7565b905090565b600260035414156117895760405162461bcd60e51b815260206004820152601f60248201527f5265656e7472616e637947756172643a207265656e7472616e742063616c6c006044820152606401610bd3565b600260035560045460ff16156117b15760405162461bcd60e51b8152600401610bd390615575565b336000818152601160205260409020600181015460ff166118075760405162461bcd60e51b815260206004820152601060248201526f22229d102bafaa2920a222a92fa2a92960811b6044820152606401610bd3565b6000611811612d8d565b905061181d8184612f60565b8411156118625760405162461bcd60e51b815260206004820152601360248201527211114e8815d7d05353d5539517d15610d15151606a1b6044820152606401610bd3565b8360008061186e612fbc565b9092509050600081611880848a61572a565b61188a91906156e8565b9050600081131561195157601054819081116118b4576118af600660016000846130b0565b61194b565b6000601054826118c4919061580b565b90506118d0818b61580b565b95506118e36006600160006010546130b0565b6005546040516331e6f7b760e11b81526001600160a01b038b8116600483015260248201849052909116906363cdef6e90604401600060405180830381600087803b15801561193157600080fd5b505af1158015611945573d6000803e3d6000fd5b50505050505b5061197b565b600081121561197b5760006119688260001961572a565b9050611979600760006001846130b0565b505b8786600001600082825461198f91906157cc565b9250508190555087600e60008282546119a891906157cc565b9250508190555083600f60008282546119c1919061580b565b90915550506008546001600160a01b031663a9059cbb886119e76402540be400886157ad565b6040516001600160e01b031960e085901b1681526001600160a01b0390921660048301526024820152604401602060405180830381600087803b158015611a2d57600080fd5b505af1158015611a41573d6000803e3d6000fd5b505050506040513d601f19601f82011682018060405250810190611a659190614fcb565b611aaa5760405162461bcd60e51b815260206004820152601660248201527522229d102bafaaa9a22faa2920a729a322a92fa2a92960511b6044820152606401610bd3565b6001600160a01b0387167f833113a4ca5edf7d4ce84b51a71faa8fe071b615c1508ae72c9d828d59f67fa3611ae18a60001961572a565b8854604080519283526020830191909152429082015260600160405180910390a26000805160206159488339815191526002611b1f8660001961572a565b600f5442604051611b33949392919061549c565b60405180910390a150506001600355505050505050565b60008281526001602081905260409091200154611b6681612bad565b6117228383613289565b6001600160a01b0381163314611be05760405162461bcd60e51b815260206004820152602f60248201527f416363657373436f6e74726f6c3a2063616e206f6e6c792072656e6f756e636560448201526e103937b632b9903337b91039b2b63360891b6064820152608401610bd3565b611bea82826132ab565b5050565b7f65d7a28e3265b37a6474929f336521b332c1681b933f6cb9f3376673440d862a611c1881612bad565b611c206132cd565b50565b6000611c30848484613360565b949350505050565b6000546001600160a01b03163314611c625760405162461bcd60e51b8152600401610bd39061559f565b60048054610100600160a81b0319166101006001600160a01b038e81169190910291909117909155600580546001600160a01b03199081168d8416179091556006805482168c84161790556007805482168b8416179055600880548216898416179055600980548216888416179055600a8054909116918616919091179055600b839055600c829055600d819055611d1a7fa7c777b85fc58675e1f97f547c6d0658b5454f6e82d1930f8a36716c5ac0de0588613449565b611d447fc002a6b5f9f56101ba6339b1b95d171fadf6e41e005b91c80d686aef7516e7598b613449565b611d5c60008051602061590883398151915289613449565b611d7460008051602061592883398151915289613449565b5050505050505050505050565b6001600160a01b03811660009081526011602090815260408083208151808301909252805482526001015460ff161515918101829052829182918291611dfe5760405162461bcd60e51b815260206004820152601260248201527122229d1023aa20afaa2920a222a92fa2a92960711b6044820152606401610bd3565b6000611e08612d8d565b825196509050611e188188613453565b5091965060009150611e2c90508289613706565b509050809450611e3c8289612f60565b93505050509193509193565b6000806000611e58868689613abf565b9250611e668887868a613b17565b9150611e728284613bba565b9050955095509592505050565b600080611e8a612d8d565b905060005b81518110156120a3576000611ebd83838151811061152157634e487b7160e01b600052603260045260246000fd5b6001600160a01b031663dc76fabc6040518163ffffffff1660e01b815260040160206040518083038186803b158015611ef557600080fd5b505afa158015611f09573d6000803e3d6000fd5b505050506040513d601f19601f82011682018060405250810190611f2d9190615123565b90506000611f5484848151811061152157634e487b7160e01b600052603260045260246000fd5b6001600160a01b031663cfaf63d76040518163ffffffff1660e01b815260040160206040518083038186803b158015611f8c57600080fd5b505afa158015611fa0573d6000803e3d6000fd5b505050506040513d601f19601f82011682018060405250810190611fc49190615123565b90506000611feb85858151811061152157634e487b7160e01b600052603260045260246000fd5b6001600160a01b03166310d5c4126040518163ffffffff1660e01b815260040160206040518083038186803b15801561202357600080fd5b505afa158015612037573d6000803e3d6000fd5b505050506040513d601f19601f8201168201806040525081019061205b9190615123565b90506305f5e1008361206d83856156d0565b61207791906157ad565b6120819190615716565b61208b90876156d0565b9550505050808061209b90615865565b915050611e8f565b505090565b6000546001600160a01b031633146120d25760405162461bcd60e51b8152600401610bd39061559f565b6120dc6000613c17565b565b7fc002a6b5f9f56101ba6339b1b95d171fadf6e41e005b91c80d686aef7516e75961210881612bad565b81601054101561215a5760405162461bcd60e51b815260206004820152601860248201527f44453a2045424249465f42414c414e43455f45584345454400000000000000006044820152606401610bd3565b816010600082825461216c919061580b565b90915550506008546001600160a01b031663a9059cbb846121926402540be400866157ad565b6040516001600160e01b031960e085901b1681526001600160a01b0390921660048301526024820152604401602060405180830381600087803b1580156121d857600080fd5b505af11580156121ec573d6000803e3d6000fd5b505050506040513d601f19601f820116820180604052508101906122109190614fcb565b61225c5760405162461bcd60e51b815260206004820152601a60248201527f44453a2045424249465f5553445f5452414e534645525f4552520000000000006044820152606401610bd3565b60008051602061596883398151915260096122798460001961572a565b6010544260405161228d949392919061549c565b60405180910390a1505050565b7f65d7a28e3265b37a6474929f336521b332c1681b933f6cb9f3376673440d862a6122c481612bad565b611c20613c67565b60008281526002602052604081206122e49083613cbf565b9392505050565b60009182526001602090815260408084206001600160a01b0393909316845291905290205460ff1690565b60606117316012613ccb565b60006122e48383613cd8565b60008051602061592883398151915261234681612bad565b61159e848484613ec3565b33600061235f858386613360565b90508015612452578083116123e25761237785612c4a565b6001600160a01b03166345a65aaa6007848988886040518663ffffffff1660e01b81526004016123ab9594939291906154b0565b600060405180830381600087803b1580156123c557600080fd5b505af11580156123d9573d6000803e3d6000fd5b50505050612452565b6123eb85612c4a565b6001600160a01b03166345a65aaa6007848988866040518663ffffffff1660e01b815260040161241f9594939291906154b0565b600060405180830381600087803b15801561243957600080fd5b505af115801561244d573d6000803e3d6000fd5b505050505b505050505050565b600260035414156124ad5760405162461bcd60e51b815260206004820152601f60248201527f5265656e7472616e637947756172643a207265656e7472616e742063616c6c006044820152606401610bd3565b600260035560045460ff16156124d55760405162461bcd60e51b8152600401610bd390615575565b33816125165760405162461bcd60e51b815260206004820152601060248201526f22229d10222fa0a6a7aaa72a2fa2a92960811b6044820152606401610bd3565b6001600160a01b03811660009081526011602052604090206125396012836140ce565b15801561254b5750600181015460ff16155b1561256d5761255b601283612b98565b506001818101805460ff191690911790555b82816000016000828254612581919061568f565b9250508190555082600e600082825461259a919061568f565b9250508190555082600f60008282546125b391906156d0565b90915550506008546001600160a01b03166323b872dd83306125da6402540be400886157ad565b6040516001600160e01b031960e086901b1681526001600160a01b0393841660048201529290911660248301526044820152606401602060405180830381600087803b15801561262957600080fd5b505af115801561263d573d6000803e3d6000fd5b505050506040513d601f19601f820116820180604052508101906126619190614fcb565b6126a65760405162461bcd60e51b815260206004820152601660248201527522229d10222faaa9a22faa2920a729a322a92fa2a92960511b6044820152606401610bd3565b805460408051858152602081019290925242908201526001600160a01b038316907f56646888e1297fcd5d8bed20016ab070bba537c19d5634ca70dff97048459f0b9060600160405180910390a2600080516020615948833981519152600184600f544260405161271a949392919061549c565b60405180910390a15050600160035550565b60008051602061590883398151915261274481612bad565b612750858585856130b0565b5050505050565b6000818152600260205260408120611026906140f0565b6000828152600160208190526040909120015461278a81612bad565b61172283836132ab565b6000805160206159288339815191526127ac81612bad565b6127c36000876127be8a60001961572a565b613ec3565b600654604051633c2f813760e11b81526001600160a01b038781166004830152600092839291169063785f026e9060240160c06040518083038186803b15801561280c57600080fd5b505afa158015612820573d6000803e3d6000fd5b505050506040513d601f19601f82011682018060405250810190612844919061513b565b95509550505050508043612858919061580b565b821061294c576128856003600060016305f5e1006128768a8f6157ad565b6128809190615716565b6130b0565b6128b46305f5e100612897868c6157ad565b6128a19190615716565b6006546001600160a01b031660046140fa565b6006546001600160a01b031663940152e4888a6305f5e1006128d6898f6157ad565b6128e09190615716565b6040516001600160e01b031960e086901b1681526001600160a01b0393841660048201529290911660248301526044820152606401600060405180830381600087803b15801561292f57600080fd5b505af1158015612943573d6000803e3d6000fd5b5050505061296e565b61296e6003600060016305f5e1006129648a8a6156d0565b612876908f6157ad565b61299d6305f5e100612980888c6157ad565b61298a9190615716565b600580546001600160a01b0316906140fa565b6005546001600160a01b0316632549925a896305f5e1006129be8a8e6157ad565b6129c89190615716565b6040516001600160e01b031960e085901b1681526001600160a01b0390921660048301526024820152604401600060405180830381600087803b158015612a0e57600080fd5b505af1158015612a22573d6000803e3d6000fd5b50505050505050505050505050565b600080600080612a3f612d8d565b9050612a4b8186613453565b50919550612a5d915082905086614236565b92508215612a815782612a746305f5e1008661572a565b612a7e91906156e8565b91505b509193909250565b6000546001600160a01b03163314612ab35760405162461bcd60e51b8152600401610bd39061559f565b6001600160a01b038116612b185760405162461bcd60e51b815260206004820152602660248201527f4f776e61626c653a206e6577206f776e657220697320746865207a65726f206160448201526564647265737360d01b6064820152608401610bd3565b611c2081613c17565b60006122e483836143fa565b612b3782826122eb565b611bea5760008281526001602081815260408084206001600160a01b0386168086529252808420805460ff19169093179092559051339285917f2f8788117e7eff1d82e926ec794901d17c78024a50270940304540a733656f0d9190a45050565b60006122e4836001600160a01b0384166145ab565b611c2081336145fa565b600080612bc2612fbc565b509050612bd081600061465e565b9050600081601054612be291906157cc565b9050612bef81600061465e565b90506305f5e10081600c54612c0491906157ad565b612c0e9190615716565b9250505090565b60006001600160e01b03198216637965db0b60e01b148061102657506301ffc9a760e01b6001600160e01b0319831614611026565b6004805460405163fa108d0d60e01b81526001600160a01b03848116938201939093526000926101009092049091169063fa108d0d9060240160206040518083038186803b158015612c9b57600080fd5b505afa158015612caf573d6000803e3d6000fd5b505050506040513d601f19601f820116820180604052508101906110269190614be4565b6000612ce28787868686612e19565b5090506002856002811115612d0757634e487b7160e01b600052602160045260246000fd5b1480612d3257506001846001811115612d3057634e487b7160e01b600052602160045260246000fd5b145b15612d3c57612d58565b6000612d488887613cd8565b9050612d548183612d62565b9150505b9695505050505050565b6000818310612d7157816122e4565b5090919050565b60006122e4836001600160a01b03841661466e565b6060600460019054906101000a90046001600160a01b03166001600160a01b031663401bd2886040518163ffffffff1660e01b815260040160006040518083038186803b158015612ddd57600080fd5b505afa158015612df1573d6000803e3d6000fd5b505050506040513d6000823e601f3d908101601f191682016040526117319190810190614ea8565b6000806000612e26612d8d565b90506000612e348289612f60565b9050856000886001811115612e5957634e487b7160e01b600052602160045260246000fd5b1415612edb57612e688a612c4a565b6001600160a01b031663dc76fabc6040518163ffffffff1660e01b815260040160206040518083038186803b158015612ea057600080fd5b505afa158015612eb4573d6000803e3d6000fd5b505050506040513d601f19601f82011682018060405250810190612ed89190615123565b90505b80612f1d5760405162461bcd60e51b815260206004820152601260248201527144453a2047544f50425f4449565f5a45524f60701b6044820152606401610bd3565b6305f5e100612f2c87846157ad565b612f369190615716565b935080612f476305f5e100866157ad565b612f519190615716565b94505050509550959350505050565b600080612f6d8484613453565b5050509050600080612f7f8686613706565b90925090506000612f9082846156d0565b612f9a90856157cc565b90506000811315612fad57809450612fb2565b600094505b5050505092915050565b6000806000612fc9612d8d565b90506000805b825181101561308957612ffb83828151811061152157634e487b7160e01b600052603260045260246000fd5b6001600160a01b031663131c941c6040518163ffffffff1660e01b815260040160206040518083038186803b15801561303357600080fd5b505afa158015613047573d6000803e3d6000fd5b505050506040513d601f19601f8201168201806040525081019061306b9190615123565b613075908361568f565b91508061308181615865565b915050612fcf565b5080600e54613098919061568f565b9250600f54836130a891906157cc565b935050509091565b60008360028111156130d257634e487b7160e01b600052602160045260246000fd5b141561312d5780600f60008282546130ea919061580b565b9091555060008051602061594883398151915290508461310c8360001961572a565b600f5442604051613120949392919061549c565b60405180910390a16131a6565b600183600281111561314f57634e487b7160e01b600052602160045260246000fd5b14156131a6578060106000828254613167919061580b565b909155506000805160206159688339815191529050846131898360001961572a565b6010544260405161319d949392919061549c565b60405180910390a15b60008260028111156131c857634e487b7160e01b600052602160045260246000fd5b14156132175780600f60008282546131e091906156d0565b9091555050600f546040516000805160206159488339815191529161320a9187918591429061549c565b60405180910390a161159e565b600182600281111561323957634e487b7160e01b600052602160045260246000fd5b141561159e57806010600082825461325191906156d0565b90915550506010546040516000805160206159688339815191529161327b9187918591429061549c565b60405180910390a150505050565b6132938282612b2d565b60008281526002602052604090206117229082612b98565b6132b5828261478b565b60008281526002602052604090206117229082612d78565b60045460ff166133165760405162461bcd60e51b815260206004820152601460248201527314185d5cd8589b194e881b9bdd081c185d5cd95960621b6044820152606401610bd3565b6004805460ff191690557f5db9ee0a495bf2e6ff9c91a7834c1ba4fdd244a5e8aa4e537bd38aeae4b073aa335b6040516001600160a01b03909116815260200160405180910390a1565b60008061336c85612c4a565b6040516313b377c360e11b81526001600160a01b0386811660048301529190911690632766ef869060240160006040518083038186803b1580156133af57600080fd5b505afa1580156133c3573d6000803e3d6000fd5b505050506040513d6000823e601f3d908101601f191682016040526133eb9190810190615184565b9050600083600281111561340f57634e487b7160e01b600052602160045260246000fd5b1415613425578060200151602001519150613431565b80604001516020015191505b600061343d86856143fa565b9050612d588184612d62565b611bea8282613289565b6001600160a01b03811660009081526011602090815260408083208151808301909252805482526001015460ff1615159181018290528291829182916134d05760405162461bcd60e51b815260206004820152601260248201527122229d1023a6a12faa2920a222a92fa2a92960711b6044820152606401610bd3565b60005b87518110156136e057600061350189838151811061152157634e487b7160e01b600052603260045260246000fd5b6001600160a01b031663dc76fabc6040518163ffffffff1660e01b815260040160206040518083038186803b15801561353957600080fd5b505afa15801561354d573d6000803e3d6000fd5b505050506040513d601f19601f820116820180604052508101906135719190615123565b90506000806135998b858151811061152157634e487b7160e01b600052603260045260246000fd5b6040516313b377c360e11b81526001600160a01b038c811660048301529190911690632766ef869060240160006040518083038186803b1580156135dc57600080fd5b505afa1580156135f0573d6000803e3d6000fd5b505050506040513d6000823e601f3d908101601f191682016040526136189190810190615184565b60208082015101519091501561367257613645600082602001516020015183602001516040015186613b17565b91506000821261366057613659828961568f565b975061366d565b61366a828861568f565b96505b600195505b604081015160200151156136ca5761369d600182604001516020015183604001516040015186613b17565b9150600082126136b8576136b1828961568f565b97506136c5565b6136c2828861568f565b96505b600195505b50505080806136d890615865565b9150506134d3565b50805183906136f090869061568f565b6136fa919061568f565b94505092959194509250565b60008060005b8451811015613ab757600061373a86838151811061152157634e487b7160e01b600052603260045260246000fd5b6001600160a01b031663dc76fabc6040518163ffffffff1660e01b815260040160206040518083038186803b15801561377257600080fd5b505afa158015613786573d6000803e3d6000fd5b505050506040513d601f19601f820116820180604052508101906137aa9190615123565b905060006137d187848151811061152157634e487b7160e01b600052603260045260246000fd5b6040516313b377c360e11b81526001600160a01b0388811660048301529190911690632766ef869060240160006040518083038186803b15801561381457600080fd5b505afa158015613828573d6000803e3d6000fd5b505050506040513d6000823e601f3d908101601f191682016040526138509190810190615184565b602081015151909150156138865761387981602001516020015182602001516060015184613abf565b61388390866156d0565b94505b604081015151156138b9576138ac81604001516020015182604001516060015184613abf565b6138b690866156d0565b94505b60005b8160600151518110156139b557816060015181815181106138ed57634e487b7160e01b600052603260045260246000fd5b602002602001015160000151156139a3576139968260600151828151811061392557634e487b7160e01b600052603260045260246000fd5b6020026020010151602001518360600151838151811061395557634e487b7160e01b600052603260045260246000fd5b6020026020010151606001518460600151848151811061398557634e487b7160e01b600052603260045260246000fd5b602002602001015160400151613abf565b6139a090866156d0565b94505b806139ad81615865565b9150506138bc565b5060005b816080015151811015613aa157816080015181815181106139ea57634e487b7160e01b600052603260045260246000fd5b60200260200101516000015115613a8f57613a8282608001518281518110613a2257634e487b7160e01b600052603260045260246000fd5b60200260200101516020015183608001518381518110613a5257634e487b7160e01b600052603260045260246000fd5b6020026020010151606001518460800151848151811061398557634e487b7160e01b600052603260045260246000fd5b613a8c90866156d0565b94505b80613a9981615865565b9150506139b9565b5050508080613aaf90615865565b91505061370c565b509250929050565b600082613b025760405162461bcd60e51b81526020600482015260116024820152704445483a2043504d5f4449565f5a45524f60781b6044820152606401610bd3565b82613b0d83866157ad565b611c309190615716565b600080856002811115613b3a57634e487b7160e01b600052602160045260246000fd5b1415613b66576305f5e100613b4f84846157cc565b613b59908661572a565b613b6391906156e8565b90505b6001856002811115613b8857634e487b7160e01b600052602160045260246000fd5b1415611c30576305f5e100613b9d83856157cc565b613ba7908661572a565b613bb191906156e8565b95945050505050565b600081613bfe5760405162461bcd60e51b81526020600482015260126024820152714445483a20435052525f4449565f5a45524f60701b6044820152606401610bd3565b81613c0d6305f5e1008561572a565b6122e491906156e8565b600080546001600160a01b038381166001600160a01b0319831681178455604051919092169283917f8be0079c531659141344cd1fd0a4f28419497f9722a3daafe3b4186f6b6457e09190a35050565b60045460ff1615613c8a5760405162461bcd60e51b8152600401610bd390615575565b6004805460ff191660011790557f62e78cea01bee320cd4e420270b5ea74000d11b0c9f74754ebdbfc544b05a2586133433390565b60006122e483836147f2565b606060006122e48361482a565b600080613ce484612c4a565b6001600160a01b031663dc76fabc6040518163ffffffff1660e01b815260040160206040518083038186803b158015613d1c57600080fd5b505afa158015613d30573d6000803e3d6000fd5b505050506040513d601f19601f82011682018060405250810190613d549190615123565b9050600080613d6286612c4a565b6001600160a01b0316637ff3f8ad6040518163ffffffff1660e01b8152600401604080518083038186803b158015613d9957600080fd5b505afa158015613dad573d6000803e3d6000fd5b505050506040513d601f19601f82011682018060405250810190613dd191906152f0565b90925090506000613de282846157cc565b9050600080876002811115613e0757634e487b7160e01b600052602160045260246000fd5b1415613e3e57816305f5e100600b54600f54613e2391906157ad565b613e2d9190615716565b613e3791906157cc565b9050613e93565b6001876002811115613e6057634e487b7160e01b600052602160045260246000fd5b1415613e9357816305f5e100600b54600f54613e7c91906157ad565b613e869190615716565b613e90919061568f565b90505b6000811315613eb85784613eab6305f5e100836157ad565b613eb59190615716565b95505b505050505092915050565b6001600160a01b03821660009081526011602052604081208054839290613eeb90849061568f565b9250508190555080600e6000828254613f04919061568f565b90915550506001600160a01b038216600081815260116020526040908190205490517f8613fe5faa3e3e77662753f36b7dd6d582df26d55cf4f84d4cc01371623b525c91613f579187918691429061546c565b60405180910390a26004836006811115613f8157634e487b7160e01b600052602160045260246000fd5b141561172257613f938160001961572a565b600f6000828254613fa4919061580b565b90915550506008546007546001600160a01b039182169163a9059cbb91166402540be400613fd48560001961572a565b613fde91906157ad565b6040516001600160e01b031960e085901b1681526001600160a01b0390921660048301526024820152604401602060405180830381600087803b15801561402457600080fd5b505af1158015614038573d6000803e3d6000fd5b505050506040513d601f19601f8201168201806040525081019061405c9190614fcb565b6140a85760405162461bcd60e51b815260206004820152601860248201527f44453a204f54425f5553445f5452414e534645525f45525200000000000000006044820152606401610bd3565b600080516020615948833981519152600082600f544260405161228d949392919061549c565b6001600160a01b038116600090815260018301602052604081205415156122e4565b6000611026825490565b82600f600082825461410c919061580b565b90915550506008546001600160a01b03166323b872dd30846141336402540be400886157ad565b6040516001600160e01b031960e086901b1681526001600160a01b0393841660048201529290911660248301526044820152606401602060405180830381600087803b15801561418257600080fd5b505af1158015614196573d6000803e3d6000fd5b505050506040513d601f19601f820116820180604052508101906141ba9190614fcb565b6142065760405162461bcd60e51b815260206004820152601860248201527f44453a204f4c425f5553445f5452414e534645525f45525200000000000000006044820152606401610bd3565b600080516020615948833981519152816142228560001961572a565b600f544260405161228d949392919061549c565b6000805b83518110156143f357600061426885838151811061152157634e487b7160e01b600052603260045260246000fd5b6001600160a01b031663dc76fabc6040518163ffffffff1660e01b815260040160206040518083038186803b1580156142a057600080fd5b505afa1580156142b4573d6000803e3d6000fd5b505050506040513d601f19601f820116820180604052508101906142d89190615123565b905060006142ff86848151811061152157634e487b7160e01b600052603260045260246000fd5b6040516313b377c360e11b81526001600160a01b0387811660048301529190911690632766ef869060240160006040518083038186803b15801561434257600080fd5b505afa158015614356573d6000803e3d6000fd5b505050506040513d6000823e601f3d908101601f1916820160405261437e9190810190615184565b90506305f5e1008282602001516020015161439991906157ad565b6143a39190615716565b6143ad90856156d0565b93506305f5e100828260400151602001516143c891906157ad565b6143d29190615716565b6143dc90856156d0565b9350505080806143eb90615865565b91505061423a565b5092915050565b60008061440684612c4a565b6001600160a01b031663dc76fabc6040518163ffffffff1660e01b815260040160206040518083038186803b15801561443e57600080fd5b505afa158015614452573d6000803e3d6000fd5b505050506040513d601f19601f820116820180604052508101906144769190615123565b905060008061448486612c4a565b6001600160a01b0316637ff3f8ad6040518163ffffffff1660e01b8152600401604080518083038186803b1580156144bb57600080fd5b505afa1580156144cf573d6000803e3d6000fd5b505050506040513d601f19601f820116820180604052508101906144f391906152f0565b9092509050600061450482846157cc565b905060008087600281111561452957634e487b7160e01b600052602160045260246000fd5b141561455957816305f5e100600b54600f5461454591906157ad565b61454f9190615716565b613e37919061568f565b600187600281111561457b57634e487b7160e01b600052602160045260246000fd5b1415613e9357816305f5e100600b54600f5461459791906157ad565b6145a19190615716565b613e9091906157cc565b60008181526001830160205260408120546145f257508154600181810184556000848152602080822090930184905584548482528286019093526040902091909155611026565b506000611026565b61460482826122eb565b611bea5761461c816001600160a01b03166014614886565b614627836020614886565b6040516020016146389291906153ab565b60408051601f198184030181529082905262461bcd60e51b8252610bd391600401615542565b600081831215612d7157816122e4565b6000818152600183016020526040812054801561478157600061469260018361580b565b85549091506000906146a69060019061580b565b90508181146147275760008660000182815481106146d457634e487b7160e01b600052603260045260246000fd5b906000526020600020015490508087600001848154811061470557634e487b7160e01b600052603260045260246000fd5b6000918252602080832090910192909255918252600188019052604090208390555b855486908061474657634e487b7160e01b600052603160045260246000fd5b600190038181906000526020600020016000905590558560010160008681526020019081526020016000206000905560019350505050611026565b6000915050611026565b61479582826122eb565b15611bea5760008281526001602090815260408083206001600160a01b0385168085529252808320805460ff1916905551339285917ff6391f5c32d9c69d2a47ea670b442974b53935d1edc7fd64eb21e047a839171b9190a45050565b600082600001828154811061481757634e487b7160e01b600052603260045260246000fd5b9060005260206000200154905092915050565b60608160000180548060200260200160405190810160405280929190818152602001828054801561487a57602002820191906000526020600020905b815481526020019060010190808311614866575b50505050509050919050565b606060006148958360026157ad565b6148a09060026156d0565b67ffffffffffffffff8111156148c657634e487b7160e01b600052604160045260246000fd5b6040519080825280601f01601f1916602001820160405280156148f0576020820181803683370190505b509050600360fc1b8160008151811061491957634e487b7160e01b600052603260045260246000fd5b60200101906001600160f81b031916908160001a905350600f60fb1b8160018151811061495657634e487b7160e01b600052603260045260246000fd5b60200101906001600160f81b031916908160001a905350600061497a8460026157ad565b6149859060016156d0565b90505b6001811115614a19576f181899199a1a9b1b9c1cb0b131b232b360811b85600f16601081106149c757634e487b7160e01b600052603260045260246000fd5b1a60f81b8282815181106149eb57634e487b7160e01b600052603260045260246000fd5b60200101906001600160f81b031916908160001a90535060049490941c93614a128161584e565b9050614988565b5083156122e45760405162461bcd60e51b815260206004820181905260248201527f537472696e67733a20686578206c656e67746820696e73756666696369656e746044820152606401610bd3565b600082601f830112614a78578081fd5b81516020614a8d614a888361566b565b61563a565b8281528181019085830160a080860288018501891015614aab578687fd5b865b86811015614ad157614abf8a84614af4565b85529385019391810191600101614aad565b509198975050505050505050565b80518015158114614aef57600080fd5b919050565b600060a08284031215614b05578081fd5b60405160a0810181811067ffffffffffffffff82111715614b2857614b286158c2565b604052905080614b3783614adf565b8152602083015160208201526040830151604082015260608301516060820152608083015160808201525092915050565b600060608284031215614b79578081fd5b6040516060810181811067ffffffffffffffff82111715614b9c57614b9c6158c2565b604052905080614bab83614adf565b815260208301516020820152604083015160408201525092915050565b600060208284031215614bd9578081fd5b81356122e4816158d8565b600060208284031215614bf5578081fd5b81516122e4816158d8565b60008060008060008060008060008060006101608c8e031215614c21578687fd5b8b35614c2c816158d8565b9a5060208c0135614c3c816158d8565b995060408c0135614c4c816158d8565b985060608c0135614c5c816158d8565b975060808c0135614c6c816158d8565b965060a08c0135614c7c816158d8565b955060c08c0135614c8c816158d8565b945060e08c0135614c9c816158d8565b809450506101008c013592506101208c013591506101408c013590509295989b509295989b9093969950565b600080600080600060a08688031215614cdf578283fd5b8535614cea816158d8565b94506020860135614cfa816158d8565b93506040860135614d0a816158fa565b94979396509394606081013594506080013592915050565b600080600060608486031215614d36578081fd5b8335614d41816158d8565b92506020840135614d51816158d8565b91506040840135614d61816158ed565b809150509250925092565b600080600080600080600080610100898b031215614d88578182fd5b8835614d93816158d8565b97506020890135614da3816158d8565b96506040890135614db3816158ed565b95506060890135614dc3816158fa565b94506080890135614dd3816158fa565b979a969950949793969560a0850135955060c08501359460e001359350915050565b60008060008060808587031215614e0a578182fd5b8435614e15816158d8565b93506020850135614e25816158d8565b92506040850135614e35816158ed565b9396929550929360600135925050565b60008060408385031215614e57578182fd5b8235614e62816158d8565b91506020830135614e72816158ed565b809150509250929050565b60008060408385031215614e8f578182fd5b8235614e9a816158d8565b946020939093013593505050565b60006020808385031215614eba578182fd5b825167ffffffffffffffff811115614ed0578283fd5b8301601f81018513614ee0578283fd5b8051614eee614a888261566b565b80828252848201915084840188868560051b8701011115614f0d578687fd5b8694505b83851015614f38578051614f24816158d8565b835260019490940193918501918501614f11565b50979650505050505050565b60006020808385031215614f56578182fd5b825167ffffffffffffffff811115614f6c578283fd5b8301601f81018513614f7c578283fd5b8051614f8a614a888261566b565b80828252848201915084840188868560051b8701011115614fa9578687fd5b8694505b83851015614f38578051835260019490940193918501918501614fad565b600060208284031215614fdc578081fd5b6122e482614adf565b600060208284031215614ff6578081fd5b5035919050565b6000806040838503121561500f578182fd5b823591506020830135614e72816158d8565b60008060408385031215615033578182fd5b50508035926020909101359150565b600060208284031215615053578081fd5b81356001600160e01b0319811681146122e4578182fd5b60008060006060848603121561507e578081fd5b83356007811061508c578182fd5b9250602084013561509c816158d8565b929592945050506040919091013590565b600080600080608085870312156150c2578182fd5b8435600c81106150d0578283fd5b93506020850135614e25816158ed565b600080600080600060a086880312156150f7578283fd5b8535615102816158ed565b97602087013597506040870135966060810135965060800135945092505050565b600060208284031215615134578081fd5b5051919050565b60008060008060008060c08789031215615153578384fd5b865195506020870151945060408701519350606087015192506080870151915060a087015190509295509295509295565b600060208284031215615195578081fd5b815167ffffffffffffffff808211156151ac578283fd5b9083019061032082860312156151c0578283fd5b6151c8615610565b6151d183614adf565b81526151e08660208501614af4565b60208201526151f28660c08501614af4565b604082015261016083015182811115615209578485fd5b61521587828601614a68565b6060830152506101808301518281111561522d578485fd5b61523987828601614a68565b60808301525061524d866101a08501614b68565b60a0820152615260866102008501614b68565b60c0820152615273866102608501614b68565b60e0820152615286866102c08501614b68565b61010082015295945050505050565b60008060008060008060c087890312156152ad578384fd5b8635955060208701356152bf816158d8565b945060408701356152cf816158d8565b959894975094956060810135955060808101359460a0909101359350915050565b60008060408385031215615302578182fd5b505080516020909101519092909150565b60008060008060808587031215615328578182fd5b5050823594602084013594506040840135936060013592509050565b6000815180845260208085019450808401835b8381101561537c5781516001600160a01b031687529582019590820190600101615357565b509495945050505050565b60038110615397576153976158ac565b9052565b600a8110615397576153976158ac565b7f416363657373436f6e74726f6c3a206163636f756e74200000000000000000008152600083516153e3816017850160208801615822565b7001034b99036b4b9b9b4b733903937b6329607d1b6017918401918201528351615414816028840160208801615822565b01602801949350505050565b6001600160a01b038616815260a0810161543d6020830187615387565b8460408301528360608301528260808301529695505050505050565b6020815260006122e46020830184615344565b6080810160078610615480576154806158ac565b9481526020810193909352604083019190915260609091015290565b60808101600c8610615480576154806158ac565b60a081016154be828861539b565b6001600160a01b038681166020840152851660408301526154e26060830185615387565b8260808301529695505050505050565b60e08101615500828a61539b565b6001600160a01b038881166020840152871660408301526155246060830187615387565b8460808301528360a08301528260c083015298975050505050505050565b6020815260008251806020840152615561816040850160208701615822565b601f01601f19169190910160400192915050565b60208082526010908201526f14185d5cd8589b194e881c185d5cd95960821b604082015260600190565b6020808252818101527f4f776e61626c653a2063616c6c6572206973206e6f7420746865206f776e6572604082015260600190565b85815284602082015260a0604082015260006155f360a0830186615344565b6001600160a01b0394909416606083015250608001529392505050565b604051610120810167ffffffffffffffff81118282101715615634576156346158c2565b60405290565b604051601f8201601f1916810167ffffffffffffffff81118282101715615663576156636158c2565b604052919050565b600067ffffffffffffffff821115615685576156856158c2565b5060051b60200190565b600080821280156001600160ff1b03849003851316156156b1576156b1615880565b600160ff1b83900384128116156156ca576156ca615880565b50500190565b600082198211156156e3576156e3615880565b500190565b6000826156f7576156f7615896565b600160ff1b82146000198414161561571157615711615880565b500590565b60008261572557615725615896565b500490565b60006001600160ff1b038184138284138082168684048611161561575057615750615880565b600160ff1b8487128281168783058912161561576e5761576e615880565b85871292508782058712848416161561578957615789615880565b8785058712818416161561579f5761579f615880565b505050929093029392505050565b60008160001904831182151516156157c7576157c7615880565b500290565b60008083128015600160ff1b8501841216156157ea576157ea615880565b6001600160ff1b038401831381161561580557615805615880565b50500390565b60008282101561581d5761581d615880565b500390565b60005b8381101561583d578181015183820152602001615825565b8381111561159e5750506000910152565b60008161585d5761585d615880565b506000190190565b600060001982141561587957615879615880565b5060010190565b634e487b7160e01b600052601160045260246000fd5b634e487b7160e01b600052601260045260246000fd5b634e487b7160e01b600052602160045260246000fd5b634e487b7160e01b600052604160045260246000fd5b6001600160a01b0381168114611c2057600080fd5b60038110611c2057600080fd5b60028110611c2057600080fdfe2d3bad300b00885935bb2fc2555245354da820d601f1c0004d184375cf72f096f33fe78eb7c840e8bf68670029904b6f0da8e79346941c278a4e7676d473df1546dde340d17a4581762125d1b9bbdfa69222daeaf79c39d76fe0aab1a1c8375db4e0c25c4a1697022eeab5f353dcd20cacc3465315d3bd2283b818f12e7bb94ea264697066735822122076d52d9ccdceed93acb03737adad4e52f129cf506059b9d60a52bd9371d376be64736f6c63430008040033",
  "immutableReferences": {},
  "source": "// SPDX-License-Identifier: GPL-3.0-or-later\r\npragma solidity 0.8.4;\r\n\r\nimport \"@openzeppelin/contracts/token/ERC20/IERC20.sol\";\r\nimport \"@openzeppelin/contracts/utils/Context.sol\";\r\nimport \"@openzeppelin/contracts/utils/structs/EnumerableSet.sol\";\r\nimport \"@openzeppelin/contracts/access/Ownable.sol\";\r\nimport \"@openzeppelin/contracts/access/AccessControlEnumerable.sol\";\r\nimport \"@openzeppelin/contracts/security/ReentrancyGuard.sol\";\r\nimport \"@openzeppelin/contracts/security/Pausable.sol\";\r\nimport \"pancakeswap-peripheral/contracts/interfaces/IPancakeRouter02.sol\";\r\n\r\nimport \"./interfaces/IDerifyDerivative.sol\";\r\nimport \"./interfaces/IDerifyFactory.sol\";\r\nimport \"./interfaces/IDerifyRewards.sol\";\r\nimport \"./interfaces/IDerifyBroker.sol\";\r\nimport \"./interfaces/IDerifyExchange.sol\";\r\nimport \"./libraries/DerifyMath.sol\";\r\nimport \"./libraries/DerifyExchangeHelper.sol\";\r\n\r\n/// @title DerifyExchange - The decentralized derivatives exchange\r\ncontract DerifyExchange is IDerifyExchange, Context, Ownable, AccessControlEnumerable, ReentrancyGuard, Pausable {\r\n    /// @dev Add the library methods\r\n    using EnumerableSet for EnumerableSet.AddressSet;\r\n\r\n    struct TraderAccountInfo {\r\n        // account balance\r\n        int256 accountBalance;\r\n        // wether the account info is used\r\n        bool isUsed;\r\n    }\r\n\r\n    /// @dev Create a new role identifier for the buy back role\r\n    bytes32 public constant BUYBACK_ROLE = keccak256(\"BUYBACK_ROLE\");\r\n    /// @dev Create a new role identifier for the reward role\r\n    bytes32 public constant REWARD_ROLE = keccak256(\"REWARD_ROLE\");\r\n    /// @dev Create a new role identifier for the clearing role\r\n    bytes32 public constant CLEARING_ROLE = keccak256(\"CLEARING_ROLE\");\r\n    /// @dev Create a new role identifier for the fee role\r\n    bytes32 public constant FEE_ROLE = keccak256(\"FEE_ROLE\");\r\n    /// @dev Create a new role identifier for the pauser role\r\n    bytes32 public constant PAUSER_ROLE = keccak256(\"PAUSER_ROLE\");\r\n\r\n    /// @dev The contract decimals\r\n    uint256 public constant CONTRACT_DECIMAL = 10 ** 8;\r\n    /// @dev The token contract decimals diff with contract decimals\r\n    uint256 public constant TOKEN_DECIMAL_DIFF = 10 ** 10;\r\n\r\n    /// @dev the factory address \r\n    address public factory;\r\n    /// @dev the derify rewards contract address \r\n    address public rewards;\r\n    /// @dev the derify broker contract address \r\n    address public broker;\r\n    /// @dev the derify clearing contract address \r\n    address public clearing;\r\n    /// @dev the token USD address \r\n    address public tokenUSD;\r\n    /// @dev the token DRF contract address \r\n    address public tokenDRF;\r\n    /// @dev the DEX Router contract address \r\n    address public dexRouter;\r\n\r\n    /// @inheritdoc IDerifyExchange\r\n    uint256 public override thetaRatio;\r\n    /// @inheritdoc IDerifyExchange\r\n    uint256 public override buyBackFundRatio;\r\n    /// @inheritdoc IDerifyExchange\r\n    uint256 public override minOpenAmount;\r\n    /// @inheritdoc IDerifyExchange\r\n    int256 public override totalAccountBalance;\r\n    /// @inheritdoc IDerifyExchange\r\n    uint256 public override liquidityPool;\r\n    /// @inheritdoc IDerifyExchange\r\n    uint256 public override insuranceFundPool;\r\n\r\n    /// @dev the account info of trader\r\n    mapping(address => TraderAccountInfo) private traderAccountInfo;\r\n    /// @dev the set of all traders\r\n    EnumerableSet.AddressSet private allTraders;\r\n\r\n    constructor() {\r\n        _setupRole(DEFAULT_ADMIN_ROLE, _msgSender());\r\n        _setupRole(PAUSER_ROLE, _msgSender());\r\n    }\r\n\r\n    receive() external payable {\r\n        emit Received(_msgSender(), msg.value);\r\n    }\r\n\r\n    /// @inheritdoc IDerifyExchange\r\n    function initialize(\r\n        address _factory,\r\n        address _rewards,\r\n        address _broker,\r\n        address _clearing,\r\n        address _buyBackExecutor,\r\n        address _tokenUSD,\r\n        address _tokenDRF,\r\n        address _dexRouter,\r\n        uint256 _thetaRatio,\r\n        uint256 _buyBackFundRatio,\r\n        uint256 _minOpenAmount\r\n    ) external override onlyOwner {\r\n        factory = _factory;\r\n        rewards = _rewards;\r\n        broker = _broker;\r\n        clearing = _clearing;\r\n        tokenUSD = _tokenUSD;\r\n        tokenDRF = _tokenDRF;\r\n        dexRouter = _dexRouter;\r\n        thetaRatio = _thetaRatio;\r\n        buyBackFundRatio = _buyBackFundRatio;\r\n        minOpenAmount = _minOpenAmount;\r\n        // setup roles\r\n        _setupRole(BUYBACK_ROLE, _buyBackExecutor);\r\n        _setupRole(REWARD_ROLE, _rewards);\r\n        _setupRole(CLEARING_ROLE, _clearing);\r\n        _setupRole(FEE_ROLE, _clearing);\r\n    }\r\n\r\n    /// @inheritdoc IDerifyExchange\r\n    function deposit(uint256 amount) external override nonReentrant whenNotPaused {\r\n        address trader = _msgSender();\r\n        // check status\r\n        require (amount > 0, \"DE: D_AMOUNT_ERR\");\r\n        TraderAccountInfo storage accountInfo = traderAccountInfo[trader];\r\n        if (!allTraders.contains(trader) && !accountInfo.isUsed) {\r\n            allTraders.add(trader);\r\n            accountInfo.isUsed = true;\r\n        }\r\n        // deposit\r\n        accountInfo.accountBalance += int256(amount);\r\n        totalAccountBalance += int256(amount);\r\n        liquidityPool += amount;\r\n        require(IERC20(tokenUSD).transferFrom(trader, address(this), amount * TOKEN_DECIMAL_DIFF), \"DE: D_USD_TRANSFER_ERR\");\r\n        // emit events\r\n        emit Deposit(trader, amount, accountInfo.accountBalance, block.timestamp);\r\n        emit LiquidityPoolUpdate(PoolUpdateType.LiquidityDeposit, int256(amount), liquidityPool, block.timestamp);\r\n    }\r\n    \r\n    /// @inheritdoc IDerifyExchange\r\n    function withdraw(uint256 amount) external override nonReentrant whenNotPaused {\r\n        address trader = _msgSender();\r\n        // check status\r\n        TraderAccountInfo storage accountInfo = traderAccountInfo[trader];\r\n        require (accountInfo.isUsed, \"DE: W_TRADER_ERR\");\r\n        address[] memory tokens = _getCreatedDerivativeTokens();\r\n        require (amount <= _getAvailableMargin(tokens, trader), \"DE: W_AMOUNT_EXCEED\");\r\n        // compute compensation ratio\r\n        uint256 executeAmount = amount;\r\n        (int256 sysNetPnl, int256 allTradersMarginBalance) = _getCompensationParams();\r\n        int256 compensation = int256(amount) * sysNetPnl / allTradersMarginBalance;\r\n        if (compensation > 0) {\r\n            uint256 profitCompensation = uint256(compensation);\r\n           if (insuranceFundPool >= profitCompensation) {     \r\n                _transferPoolFrom(\r\n                    PoolUpdateType.ProfitCompensation, \r\n                    AccountType.InsuranceFundPool, \r\n                    AccountType.LiquidityPool, \r\n                    profitCompensation\r\n                );\r\n            } else {\r\n                // handle the case that InsuranceFundPool not enough to pay => pay bond\r\n                uint256 pnlBond = profitCompensation - insuranceFundPool;\r\n                executeAmount = amount - pnlBond;\r\n                _transferPoolFrom(\r\n                    PoolUpdateType.ProfitCompensation, \r\n                    AccountType.InsuranceFundPool, \r\n                    AccountType.LiquidityPool, \r\n                    insuranceFundPool\r\n                );\r\n                IDerifyRewards(rewards).payBond(trader, pnlBond);           \r\n            }\r\n        } else if (compensation < 0){\r\n            uint256 lossCompensation = uint256(compensation * -1);\r\n            _transferPoolFrom(\r\n                PoolUpdateType.LossCompensation, \r\n                AccountType.LiquidityPool, \r\n                AccountType.InsuranceFundPool, \r\n                lossCompensation\r\n            );\r\n        }\r\n        // withdraw\r\n        accountInfo.accountBalance -= int256(amount);\r\n        totalAccountBalance -= int256(amount);\r\n        liquidityPool -= executeAmount;\r\n        require(IERC20(tokenUSD).transfer(trader, executeAmount * TOKEN_DECIMAL_DIFF), \"DE: W_USD_TRANSFER_ERR\");\r\n        // emit events\r\n        emit Withdraw(trader, int256(amount) * -1, accountInfo.accountBalance, block.timestamp);\r\n        emit LiquidityPoolUpdate(\r\n            PoolUpdateType.LiquidityWithdraw, \r\n            int256(executeAmount) * -1, \r\n            liquidityPool, \r\n            block.timestamp\r\n        );\r\n    }\r\n\r\n    /// @inheritdoc IDerifyExchange\r\n    function openPosition(\r\n        address theBroker,\r\n        address token, \r\n        IDerifyDerivative.Side side, \r\n        OpenType openType,\r\n        QuantityType quantityType,\r\n        uint256 quantity, \r\n        uint256 price, \r\n        uint256 leverage\r\n    ) external override whenNotPaused {\r\n        address trader = _msgSender();\r\n        // convert amount to size\r\n        uint256 usedPrice = price;\r\n        if (openType == OpenType.MarketOrder) {\r\n            usedPrice = _getDerivative(token).getSpotPrice();\r\n        }\r\n        uint256 size = quantity;\r\n        if (quantityType == QuantityType.Amount) {\r\n            require(quantity >= minOpenAmount, \"DE_OP: MIN_OPEN_AMOUNT\");\r\n            size = quantity * CONTRACT_DECIMAL / usedPrice;\r\n        } else {\r\n            require(quantity * usedPrice >= minOpenAmount, \"DE_OP: MIN_OPEN_AMOUNT\");\r\n        }\r\n\r\n        // check max open size\r\n        uint256 maxOpenSize = _getOpenUpperBound(token, trader, side, openType, price, leverage);\r\n        if (maxOpenSize > 0) {\r\n            size = DerifyMath.min(maxOpenSize, size);\r\n            //@dev: hedge position has no sys upper bound, only consider trader upper bound\r\n            if (side == IDerifyDerivative.Side.HEDGE) {\r\n                require (openType == OpenType.MarketOrder, \"DE: OP_ERR_TYPE_HEDGE\");\r\n                _getDerivative(token).openMarketPricePosition(\r\n                    IDerifyDerivative.TradeType.HedgeMarketPriceOpen, \r\n                    trader, \r\n                    theBroker, \r\n                    IDerifyDerivative.Side.LONG, \r\n                    size / 2, \r\n                    usedPrice, \r\n                    leverage\r\n                );\r\n                _getDerivative(token).openMarketPricePosition(\r\n                    IDerifyDerivative.TradeType.HedgeMarketPriceOpen, \r\n                    trader, \r\n                    theBroker, \r\n                    IDerifyDerivative.Side.SHORT, \r\n                    size / 2, \r\n                    usedPrice, \r\n                    leverage\r\n                );\r\n            } else {\r\n                if (openType == OpenType.MarketOrder) {\r\n                    _getDerivative(token).openMarketPricePosition(\r\n                        IDerifyDerivative.TradeType.MarketPriceOpen, \r\n                        trader, \r\n                        theBroker, \r\n                        side, \r\n                        size, \r\n                        usedPrice, \r\n                        leverage\r\n                    );\r\n                } else if (openType == OpenType.LimitOrder) {\r\n                    //@dev: limit order position only consider trader upper bound, ignore sys upper bound\r\n                    _getDerivative(token).orderLimitPricePosition(trader, side, size, usedPrice, leverage);\r\n                }\r\n            }\r\n        }\r\n    }\r\n\r\n    /// @inheritdoc IDerifyExchange\r\n    function closePosition(\r\n        address theBroker,\r\n        address token,\r\n        IDerifyDerivative.Side side, \r\n        uint256 size\r\n    ) external override {\r\n        address trader = _msgSender();\r\n        uint256 maxSize = _getCloseUpperBound(token, trader, side);\r\n        if (maxSize > 0) {\r\n            if (size <= maxSize) {\r\n                _getDerivative(token).closePositionByTrader(\r\n                    IDerifyDerivative.TradeType.SingleClose, \r\n                    trader, \r\n                    theBroker, \r\n                    side, \r\n                    size\r\n                );\r\n            } else {\r\n                _getDerivative(token).closePositionByTrader(\r\n                    IDerifyDerivative.TradeType.SingleClose, \r\n                    trader, \r\n                    theBroker, \r\n                    side, \r\n                    maxSize\r\n                );\r\n            }\r\n        }\r\n    }\r\n\r\n    /// @inheritdoc IDerifyExchange\r\n    function closeAllPositions(address theBroker) external override {\r\n        address trader = _msgSender();\r\n        address[] memory tokens = _getCreatedDerivativeTokens();\r\n        for(uint256 i = 0; i < tokens.length; i++) {\r\n            _getDerivative(tokens[i]).closeDerivativePositions(trader, theBroker);\r\n        }\r\n    }\r\n\r\n    /// @inheritdoc IDerifyExchange\r\n    function cancelAllOrderedPositions() external override {\r\n        address trader = _msgSender();\r\n        address[] memory tokens = _getCreatedDerivativeTokens();\r\n        for(uint256 i = 0; i < tokens.length; i++) {\r\n            _getDerivative(tokens[i]).cancelDerivativeOrderedPositions(trader);\r\n        }\r\n    }\r\n\r\n    /// @inheritdoc IDerifyExchange\r\n    function operateTraderBalance(\r\n        FeeType feeType, \r\n        address trader, \r\n        int256 amount\r\n    ) external override onlyRole(FEE_ROLE) {\r\n        _operateTraderBalance(feeType, trader, amount);\r\n    }\r\n\r\n    /// @inheritdoc IDerifyExchange\r\n    function operateTradingFee(\r\n        uint256 tradingFee,\r\n        address trader,\r\n        address theBroker,\r\n        uint256 tradingFeePmrRatio, \r\n        uint256 tradingFeeInusranceRatio,\r\n        uint256 tradingFeeBrokerRatio\r\n    ) external override onlyRole(FEE_ROLE) {\r\n        _operateTraderBalance(FeeType.TradingFee, trader, int256(tradingFee) * -1);\r\n        (, , , , uint256 validPeriodInBlocks, uint256 startBlockNumber) = IDerifyBroker(broker).getBrokerInfo(theBroker);\r\n        if (validPeriodInBlocks >= block.number - startBlockNumber) {\r\n            // 40% to insurance pool\r\n            _transferPoolFrom(\r\n                PoolUpdateType.InsuranceTradingFee, \r\n                AccountType.LiquidityPool, \r\n                AccountType.InsuranceFundPool, \r\n                tradingFee * tradingFeeInusranceRatio / CONTRACT_DECIMAL\r\n            );\r\n            // 30% to broker reward\r\n            _operateLiquidityBalance(\r\n                tradingFee * tradingFeeBrokerRatio / CONTRACT_DECIMAL, \r\n                broker, \r\n                PoolUpdateType.BrokerTradingFee\r\n            );\r\n            IDerifyBroker(broker).addBrokerReward(\r\n                theBroker, \r\n                trader, \r\n                tradingFee * tradingFeeBrokerRatio / CONTRACT_DECIMAL\r\n            );\r\n            \r\n        } else {\r\n            // 30%+40% to insurance pool\r\n            _transferPoolFrom(\r\n                PoolUpdateType.InsuranceTradingFee, \r\n                AccountType.LiquidityPool, \r\n                AccountType.InsuranceFundPool, \r\n                tradingFee * (tradingFeeBrokerRatio + tradingFeeInusranceRatio) / CONTRACT_DECIMAL\r\n            );\r\n        }\r\n        // 30% to position mining reward\r\n        _operateLiquidityBalance(\r\n            tradingFee * tradingFeePmrRatio / CONTRACT_DECIMAL, \r\n            rewards, \r\n            PoolUpdateType.PositionMiningTradingFee\r\n        );\r\n        IDerifyRewards(rewards).addPositionReward(trader, tradingFee * tradingFeePmrRatio / CONTRACT_DECIMAL);\r\n    }\r\n\r\n    /// @inheritdoc IDerifyExchange\r\n    function exchangeBondByInsuranceFund(\r\n        address trader, \r\n        uint256 amount\r\n    ) external override onlyRole(REWARD_ROLE) {\r\n        require(insuranceFundPool >= amount, \"DE: EBBIF_BALANCE_EXCEED\");\r\n        insuranceFundPool -= amount;\r\n        require(IERC20(tokenUSD).transfer(trader, amount * TOKEN_DECIMAL_DIFF), \"DE: EBBIF_USD_TRANSFER_ERR\");\r\n        emit InfurancePoolUpdate(PoolUpdateType.BondExchange, int256(amount) * -1, insuranceFundPool, block.timestamp);\r\n    }\r\n\r\n    /// @inheritdoc IDerifyExchange\r\n    function transferPoolFrom(\r\n        PoolUpdateType poolUpdateType, \r\n        AccountType from,\r\n        AccountType to,\r\n        uint256 value\r\n    ) external override onlyRole(CLEARING_ROLE) {\r\n        _transferPoolFrom(poolUpdateType, from, to, value);\r\n    }\r\n\r\n    /// @inheritdoc IDerifyExchange\r\n    function removeTrader(address trader) external override onlyRole(CLEARING_ROLE) {\r\n        allTraders.remove(trader);\r\n        delete traderAccountInfo[trader];\r\n        // remove trader of DerifyDerivatives\r\n        address[] memory tokens = _getCreatedDerivativeTokens();\r\n        for(uint256 i = 0; i < tokens.length; i++) {\r\n            _getDerivative(tokens[i]).removeTrader(trader);\r\n        }\r\n    }\r\n\r\n    /// @inheritdoc IDerifyExchange\r\n    function buyBackDrf(\r\n        uint256 amountIn, \r\n        uint256 amountOutMin, \r\n        uint256 deadline, \r\n        uint256 gasFee\r\n    ) external override onlyRole(BUYBACK_ROLE) {\r\n        address buybackExecutor = _msgSender();\r\n        uint256 availableAmount = _getSysExchangeBondSizeUpperBound();\r\n        require(availableAmount > amountIn + gasFee, \"DE: BUY_BACK_AMOUNT_EXCEED\");\r\n        // buy DRF and burn it to address(1)\r\n        address[] memory path = new address[](2);\r\n        path[0] = tokenUSD;\r\n        path[1] = tokenDRF;\r\n        insuranceFundPool -= amountIn;\r\n        IERC20(tokenUSD).approve(dexRouter, amountIn * TOKEN_DECIMAL_DIFF);\r\n        uint[] memory amounts = IPancakeRouter02(dexRouter).swapExactTokensForTokens(\r\n            amountIn * TOKEN_DECIMAL_DIFF, \r\n            amountOutMin * TOKEN_DECIMAL_DIFF, \r\n            path, \r\n            address(1), \r\n            deadline\r\n        );\r\n        emit InfurancePoolUpdate(PoolUpdateType.DrfBuyBack, int256(amountIn) * -1, insuranceFundPool, block.timestamp);\r\n        // pay gas fee\r\n        insuranceFundPool -= gasFee;\r\n        require(IERC20(tokenUSD).transfer(buybackExecutor, gasFee * TOKEN_DECIMAL_DIFF), \"DE: BBD_USD_TRANSFER_ERR\");\r\n        emit BuyBackDrfUpdate(amountIn, amounts[amounts.length - 1] / TOKEN_DECIMAL_DIFF, gasFee, block.timestamp);\r\n        emit InfurancePoolUpdate(\r\n            PoolUpdateType.GasFeeForBuyBack, \r\n            int256(gasFee) * -1, \r\n            insuranceFundPool, \r\n            block.timestamp\r\n        );\r\n    }\r\n\r\n    /// @inheritdoc IDerifyExchange\r\n    function pause() external override onlyRole(PAUSER_ROLE) {\r\n        _pause();\r\n    }\r\n\r\n    /// @inheritdoc IDerifyExchange\r\n    function unpause() external override onlyRole(PAUSER_ROLE) {\r\n        _unpause();\r\n    }\r\n\r\n    /// @inheritdoc IDerifyExchange\r\n    function getSysExchangeBondSizeUpperBound() external view override returns (uint256 sysMaxBondSize) {\r\n        sysMaxBondSize = _getSysExchangeBondSizeUpperBound();\r\n    }\r\n\r\n    /// @inheritdoc IDerifyExchange\r\n    function getAllTraders() external view override returns (address[] memory) {\r\n        return allTraders.values();\r\n    }\r\n\r\n    /// @inheritdoc IDerifyExchange\r\n    function getTraderAccount(address trader) external view override returns (\r\n        int256 balance, \r\n        int256 marginBalance, \r\n        uint256 totalMargin, \r\n        uint256 availableMargin\r\n    ) {\r\n        TraderAccountInfo memory accountInfo = traderAccountInfo[trader];\r\n        require (accountInfo.isUsed, \"DE: GTA_TRADER_ERR\");\r\n        address[] memory tokens = _getCreatedDerivativeTokens();\r\n        balance = accountInfo.accountBalance;\r\n        (marginBalance, , , ) = _getMarginBalance(tokens, trader);\r\n        (uint256 totalHeldMargin, ) = _getTotalPositionMargin(tokens, trader);\r\n        totalMargin = totalHeldMargin;\r\n        availableMargin = _getAvailableMargin(tokens, trader);\r\n    }\r\n\r\n    /// @inheritdoc IDerifyExchange\r\n    function getTraderVariables(address trader) external view override returns (\r\n        int256 marginBalance, \r\n        uint256 totalPositionAmount, \r\n        int256 marginRate\r\n    ) {\r\n        address[] memory tokens = _getCreatedDerivativeTokens();\r\n        // trader share variables\r\n        (marginBalance, , , ) = _getMarginBalance(tokens, trader);\r\n        totalPositionAmount = _getTotalPositionAmount(tokens, trader);\r\n        if (totalPositionAmount > 0) {\r\n            marginRate = marginBalance * int256(CONTRACT_DECIMAL) / int256(totalPositionAmount);\r\n        }\r\n    }\r\n\r\n    /// @inheritdoc IDerifyExchange\r\n    function getSysOpenUpperBound(\r\n        address token, \r\n        IDerifyDerivative.Side side\r\n    ) external view override returns (uint256 size) {\r\n        size = _getSysOpenUpperBound(token, side);\r\n    }\r\n\r\n    /// @inheritdoc IDerifyExchange\r\n    function getTraderOpenUpperBound(\r\n        address token, \r\n        address trader,\r\n        OpenType openType, \r\n        uint256 price, \r\n        uint256 leverage\r\n    ) external view override returns (uint256 size, uint256 amount) {\r\n        (size, amount) = _getTraderOpenUpperBound(token, trader, openType, price, leverage);\r\n    }\r\n\r\n    /// @inheritdoc IDerifyExchange\r\n    function getCloseUpperBound(\r\n        address token, \r\n        address trader,\r\n        IDerifyDerivative.Side side\r\n    ) external view override returns (uint256 size) {\r\n        size = _getCloseUpperBound(token, trader, side);\r\n    }\r\n\r\n    /// @inheritdoc IDerifyExchange\r\n    function getSysCloseUpperBound(\r\n        address token, \r\n        IDerifyDerivative.Side side\r\n    ) external view override returns (uint256 size) {\r\n        size = _getSysCloseUpperBound(token, side);\r\n    }\r\n\r\n    /// @inheritdoc IDerifyExchange\r\n    function getTraderPositionVariables(\r\n        IDerifyDerivative.Side side,\r\n        uint256 spotPrice,\r\n        uint256 size,\r\n        uint256 leverage,\r\n        uint256 averagePrice\r\n    ) external pure override returns (uint256 margin, int256 unrealizedPnl, int256 returnRate) {\r\n        margin = DerifyExchangeHelper.computeMargin(size, leverage, spotPrice);\r\n        unrealizedPnl = DerifyExchangeHelper.computeUnrealizedPnl(side, size, averagePrice, spotPrice);\r\n        returnRate = DerifyExchangeHelper.computeReturnRate(unrealizedPnl, margin);\r\n    }\r\n\r\n    /// @notice Get the total position amount of the whole system\r\n    /// @dev used by backend\r\n    function getSysTotalPositionAmount() public view returns (uint256 sysTotalPositionAmount) {     \r\n        address[] memory tokens = _getCreatedDerivativeTokens();\r\n        for(uint256 i = 0; i < tokens.length; i++) {\r\n            uint256 spotPrice = _getDerivative(tokens[i]).getSpotPrice();\r\n            uint256 longTotalSize = _getDerivative(tokens[i]).longTotalSize();\r\n            uint256 shortTotalSize = _getDerivative(tokens[i]).shortTotalSize();\r\n            sysTotalPositionAmount += (longTotalSize + shortTotalSize) * spotPrice / CONTRACT_DECIMAL;\r\n        }\r\n    }\r\n\r\n    /// @dev transfer between pools\r\n    function _transferPoolFrom(\r\n        PoolUpdateType poolUpdateType, \r\n        AccountType from,\r\n        AccountType to,\r\n        uint256 value\r\n    ) internal {\r\n        // operate from\r\n        if (from == AccountType.LiquidityPool) {\r\n            liquidityPool -= value;\r\n            emit LiquidityPoolUpdate(poolUpdateType, int256(value) * -1, liquidityPool, block.timestamp);\r\n        } else if (from == AccountType.InsuranceFundPool) {\r\n            insuranceFundPool -= value;\r\n            emit InfurancePoolUpdate(poolUpdateType, int256(value) * -1, insuranceFundPool, block.timestamp);\r\n        }\r\n        // operate to\r\n        if (to == AccountType.LiquidityPool) {\r\n            liquidityPool += value;\r\n            emit LiquidityPoolUpdate(poolUpdateType, int256(value), liquidityPool, block.timestamp);\r\n        } else if (to == AccountType.InsuranceFundPool) {\r\n            insuranceFundPool += value;\r\n            emit InfurancePoolUpdate(poolUpdateType, int256(value), insuranceFundPool, block.timestamp);\r\n        }\r\n    }\r\n\r\n    /// @dev operate trader balance\r\n    function _operateTraderBalance(\r\n        FeeType feeType, \r\n        address trader, \r\n        int256 amount\r\n    ) internal {\r\n        traderAccountInfo[trader].accountBalance += amount;\r\n        totalAccountBalance += amount;\r\n        emit TraderBalanceUpdate(feeType, trader, amount, traderAccountInfo[trader].accountBalance, block.timestamp);\r\n\r\n        if (feeType == FeeType.GasFee) {\r\n            liquidityPool -= uint256(amount * -1);\r\n            require(IERC20(tokenUSD).transfer(clearing, uint256(amount * -1) * TOKEN_DECIMAL_DIFF), \"DE: OTB_USD_TRANSFER_ERR\");\r\n            emit LiquidityPoolUpdate(PoolUpdateType.GasFeeForClearing, amount, liquidityPool, block.timestamp);\r\n        }\r\n    }\r\n\r\n    /// @dev used to avoid stack too deep\r\n    function _operateLiquidityBalance(\r\n        uint256 amount, \r\n        address to, \r\n        PoolUpdateType poolUpdateType\r\n    ) internal {\r\n        liquidityPool -= amount;\r\n        require(IERC20(tokenUSD).transferFrom(address(this), to, amount * TOKEN_DECIMAL_DIFF), \"DE: OLB_USD_TRANSFER_ERR\");\r\n        emit LiquidityPoolUpdate(poolUpdateType, int256(amount) * -1, liquidityPool, block.timestamp);\r\n    }\r\n\r\n    /// @dev Get upper bound of exchange bond size\r\n    function _getSysExchangeBondSizeUpperBound() internal view returns (uint256 sysMaxBondSize) {\r\n        (int256 sysNetPnl, ) = _getCompensationParams();\r\n        sysNetPnl = DerifyMath.max(sysNetPnl, 0);\r\n\r\n        int256 baseAmount = int256(insuranceFundPool) - sysNetPnl;\r\n        baseAmount = DerifyMath.max(baseAmount, 0);\r\n        sysMaxBondSize = buyBackFundRatio * uint256(baseAmount) / CONTRACT_DECIMAL;\r\n    }\r\n\r\n    /// @dev For the compensation mechanism\r\n    function _getCompensationParams() internal view returns (\r\n        int256 sysNetPnl, \r\n        int256 allTradersMarginBalance\r\n    ) {\r\n        address[] memory tokens = _getCreatedDerivativeTokens();\r\n        int256 allTradersUnrealizedPnl;\r\n        for(uint256 i = 0; i < tokens.length; i++) {\r\n            allTradersUnrealizedPnl += _getDerivative(tokens[i]).getTokenTotalUnrealizedPnl();\r\n        }\r\n        allTradersMarginBalance = totalAccountBalance + allTradersUnrealizedPnl;\r\n\r\n        sysNetPnl = allTradersMarginBalance - int256(liquidityPool);\r\n    }\r\n\r\n    /// @dev get open upper bound\r\n    function _getOpenUpperBound(\r\n        address token, \r\n        address trader, \r\n        IDerifyDerivative.Side side, \r\n        OpenType openType, \r\n        uint256 price, \r\n        uint256 leverage\r\n    ) internal view returns (uint256 size){\r\n        (size, ) = _getTraderOpenUpperBound(token, trader, openType, price, leverage);\r\n        if (side == IDerifyDerivative.Side.HEDGE || openType == OpenType.LimitOrder) {\r\n            return size;\r\n        }\r\n\r\n        uint256 sysMaxSize = _getSysOpenUpperBound(token, side);\r\n        size = DerifyMath.min(sysMaxSize, size);\r\n    }\r\n\r\n    /// @dev get open upper bound of system\r\n    function _getSysOpenUpperBound(\r\n        address token, \r\n        IDerifyDerivative.Side side\r\n    ) internal view returns (uint256 size) {\r\n        uint256 spotPrice = _getDerivative(token).getSpotPrice();\r\n        (uint256 longTotalAmount, uint256 shortTotalAmount) = _getDerivative(token).getSideTotalAmount();\r\n\r\n        int256 diffAmount = int256(longTotalAmount) - int256(shortTotalAmount);\r\n        int256 amount;\r\n        if (side == IDerifyDerivative.Side.LONG) {\r\n            amount = int256(liquidityPool * thetaRatio / CONTRACT_DECIMAL) - diffAmount;\r\n        } else if (side == IDerifyDerivative.Side.SHORT) {\r\n            amount = int256(liquidityPool * thetaRatio / CONTRACT_DECIMAL) + diffAmount;\r\n        }\r\n\r\n        if (amount > 0) {\r\n            size = uint256(amount) * CONTRACT_DECIMAL / spotPrice;\r\n        }\r\n    }\r\n\r\n    /// @dev get open upper bound of trader\r\n    function _getTraderOpenUpperBound(\r\n        address token, \r\n        address trader,\r\n        OpenType openType, \r\n        uint256 price, \r\n        uint256 leverage\r\n    ) internal view returns (uint256 size, uint256 amount) {\r\n        address[] memory tokens = _getCreatedDerivativeTokens();\r\n        uint256 availableMargin = _getAvailableMargin(tokens, trader);\r\n        uint256 usedPrice = price;\r\n        ///@dev: use the lastest spot price instead of the price given by front-end\r\n        if (openType == OpenType.MarketOrder) {\r\n            usedPrice = _getDerivative(token).getSpotPrice();\r\n        }\r\n        require(usedPrice != 0, \"DE: GTOPB_DIV_ZERO\");\r\n        amount = uint256(availableMargin) * leverage / CONTRACT_DECIMAL;\r\n        size = amount * CONTRACT_DECIMAL / usedPrice;\r\n    }\r\n\r\n    /// @dev get close upper bound\r\n    function _getCloseUpperBound(\r\n        address token, \r\n        address trader,\r\n        IDerifyDerivative.Side side\r\n    ) internal view returns (uint256 size) {\r\n        IDerifyDerivative.DerivativePositions memory allPositions = _getDerivative(token).getTraderDerivativePositions(trader);\r\n        if (side == IDerifyDerivative.Side.LONG) {\r\n            size = allPositions.long.size;\r\n        } else {\r\n            size = allPositions.short.size;\r\n        }\r\n\r\n        uint256 sysMaxSize = _getSysCloseUpperBound(token, side);\r\n        size = DerifyMath.min(sysMaxSize, size);\r\n    }\r\n\r\n    /// @dev get close upper bound of system\r\n    function _getSysCloseUpperBound(\r\n        address token, \r\n        IDerifyDerivative.Side side\r\n    ) internal view returns (uint256 size) {\r\n        uint256 spotPrice = _getDerivative(token).getSpotPrice();\r\n        (uint256 longTotalAmount, uint256 shortTotalAmount) = _getDerivative(token).getSideTotalAmount();\r\n\r\n        int256 diffAmount = int256(longTotalAmount) - int256(shortTotalAmount);\r\n        int256 amount;\r\n        if (side == IDerifyDerivative.Side.LONG) {\r\n            amount = int256(liquidityPool * thetaRatio / CONTRACT_DECIMAL) + diffAmount;\r\n        } else if (side == IDerifyDerivative.Side.SHORT) {\r\n            amount = int256(liquidityPool * thetaRatio / CONTRACT_DECIMAL) - diffAmount;\r\n        }\r\n        if (amount > 0) {\r\n            size = uint256(amount) * CONTRACT_DECIMAL / spotPrice;\r\n        }\r\n    }\r\n\r\n    /// @dev get available margin of trader\r\n    function _getAvailableMargin(\r\n        address[] memory tokens, \r\n        address trader\r\n    ) internal view returns (uint256 availableMargin) {\r\n        (int256 marginBalance, , ,) = _getMarginBalance(tokens, trader);\r\n        (uint256 totalHeldMargin, uint256 totalOrderedMargin) = _getTotalPositionMargin(tokens, trader);\r\n        int256 tmpValue = marginBalance - int256(totalHeldMargin + totalOrderedMargin);\r\n        if (tmpValue > 0) {\r\n            availableMargin = uint256(tmpValue);\r\n        } else {\r\n            availableMargin = 0;\r\n        }\r\n    }\r\n\r\n    /// @dev get margin balance of trader\r\n    function _getMarginBalance(address[] memory tokens, address trader) internal view returns (\r\n        int256 marginBalance, \r\n        int256 traderUnrealizedProfit, \r\n        int256 traderUnrealizedLoss, \r\n        bool hasPosition\r\n    ) {\r\n        TraderAccountInfo memory accountInfo = traderAccountInfo[trader];\r\n        require (accountInfo.isUsed, \"DE: GMB_TRADER_ERR\");\r\n        \r\n        for(uint256 i = 0; i < tokens.length; i++) {\r\n            uint256 spotPrice = _getDerivative(tokens[i]).getSpotPrice();\r\n            int256 pnl;\r\n            IDerifyDerivative.DerivativePositions memory allPositions = _getDerivative(tokens[i]).getTraderDerivativePositions(trader);\r\n            if (allPositions.long.size > 0) {\r\n                pnl = DerifyExchangeHelper.computeUnrealizedPnl(\r\n                    IDerifyDerivative.Side.LONG, \r\n                    allPositions.long.size, \r\n                    allPositions.long.price, \r\n                    spotPrice\r\n                );\r\n                if (pnl >= 0) {\r\n                    traderUnrealizedProfit += pnl;\r\n                } else {\r\n                    traderUnrealizedLoss += pnl;\r\n                }\r\n                hasPosition = true;\r\n            }\r\n\r\n            if (allPositions.short.size > 0) {\r\n                pnl = DerifyExchangeHelper.computeUnrealizedPnl(\r\n                    IDerifyDerivative.Side.SHORT, \r\n                    allPositions.short.size, \r\n                    allPositions.short.price, \r\n                    spotPrice\r\n                );\r\n                if (pnl >= 0) {\r\n                    traderUnrealizedProfit += pnl;\r\n                } else {\r\n                    traderUnrealizedLoss += pnl;\r\n                }\r\n                hasPosition = true;\r\n            }\r\n        }\r\n\r\n        marginBalance = accountInfo.accountBalance + traderUnrealizedProfit + traderUnrealizedLoss;\r\n    }\r\n\r\n    /// @dev get total position amount of trader\r\n    function _getTotalPositionAmount(\r\n        address[] memory tokens, \r\n        address trader\r\n    ) internal view returns (uint256 totalPositionAmount) {     \r\n        for(uint256 i = 0; i < tokens.length; i++) {\r\n            uint256 spotPrice = _getDerivative(tokens[i]).getSpotPrice();\r\n            IDerifyDerivative.DerivativePositions memory allPositions = _getDerivative(tokens[i]).getTraderDerivativePositions(trader);\r\n            totalPositionAmount += allPositions.long.size * spotPrice / CONTRACT_DECIMAL;\r\n            totalPositionAmount += allPositions.short.size * spotPrice / CONTRACT_DECIMAL; \r\n        }\r\n    }\r\n\r\n    /// @dev get total position margin of trader\r\n    function _getTotalPositionMargin(\r\n        address[] memory tokens, \r\n        address trader\r\n    ) internal view returns (uint256 totalHeldMargin, uint256 totalOrderedMargin) {\r\n        for(uint256 i = 0; i < tokens.length; i++) {\r\n            uint256 spotPrice = _getDerivative(tokens[i]).getSpotPrice();\r\n\r\n            IDerifyDerivative.DerivativePositions memory allPositions = _getDerivative(tokens[i]).getTraderDerivativePositions(trader);\r\n            if (allPositions.long.isUsed) {\r\n                totalHeldMargin += DerifyExchangeHelper.computeMargin(\r\n                    allPositions.long.size, \r\n                    allPositions.long.leverage, \r\n                    spotPrice\r\n                );\r\n            }\r\n            if (allPositions.short.isUsed) {\r\n                totalHeldMargin += DerifyExchangeHelper.computeMargin(\r\n                    allPositions.short.size, \r\n                    allPositions.short.leverage, \r\n                    spotPrice\r\n                );\r\n            }\r\n            for(uint256 j = 0; j < allPositions.longOrderOpenPosition.length; j++) {\r\n                if (allPositions.longOrderOpenPosition[j].isUsed) {\r\n                    totalOrderedMargin += DerifyExchangeHelper.computeMargin(\r\n                        allPositions.longOrderOpenPosition[j].size, \r\n                        allPositions.longOrderOpenPosition[j].leverage, \r\n                        allPositions.longOrderOpenPosition[j].price\r\n                    );\r\n                }\r\n            }\r\n            for(uint256 k = 0; k < allPositions.shortOrderOpenPosition.length; k++) {\r\n                if (allPositions.shortOrderOpenPosition[k].isUsed) {\r\n                    totalOrderedMargin += DerifyExchangeHelper.computeMargin(\r\n                        allPositions.shortOrderOpenPosition[k].size, \r\n                        allPositions.shortOrderOpenPosition[k].leverage, \r\n                        allPositions.shortOrderOpenPosition[k].price\r\n                    );\r\n                }\r\n            }\r\n        }\r\n    }\r\n\r\n    /// @dev Returns all the tokens that created derivative\r\n    function _getCreatedDerivativeTokens() internal view returns (address[] memory) {\r\n        return IDerifyFactory(factory).getCreatedDerivativeTokens();\r\n    }\r\n\r\n    /// @dev Returns the derivative for the given token. The derivative contract may or may not exist.\r\n    function _getDerivative(address token) internal view returns (IDerifyDerivative) {\r\n        return IDerifyDerivative(IDerifyFactory(factory).getDerivative(token));\r\n    }\r\n}",
  "sourcePath": "C:\\ZW_Others\\github\\Blockchain\\Derify-v1\\derify-core\\contracts\\DerifyExchange.sol",
  "compiler": {
    "name": "solc",
    "version": "0.8.4+commit.c7e474f2.Emscripten.clang"
  },
  "schemaVersion": "3.4.8",
  "updatedAt": "2022-09-01T05:06:01.929Z",
  "devdoc": {
    "kind": "dev",
    "methods": {
      "buyBackDrf(uint256,uint256,uint256,uint256)": {
        "details": "can only be called by buy back role"
      },
      "closeAllPositions(address)": {
        "params": {
          "theBroker": "The broker of trader"
        }
      },
      "closePosition(address,address,uint8,uint256)": {
        "params": {
          "side": "The side ",
          "size": "The size ",
          "theBroker": "The broker of trader",
          "token": "The token"
        }
      },
      "deposit(uint256)": {
        "params": {
          "amount": "The amount to deposit"
        }
      },
      "exchangeBondByInsuranceFund(address,uint256)": {
        "details": "called only by DerifyRewards"
      },
      "getCloseUpperBound(address,address,uint8)": {
        "details": "Called by DerifyDerivative, self"
      },
      "getRoleAdmin(bytes32)": {
        "details": "Returns the admin role that controls `role`. See {grantRole} and {revokeRole}. To change a role's admin, use {_setRoleAdmin}."
      },
      "getRoleMember(bytes32,uint256)": {
        "details": "Returns one of the accounts that have `role`. `index` must be a value between 0 and {getRoleMemberCount}, non-inclusive. Role bearers are not sorted in any particular way, and their ordering may change at any point. WARNING: When using {getRoleMember} and {getRoleMemberCount}, make sure you perform all queries on the same block. See the following https://forum.openzeppelin.com/t/iterating-over-elements-on-enumerableset-in-openzeppelin-contracts/2296[forum post] for more information."
      },
      "getRoleMemberCount(bytes32)": {
        "details": "Returns the number of accounts that have `role`. Can be used together with {getRoleMember} to enumerate all bearers of a role."
      },
      "getSysCloseUpperBound(address,uint8)": {
        "details": "Called by DerifyDerivative, self, backend"
      },
      "getSysOpenUpperBound(address,uint8)": {
        "details": "Called by DerifyDerivative, backend"
      },
      "getSysTotalPositionAmount()": {
        "details": "used by backend"
      },
      "getTraderAccount(address)": {
        "params": {
          "trader": "The trader"
        }
      },
      "grantRole(bytes32,address)": {
        "details": "Grants `role` to `account`. If `account` had not been already granted `role`, emits a {RoleGranted} event. Requirements: - the caller must have ``role``'s admin role."
      },
      "hasRole(bytes32,address)": {
        "details": "Returns `true` if `account` has been granted `role`."
      },
      "initialize(address,address,address,address,address,address,address,address,uint256,uint256,uint256)": {
        "details": "Only called by owner"
      },
      "openPosition(address,address,uint8,uint8,uint8,uint256,uint256,uint256)": {
        "params": {
          "leverage": "The leverage",
          "openType": "The open type",
          "price": "The price",
          "quantity": "The size or amount value",
          "quantityType": "The quantity type",
          "side": "The side",
          "theBroker": "The broker of trader",
          "token": "The token"
        }
      },
      "operateTraderBalance(uint8,address,int256)": {
        "details": "can only be called fee role"
      },
      "operateTradingFee(uint256,address,address,uint256,uint256,uint256)": {
        "details": "can only be called fee role"
      },
      "owner()": {
        "details": "Returns the address of the current owner."
      },
      "paused()": {
        "details": "Returns true if the contract is paused, and false otherwise."
      },
      "removeTrader(address)": {
        "details": "can only be called by DerifyClearing"
      },
      "renounceOwnership()": {
        "details": "Leaves the contract without owner. It will not be possible to call `onlyOwner` functions anymore. Can only be called by the current owner. NOTE: Renouncing ownership will leave the contract without an owner, thereby removing any functionality that is only available to the owner."
      },
      "renounceRole(bytes32,address)": {
        "details": "Revokes `role` from the calling account. Roles are often managed via {grantRole} and {revokeRole}: this function's purpose is to provide a mechanism for accounts to lose their privileges if they are compromised (such as when a trusted device is misplaced). If the calling account had been revoked `role`, emits a {RoleRevoked} event. Requirements: - the caller must be `account`."
      },
      "revokeRole(bytes32,address)": {
        "details": "Revokes `role` from `account`. If `account` had been granted `role`, emits a {RoleRevoked} event. Requirements: - the caller must have ``role``'s admin role."
      },
      "supportsInterface(bytes4)": {
        "details": "See {IERC165-supportsInterface}."
      },
      "transferOwnership(address)": {
        "details": "Transfers ownership of the contract to a new account (`newOwner`). Can only be called by the current owner."
      },
      "transferPoolFrom(uint8,uint8,uint8,uint256)": {
        "details": "can only be called by DerifyClearing"
      },
      "withdraw(uint256)": {
        "params": {
          "amount": "The amount to withdraw"
        }
      }
    },
    "stateVariables": {
      "BUYBACK_ROLE": {
        "details": "Create a new role identifier for the buy back role"
      },
      "CLEARING_ROLE": {
        "details": "Create a new role identifier for the clearing role"
      },
      "CONTRACT_DECIMAL": {
        "details": "The contract decimals"
      },
      "FEE_ROLE": {
        "details": "Create a new role identifier for the fee role"
      },
      "PAUSER_ROLE": {
        "details": "Create a new role identifier for the pauser role"
      },
      "REWARD_ROLE": {
        "details": "Create a new role identifier for the reward role"
      },
      "TOKEN_DECIMAL_DIFF": {
        "details": "The token contract decimals diff with contract decimals"
      },
      "allTraders": {
        "details": "the set of all traders"
      },
      "broker": {
        "details": "the derify broker contract address "
      },
      "clearing": {
        "details": "the derify clearing contract address "
      },
      "dexRouter": {
        "details": "the DEX Router contract address "
      },
      "factory": {
        "details": "the factory address "
      },
      "rewards": {
        "details": "the derify rewards contract address "
      },
      "tokenDRF": {
        "details": "the token DRF contract address "
      },
      "tokenUSD": {
        "details": "the token USD address "
      },
      "traderAccountInfo": {
        "details": "the account info of trader"
      }
    },
    "title": "DerifyExchange - The decentralized derivatives exchange",
    "version": 1
  },
  "userdoc": {
    "events": {
      "BuyBackDrfUpdate(uint256,uint256,uint256,uint256)": {
        "notice": "Emitted when buy back drf called"
      },
      "Deposit(address,uint256,int256,uint256)": {
        "notice": "Emitted when deposit happens"
      },
      "InfurancePoolUpdate(uint8,int256,uint256,uint256)": {
        "notice": "Emitted when insurance pool balance update"
      },
      "LiquidityPoolUpdate(uint8,int256,uint256,uint256)": {
        "notice": "Emitted when liquidity pool balance update"
      },
      "Received(address,uint256)": {
        "notice": "Emitted when receive ether"
      },
      "TraderBalanceUpdate(uint8,address,int256,int256,uint256)": {
        "notice": "Emitted when trader balance update"
      },
      "Withdraw(address,int256,int256,uint256)": {
        "notice": "Emitted when withdraw happens"
      }
    },
    "kind": "user",
    "methods": {
      "buyBackDrf(uint256,uint256,uint256,uint256)": {
        "notice": "Buy back DRF"
      },
      "buyBackFundRatio()": {
        "notice": "Get buyBackFundRatio"
      },
      "cancelAllOrderedPositions()": {
        "notice": "Close all ordered positions of trader"
      },
      "closeAllPositions(address)": {
        "notice": "Close all positions of trader"
      },
      "closePosition(address,address,uint8,uint256)": {
        "notice": "Close position"
      },
      "deposit(uint256)": {
        "notice": "Deposit from wallet to contract account"
      },
      "exchangeBondByInsuranceFund(address,uint256)": {
        "notice": "Exchange Bond by insurance fund balance"
      },
      "getAllTraders()": {
        "notice": "Get all traders "
      },
      "getCloseUpperBound(address,address,uint8)": {
        "notice": "Get the close upper bound of trader"
      },
      "getSysCloseUpperBound(address,uint8)": {
        "notice": "Get the system close upper bound"
      },
      "getSysExchangeBondSizeUpperBound()": {
        "notice": "Get system exchange bond size upper bound"
      },
      "getSysOpenUpperBound(address,uint8)": {
        "notice": "Get the system open upper bound"
      },
      "getSysTotalPositionAmount()": {
        "notice": "Get the total position amount of the whole system"
      },
      "getTraderAccount(address)": {
        "notice": "Get trader account information"
      },
      "getTraderOpenUpperBound(address,address,uint8,uint256,uint256)": {
        "notice": "Get the trader's open upper bound"
      },
      "getTraderPositionVariables(uint8,uint256,uint256,uint256,uint256)": {
        "notice": "Get the trader position variables for held position"
      },
      "getTraderVariables(address)": {
        "notice": "Get trader share variables for held position"
      },
      "initialize(address,address,address,address,address,address,address,address,uint256,uint256,uint256)": {
        "notice": "Called at time of deployment"
      },
      "insuranceFundPool()": {
        "notice": "Get insuranceFundPool value"
      },
      "liquidityPool()": {
        "notice": "Get liquidityPool value"
      },
      "minOpenAmount()": {
        "notice": "Get minOpenAmount"
      },
      "openPosition(address,address,uint8,uint8,uint8,uint256,uint256,uint256)": {
        "notice": "Open position or Ordered limit price position"
      },
      "operateTraderBalance(uint8,address,int256)": {
        "notice": "Operate trader balance"
      },
      "operateTradingFee(uint256,address,address,uint256,uint256,uint256)": {
        "notice": "Operate trading fee"
      },
      "pause()": {
        "notice": "Pause key actions when emergency"
      },
      "removeTrader(address)": {
        "notice": "Remove trader"
      },
      "thetaRatio()": {
        "notice": "Get thetaRatio value"
      },
      "totalAccountBalance()": {
        "notice": "Get total account balance for all traders"
      },
      "transferPoolFrom(uint8,uint8,uint8,uint256)": {
        "notice": "Transfer between pools"
      },
      "unpause()": {
        "notice": "Unpause key actions"
      },
      "withdraw(uint256)": {
        "notice": "Withdraw from contract account to wallet"
      }
    },
    "version": 1
  }
}