{
  "contractName": "DerifyRewards",
  "abi": [
    {
      "inputs": [
        {
          "internalType": "address",
          "name": "_exchange",
          "type": "address"
        },
        {
          "internalType": "address",
          "name": "_tokenUSD",
          "type": "address"
        },
        {
          "internalType": "address",
          "name": "_tokenBBUSD",
          "type": "address"
        },
        {
          "internalType": "address",
          "name": "_tokenDRF",
          "type": "address"
        },
        {
          "internalType": "address",
          "name": "_tokenEDRF",
          "type": "address"
        },
        {
          "internalType": "address",
          "name": "_communityVestingVault",
          "type": "address"
        },
        {
          "internalType": "uint256",
          "name": "_blockTime",
          "type": "uint256"
        },
        {
          "internalType": "uint256",
          "name": "_bondAnnualInterestRate",
          "type": "uint256"
        },
        {
          "internalType": "uint256",
          "name": "_unitStakingNumber",
          "type": "uint256"
        }
      ],
      "stateMutability": "nonpayable",
      "type": "constructor"
    },
    {
      "anonymous": false,
      "inputs": [
        {
          "indexed": false,
          "internalType": "enum IDerifyRewards.UpdateType",
          "name": "updateType",
          "type": "uint8"
        },
        {
          "indexed": true,
          "internalType": "address",
          "name": "user",
          "type": "address"
        },
        {
          "indexed": false,
          "internalType": "int256",
          "name": "amount",
          "type": "int256"
        },
        {
          "indexed": false,
          "internalType": "uint256",
          "name": "balance",
          "type": "uint256"
        },
        {
          "indexed": false,
          "internalType": "uint256",
          "name": "timestamp",
          "type": "uint256"
        }
      ],
      "name": "BankBondPoolUpdate",
      "type": "event"
    },
    {
      "anonymous": false,
      "inputs": [
        {
          "indexed": false,
          "internalType": "enum IDerifyRewards.UpdateType",
          "name": "updateType",
          "type": "uint8"
        },
        {
          "indexed": true,
          "internalType": "address",
          "name": "user",
          "type": "address"
        },
        {
          "indexed": false,
          "internalType": "int256",
          "name": "amount",
          "type": "int256"
        },
        {
          "indexed": false,
          "internalType": "uint256",
          "name": "balance",
          "type": "uint256"
        },
        {
          "indexed": false,
          "internalType": "uint256",
          "name": "timestamp",
          "type": "uint256"
        },
        {
          "indexed": false,
          "internalType": "uint256",
          "name": "blockNumber",
          "type": "uint256"
        }
      ],
      "name": "BondUpdates",
      "type": "event"
    },
    {
      "anonymous": false,
      "inputs": [
        {
          "indexed": false,
          "internalType": "address",
          "name": "newExchange",
          "type": "address"
        },
        {
          "indexed": false,
          "internalType": "address",
          "name": "newTokenUSD",
          "type": "address"
        },
        {
          "indexed": false,
          "internalType": "address",
          "name": "newtokenBBUSD",
          "type": "address"
        },
        {
          "indexed": false,
          "internalType": "address",
          "name": "newTokenDRF",
          "type": "address"
        },
        {
          "indexed": false,
          "internalType": "address",
          "name": "newTokenEDRF",
          "type": "address"
        },
        {
          "indexed": false,
          "internalType": "address",
          "name": "newCommunityVestingVault",
          "type": "address"
        },
        {
          "indexed": false,
          "internalType": "uint256",
          "name": "newBlockTime",
          "type": "uint256"
        },
        {
          "indexed": false,
          "internalType": "uint256",
          "name": "newBondAnnualInterestRate",
          "type": "uint256"
        },
        {
          "indexed": false,
          "internalType": "uint256",
          "name": "newUnitStakingNumber",
          "type": "uint256"
        }
      ],
      "name": "ContractParamsUpdate",
      "type": "event"
    },
    {
      "anonymous": false,
      "inputs": [
        {
          "indexed": false,
          "internalType": "enum IDerifyRewards.UpdateType",
          "name": "updateType",
          "type": "uint8"
        },
        {
          "indexed": true,
          "internalType": "address",
          "name": "user",
          "type": "address"
        },
        {
          "indexed": false,
          "internalType": "int256",
          "name": "amount",
          "type": "int256"
        },
        {
          "indexed": false,
          "internalType": "uint256",
          "name": "balance",
          "type": "uint256"
        },
        {
          "indexed": false,
          "internalType": "uint256",
          "name": "timestamp",
          "type": "uint256"
        }
      ],
      "name": "DrfBalanceUpdate",
      "type": "event"
    },
    {
      "anonymous": false,
      "inputs": [
        {
          "indexed": false,
          "internalType": "enum IDerifyRewards.UpdateType",
          "name": "updateType",
          "type": "uint8"
        },
        {
          "indexed": true,
          "internalType": "address",
          "name": "user",
          "type": "address"
        },
        {
          "indexed": false,
          "internalType": "int256",
          "name": "amount",
          "type": "int256"
        },
        {
          "indexed": false,
          "internalType": "uint256",
          "name": "balance",
          "type": "uint256"
        },
        {
          "indexed": false,
          "internalType": "uint256",
          "name": "timestamp",
          "type": "uint256"
        }
      ],
      "name": "DrfPmrPoolUpdate",
      "type": "event"
    },
    {
      "anonymous": false,
      "inputs": [
        {
          "indexed": false,
          "internalType": "enum IDerifyRewards.UpdateType",
          "name": "updateType",
          "type": "uint8"
        },
        {
          "indexed": true,
          "internalType": "address",
          "name": "user",
          "type": "address"
        },
        {
          "indexed": false,
          "internalType": "int256",
          "name": "amount",
          "type": "int256"
        },
        {
          "indexed": false,
          "internalType": "uint256",
          "name": "balance",
          "type": "uint256"
        },
        {
          "indexed": false,
          "internalType": "uint256",
          "name": "timestamp",
          "type": "uint256"
        },
        {
          "indexed": false,
          "internalType": "uint256",
          "name": "blockNumber",
          "type": "uint256"
        }
      ],
      "name": "EdrfBalanceUpdate",
      "type": "event"
    },
    {
      "anonymous": false,
      "inputs": [
        {
          "indexed": true,
          "internalType": "address",
          "name": "previousOwner",
          "type": "address"
        },
        {
          "indexed": true,
          "internalType": "address",
          "name": "newOwner",
          "type": "address"
        }
      ],
      "name": "OwnershipTransferred",
      "type": "event"
    },
    {
      "anonymous": false,
      "inputs": [
        {
          "indexed": false,
          "internalType": "address",
          "name": "account",
          "type": "address"
        }
      ],
      "name": "Paused",
      "type": "event"
    },
    {
      "anonymous": false,
      "inputs": [
        {
          "indexed": false,
          "internalType": "enum IDerifyRewards.UpdateType",
          "name": "updateType",
          "type": "uint8"
        },
        {
          "indexed": true,
          "internalType": "address",
          "name": "user",
          "type": "address"
        },
        {
          "indexed": false,
          "internalType": "int256",
          "name": "usdAmount",
          "type": "int256"
        },
        {
          "indexed": false,
          "internalType": "uint256",
          "name": "usdBalance",
          "type": "uint256"
        },
        {
          "indexed": false,
          "internalType": "int256",
          "name": "drfAmount",
          "type": "int256"
        },
        {
          "indexed": false,
          "internalType": "uint256",
          "name": "drfBalance",
          "type": "uint256"
        },
        {
          "indexed": false,
          "internalType": "uint256",
          "name": "timestamp",
          "type": "uint256"
        }
      ],
      "name": "PositionRewardUpdates",
      "type": "event"
    },
    {
      "anonymous": false,
      "inputs": [
        {
          "indexed": true,
          "internalType": "bytes32",
          "name": "role",
          "type": "bytes32"
        },
        {
          "indexed": true,
          "internalType": "bytes32",
          "name": "previousAdminRole",
          "type": "bytes32"
        },
        {
          "indexed": true,
          "internalType": "bytes32",
          "name": "newAdminRole",
          "type": "bytes32"
        }
      ],
      "name": "RoleAdminChanged",
      "type": "event"
    },
    {
      "anonymous": false,
      "inputs": [
        {
          "indexed": true,
          "internalType": "bytes32",
          "name": "role",
          "type": "bytes32"
        },
        {
          "indexed": true,
          "internalType": "address",
          "name": "account",
          "type": "address"
        },
        {
          "indexed": true,
          "internalType": "address",
          "name": "sender",
          "type": "address"
        }
      ],
      "name": "RoleGranted",
      "type": "event"
    },
    {
      "anonymous": false,
      "inputs": [
        {
          "indexed": true,
          "internalType": "bytes32",
          "name": "role",
          "type": "bytes32"
        },
        {
          "indexed": true,
          "internalType": "address",
          "name": "account",
          "type": "address"
        },
        {
          "indexed": true,
          "internalType": "address",
          "name": "sender",
          "type": "address"
        }
      ],
      "name": "RoleRevoked",
      "type": "event"
    },
    {
      "anonymous": false,
      "inputs": [
        {
          "indexed": false,
          "internalType": "enum IDerifyRewards.UpdateType",
          "name": "updateType",
          "type": "uint8"
        },
        {
          "indexed": true,
          "internalType": "address",
          "name": "user",
          "type": "address"
        },
        {
          "indexed": false,
          "internalType": "int256",
          "name": "amount",
          "type": "int256"
        },
        {
          "indexed": false,
          "internalType": "uint256",
          "name": "balance",
          "type": "uint256"
        },
        {
          "indexed": false,
          "internalType": "uint256",
          "name": "timestamp",
          "type": "uint256"
        }
      ],
      "name": "StakingDrfPoolUpdate",
      "type": "event"
    },
    {
      "anonymous": false,
      "inputs": [
        {
          "indexed": false,
          "internalType": "address",
          "name": "account",
          "type": "address"
        }
      ],
      "name": "Unpaused",
      "type": "event"
    },
    {
      "anonymous": false,
      "inputs": [
        {
          "indexed": false,
          "internalType": "enum IDerifyRewards.UpdateType",
          "name": "updateType",
          "type": "uint8"
        },
        {
          "indexed": true,
          "internalType": "address",
          "name": "user",
          "type": "address"
        },
        {
          "indexed": false,
          "internalType": "int256",
          "name": "amount",
          "type": "int256"
        },
        {
          "indexed": false,
          "internalType": "uint256",
          "name": "balance",
          "type": "uint256"
        },
        {
          "indexed": false,
          "internalType": "uint256",
          "name": "timestamp",
          "type": "uint256"
        }
      ],
      "name": "UsdPmrPoolUpdate",
      "type": "event"
    },
    {
      "inputs": [],
      "name": "CONTRACT_DECIMAL",
      "outputs": [
        {
          "internalType": "uint256",
          "name": "",
          "type": "uint256"
        }
      ],
      "stateMutability": "view",
      "type": "function"
    },
    {
      "inputs": [],
      "name": "DEFAULT_ADMIN_ROLE",
      "outputs": [
        {
          "internalType": "bytes32",
          "name": "",
          "type": "bytes32"
        }
      ],
      "stateMutability": "view",
      "type": "function"
    },
    {
      "inputs": [],
      "name": "EXCHANGE_ROLE",
      "outputs": [
        {
          "internalType": "bytes32",
          "name": "",
          "type": "bytes32"
        }
      ],
      "stateMutability": "view",
      "type": "function"
    },
    {
      "inputs": [],
      "name": "PAUSER_ROLE",
      "outputs": [
        {
          "internalType": "bytes32",
          "name": "",
          "type": "bytes32"
        }
      ],
      "stateMutability": "view",
      "type": "function"
    },
    {
      "inputs": [],
      "name": "REWARD_EXECUTE_ROLE",
      "outputs": [
        {
          "internalType": "bytes32",
          "name": "",
          "type": "bytes32"
        }
      ],
      "stateMutability": "view",
      "type": "function"
    },
    {
      "inputs": [],
      "name": "TOKEN_DECIMAL_DIFF",
      "outputs": [
        {
          "internalType": "uint256",
          "name": "",
          "type": "uint256"
        }
      ],
      "stateMutability": "view",
      "type": "function"
    },
    {
      "inputs": [],
      "name": "YEAR_SECONDS",
      "outputs": [
        {
          "internalType": "uint256",
          "name": "",
          "type": "uint256"
        }
      ],
      "stateMutability": "view",
      "type": "function"
    },
    {
      "inputs": [],
      "name": "bankBondPool",
      "outputs": [
        {
          "internalType": "uint256",
          "name": "",
          "type": "uint256"
        }
      ],
      "stateMutability": "view",
      "type": "function"
    },
    {
      "inputs": [],
      "name": "blockTime",
      "outputs": [
        {
          "internalType": "uint256",
          "name": "",
          "type": "uint256"
        }
      ],
      "stateMutability": "view",
      "type": "function"
    },
    {
      "inputs": [],
      "name": "bondAnnualInterestRate",
      "outputs": [
        {
          "internalType": "uint256",
          "name": "",
          "type": "uint256"
        }
      ],
      "stateMutability": "view",
      "type": "function"
    },
    {
      "inputs": [],
      "name": "communityVestingVault",
      "outputs": [
        {
          "internalType": "address",
          "name": "",
          "type": "address"
        }
      ],
      "stateMutability": "view",
      "type": "function"
    },
    {
      "inputs": [],
      "name": "drfPmrPool",
      "outputs": [
        {
          "internalType": "uint256",
          "name": "",
          "type": "uint256"
        }
      ],
      "stateMutability": "view",
      "type": "function"
    },
    {
      "inputs": [],
      "name": "exchange",
      "outputs": [
        {
          "internalType": "address",
          "name": "",
          "type": "address"
        }
      ],
      "stateMutability": "view",
      "type": "function"
    },
    {
      "inputs": [
        {
          "internalType": "bytes32",
          "name": "role",
          "type": "bytes32"
        }
      ],
      "name": "getRoleAdmin",
      "outputs": [
        {
          "internalType": "bytes32",
          "name": "",
          "type": "bytes32"
        }
      ],
      "stateMutability": "view",
      "type": "function"
    },
    {
      "inputs": [
        {
          "internalType": "bytes32",
          "name": "role",
          "type": "bytes32"
        },
        {
          "internalType": "address",
          "name": "account",
          "type": "address"
        }
      ],
      "name": "grantRole",
      "outputs": [],
      "stateMutability": "nonpayable",
      "type": "function"
    },
    {
      "inputs": [
        {
          "internalType": "bytes32",
          "name": "role",
          "type": "bytes32"
        },
        {
          "internalType": "address",
          "name": "account",
          "type": "address"
        }
      ],
      "name": "hasRole",
      "outputs": [
        {
          "internalType": "bool",
          "name": "",
          "type": "bool"
        }
      ],
      "stateMutability": "view",
      "type": "function"
    },
    {
      "inputs": [],
      "name": "owner",
      "outputs": [
        {
          "internalType": "address",
          "name": "",
          "type": "address"
        }
      ],
      "stateMutability": "view",
      "type": "function"
    },
    {
      "inputs": [],
      "name": "paused",
      "outputs": [
        {
          "internalType": "bool",
          "name": "",
          "type": "bool"
        }
      ],
      "stateMutability": "view",
      "type": "function"
    },
    {
      "inputs": [],
      "name": "renounceOwnership",
      "outputs": [],
      "stateMutability": "nonpayable",
      "type": "function"
    },
    {
      "inputs": [
        {
          "internalType": "bytes32",
          "name": "role",
          "type": "bytes32"
        },
        {
          "internalType": "address",
          "name": "account",
          "type": "address"
        }
      ],
      "name": "renounceRole",
      "outputs": [],
      "stateMutability": "nonpayable",
      "type": "function"
    },
    {
      "inputs": [
        {
          "internalType": "bytes32",
          "name": "role",
          "type": "bytes32"
        },
        {
          "internalType": "address",
          "name": "account",
          "type": "address"
        }
      ],
      "name": "revokeRole",
      "outputs": [],
      "stateMutability": "nonpayable",
      "type": "function"
    },
    {
      "inputs": [],
      "name": "stakingDrfPool",
      "outputs": [
        {
          "internalType": "uint256",
          "name": "",
          "type": "uint256"
        }
      ],
      "stateMutability": "view",
      "type": "function"
    },
    {
      "inputs": [
        {
          "internalType": "bytes4",
          "name": "interfaceId",
          "type": "bytes4"
        }
      ],
      "name": "supportsInterface",
      "outputs": [
        {
          "internalType": "bool",
          "name": "",
          "type": "bool"
        }
      ],
      "stateMutability": "view",
      "type": "function"
    },
    {
      "inputs": [],
      "name": "tokenBBUSD",
      "outputs": [
        {
          "internalType": "address",
          "name": "",
          "type": "address"
        }
      ],
      "stateMutability": "view",
      "type": "function"
    },
    {
      "inputs": [],
      "name": "tokenDRF",
      "outputs": [
        {
          "internalType": "address",
          "name": "",
          "type": "address"
        }
      ],
      "stateMutability": "view",
      "type": "function"
    },
    {
      "inputs": [],
      "name": "tokenEDRF",
      "outputs": [
        {
          "internalType": "address",
          "name": "",
          "type": "address"
        }
      ],
      "stateMutability": "view",
      "type": "function"
    },
    {
      "inputs": [],
      "name": "tokenUSD",
      "outputs": [
        {
          "internalType": "address",
          "name": "",
          "type": "address"
        }
      ],
      "stateMutability": "view",
      "type": "function"
    },
    {
      "inputs": [
        {
          "internalType": "address",
          "name": "newOwner",
          "type": "address"
        }
      ],
      "name": "transferOwnership",
      "outputs": [],
      "stateMutability": "nonpayable",
      "type": "function"
    },
    {
      "inputs": [],
      "name": "unitStakingNumber",
      "outputs": [
        {
          "internalType": "uint256",
          "name": "",
          "type": "uint256"
        }
      ],
      "stateMutability": "view",
      "type": "function"
    },
    {
      "inputs": [],
      "name": "usdPmrPool",
      "outputs": [
        {
          "internalType": "uint256",
          "name": "",
          "type": "uint256"
        }
      ],
      "stateMutability": "view",
      "type": "function"
    },
    {
      "inputs": [
        {
          "internalType": "address",
          "name": "_exchange",
          "type": "address"
        },
        {
          "internalType": "address",
          "name": "_tokenUSD",
          "type": "address"
        },
        {
          "internalType": "address",
          "name": "_tokenBBUSD",
          "type": "address"
        },
        {
          "internalType": "address",
          "name": "_tokenDRF",
          "type": "address"
        },
        {
          "internalType": "address",
          "name": "_tokenEDRF",
          "type": "address"
        },
        {
          "internalType": "address",
          "name": "_communityVestingVault",
          "type": "address"
        },
        {
          "internalType": "uint256",
          "name": "_blockTime",
          "type": "uint256"
        },
        {
          "internalType": "uint256",
          "name": "_bondAnnualInterestRate",
          "type": "uint256"
        },
        {
          "internalType": "uint256",
          "name": "_unitStakingNumber",
          "type": "uint256"
        }
      ],
      "name": "updateParams",
      "outputs": [],
      "stateMutability": "nonpayable",
      "type": "function"
    },
    {
      "inputs": [],
      "name": "pause",
      "outputs": [],
      "stateMutability": "nonpayable",
      "type": "function"
    },
    {
      "inputs": [],
      "name": "unpause",
      "outputs": [],
      "stateMutability": "nonpayable",
      "type": "function"
    },
    {
      "inputs": [
        {
          "internalType": "address",
          "name": "trader",
          "type": "address"
        },
        {
          "internalType": "uint256",
          "name": "amount",
          "type": "uint256"
        }
      ],
      "name": "payBond",
      "outputs": [],
      "stateMutability": "nonpayable",
      "type": "function"
    },
    {
      "inputs": [],
      "name": "withdrawAllBond",
      "outputs": [],
      "stateMutability": "nonpayable",
      "type": "function"
    },
    {
      "inputs": [
        {
          "internalType": "uint256",
          "name": "amount",
          "type": "uint256"
        }
      ],
      "name": "exchangeBond",
      "outputs": [],
      "stateMutability": "nonpayable",
      "type": "function"
    },
    {
      "inputs": [
        {
          "internalType": "uint256",
          "name": "amount",
          "type": "uint256"
        }
      ],
      "name": "depositBondToBank",
      "outputs": [],
      "stateMutability": "nonpayable",
      "type": "function"
    },
    {
      "inputs": [
        {
          "internalType": "uint256",
          "name": "amount",
          "type": "uint256"
        }
      ],
      "name": "redeemBondFromBank",
      "outputs": [],
      "stateMutability": "nonpayable",
      "type": "function"
    },
    {
      "inputs": [
        {
          "internalType": "uint256",
          "name": "amount",
          "type": "uint256"
        }
      ],
      "name": "stakingDrf",
      "outputs": [],
      "stateMutability": "nonpayable",
      "type": "function"
    },
    {
      "inputs": [
        {
          "internalType": "uint256",
          "name": "amount",
          "type": "uint256"
        }
      ],
      "name": "redeemDrf",
      "outputs": [],
      "stateMutability": "nonpayable",
      "type": "function"
    },
    {
      "inputs": [],
      "name": "withdrawAllEdrf",
      "outputs": [],
      "stateMutability": "nonpayable",
      "type": "function"
    },
    {
      "inputs": [
        {
          "internalType": "address",
          "name": "trader",
          "type": "address"
        },
        {
          "internalType": "uint256",
          "name": "amount",
          "type": "uint256"
        }
      ],
      "name": "addPositionReward",
      "outputs": [],
      "stateMutability": "nonpayable",
      "type": "function"
    },
    {
      "inputs": [],
      "name": "claimDrfPmr",
      "outputs": [],
      "stateMutability": "nonpayable",
      "type": "function"
    },
    {
      "inputs": [
        {
          "internalType": "address[]",
          "name": "traders",
          "type": "address[]"
        },
        {
          "internalType": "uint256[]",
          "name": "usdAmounts",
          "type": "uint256[]"
        },
        {
          "internalType": "uint256[]",
          "name": "drfAmounts",
          "type": "uint256[]"
        },
        {
          "internalType": "uint256",
          "name": "gasFeeAmount",
          "type": "uint256"
        }
      ],
      "name": "updateTradersPositionReward",
      "outputs": [],
      "stateMutability": "nonpayable",
      "type": "function"
    },
    {
      "inputs": [],
      "name": "withdrawPositionReward",
      "outputs": [],
      "stateMutability": "nonpayable",
      "type": "function"
    },
    {
      "inputs": [
        {
          "internalType": "address",
          "name": "trader",
          "type": "address"
        }
      ],
      "name": "getPositionReward",
      "outputs": [
        {
          "internalType": "uint256",
          "name": "usdBalance",
          "type": "uint256"
        },
        {
          "internalType": "uint256",
          "name": "usdAccumulatedBalance",
          "type": "uint256"
        },
        {
          "internalType": "uint256",
          "name": "drfBalance",
          "type": "uint256"
        },
        {
          "internalType": "uint256",
          "name": "drfAccumulatedBalance",
          "type": "uint256"
        }
      ],
      "stateMutability": "view",
      "type": "function"
    },
    {
      "inputs": [
        {
          "internalType": "address",
          "name": "trader",
          "type": "address"
        }
      ],
      "name": "getBondInfo",
      "outputs": [
        {
          "internalType": "uint256",
          "name": "bondBalance",
          "type": "uint256"
        },
        {
          "internalType": "uint256",
          "name": "bondReturnBalance",
          "type": "uint256"
        },
        {
          "internalType": "uint256",
          "name": "lastUpdatedBlockNumber",
          "type": "uint256"
        },
        {
          "internalType": "uint256",
          "name": "bondWalletBalance",
          "type": "uint256"
        },
        {
          "internalType": "uint256",
          "name": "bondAnnualInterestRatio",
          "type": "uint256"
        }
      ],
      "stateMutability": "view",
      "type": "function"
    },
    {
      "inputs": [],
      "name": "getAllBondTraders",
      "outputs": [
        {
          "internalType": "address[]",
          "name": "",
          "type": "address[]"
        }
      ],
      "stateMutability": "view",
      "type": "function"
    },
    {
      "inputs": [
        {
          "internalType": "address",
          "name": "trader",
          "type": "address"
        }
      ],
      "name": "getStakingInfo",
      "outputs": [
        {
          "internalType": "uint256",
          "name": "drfBalance",
          "type": "uint256"
        },
        {
          "internalType": "uint256",
          "name": "edrfBalance",
          "type": "uint256"
        },
        {
          "internalType": "uint256",
          "name": "lastUpdatedBlockNumber",
          "type": "uint256"
        }
      ],
      "stateMutability": "view",
      "type": "function"
    },
    {
      "inputs": [],
      "name": "getAllStakingTraders",
      "outputs": [
        {
          "internalType": "address[]",
          "name": "",
          "type": "address[]"
        }
      ],
      "stateMutability": "view",
      "type": "function"
    },
    {
      "inputs": [
        {
          "internalType": "address",
          "name": "trader",
          "type": "address"
        }
      ],
      "name": "getExchangeBondSizeUpperBound",
      "outputs": [
        {
          "internalType": "uint256",
          "name": "maxBondSize",
          "type": "uint256"
        }
      ],
      "stateMutability": "view",
      "type": "function"
    }
  ],
  "bytecode": "0x60806040523480156200001157600080fd5b5060405162003a8b38038062003a8b833981016040819052620000349162000270565b6200003f336200016b565b600160025560038054600780546001600160a01b03199081166001600160a01b038e8116919091179092556001600160a81b03199092166101008c831602179092556004805482168a8416179055600580548216898416179055600680548216888416179055600880549091169186169190911790556009839055600a829055600b819055620000d86000620000d23390565b620001bb565b620001047f65d7a28e3265b37a6474929f336521b332c1681b933f6cb9f3376673440d862a33620001bb565b620001307f88ffbb7f39c7c9a080835559a2fa77900e52473a53100c58745802dd1000eab033620001bb565b6200015c7f28d62fc77014de57a1bbaa8212ff0979fa61ab00d377b4b8d9762048fb4199618a620001bb565b5050505050505050506200030f565b600080546001600160a01b038381166001600160a01b0319831681178455604051919092169283917f8be0079c531659141344cd1fd0a4f28419497f9722a3daafe3b4186f6b6457e09190a35050565b620001c78282620001cb565b5050565b60008281526001602090815260408083206001600160a01b038516845290915290205460ff16620001c75760008281526001602081815260408084206001600160a01b0386168086529252808420805460ff19169093179092559051339285917f2f8788117e7eff1d82e926ec794901d17c78024a50270940304540a733656f0d9190a45050565b80516001600160a01b03811681146200026b57600080fd5b919050565b60008060008060008060008060006101208a8c0312156200028f578485fd5b6200029a8a62000253565b9850620002aa60208b0162000253565b9750620002ba60408b0162000253565b9650620002ca60608b0162000253565b9550620002da60808b0162000253565b9450620002ea60a08b0162000253565b935060c08a0151925060e08a015191506101008a015190509295985092959850929598565b61376c806200031f6000396000f3fe608060405234801561001057600080fd5b50600436106102f05760003560e01c80637ed259ed1161019d578063aa4704f3116100e9578063d2f7265a116100a2578063e63ab1e91161007c578063e63ab1e9146106e1578063f22e4a4a14610708578063f2fde38b1461071b578063fdbf502d1461072e57600080fd5b8063d2f7265a146106b2578063d547741f146106c5578063e2b67df0146106d857600080fd5b8063aa4704f314610625578063b330db2814610676578063b771a3e414610681578063bf5acd391461068a578063c1422dda1461069d578063cdc70457146106a657600080fd5b8063922261a7116101565780639f28a937116101305780639f28a937146105ea578063a1741991146105f2578063a217fddf1461060a578063a68e9bb31461061257600080fd5b8063922261a7146105bc57806398b4819e146105cf5780639a04b84b146105e257600080fd5b80637ed259ed1461056257806383cccd0d146105755780638456cb591461057d578063859a01f1146105855780638da5cb5b1461059857806391d14854146105a957600080fd5b806333d728141161025c5780634ff85eec1161021557806364a67167116101ef57806364a6716714610513578063715018a61461053e578063740bec66146105465780637b7b22761461054f57600080fd5b80634ff85eec146104965780635c975abb146104f557806363cdef6e1461050057600080fd5b806333d728141461042d57806336568abe146104385780633b7345011461044b5780633f4ba83a146104725780634035f4261461047a57806348b151661461048d57600080fd5b80631c5b9c88116102ae5780631c5b9c88146103795780631d882f1114610381578063248a9ca3146103bc5780632549925a146103e05780632bfae9db146103f35780632f2ff15d1461041a57600080fd5b8062e3c676146102f5578063014a74f91461030a57806301ffc9a71461031d57806312ffa2b71461034557806319ce7d601461035a5780631c3f7ccf14610371575b600080fd5b6103086103033660046132dd565b610737565b005b61030861031836600461321e565b6108ce565b61033061032b366004613320565b610c59565b60405190151581526020015b60405180910390f35b61034d610c90565b60405161033c9190613443565b610363600a5481565b60405190815260200161033c565b610308610cf2565b610308610eb6565b61039461038f366004613149565b61104b565b604080519586526020860194909452928401919091526060830152608082015260a00161033c565b6103636103ca3660046132dd565b6000908152600160208190526040909120015490565b6103086103ee3660046131f5565b61110f565b6103637f88ffbb7f39c7c9a080835559a2fa77900e52473a53100c58745802dd1000eab081565b6103086104283660046132f5565b6111a1565b6103636305f5e10081565b6103086104463660046132f5565b6111cc565b6103637f28d62fc77014de57a1bbaa8212ff0979fa61ab00d377b4b8d9762048fb41996181565b61030861124a565b6103086104883660046132dd565b61127f565b61036360095481565b6104d56104a4366004613149565b6001600160a01b03166000908152601460205260409020805460018201546002830154600390930154919390929190565b60408051948552602085019390935291830152606082015260800161033c565b60035460ff16610330565b61030861050e3660046131f5565b6114af565b600854610526906001600160a01b031681565b6040516001600160a01b03909116815260200161033c565b610308611650565b610363600e5481565b61036361055d366004613149565b611686565b600654610526906001600160a01b031681565b6103086117b6565b610308611c88565b6103086105933660046132dd565b611cba565b6000546001600160a01b0316610526565b6103306105b73660046132f5565b611ffd565b600454610526906001600160a01b031681565b6103086105dd3660046132dd565b612028565b61034d6122b4565b610308612314565b6003546105269061010090046001600160a01b031681565b610363600081565b6103086106203660046132dd565b6124c1565b61065b610633366004613149565b6001600160a01b03166000908152601360205260409020805460018201546002909201549092565b6040805193845260208401929092529082015260600161033c565b6103636301e1338081565b610363600f5481565b600554610526906001600160a01b031681565b610363600d5481565b6103636402540be40081565b600754610526906001600160a01b031681565b6103086106d33660046132f5565b612767565b610363600b5481565b6103637f65d7a28e3265b37a6474929f336521b332c1681b933f6cb9f3376673440d862a81565b610308610716366004613163565b61278d565b610308610729366004613149565b6128bd565b610363600c5481565b6002805414156107625760405162461bcd60e51b8152600401610759906135b1565b60405180910390fd5b6002805560035460ff16156107895760405162461bcd60e51b815260040161075990613552565b33600061079582611686565b9050828110156107e75760405162461bcd60e51b815260206004820152601960248201527f44426f6e643a2045425f4d41585f53495a455f455843454544000000000000006044820152606401610759565b6107f082612955565b6004546001600160a01b0316639dc29fac836108116402540be400876136a3565b6040518363ffffffff1660e01b815260040161082e92919061342a565b600060405180830381600087803b15801561084857600080fd5b505af115801561085c573d6000803e3d6000fd5b5050600754604051631d35b92160e21b81526001600160a01b0390911692506374d6e4849150610892908590879060040161342a565b600060405180830381600087803b1580156108ac57600080fd5b505af11580156108c0573d6000803e3d6000fd5b505060016002555050505050565b7f88ffbb7f39c7c9a080835559a2fa77900e52473a53100c58745802dd1000eab06108f881612af1565b868581146109485760405162461bcd60e51b815260206004820152601760248201527f44504d523a205554504d525f5553445f4c454e5f4552520000000000000000006044820152606401610759565b8084146109975760405162461bcd60e51b815260206004820152601760248201527f44504d523a205554504d525f4452465f4c454e5f4552520000000000000000006044820152606401610759565b60005b81811015610b6c5760008a8a838181106109c457634e487b7160e01b600052603260045260246000fd5b90506020020160208101906109d99190613149565b905060008989848181106109fd57634e487b7160e01b600052603260045260246000fd5b9050602002013590506000888885818110610a2857634e487b7160e01b600052603260045260246000fd5b9050602002013590508160146000856001600160a01b03166001600160a01b031681526020019081526020016000206000016000828254610a6991906135e8565b90915550506001600160a01b03831660009081526014602052604081206001018054849290610a999084906135e8565b90915550506001600160a01b03831660009081526014602052604081206002018054839290610ac99084906135e8565b90915550506001600160a01b03831660009081526014602052604081206003018054839290610af99084906135e8565b90915550506001600160a01b038316600081815260146020526040808220805460029091015491517f5b8978b966eb113af3a7d169aa96bbf5ff73f894bb46a8f127be85a4f1c1400793610b569390928892909188914290613490565b60405180910390a283600101935050505061099a565b5060035461010090046001600160a01b031663a9059cbb33610b936402540be400876136a3565b6040518363ffffffff1660e01b8152600401610bb092919061342a565b602060405180830381600087803b158015610bca57600080fd5b505af1158015610bde573d6000803e3d6000fd5b505050506040513d601f19601f82011682018060405250810190610c0291906132bd565b610c4e5760405162461bcd60e51b815260206004820152601c60248201527f44504d523a205554504d525f5553445f5452414e534645525f455252000000006044820152606401610759565b505050505050505050565b60006001600160e01b03198216637965db0b60e01b1480610c8a57506301ffc9a760e01b6001600160e01b03198316145b92915050565b60606010805480602002602001604051908101604052809291908181526020018280548015610ce857602002820191906000526020600020905b81546001600160a01b03168152600190910190602001808311610cca575b5050505050905090565b600280541415610d145760405162461bcd60e51b8152600401610759906135b1565b6002805560035460ff1615610d3b5760405162461bcd60e51b815260040161075990613552565b33610d4581612afb565b6001600160a01b038082166000908152601360205260408120600101805491905560065490911663a9059cbb83610d816402540be400856136a3565b6040518363ffffffff1660e01b8152600401610d9e92919061342a565b602060405180830381600087803b158015610db857600080fd5b505af1158015610dcc573d6000803e3d6000fd5b505050506040513d601f19601f82011682018060405250810190610df091906132bd565b610e3c5760405162461bcd60e51b815260206004820152601f60248201527f445374616b696e673a205741455f454452465f5452414e534645525f455252006044820152606401610759565b6001600160a01b0382167f67338521226e651d09c53e0d0fdb8dd5faa2d0c88db29a0fc7438b47e79d98076001610e7584600019613620565b6001600160a01b03861660009081526013602052604090819020600101549051610ea593929190429043906134ef565b60405180910390a250506001600255565b7f88ffbb7f39c7c9a080835559a2fa77900e52473a53100c58745802dd1000eab0610ee081612af1565b600854604051633f5d6e3560e21b81523060048201526000916001600160a01b03169063fd75b8d490602401604080518083038186803b158015610f2357600080fd5b505afa158015610f37573d6000803e3d6000fd5b505050506040513d601f19601f82011682018060405250810190610f5b9190613348565b915050600860009054906101000a90046001600160a01b03166001600160a01b031663e74f3fbb6040518163ffffffff1660e01b8152600401600060405180830381600087803b158015610fae57600080fd5b505af1158015610fc2573d6000803e3d6000fd5b505050506402540be40081610fd79190613600565b600f6000828254610fe891906135e8565b90915550506008546001600160a01b03167fb0ed7cbbf118811d0f1323a67609756e712f7242b66ef3d49b4353930597337d600061102b6402540be40085613600565b600f544260405161103f94939291906134c6565b60405180910390a25050565b6001600160a01b03818116600081815260126020526040808220805460018201546002909201546004805494516370a0823160e01b8152908101969096529095919490939283926402540be400929116906370a082319060240160206040518083038186803b1580156110bd57600080fd5b505afa1580156110d1573d6000803e3d6000fd5b505050506040513d601f19601f820116820180604052508101906110f5919061337b565b6110ff9190613600565b9150600a54905091939590929450565b7f28d62fc77014de57a1bbaa8212ff0979fa61ab00d377b4b8d9762048fb41996161113981612af1565b81600e600082825461114b91906135e8565b92505081905550826001600160a01b03167f5bd68f93fff13cf0b5a036ee2484d018021d6f84e03ea05c25d86048af4a43c0600084600e544260405161119494939291906134c6565b60405180910390a2505050565b600082815260016020819052604090912001546111bd81612af1565b6111c78383612c89565b505050565b6001600160a01b038116331461123c5760405162461bcd60e51b815260206004820152602f60248201527f416363657373436f6e74726f6c3a2063616e206f6e6c792072656e6f756e636560448201526e103937b632b9903337b91039b2b63360891b6064820152608401610759565b6112468282612cf4565b5050565b7f65d7a28e3265b37a6474929f336521b332c1681b933f6cb9f3376673440d862a61127481612af1565b61127c612d5b565b50565b6002805414156112a15760405162461bcd60e51b8152600401610759906135b1565b6002805560035460ff16156112c85760405162461bcd60e51b815260040161075990613552565b336112d281612955565b6001600160a01b03811660009081526012602052604090206001015482111561133d5760405162461bcd60e51b815260206004820152601a60248201527f44426f6e643a20524254425f42414c414e43455f4558434545440000000000006044820152606401610759565b6001600160a01b038116600090815260126020526040812060010180548492906113689084906136c2565b9250508190555081600c600082825461138191906136c2565b90915550506004546001600160a01b031663a9059cbb826113a76402540be400866136a3565b6040518363ffffffff1660e01b81526004016113c492919061342a565b602060405180830381600087803b1580156113de57600080fd5b505af11580156113f2573d6000803e3d6000fd5b505050506040513d601f19601f8201168201806040525081019061141691906132bd565b6114625760405162461bcd60e51b815260206004820152601d60248201527f44426f6e643a20524254425f424f4e445f5452414e534645525f4552520000006044820152606401610759565b6001600160a01b0381167f0718ceb2e8d8ff5d8f9138f58bc8d95cc1396b4ef8599346f82d9812a07cd1c1600161149b85600019613620565b600c5442604051610ea594939291906134c6565b7f28d62fc77014de57a1bbaa8212ff0979fa61ab00d377b4b8d9762048fb4199616114d981612af1565b6001600160a01b03831660009081526012602052604090206003015460ff16611563576010805460018082019092557f1b6847dc741a1b0cd08d278845f9d819d87b734759afb55fe2de5cb82a9ae6720180546001600160a01b0319166001600160a01b0386169081179091556000908152601260205260409020600301805460ff191690911790555b6001600160a01b0383166000908152601260205260408120805484929061158b9084906135e8565b90915550506004546001600160a01b03166340c10f19306115b16402540be400866136a3565b6040518363ffffffff1660e01b81526004016115ce92919061342a565b600060405180830381600087803b1580156115e857600080fd5b505af11580156115fc573d6000803e3d6000fd5b5050506001600160a01b0384166000818152601260205260408082205490519293507f15de50c55a058da5044e51deca65a14dc5e8e9f46ddbdaf53bce26724bfeb6389261119492918791429043906134ef565b6000546001600160a01b0316331461167a5760405162461bcd60e51b81526004016107599061357c565b6116846000612dee565b565b600480546040516370a0823160e01b81526001600160a01b03848116938201939093526000926402540be4009216906370a082319060240160206040518083038186803b1580156116d657600080fd5b505afa1580156116ea573d6000803e3d6000fd5b505050506040513d601f19601f8201168201806040525081019061170e919061337b565b6117189190613600565b90506000600760009054906101000a90046001600160a01b03166001600160a01b03166327f24e2d6040518163ffffffff1660e01b815260040160206040518083038186803b15801561176a57600080fd5b505afa15801561177e573d6000803e3d6000fd5b505050506040513d601f19601f820116820180604052508101906117a2919061337b565b9050818110156117b0578091505b50919050565b6002805414156117d85760405162461bcd60e51b8152600401610759906135b1565b6002805560035460ff16156117ff5760405162461bcd60e51b815260040161075990613552565b3360008181526014602052604090205480156119e45780600e5410156118675760405162461bcd60e51b815260206004820152601d60248201527f44504d523a2057504d525f5553445f42414c414e43455f4558434545440000006044820152606401610759565b6001600160a01b0382166000908152601460205260408120805483929061188f9084906136c2565b9250508190555080600e60008282546118a891906136c2565b909155505060035461010090046001600160a01b031663a9059cbb836118d36402540be400856136a3565b6040518363ffffffff1660e01b81526004016118f092919061342a565b602060405180830381600087803b15801561190a57600080fd5b505af115801561191e573d6000803e3d6000fd5b505050506040513d601f19601f8201168201806040525081019061194291906132bd565b61198e5760405162461bcd60e51b815260206004820152601b60248201527f44504d523a2057504d525f5553445f5452414e534645525f45525200000000006044820152606401610759565b6001600160a01b0382167f5bd68f93fff13cf0b5a036ee2484d018021d6f84e03ea05c25d86048af4a43c060016119c784600019613620565b600e54426040516119db94939291906134c6565b60405180910390a25b6001600160a01b0382166000908152601460205260409020600201548015611bd35780600f541015611a585760405162461bcd60e51b815260206004820152601d60248201527f44504d523a2057504d525f4452465f42414c414e43455f4558434545440000006044820152606401610759565b6001600160a01b03831660009081526014602052604081206002018054839290611a839084906136c2565b9250508190555080600f6000828254611a9c91906136c2565b90915550506005546001600160a01b031663a9059cbb84611ac26402540be400856136a3565b6040518363ffffffff1660e01b8152600401611adf92919061342a565b602060405180830381600087803b158015611af957600080fd5b505af1158015611b0d573d6000803e3d6000fd5b505050506040513d601f19601f82011682018060405250810190611b3191906132bd565b611b7d5760405162461bcd60e51b815260206004820152601b60248201527f44504d523a2057504d525f4452465f5452414e534645525f45525200000000006044820152606401610759565b6001600160a01b0383167fb0ed7cbbf118811d0f1323a67609756e712f7242b66ef3d49b4353930597337d6001611bb684600019613620565b600f5442604051611bca94939291906134c6565b60405180910390a25b6000821180611be25750600081115b15611c7e576001600160a01b0383167f5b8978b966eb113af3a7d169aa96bbf5ff73f894bb46a8f127be85a4f1c140076001611c2085600019613620565b6001600160a01b038716600090815260146020526040902054611c4586600019613620565b6001600160a01b03891660009081526014602052604090819020600201549051611c759594939291904290613490565b60405180910390a25b5050600160025550565b7f65d7a28e3265b37a6474929f336521b332c1681b933f6cb9f3376673440d862a611cb281612af1565b61127c612e3e565b600280541415611cdc5760405162461bcd60e51b8152600401610759906135b1565b6002805560035460ff1615611d035760405162461bcd60e51b815260040161075990613552565b33611d0d81612955565b600480546040516370a0823160e01b81526001600160a01b03848116938201939093526000926402540be4009216906370a082319060240160206040518083038186803b158015611d5d57600080fd5b505afa158015611d71573d6000803e3d6000fd5b505050506040513d601f19601f82011682018060405250810190611d95919061337b565b611d9f9190613600565b905082811015611df15760405162461bcd60e51b815260206004820152601a60248201527f44426f6e643a20444254425f42414c414e43455f4558434545440000000000006044820152606401610759565b6004546001600160a01b03166323b872dd8330611e136402540be400886136a3565b6040516001600160e01b031960e086901b1681526001600160a01b0393841660048201529290911660248301526044820152606401602060405180830381600087803b158015611e6257600080fd5b505af1158015611e76573d6000803e3d6000fd5b505050506040513d601f19601f82011682018060405250810190611e9a91906132bd565b611ee65760405162461bcd60e51b815260206004820152601d60248201527f44426f6e643a20444254425f424f4e445f5452414e534645525f4552520000006044820152606401610759565b6001600160a01b03821660009081526012602052604090206003015460ff16611f70576010805460018082019092557f1b6847dc741a1b0cd08d278845f9d819d87b734759afb55fe2de5cb82a9ae6720180546001600160a01b0319166001600160a01b0385169081179091556000908152601260205260409020600301805460ff191690911790555b6001600160a01b03821660009081526012602052604081206001018054859290611f9b9084906135e8565b9250508190555082600c6000828254611fb491906135e8565b92505081905550816001600160a01b03167f0718ceb2e8d8ff5d8f9138f58bc8d95cc1396b4ef8599346f82d9812a07cd1c1600085600c5442604051611c7594939291906134c6565b60009182526001602090815260408084206001600160a01b0393909316845291905290205460ff1690565b60028054141561204a5760405162461bcd60e51b8152600401610759906135b1565b6002805560035460ff16156120715760405162461bcd60e51b815260040161075990613552565b336000818152601360205260409020548211156120d05760405162461bcd60e51b815260206004820152601b60248201527f445374616b696e673a2052445f42414c414e43455f45584345454400000000006044820152606401610759565b6120d981612afb565b6001600160a01b038116600090815260136020526040812080548492906121019084906136c2565b9250508190555081600d600082825461211a91906136c2565b90915550506005546001600160a01b031663a9059cbb826121406402540be400866136a3565b6040518363ffffffff1660e01b815260040161215d92919061342a565b602060405180830381600087803b15801561217757600080fd5b505af115801561218b573d6000803e3d6000fd5b505050506040513d601f19601f820116820180604052508101906121af91906132bd565b6121fb5760405162461bcd60e51b815260206004820152601d60248201527f445374616b696e673a2052445f4452465f5452414e534645525f4552520000006044820152606401610759565b6001600160a01b0381167f0854122bff118fe2cd2dddcbd1b3d6dc37ec2cabb3aaf718c111c3023649c856600161223485600019613620565b6001600160a01b0385166000908152601360205260409081902054905161225f9392919042906134c6565b60405180910390a26001600160a01b0381167f3f934cd4de9f0b98925e2cfb21a5bcab431d29139f6da21351ee1f6f9a587b5960016122a085600019613620565b600d5442604051610ea594939291906134c6565b60606011805480602002602001604051908101604052809291908181526020018280548015610ce8576020028201919060005260206000209081546001600160a01b03168152600190910190602001808311610cca575050505050905090565b6002805414156123365760405162461bcd60e51b8152600401610759906135b1565b6002805560035460ff161561235d5760405162461bcd60e51b815260040161075990613552565b3361236781612955565b6001600160a01b038082166000908152601260205260408120805491905560045490911663a9059cbb836123a06402540be400856136a3565b6040518363ffffffff1660e01b81526004016123bd92919061342a565b602060405180830381600087803b1580156123d757600080fd5b505af11580156123eb573d6000803e3d6000fd5b505050506040513d601f19601f8201168201806040525081019061240f91906132bd565b61245b5760405162461bcd60e51b815260206004820152601c60248201527f44426f6e643a205741425f424f4e445f5452414e534645525f455252000000006044820152606401610759565b6001600160a01b0382167f15de50c55a058da5044e51deca65a14dc5e8e9f46ddbdaf53bce26724bfeb638600161249484600019613620565b6001600160a01b03861660009081526012602052604090819020549051610ea593929190429043906134ef565b6002805414156124e35760405162461bcd60e51b8152600401610759906135b1565b6002805560035460ff161561250a5760405162461bcd60e51b815260040161075990613552565b3360008181526013602052604090206003015460ff1661258b576011805460018082019092557f31ecc21a745e3968a04e9570e4425bc18fa8019c68028196b546d1669c200c680180546001600160a01b0319166001600160a01b0384169081179091556000908152601360205260409020600301805460ff191690911790555b61259481612afb565b6001600160a01b038116600090815260136020526040812080548492906125bc9084906135e8565b9250508190555081600d60008282546125d591906135e8565b90915550506005546001600160a01b03166323b872dd82306125fc6402540be400876136a3565b6040516001600160e01b031960e086901b1681526001600160a01b0393841660048201529290911660248301526044820152606401602060405180830381600087803b15801561264b57600080fd5b505af115801561265f573d6000803e3d6000fd5b505050506040513d601f19601f8201168201806040525081019061268391906132bd565b6126cf5760405162461bcd60e51b815260206004820152601d60248201527f445374616b696e673a2053445f4452465f5452414e534645525f4552520000006044820152606401610759565b6001600160a01b0381166000818152601360205260408082205490517f0854122bff118fe2cd2dddcbd1b3d6dc37ec2cabb3aaf718c111c3023649c8569261271d92909187919042906134c6565b60405180910390a2806001600160a01b03167f3f934cd4de9f0b98925e2cfb21a5bcab431d29139f6da21351ee1f6f9a587b59600084600d5442604051610ea594939291906134c6565b6000828152600160208190526040909120015461278381612af1565b6111c78383612cf4565b6000546001600160a01b031633146127b75760405162461bcd60e51b81526004016107599061357c565b600780546001600160a01b038b81166001600160a01b03199283168117909355600380548c8316610100908102610100600160a81b03199092169190911791829055600480548d85169086168117909155600580548d86169087168117909155600680548d87169088168117909155600880548d881698168817905560098b9055600a8a9055600b89905560408051988952948490049095166020880152928601526060850191909152608084019190915260a083019190915260c0820185905260e0820184905281018290527f5225cabc0b513d4285556271d88677cf5e39f86fb084b7799cda0477398d30d1906101200160405180910390a1505050505050505050565b6000546001600160a01b031633146128e75760405162461bcd60e51b81526004016107599061357c565b6001600160a01b03811661294c5760405162461bcd60e51b815260206004820152602660248201527f4f776e61626c653a206e6577206f776e657220697320746865207a65726f206160448201526564647265737360d01b6064820152608401610759565b61127c81612dee565b6001600160a01b0381166000908152601260205260408120600201546305f5e10090819061298390436136c2565b6009546301e13380600a546129989190613600565b6129a291906136a3565b6001600160a01b0386166000908152601260205260409020600101546129c891906136a3565b6129d291906136a3565b6129dc9190613600565b6129e69190613600565b6001600160a01b038316600090815260126020526040812080549293508392909190612a139084906135e8565b90915550506001600160a01b03808316600090815260126020526040902043600290910155600454166340c10f1930612a516402540be400856136a3565b6040518363ffffffff1660e01b8152600401612a6e92919061342a565b600060405180830381600087803b158015612a8857600080fd5b505af1158015612a9c573d6000803e3d6000fd5b505050506001600160a01b038216600081815260126020526040908190205490517f15de50c55a058da5044e51deca65a14dc5e8e9f46ddbdaf53bce26724bfeb6389161103f916002918691429043906134ef565b61127c8133612e96565b6001600160a01b0381166000908152601360205260408120600201546305f5e10090612b2790436136c2565b600b54612b3491906136a3565b6001600160a01b038416600090815260136020526040902054612b5791906136a3565b612b619190613600565b6001600160a01b038316600090815260136020526040812060010180549293508392909190612b919084906135e8565b90915550506001600160a01b03808316600090815260136020526040902043600290910155600654166340c10f1930612bcf6402540be400856136a3565b6040518363ffffffff1660e01b8152600401612bec92919061342a565b600060405180830381600087803b158015612c0657600080fd5b505af1158015612c1a573d6000803e3d6000fd5b50505050816001600160a01b03167f67338521226e651d09c53e0d0fdb8dd5faa2d0c88db29a0fc7438b47e79d9807600083600019612c599190613620565b6001600160a01b0386166000908152601360205260409081902060010154905161103f93929190429043906134ef565b612c938282611ffd565b6112465760008281526001602081815260408084206001600160a01b0386168086529252808420805460ff19169093179092559051339285917f2f8788117e7eff1d82e926ec794901d17c78024a50270940304540a733656f0d9190a45050565b612cfe8282611ffd565b156112465760008281526001602090815260408083206001600160a01b0385168085529252808320805460ff1916905551339285917ff6391f5c32d9c69d2a47ea670b442974b53935d1edc7fd64eb21e047a839171b9190a45050565b60035460ff16612da45760405162461bcd60e51b815260206004820152601460248201527314185d5cd8589b194e881b9bdd081c185d5cd95960621b6044820152606401610759565b6003805460ff191690557f5db9ee0a495bf2e6ff9c91a7834c1ba4fdd244a5e8aa4e537bd38aeae4b073aa335b6040516001600160a01b03909116815260200160405180910390a1565b600080546001600160a01b038381166001600160a01b0319831681178455604051919092169283917f8be0079c531659141344cd1fd0a4f28419497f9722a3daafe3b4186f6b6457e09190a35050565b60035460ff1615612e615760405162461bcd60e51b815260040161075990613552565b6003805460ff191660011790557f62e78cea01bee320cd4e420270b5ea74000d11b0c9f74754ebdbfc544b05a258612dd13390565b612ea08282611ffd565b61124657612eb8816001600160a01b03166014612efa565b612ec3836020612efa565b604051602001612ed49291906133b5565b60408051601f198184030181529082905262461bcd60e51b82526107599160040161351f565b60606000612f098360026136a3565b612f149060026135e8565b67ffffffffffffffff811115612f3a57634e487b7160e01b600052604160045260246000fd5b6040519080825280601f01601f191660200182016040528015612f64576020820181803683370190505b509050600360fc1b81600081518110612f8d57634e487b7160e01b600052603260045260246000fd5b60200101906001600160f81b031916908160001a905350600f60fb1b81600181518110612fca57634e487b7160e01b600052603260045260246000fd5b60200101906001600160f81b031916908160001a9053506000612fee8460026136a3565b612ff99060016135e8565b90505b600181111561308d576f181899199a1a9b1b9c1cb0b131b232b360811b85600f166010811061303b57634e487b7160e01b600052603260045260246000fd5b1a60f81b82828151811061305f57634e487b7160e01b600052603260045260246000fd5b60200101906001600160f81b031916908160001a90535060049490941c9361308681613709565b9050612ffc565b5083156130dc5760405162461bcd60e51b815260206004820181905260248201527f537472696e67733a20686578206c656e67746820696e73756666696369656e746044820152606401610759565b9392505050565b80356001600160a01b03811681146130fa57600080fd5b919050565b60008083601f840112613110578182fd5b50813567ffffffffffffffff811115613127578182fd5b6020830191508360208260051b850101111561314257600080fd5b9250929050565b60006020828403121561315a578081fd5b6130dc826130e3565b60008060008060008060008060006101208a8c031215613181578485fd5b61318a8a6130e3565b985061319860208b016130e3565b97506131a660408b016130e3565b96506131b460608b016130e3565b95506131c260808b016130e3565b94506131d060a08b016130e3565b935060c08a0135925060e08a013591506101008a013590509295985092959850929598565b60008060408385031215613207578182fd5b613210836130e3565b946020939093013593505050565b60008060008060008060006080888a031215613238578283fd5b873567ffffffffffffffff8082111561324f578485fd5b61325b8b838c016130ff565b909950975060208a0135915080821115613273578485fd5b61327f8b838c016130ff565b909750955060408a0135915080821115613297578485fd5b506132a48a828b016130ff565b989b979a50959894979596606090950135949350505050565b6000602082840312156132ce578081fd5b815180151581146130dc578182fd5b6000602082840312156132ee578081fd5b5035919050565b60008060408385031215613307578182fd5b82359150613317602084016130e3565b90509250929050565b600060208284031215613331578081fd5b81356001600160e01b0319811681146130dc578182fd5b6000806040838503121561335a578182fd5b825161ffff8116811461336b578283fd5b6020939093015192949293505050565b60006020828403121561338c578081fd5b5051919050565b600381106133b157634e487b7160e01b600052602160045260246000fd5b9052565b7f416363657373436f6e74726f6c3a206163636f756e74200000000000000000008152600083516133ed8160178501602088016136d9565b7001034b99036b4b9b9b4b733903937b6329607d1b601791840191820152835161341e8160288401602088016136d9565b01602801949350505050565b6001600160a01b03929092168252602082015260400190565b6020808252825182820181905260009190848201906040850190845b818110156134845783516001600160a01b03168352928401929184019160010161345f565b50909695505050505050565b60c0810161349e8289613393565b602082019690965260408101949094526060840192909252608083015260a090910152919050565b608081016134d48287613393565b84602083015283604083015282606083015295945050505050565b60a081016134fd8288613393565b8560208301528460408301528360608301528260808301529695505050505050565b602081526000825180602084015261353e8160408501602087016136d9565b601f01601f19169190910160400192915050565b60208082526010908201526f14185d5cd8589b194e881c185d5cd95960821b604082015260600190565b6020808252818101527f4f776e61626c653a2063616c6c6572206973206e6f7420746865206f776e6572604082015260600190565b6020808252601f908201527f5265656e7472616e637947756172643a207265656e7472616e742063616c6c00604082015260600190565b600082198211156135fb576135fb613720565b500190565b60008261361b57634e487b7160e01b81526012600452602481fd5b500490565b60006001600160ff1b038184138284138082168684048611161561364657613646613720565b600160ff1b8487128281168783058912161561366457613664613720565b85871292508782058712848416161561367f5761367f613720565b8785058712818416161561369557613695613720565b505050929093029392505050565b60008160001904831182151516156136bd576136bd613720565b500290565b6000828210156136d4576136d4613720565b500390565b60005b838110156136f45781810151838201526020016136dc565b83811115613703576000848401525b50505050565b60008161371857613718613720565b506000190190565b634e487b7160e01b600052601160045260246000fdfea2646970667358221220715bb2cfb8f8f26708bfc6e8e2717cc1eec8735a75ccba1ceaa8e4655d546b3464736f6c63430008040033",
  "immutableReferences": {},
  "source": "// SPDX-License-Identifier: GPL-3.0-or-later\r\npragma solidity 0.8.4;\r\n\r\nimport \"@openzeppelin/contracts/token/ERC20/IERC20.sol\";\r\nimport \"@openzeppelin/contracts/access/Ownable.sol\";\r\nimport \"@openzeppelin/contracts/utils/Context.sol\";\r\nimport \"@openzeppelin/contracts/access/AccessControl.sol\";\r\nimport \"@openzeppelin/contracts/security/ReentrancyGuard.sol\";\r\nimport \"@openzeppelin/contracts/security/Pausable.sol\";\r\nimport \"@derify/derify-token/contracts/CommunityVestingVault.sol\";\r\n\r\nimport \"./interfaces/IDerifyRewards.sol\";\r\nimport \"./interfaces/IDerifyExchange.sol\";\r\nimport \"./interfaces/IDerifyERC20.sol\";\r\n\r\n/// @title DerifyRewards - Process rewards of bond, edrf, position mining rewards, broker rewards.\r\ncontract DerifyRewards is IDerifyRewards, Context, Ownable, AccessControl, ReentrancyGuard, Pausable {\r\n    /// @dev struct to store bond info of trader\r\n    struct TraderBondInfo {\r\n        uint256 bondBalance;\r\n        uint256 bondReturnBalance;\r\n        uint256 blockNumber;\r\n        bool    isUsed;\r\n    }\r\n    /// @dev struct to store staking info of trader\r\n    struct TraderStakingInfo {\r\n        uint256 drfBalance;\r\n        uint256 edrfBalance;\r\n        uint256 blockNumber;\r\n        bool    isUsed;\r\n    }\r\n    /// @dev struct to store position mining reward info of trader\r\n    struct TraderRewardInfo {\r\n        uint256 usdRewardBalance;\r\n        uint256 accumulatedUsdReward;\r\n        uint256 drfRewardBalance;\r\n        uint256 accumulatedDrfReward;\r\n    }\r\n\r\n    /// @dev Create a new role identifier for the pauser role\r\n    bytes32 public constant PAUSER_ROLE = keccak256(\"PAUSER_ROLE\");\r\n    /// @dev Create a new role identifier for the exchange role\r\n    bytes32 public constant EXCHANGE_ROLE = keccak256(\"EXCHANGE_ROLE\");\r\n    /// @dev Create a new role identifier for the reward execute role\r\n    bytes32 public constant REWARD_EXECUTE_ROLE = keccak256(\"REWARD_EXECUTE_ROLE\");\r\n\r\n    /// @dev The contract decimals\r\n    uint256 public constant CONTRACT_DECIMAL = 10 ** 8;\r\n    /// @dev The token contract decimals diff with contract decimals\r\n    uint256 public constant TOKEN_DECIMAL_DIFF = 10 ** 10;\r\n    /// @dev The seconds of year\r\n    uint256 public constant YEAR_SECONDS = 31536000;\r\n\r\n    /// @dev the token USDT contract address \r\n    address public tokenUSD;\r\n    /// @dev the token bBUSD contract address \r\n    address public tokenBBUSD;\r\n    /// @dev the token DRF contract address \r\n    address public tokenDRF;\r\n    /// @dev the token eDRF contract address \r\n    address public tokenEDRF;\r\n    /// @dev the DerifyExchange contract address \r\n    address public exchange;\r\n    /// @dev the CommunityVestingVault contract address \r\n    address public communityVestingVault;\r\n\r\n    /// @inheritdoc IDerifyRewards\r\n    uint256 public override blockTime;\r\n    /// @inheritdoc IDerifyRewards\r\n    uint256 public override bondAnnualInterestRate;\r\n    /// @inheritdoc IDerifyRewards\r\n    uint256 public override unitStakingNumber;\r\n    /// @inheritdoc IDerifyRewards\r\n    uint256 public override bankBondPool;\r\n    /// @inheritdoc IDerifyRewards\r\n    uint256 public override stakingDrfPool;\r\n    /// @inheritdoc IDerifyRewards\r\n    uint256 public override usdPmrPool;\r\n    /// @inheritdoc IDerifyRewards\r\n    uint256 public override drfPmrPool;\r\n\r\n    /// @dev all traders with bond\r\n    address[] private allBondTraders;\r\n    /// @dev all traders with stking\r\n    address[] private allStakingTraders;\r\n    /// @dev trader bond info\r\n    mapping(address => TraderBondInfo) private traderBondInfo;\r\n    /// @dev trader staking info\r\n    mapping(address => TraderStakingInfo) private traderStakingInfo;\r\n    /// @dev trader position mining reward info\r\n    mapping(address => TraderRewardInfo) private traderRewardInfo;\r\n    \r\n    constructor(\r\n        address _exchange,\r\n        address _tokenUSD, \r\n        address _tokenBBUSD,\r\n        address _tokenDRF,\r\n        address _tokenEDRF,\r\n        address _communityVestingVault,\r\n        uint256 _blockTime,\r\n        uint256 _bondAnnualInterestRate,\r\n        uint256 _unitStakingNumber\r\n    ) {\r\n        exchange = _exchange;\r\n        tokenUSD = _tokenUSD;\r\n        tokenBBUSD = _tokenBBUSD;\r\n        tokenDRF = _tokenDRF;\r\n        tokenEDRF = _tokenEDRF;\r\n        communityVestingVault = _communityVestingVault;\r\n        blockTime = _blockTime;\r\n        bondAnnualInterestRate = _bondAnnualInterestRate;\r\n        unitStakingNumber = _unitStakingNumber;\r\n        //setup roles\r\n        _setupRole(DEFAULT_ADMIN_ROLE, _msgSender());\r\n        _setupRole(PAUSER_ROLE, _msgSender());\r\n        _setupRole(REWARD_EXECUTE_ROLE, _msgSender());\r\n        _setupRole(EXCHANGE_ROLE, _exchange);\r\n    }\r\n\r\n    /// @inheritdoc IDerifyRewards\r\n    function updateParams(\r\n        address _exchange,\r\n        address _tokenUSD, \r\n        address _tokenBBUSD,\r\n        address _tokenDRF,\r\n        address _tokenEDRF,\r\n        address _communityVestingVault,\r\n        uint256 _blockTime,\r\n        uint256 _bondAnnualInterestRate,\r\n        uint256 _unitStakingNumber\r\n    ) external override onlyOwner {\r\n        exchange = _exchange;\r\n        tokenUSD = _tokenUSD;\r\n        tokenBBUSD = _tokenBBUSD;\r\n        tokenDRF = _tokenDRF;\r\n        tokenEDRF = _tokenEDRF;\r\n        communityVestingVault = _communityVestingVault;\r\n        blockTime = _blockTime;\r\n        bondAnnualInterestRate = _bondAnnualInterestRate;\r\n        unitStakingNumber = _unitStakingNumber;\r\n\r\n        emit ContractParamsUpdate(\r\n            exchange, \r\n            tokenUSD,\r\n            tokenBBUSD,\r\n            tokenDRF,\r\n            tokenEDRF,\r\n            communityVestingVault,\r\n            blockTime,\r\n            bondAnnualInterestRate,\r\n            unitStakingNumber\r\n        );\r\n    }\r\n\r\n    /// @inheritdoc IDerifyRewards\r\n    function pause() external override onlyRole(PAUSER_ROLE) {\r\n        _pause();\r\n    }\r\n\r\n    /// @inheritdoc IDerifyRewards\r\n    function unpause() external override onlyRole(PAUSER_ROLE) {\r\n        _unpause();\r\n    }\r\n    \r\n    /// @inheritdoc IDerifyRewards\r\n    function payBond(address trader, uint256 amount) external override onlyRole(EXCHANGE_ROLE) {\r\n        if (!traderBondInfo[trader].isUsed) {\r\n            allBondTraders.push(trader);\r\n            traderBondInfo[trader].isUsed = true;\r\n        }\r\n        traderBondInfo[trader].bondBalance += amount;\r\n        IDerifyERC20(tokenBBUSD).mint(address(this), amount * TOKEN_DECIMAL_DIFF);\r\n        emit BondUpdates(\r\n            UpdateType.Income, \r\n            trader, \r\n            int256(amount), \r\n            traderBondInfo[trader].bondBalance, \r\n            block.timestamp, \r\n            block.number\r\n        );\r\n    }\r\n\r\n    /// @inheritdoc IDerifyRewards\r\n    function withdrawAllBond() external override nonReentrant whenNotPaused {\r\n        address trader = _msgSender();\r\n        // update bBUSD balance, block number\r\n        _addBondByAction(trader);\r\n        // withdraw all bBUSD\r\n        uint256 amount = traderBondInfo[trader].bondBalance;\r\n        traderBondInfo[trader].bondBalance = 0;\r\n        require(IDerifyERC20(tokenBBUSD).transfer(trader, amount * TOKEN_DECIMAL_DIFF), \"DBond: WAB_BOND_TRANSFER_ERR\");\r\n        emit BondUpdates(\r\n            UpdateType.Withdraw, \r\n            trader, \r\n            int256(amount) * -1, \r\n            traderBondInfo[trader].bondBalance, \r\n            block.timestamp, \r\n            block.number\r\n        );\r\n    }\r\n\r\n    /// @inheritdoc IDerifyRewards\r\n    function exchangeBond(uint256 amount) external override nonReentrant whenNotPaused {\r\n        address trader = _msgSender();\r\n        // check system bond limit\r\n        uint256 maxBondSize = getExchangeBondSizeUpperBound(trader);\r\n        require(maxBondSize >= amount, \"DBond: EB_MAX_SIZE_EXCEED\");\r\n        // update bBUSD balance, block number\r\n        _addBondByAction(trader);\r\n        // exchange bBUSD\r\n        IDerifyERC20(tokenBBUSD).burn(trader, amount * TOKEN_DECIMAL_DIFF);\r\n        IDerifyExchange(exchange).exchangeBondByInsuranceFund(trader, amount);\r\n    }\r\n\r\n    /// @inheritdoc IDerifyRewards\r\n    function depositBondToBank(uint256 amount) external override nonReentrant whenNotPaused {\r\n        address trader = _msgSender();\r\n        // update bBUSD balance, block number\r\n        _addBondByAction(trader);\r\n        // deposit bBUSD\r\n        uint256 traderWalletBalance = (IDerifyERC20(tokenBBUSD).balanceOf(trader)) / TOKEN_DECIMAL_DIFF;\r\n        require(traderWalletBalance >= amount, \"DBond: DBTB_BALANCE_EXCEED\");\r\n        require(IDerifyERC20(tokenBBUSD).transferFrom(trader, address(this), amount * TOKEN_DECIMAL_DIFF), \"DBond: DBTB_BOND_TRANSFER_ERR\");\r\n        if (!traderBondInfo[trader].isUsed) {\r\n            allBondTraders.push(trader);\r\n            traderBondInfo[trader].isUsed = true;\r\n        }\r\n        traderBondInfo[trader].bondReturnBalance += amount;\r\n        bankBondPool += amount;\r\n        emit BankBondPoolUpdate(UpdateType.Income, trader, int256(amount), bankBondPool, block.timestamp);\r\n    }\r\n\r\n    /// @inheritdoc IDerifyRewards\r\n    function redeemBondFromBank(uint256 amount) external override nonReentrant whenNotPaused {\r\n        address trader = _msgSender();\r\n        // update bBUSD balance, block number\r\n        _addBondByAction(trader);\r\n        // redeem bBUSD\r\n        require(traderBondInfo[trader].bondReturnBalance >= amount, \"DBond: RBTB_BALANCE_EXCEED\");\r\n        traderBondInfo[trader].bondReturnBalance -= amount;\r\n        bankBondPool -= amount;\r\n        require(IDerifyERC20(tokenBBUSD).transfer(trader, amount * TOKEN_DECIMAL_DIFF), \"DBond: RBTB_BOND_TRANSFER_ERR\");\r\n        emit BankBondPoolUpdate(UpdateType.Withdraw, trader, int256(amount) * -1, bankBondPool, block.timestamp);\r\n    }\r\n\r\n    /// @inheritdoc IDerifyRewards\r\n    function stakingDrf(uint256 amount) external override nonReentrant whenNotPaused {\r\n        address trader = _msgSender();\r\n        // check trader exists\r\n        if (!traderStakingInfo[trader].isUsed) {\r\n            allStakingTraders.push(trader);\r\n            traderStakingInfo[trader].isUsed = true;\r\n        }\r\n        // update edrf balance, block number\r\n        _addEdrfByAction(trader);\r\n        // staking and update drf balance\r\n        traderStakingInfo[trader].drfBalance += amount;\r\n        stakingDrfPool += amount;\r\n        require(IERC20(tokenDRF).transferFrom(trader, address(this), amount * TOKEN_DECIMAL_DIFF), \"DStaking: SD_DRF_TRANSFER_ERR\");\r\n        // emit event\r\n        emit DrfBalanceUpdate(\r\n            UpdateType.Income, \r\n            trader, \r\n            int256(amount), \r\n            traderStakingInfo[trader].drfBalance, \r\n            block.timestamp\r\n        );\r\n        emit StakingDrfPoolUpdate(UpdateType.Income, trader, int256(amount), stakingDrfPool, block.timestamp);\r\n    }\r\n\r\n    /// @inheritdoc IDerifyRewards\r\n    function redeemDrf(uint256 amount) external override nonReentrant whenNotPaused {\r\n        address trader = _msgSender();\r\n        require(traderStakingInfo[trader].drfBalance >= amount, \"DStaking: RD_BALANCE_EXCEED\");\r\n        // update edrf balance, block number\r\n        _addEdrfByAction(trader);\r\n        // redeem and update drf balance\r\n        traderStakingInfo[trader].drfBalance -= amount;\r\n        stakingDrfPool -= amount;\r\n        require(IERC20(tokenDRF).transfer(trader, amount * TOKEN_DECIMAL_DIFF), \"DStaking: RD_DRF_TRANSFER_ERR\");\r\n        // emit event\r\n        emit DrfBalanceUpdate(\r\n            UpdateType.Withdraw, \r\n            trader, \r\n            int256(amount) * -1, \r\n            traderStakingInfo[trader].drfBalance, \r\n            block.timestamp\r\n        );\r\n        emit StakingDrfPoolUpdate(UpdateType.Withdraw, trader, int256(amount) * -1, stakingDrfPool, block.timestamp);\r\n    }\r\n\r\n    /// @inheritdoc IDerifyRewards\r\n    function withdrawAllEdrf() external override nonReentrant whenNotPaused {\r\n        address trader = _msgSender();\r\n        // update edrf balance, block number\r\n        _addEdrfByAction(trader);\r\n        // withdraw and update edrf balance\r\n        uint256 amount = traderStakingInfo[trader].edrfBalance;\r\n        traderStakingInfo[trader].edrfBalance = 0;\r\n        require(IDerifyERC20(tokenEDRF).transfer(trader, amount * TOKEN_DECIMAL_DIFF), \"DStaking: WAE_EDRF_TRANSFER_ERR\");\r\n        // emit event\r\n        emit EdrfBalanceUpdate(\r\n            UpdateType.Withdraw, \r\n            trader, \r\n            int256(amount) * -1, \r\n            traderStakingInfo[trader].edrfBalance, \r\n            block.timestamp, \r\n            block.number\r\n        );\r\n    }\r\n\r\n    /// @inheritdoc IDerifyRewards\r\n    function addPositionReward(address trader, uint256 amount) external override onlyRole(EXCHANGE_ROLE) {\r\n        usdPmrPool += amount;\r\n        emit UsdPmrPoolUpdate(UpdateType.Income, trader, int256(amount), usdPmrPool, block.timestamp);\r\n    }\r\n\r\n    /// @inheritdoc IDerifyRewards\r\n    function claimDrfPmr() external override onlyRole(REWARD_EXECUTE_ROLE) {\r\n        (, uint256 amountVested) = CommunityVestingVault(communityVestingVault).calculateGrantClaim(address(this));\r\n        CommunityVestingVault(communityVestingVault).claimVestedTokens();\r\n        drfPmrPool += amountVested / TOKEN_DECIMAL_DIFF;\r\n        emit DrfPmrPoolUpdate(\r\n            UpdateType.Income, \r\n            communityVestingVault, \r\n            int256(amountVested / TOKEN_DECIMAL_DIFF), \r\n            drfPmrPool, \r\n            block.timestamp\r\n        );\r\n    }\r\n\r\n    /// @inheritdoc IDerifyRewards\r\n    function updateTradersPositionReward(\r\n        address[] calldata traders, \r\n        uint256[] calldata usdAmounts,\r\n        uint256[] calldata drfAmounts, \r\n        uint256 gasFeeAmount\r\n    ) external override onlyRole(REWARD_EXECUTE_ROLE) {\r\n        uint256 len = traders.length;\r\n        require(len == usdAmounts.length, \"DPMR: UTPMR_USD_LEN_ERR\");\r\n        require(len == drfAmounts.length, \"DPMR: UTPMR_DRF_LEN_ERR\");\r\n        for(uint256 i = 0; i < len; ) {\r\n            address trader = traders[i];\r\n            uint256 usdAmount = usdAmounts[i];\r\n            uint256 drfAmount = drfAmounts[i];\r\n            traderRewardInfo[trader].usdRewardBalance += usdAmount;\r\n            traderRewardInfo[trader].accumulatedUsdReward += usdAmount;\r\n\r\n            traderRewardInfo[trader].drfRewardBalance += drfAmount;\r\n            traderRewardInfo[trader].accumulatedDrfReward += drfAmount;\r\n            emit PositionRewardUpdates(\r\n                UpdateType.Income, \r\n                trader, \r\n                int256(usdAmount), \r\n                traderRewardInfo[trader].usdRewardBalance, \r\n                int256(drfAmount), \r\n                traderRewardInfo[trader].drfRewardBalance, \r\n                block.timestamp\r\n            );\r\n            unchecked {\r\n                ++i;\r\n            }\r\n        }\r\n        require(IERC20(tokenUSD).transfer(_msgSender(), gasFeeAmount * TOKEN_DECIMAL_DIFF), \"DPMR: UTPMR_USD_TRANSFER_ERR\");\r\n    }\r\n\r\n    /// @inheritdoc IDerifyRewards\r\n    function withdrawPositionReward() external override nonReentrant whenNotPaused {\r\n        address trader = _msgSender();\r\n        // withdraw usd reward\r\n        uint256 usdAmount = traderRewardInfo[trader].usdRewardBalance;\r\n        if (usdAmount > 0) {\r\n            require(usdPmrPool >= usdAmount, \"DPMR: WPMR_USD_BALANCE_EXCEED\");\r\n            traderRewardInfo[trader].usdRewardBalance -= usdAmount;\r\n            usdPmrPool -= usdAmount;\r\n            require(IERC20(tokenUSD).transfer(trader, usdAmount * TOKEN_DECIMAL_DIFF), \"DPMR: WPMR_USD_TRANSFER_ERR\");\r\n            emit UsdPmrPoolUpdate(UpdateType.Withdraw, trader, int256(usdAmount) * -1, usdPmrPool, block.timestamp);\r\n        }\r\n        // withdraw drf reward\r\n        uint256 drfAmount = traderRewardInfo[trader].drfRewardBalance;\r\n        if (drfAmount > 0) {\r\n            require(drfPmrPool >= drfAmount, \"DPMR: WPMR_DRF_BALANCE_EXCEED\");\r\n            traderRewardInfo[trader].drfRewardBalance -= drfAmount;\r\n            drfPmrPool -= drfAmount;\r\n            require(IERC20(tokenDRF).transfer(trader, drfAmount * TOKEN_DECIMAL_DIFF), \"DPMR: WPMR_DRF_TRANSFER_ERR\");\r\n            emit DrfPmrPoolUpdate(UpdateType.Withdraw, trader, int256(drfAmount) * -1, drfPmrPool, block.timestamp);\r\n        }\r\n        if (usdAmount > 0 || drfAmount > 0) {\r\n            emit PositionRewardUpdates(\r\n                UpdateType.Withdraw, \r\n                trader, \r\n                int256(usdAmount) * -1, \r\n                traderRewardInfo[trader].usdRewardBalance, \r\n                int256(drfAmount) * -1, \r\n                traderRewardInfo[trader].drfRewardBalance, \r\n                block.timestamp\r\n            );\r\n        }\r\n    }\r\n\r\n    /// @inheritdoc IDerifyRewards\r\n    function getPositionReward(address trader) external view override returns (\r\n        uint256 usdBalance, \r\n        uint256 usdAccumulatedBalance,\r\n        uint256 drfBalance, \r\n        uint256 drfAccumulatedBalance\r\n    ) {\r\n        usdBalance = traderRewardInfo[trader].usdRewardBalance;\r\n        usdAccumulatedBalance = traderRewardInfo[trader].accumulatedUsdReward;\r\n        drfBalance = traderRewardInfo[trader].drfRewardBalance;\r\n        drfAccumulatedBalance = traderRewardInfo[trader].accumulatedDrfReward;\r\n    }\r\n\r\n    /// @inheritdoc IDerifyRewards\r\n    function getBondInfo(address trader) external view override returns (\r\n        uint256 bondBalance, \r\n        uint256 bondReturnBalance, \r\n        uint256 lastUpdatedBlockNumber,\r\n        uint256 bondWalletBalance, \r\n        uint256 bondAnnualInterestRatio\r\n    ) {\r\n        bondBalance = traderBondInfo[trader].bondBalance;\r\n        bondReturnBalance = traderBondInfo[trader].bondReturnBalance;\r\n        lastUpdatedBlockNumber = traderBondInfo[trader].blockNumber;\r\n        bondWalletBalance = (IDerifyERC20(tokenBBUSD).balanceOf(trader)) / TOKEN_DECIMAL_DIFF;\r\n        bondAnnualInterestRatio = bondAnnualInterestRate;\r\n    }\r\n\r\n    /// @inheritdoc IDerifyRewards\r\n    function getAllBondTraders() external view override returns (address[] memory) {\r\n        return allBondTraders;\r\n    }\r\n\r\n    /// @inheritdoc IDerifyRewards\r\n    function getStakingInfo(address trader) external view override returns (\r\n        uint256 drfBalance, \r\n        uint256 edrfBalance,\r\n        uint256 lastUpdatedBlockNumber\r\n    ) {\r\n        drfBalance = traderStakingInfo[trader].drfBalance;\r\n        edrfBalance = traderStakingInfo[trader].edrfBalance;\r\n        lastUpdatedBlockNumber = traderStakingInfo[trader].blockNumber;\r\n    }\r\n\r\n    /// @inheritdoc IDerifyRewards\r\n    function getAllStakingTraders() external view override returns (address[] memory) {\r\n        return allStakingTraders;\r\n    }\r\n\r\n    /// @dev get the upper bound of available exchange bond size\r\n    function getExchangeBondSizeUpperBound(\r\n        address trader\r\n    ) public view returns (uint256 maxBondSize) {\r\n        maxBondSize = (IDerifyERC20(tokenBBUSD).balanceOf(trader)) / TOKEN_DECIMAL_DIFF;\r\n\r\n        uint256 sysMaxBondSize = IDerifyExchange(exchange).getSysExchangeBondSizeUpperBound();\r\n        if (sysMaxBondSize < maxBondSize) {\r\n            maxBondSize = sysMaxBondSize;\r\n        }\r\n    }\r\n\r\n    /// @dev update bond when trader does actions\r\n    function _addBondByAction(address trader) internal {\r\n        uint256 addedBond = traderBondInfo[trader].bondReturnBalance * (bondAnnualInterestRate / YEAR_SECONDS * blockTime) * (block.number - traderBondInfo[trader].blockNumber) / CONTRACT_DECIMAL / CONTRACT_DECIMAL;\r\n        traderBondInfo[trader].bondBalance += addedBond;\r\n        traderBondInfo[trader].blockNumber = block.number;\r\n        IDerifyERC20(tokenBBUSD).mint(address(this), addedBond * TOKEN_DECIMAL_DIFF);\r\n        emit BondUpdates(\r\n            UpdateType.Interest, \r\n            trader, \r\n            int256(addedBond), \r\n            traderBondInfo[trader].bondBalance, \r\n            block.timestamp, \r\n            block.number\r\n        );\r\n    }\r\n\r\n    /// @dev update edrf when trader does actions\r\n    function _addEdrfByAction(address trader) internal {\r\n        // update edrf balance, block number\r\n        uint256 addedEdrf = traderStakingInfo[trader].drfBalance * (unitStakingNumber * (block.number - traderStakingInfo[trader].blockNumber)) / CONTRACT_DECIMAL;\r\n        traderStakingInfo[trader].edrfBalance += addedEdrf;\r\n        traderStakingInfo[trader].blockNumber = block.number;\r\n        IDerifyERC20(tokenEDRF).mint(address(this), addedEdrf * TOKEN_DECIMAL_DIFF);\r\n        emit EdrfBalanceUpdate(\r\n            UpdateType.Income, \r\n            trader, \r\n            int256(addedEdrf) * -1, \r\n            traderStakingInfo[trader].edrfBalance, \r\n            block.timestamp, \r\n            block.number\r\n        );\r\n    }\r\n}",
  "sourcePath": "C:\\ZW_Others\\github\\Blockchain\\Derify-v1\\derify-core\\contracts\\DerifyRewards.sol",
  "compiler": {
    "name": "solc",
    "version": "0.8.4+commit.c7e474f2.Emscripten.clang"
  },
  "schemaVersion": "3.4.8",
  "updatedAt": "2022-09-01T05:06:02.003Z",
  "devdoc": {
    "kind": "dev",
    "methods": {
      "addPositionReward(address,uint256)": {
        "params": {
          "amount": "The amount of position mining reward",
          "trader": "The address of trader "
        }
      },
      "depositBondToBank(uint256)": {
        "params": {
          "amount": "The amount of derify bond to deposit to bank"
        }
      },
      "exchangeBond(uint256)": {
        "params": {
          "amount": "The amount of derify bond to exchange"
        }
      },
      "getBondInfo(address)": {
        "params": {
          "trader": "The address of trader "
        }
      },
      "getExchangeBondSizeUpperBound(address)": {
        "details": "get the upper bound of available exchange bond size"
      },
      "getPositionReward(address)": {
        "params": {
          "trader": "The address of trader "
        }
      },
      "getRoleAdmin(bytes32)": {
        "details": "Returns the admin role that controls `role`. See {grantRole} and {revokeRole}. To change a role's admin, use {_setRoleAdmin}."
      },
      "getStakingInfo(address)": {
        "params": {
          "trader": "The address of trader "
        }
      },
      "grantRole(bytes32,address)": {
        "details": "Grants `role` to `account`. If `account` had not been already granted `role`, emits a {RoleGranted} event. Requirements: - the caller must have ``role``'s admin role."
      },
      "hasRole(bytes32,address)": {
        "details": "Returns `true` if `account` has been granted `role`."
      },
      "owner()": {
        "details": "Returns the address of the current owner."
      },
      "paused()": {
        "details": "Returns true if the contract is paused, and false otherwise."
      },
      "payBond(address,uint256)": {
        "details": "Called only by DerifyExchange",
        "params": {
          "amount": "The amount of derify bond",
          "trader": "The address of trader to be paid"
        }
      },
      "redeemBondFromBank(uint256)": {
        "params": {
          "amount": "The amount of derify bond to redeem"
        }
      },
      "redeemDrf(uint256)": {
        "params": {
          "amount": "The amount of drf to redeem"
        }
      },
      "renounceOwnership()": {
        "details": "Leaves the contract without owner. It will not be possible to call `onlyOwner` functions anymore. Can only be called by the current owner. NOTE: Renouncing ownership will leave the contract without an owner, thereby removing any functionality that is only available to the owner."
      },
      "renounceRole(bytes32,address)": {
        "details": "Revokes `role` from the calling account. Roles are often managed via {grantRole} and {revokeRole}: this function's purpose is to provide a mechanism for accounts to lose their privileges if they are compromised (such as when a trusted device is misplaced). If the calling account had been revoked `role`, emits a {RoleRevoked} event. Requirements: - the caller must be `account`."
      },
      "revokeRole(bytes32,address)": {
        "details": "Revokes `role` from `account`. If `account` had been granted `role`, emits a {RoleRevoked} event. Requirements: - the caller must have ``role``'s admin role."
      },
      "stakingDrf(uint256)": {
        "params": {
          "amount": "The amount of drf to staking"
        }
      },
      "supportsInterface(bytes4)": {
        "details": "See {IERC165-supportsInterface}."
      },
      "transferOwnership(address)": {
        "details": "Transfers ownership of the contract to a new account (`newOwner`). Can only be called by the current owner."
      },
      "updateParams(address,address,address,address,address,address,uint256,uint256,uint256)": {
        "details": "Only called by owner"
      },
      "updateTradersPositionReward(address[],uint256[],uint256[],uint256)": {
        "details": "Called only by owner",
        "params": {
          "drfAmounts": "The drf reward amounts",
          "gasFeeAmount": "The gas fee amount",
          "traders": "The traders to add position mining reward",
          "usdAmounts": "The usd reward amounts"
        }
      }
    },
    "stateVariables": {
      "CONTRACT_DECIMAL": {
        "details": "The contract decimals"
      },
      "EXCHANGE_ROLE": {
        "details": "Create a new role identifier for the exchange role"
      },
      "PAUSER_ROLE": {
        "details": "Create a new role identifier for the pauser role"
      },
      "REWARD_EXECUTE_ROLE": {
        "details": "Create a new role identifier for the reward execute role"
      },
      "TOKEN_DECIMAL_DIFF": {
        "details": "The token contract decimals diff with contract decimals"
      },
      "YEAR_SECONDS": {
        "details": "The seconds of year"
      },
      "allBondTraders": {
        "details": "all traders with bond"
      },
      "allStakingTraders": {
        "details": "all traders with stking"
      },
      "communityVestingVault": {
        "details": "the CommunityVestingVault contract address "
      },
      "exchange": {
        "details": "the DerifyExchange contract address "
      },
      "tokenBBUSD": {
        "details": "the token bBUSD contract address "
      },
      "tokenDRF": {
        "details": "the token DRF contract address "
      },
      "tokenEDRF": {
        "details": "the token eDRF contract address "
      },
      "tokenUSD": {
        "details": "the token USDT contract address "
      },
      "traderBondInfo": {
        "details": "trader bond info"
      },
      "traderRewardInfo": {
        "details": "trader position mining reward info"
      },
      "traderStakingInfo": {
        "details": "trader staking info"
      }
    },
    "title": "DerifyRewards - Process rewards of bond, edrf, position mining rewards, broker rewards.",
    "version": 1
  },
  "userdoc": {
    "events": {
      "BankBondPoolUpdate(uint8,address,int256,uint256,uint256)": {
        "notice": "Emitted when bankBondPool updates"
      },
      "BondUpdates(uint8,address,int256,uint256,uint256,uint256)": {
        "notice": "Emitted when bond balance updates for user"
      },
      "ContractParamsUpdate(address,address,address,address,address,address,uint256,uint256,uint256)": {
        "notice": "Emitted when params of contract updates"
      },
      "DrfBalanceUpdate(uint8,address,int256,uint256,uint256)": {
        "notice": "Emitted when DRF balance updates for user"
      },
      "DrfPmrPoolUpdate(uint8,address,int256,uint256,uint256)": {
        "notice": "Emitted when drfPmrPool updates"
      },
      "EdrfBalanceUpdate(uint8,address,int256,uint256,uint256,uint256)": {
        "notice": "Emitted when eDRF balance updates for user"
      },
      "PositionRewardUpdates(uint8,address,int256,uint256,int256,uint256,uint256)": {
        "notice": "Emitted when Position Mining Reward updates for user"
      },
      "StakingDrfPoolUpdate(uint8,address,int256,uint256,uint256)": {
        "notice": "Emitted when stakingDrfPool updates"
      },
      "UsdPmrPoolUpdate(uint8,address,int256,uint256,uint256)": {
        "notice": "Emitted when usdPmrPool updates"
      }
    },
    "kind": "user",
    "methods": {
      "addPositionReward(address,uint256)": {
        "notice": "Add position mining reward by trading fee"
      },
      "bankBondPool()": {
        "notice": "Get bankBondPool value"
      },
      "blockTime()": {
        "notice": "Get blockTime"
      },
      "bondAnnualInterestRate()": {
        "notice": "Get bondAnnualInterestRate"
      },
      "claimDrfPmr()": {
        "notice": "Claim position mining reward of drf from CommunityVestingVault"
      },
      "depositBondToBank(uint256)": {
        "notice": "Deposit bond to benefits plan"
      },
      "drfPmrPool()": {
        "notice": "Get Position Mining Reward DRF Pool value"
      },
      "exchangeBond(uint256)": {
        "notice": "Exchange derify bond to USDT "
      },
      "getAllBondTraders()": {
        "notice": "Get all bond traders"
      },
      "getAllStakingTraders()": {
        "notice": "Get all staking traders"
      },
      "getBondInfo(address)": {
        "notice": "Get bond balances of trader"
      },
      "getPositionReward(address)": {
        "notice": "Get Position Mining Reward"
      },
      "getStakingInfo(address)": {
        "notice": "Get trader's DRF balance and eDRF balance"
      },
      "pause()": {
        "notice": "Pause key actions for emergency"
      },
      "payBond(address,uint256)": {
        "notice": "Pay derify bond (bBUSD) to trader"
      },
      "redeemBondFromBank(uint256)": {
        "notice": "Redeem bond from benefits plan"
      },
      "redeemDrf(uint256)": {
        "notice": "Redeem DRF by trader"
      },
      "stakingDrf(uint256)": {
        "notice": "Staking DRF by trader"
      },
      "stakingDrfPool()": {
        "notice": "Get stakingDrfPool value"
      },
      "unitStakingNumber()": {
        "notice": "Get unitStakingNumber, the unit staking number per block drf=>edrf "
      },
      "unpause()": {
        "notice": "Unpause key actions"
      },
      "updateParams(address,address,address,address,address,address,uint256,uint256,uint256)": {
        "notice": "Update params of contract"
      },
      "updateTradersPositionReward(address[],uint256[],uint256[],uint256)": {
        "notice": "Update traders' position mining reward by system"
      },
      "usdPmrPool()": {
        "notice": "Get Position Mining Reward USD Pool value"
      },
      "withdrawAllBond()": {
        "notice": "Withdraw all derify bond of trader "
      },
      "withdrawAllEdrf()": {
        "notice": "Withdraw all eDRF by trader"
      },
      "withdrawPositionReward()": {
        "notice": "Withdraw position mining reward by trader"
      }
    },
    "version": 1
  }
}