{
  "contractName": "DerifyBroker",
  "abi": [
    {
      "inputs": [
        {
          "internalType": "address",
          "name": "_exchange",
          "type": "address"
        },
        {
          "internalType": "address",
          "name": "_tokenUSD",
          "type": "address"
        },
        {
          "internalType": "address",
          "name": "_tokenDRF",
          "type": "address"
        },
        {
          "internalType": "address",
          "name": "_tokenEDRF",
          "type": "address"
        },
        {
          "internalType": "address",
          "name": "_communityVestingVault",
          "type": "address"
        },
        {
          "internalType": "uint256",
          "name": "_brokerApplyNumber",
          "type": "uint256"
        },
        {
          "internalType": "uint256",
          "name": "_brokerValidUnitNumber",
          "type": "uint256"
        }
      ],
      "stateMutability": "nonpayable",
      "type": "constructor"
    },
    {
      "anonymous": false,
      "inputs": [
        {
          "indexed": false,
          "internalType": "enum IDerifyBroker.QualificationType",
          "name": "qualificationType",
          "type": "uint8"
        },
        {
          "indexed": true,
          "internalType": "address",
          "name": "broker",
          "type": "address"
        },
        {
          "indexed": false,
          "internalType": "uint256",
          "name": "amount",
          "type": "uint256"
        },
        {
          "indexed": false,
          "internalType": "uint256",
          "name": "unitValue",
          "type": "uint256"
        },
        {
          "indexed": false,
          "internalType": "uint256",
          "name": "timestamp",
          "type": "uint256"
        }
      ],
      "name": "BrokerQualificationUpdate",
      "type": "event"
    },
    {
      "anonymous": false,
      "inputs": [
        {
          "indexed": false,
          "internalType": "address",
          "name": "newTokenUSD",
          "type": "address"
        },
        {
          "indexed": false,
          "internalType": "address",
          "name": "newTokenDRF",
          "type": "address"
        },
        {
          "indexed": false,
          "internalType": "address",
          "name": "newTokenEDRF",
          "type": "address"
        },
        {
          "indexed": false,
          "internalType": "address",
          "name": "newCommunityVestingVault",
          "type": "address"
        },
        {
          "indexed": false,
          "internalType": "uint256",
          "name": "newBrokerApplyNumber",
          "type": "uint256"
        },
        {
          "indexed": false,
          "internalType": "uint256",
          "name": "newBrokerValidUnitNumber",
          "type": "uint256"
        }
      ],
      "name": "ContractParamsUpdate",
      "type": "event"
    },
    {
      "anonymous": false,
      "inputs": [
        {
          "indexed": false,
          "internalType": "enum IDerifyBroker.UpdateType",
          "name": "updateType",
          "type": "uint8"
        },
        {
          "indexed": true,
          "internalType": "address",
          "name": "broker",
          "type": "address"
        },
        {
          "indexed": false,
          "internalType": "int256",
          "name": "amount",
          "type": "int256"
        },
        {
          "indexed": false,
          "internalType": "uint256",
          "name": "balance",
          "type": "uint256"
        },
        {
          "indexed": false,
          "internalType": "uint256",
          "name": "accumulatedReward",
          "type": "uint256"
        },
        {
          "indexed": false,
          "internalType": "uint256",
          "name": "timestamp",
          "type": "uint256"
        }
      ],
      "name": "DrfRewardBalanceUpdate",
      "type": "event"
    },
    {
      "anonymous": false,
      "inputs": [
        {
          "indexed": false,
          "internalType": "enum IDerifyBroker.UpdateType",
          "name": "updateType",
          "type": "uint8"
        },
        {
          "indexed": false,
          "internalType": "int256",
          "name": "amount",
          "type": "int256"
        },
        {
          "indexed": false,
          "internalType": "uint256",
          "name": "balance",
          "type": "uint256"
        },
        {
          "indexed": false,
          "internalType": "uint256",
          "name": "timestamp",
          "type": "uint256"
        }
      ],
      "name": "DrfRewardPoolUpdate",
      "type": "event"
    },
    {
      "anonymous": false,
      "inputs": [
        {
          "indexed": false,
          "internalType": "uint8",
          "name": "version",
          "type": "uint8"
        }
      ],
      "name": "Initialized",
      "type": "event"
    },
    {
      "anonymous": false,
      "inputs": [
        {
          "indexed": true,
          "internalType": "address",
          "name": "previousOwner",
          "type": "address"
        },
        {
          "indexed": true,
          "internalType": "address",
          "name": "newOwner",
          "type": "address"
        }
      ],
      "name": "OwnershipTransferred",
      "type": "event"
    },
    {
      "anonymous": false,
      "inputs": [
        {
          "indexed": false,
          "internalType": "address",
          "name": "account",
          "type": "address"
        }
      ],
      "name": "Paused",
      "type": "event"
    },
    {
      "anonymous": false,
      "inputs": [
        {
          "indexed": true,
          "internalType": "bytes32",
          "name": "role",
          "type": "bytes32"
        },
        {
          "indexed": true,
          "internalType": "bytes32",
          "name": "previousAdminRole",
          "type": "bytes32"
        },
        {
          "indexed": true,
          "internalType": "bytes32",
          "name": "newAdminRole",
          "type": "bytes32"
        }
      ],
      "name": "RoleAdminChanged",
      "type": "event"
    },
    {
      "anonymous": false,
      "inputs": [
        {
          "indexed": true,
          "internalType": "bytes32",
          "name": "role",
          "type": "bytes32"
        },
        {
          "indexed": true,
          "internalType": "address",
          "name": "account",
          "type": "address"
        },
        {
          "indexed": true,
          "internalType": "address",
          "name": "sender",
          "type": "address"
        }
      ],
      "name": "RoleGranted",
      "type": "event"
    },
    {
      "anonymous": false,
      "inputs": [
        {
          "indexed": true,
          "internalType": "bytes32",
          "name": "role",
          "type": "bytes32"
        },
        {
          "indexed": true,
          "internalType": "address",
          "name": "account",
          "type": "address"
        },
        {
          "indexed": true,
          "internalType": "address",
          "name": "sender",
          "type": "address"
        }
      ],
      "name": "RoleRevoked",
      "type": "event"
    },
    {
      "anonymous": false,
      "inputs": [
        {
          "indexed": false,
          "internalType": "address",
          "name": "account",
          "type": "address"
        }
      ],
      "name": "Unpaused",
      "type": "event"
    },
    {
      "anonymous": false,
      "inputs": [
        {
          "indexed": false,
          "internalType": "enum IDerifyBroker.UpdateType",
          "name": "updateType",
          "type": "uint8"
        },
        {
          "indexed": true,
          "internalType": "address",
          "name": "broker",
          "type": "address"
        },
        {
          "indexed": false,
          "internalType": "address",
          "name": "trader",
          "type": "address"
        },
        {
          "indexed": false,
          "internalType": "int256",
          "name": "amount",
          "type": "int256"
        },
        {
          "indexed": false,
          "internalType": "int256",
          "name": "balance",
          "type": "int256"
        },
        {
          "indexed": false,
          "internalType": "int256",
          "name": "accumulatedReward",
          "type": "int256"
        },
        {
          "indexed": false,
          "internalType": "uint256",
          "name": "timestamp",
          "type": "uint256"
        }
      ],
      "name": "UsdRewardBalanceUpdate",
      "type": "event"
    },
    {
      "anonymous": false,
      "inputs": [
        {
          "indexed": false,
          "internalType": "enum IDerifyBroker.UpdateType",
          "name": "updateType",
          "type": "uint8"
        },
        {
          "indexed": false,
          "internalType": "int256",
          "name": "amount",
          "type": "int256"
        },
        {
          "indexed": false,
          "internalType": "uint256",
          "name": "balance",
          "type": "uint256"
        },
        {
          "indexed": false,
          "internalType": "uint256",
          "name": "timestamp",
          "type": "uint256"
        }
      ],
      "name": "UsdRewardPoolUpdate",
      "type": "event"
    },
    {
      "inputs": [],
      "name": "CONTRACT_DECIMAL",
      "outputs": [
        {
          "internalType": "uint256",
          "name": "",
          "type": "uint256"
        }
      ],
      "stateMutability": "view",
      "type": "function"
    },
    {
      "inputs": [],
      "name": "DEFAULT_ADMIN_ROLE",
      "outputs": [
        {
          "internalType": "bytes32",
          "name": "",
          "type": "bytes32"
        }
      ],
      "stateMutability": "view",
      "type": "function"
    },
    {
      "inputs": [],
      "name": "EXCHANGE_ROLE",
      "outputs": [
        {
          "internalType": "bytes32",
          "name": "",
          "type": "bytes32"
        }
      ],
      "stateMutability": "view",
      "type": "function"
    },
    {
      "inputs": [],
      "name": "PAUSER_ROLE",
      "outputs": [
        {
          "internalType": "bytes32",
          "name": "",
          "type": "bytes32"
        }
      ],
      "stateMutability": "view",
      "type": "function"
    },
    {
      "inputs": [],
      "name": "REWARD_EXECUTE_ROLE",
      "outputs": [
        {
          "internalType": "bytes32",
          "name": "",
          "type": "bytes32"
        }
      ],
      "stateMutability": "view",
      "type": "function"
    },
    {
      "inputs": [],
      "name": "TOKEN_DECIMAL_DIFF",
      "outputs": [
        {
          "internalType": "uint256",
          "name": "",
          "type": "uint256"
        }
      ],
      "stateMutability": "view",
      "type": "function"
    },
    {
      "inputs": [],
      "name": "brokerApplyNumber",
      "outputs": [
        {
          "internalType": "uint256",
          "name": "",
          "type": "uint256"
        }
      ],
      "stateMutability": "view",
      "type": "function"
    },
    {
      "inputs": [],
      "name": "brokerValidUnitNumber",
      "outputs": [
        {
          "internalType": "uint256",
          "name": "",
          "type": "uint256"
        }
      ],
      "stateMutability": "view",
      "type": "function"
    },
    {
      "inputs": [],
      "name": "communityVestingVault",
      "outputs": [
        {
          "internalType": "address",
          "name": "",
          "type": "address"
        }
      ],
      "stateMutability": "view",
      "type": "function"
    },
    {
      "inputs": [],
      "name": "drfRewardPool",
      "outputs": [
        {
          "internalType": "uint256",
          "name": "",
          "type": "uint256"
        }
      ],
      "stateMutability": "view",
      "type": "function"
    },
    {
      "inputs": [],
      "name": "exchange",
      "outputs": [
        {
          "internalType": "address",
          "name": "",
          "type": "address"
        }
      ],
      "stateMutability": "view",
      "type": "function"
    },
    {
      "inputs": [
        {
          "internalType": "bytes32",
          "name": "role",
          "type": "bytes32"
        }
      ],
      "name": "getRoleAdmin",
      "outputs": [
        {
          "internalType": "bytes32",
          "name": "",
          "type": "bytes32"
        }
      ],
      "stateMutability": "view",
      "type": "function"
    },
    {
      "inputs": [
        {
          "internalType": "bytes32",
          "name": "role",
          "type": "bytes32"
        },
        {
          "internalType": "address",
          "name": "account",
          "type": "address"
        }
      ],
      "name": "grantRole",
      "outputs": [],
      "stateMutability": "nonpayable",
      "type": "function"
    },
    {
      "inputs": [
        {
          "internalType": "bytes32",
          "name": "role",
          "type": "bytes32"
        },
        {
          "internalType": "address",
          "name": "account",
          "type": "address"
        }
      ],
      "name": "hasRole",
      "outputs": [
        {
          "internalType": "bool",
          "name": "",
          "type": "bool"
        }
      ],
      "stateMutability": "view",
      "type": "function"
    },
    {
      "inputs": [],
      "name": "owner",
      "outputs": [
        {
          "internalType": "address",
          "name": "",
          "type": "address"
        }
      ],
      "stateMutability": "view",
      "type": "function"
    },
    {
      "inputs": [],
      "name": "paused",
      "outputs": [
        {
          "internalType": "bool",
          "name": "",
          "type": "bool"
        }
      ],
      "stateMutability": "view",
      "type": "function"
    },
    {
      "inputs": [],
      "name": "renounceOwnership",
      "outputs": [],
      "stateMutability": "nonpayable",
      "type": "function"
    },
    {
      "inputs": [
        {
          "internalType": "bytes32",
          "name": "role",
          "type": "bytes32"
        },
        {
          "internalType": "address",
          "name": "account",
          "type": "address"
        }
      ],
      "name": "renounceRole",
      "outputs": [],
      "stateMutability": "nonpayable",
      "type": "function"
    },
    {
      "inputs": [
        {
          "internalType": "bytes32",
          "name": "role",
          "type": "bytes32"
        },
        {
          "internalType": "address",
          "name": "account",
          "type": "address"
        }
      ],
      "name": "revokeRole",
      "outputs": [],
      "stateMutability": "nonpayable",
      "type": "function"
    },
    {
      "inputs": [
        {
          "internalType": "bytes4",
          "name": "interfaceId",
          "type": "bytes4"
        }
      ],
      "name": "supportsInterface",
      "outputs": [
        {
          "internalType": "bool",
          "name": "",
          "type": "bool"
        }
      ],
      "stateMutability": "view",
      "type": "function"
    },
    {
      "inputs": [],
      "name": "tokenDRF",
      "outputs": [
        {
          "internalType": "address",
          "name": "",
          "type": "address"
        }
      ],
      "stateMutability": "view",
      "type": "function"
    },
    {
      "inputs": [],
      "name": "tokenEDRF",
      "outputs": [
        {
          "internalType": "address",
          "name": "",
          "type": "address"
        }
      ],
      "stateMutability": "view",
      "type": "function"
    },
    {
      "inputs": [],
      "name": "tokenUSD",
      "outputs": [
        {
          "internalType": "address",
          "name": "",
          "type": "address"
        }
      ],
      "stateMutability": "view",
      "type": "function"
    },
    {
      "inputs": [
        {
          "internalType": "address",
          "name": "newOwner",
          "type": "address"
        }
      ],
      "name": "transferOwnership",
      "outputs": [],
      "stateMutability": "nonpayable",
      "type": "function"
    },
    {
      "inputs": [],
      "name": "usdRewardPool",
      "outputs": [
        {
          "internalType": "uint256",
          "name": "",
          "type": "uint256"
        }
      ],
      "stateMutability": "view",
      "type": "function"
    },
    {
      "inputs": [
        {
          "internalType": "address",
          "name": "_tokenUSD",
          "type": "address"
        },
        {
          "internalType": "address",
          "name": "_tokenDRF",
          "type": "address"
        },
        {
          "internalType": "address",
          "name": "_tokenEDRF",
          "type": "address"
        },
        {
          "internalType": "address",
          "name": "_communityVestingVault",
          "type": "address"
        },
        {
          "internalType": "uint256",
          "name": "_brokerApplyNumber",
          "type": "uint256"
        },
        {
          "internalType": "uint256",
          "name": "_brokerValidUnitNumber",
          "type": "uint256"
        }
      ],
      "name": "updateParams",
      "outputs": [],
      "stateMutability": "nonpayable",
      "type": "function"
    },
    {
      "inputs": [
        {
          "internalType": "address[]",
          "name": "brokers",
          "type": "address[]"
        },
        {
          "internalType": "uint256[]",
          "name": "validPeriodBlocks",
          "type": "uint256[]"
        },
        {
          "internalType": "uint256[]",
          "name": "lastUpdatedBlockNumbers",
          "type": "uint256[]"
        }
      ],
      "name": "initialBrokersForUpgrade",
      "outputs": [],
      "stateMutability": "nonpayable",
      "type": "function"
    },
    {
      "inputs": [
        {
          "internalType": "address[]",
          "name": "brokers",
          "type": "address[]"
        }
      ],
      "name": "removeBrokers",
      "outputs": [],
      "stateMutability": "nonpayable",
      "type": "function"
    },
    {
      "inputs": [],
      "name": "pause",
      "outputs": [],
      "stateMutability": "nonpayable",
      "type": "function"
    },
    {
      "inputs": [],
      "name": "unpause",
      "outputs": [],
      "stateMutability": "nonpayable",
      "type": "function"
    },
    {
      "inputs": [
        {
          "internalType": "address",
          "name": "broker",
          "type": "address"
        },
        {
          "internalType": "address",
          "name": "trader",
          "type": "address"
        },
        {
          "internalType": "uint256",
          "name": "amount",
          "type": "uint256"
        }
      ],
      "name": "addBrokerReward",
      "outputs": [],
      "stateMutability": "nonpayable",
      "type": "function"
    },
    {
      "inputs": [],
      "name": "claimDrfReward",
      "outputs": [],
      "stateMutability": "nonpayable",
      "type": "function"
    },
    {
      "inputs": [
        {
          "internalType": "address[]",
          "name": "brokers",
          "type": "address[]"
        },
        {
          "internalType": "uint256[]",
          "name": "drfAmounts",
          "type": "uint256[]"
        },
        {
          "internalType": "uint256[]",
          "name": "gasFeeAmounts",
          "type": "uint256[]"
        }
      ],
      "name": "updateDrfReward",
      "outputs": [],
      "stateMutability": "nonpayable",
      "type": "function"
    },
    {
      "inputs": [],
      "name": "withdrawBrokerReward",
      "outputs": [],
      "stateMutability": "nonpayable",
      "type": "function"
    },
    {
      "inputs": [],
      "name": "applyBroker",
      "outputs": [],
      "stateMutability": "nonpayable",
      "type": "function"
    },
    {
      "inputs": [
        {
          "internalType": "uint256",
          "name": "amount",
          "type": "uint256"
        }
      ],
      "name": "burnEdrfExtendValidPeriod",
      "outputs": [],
      "stateMutability": "nonpayable",
      "type": "function"
    },
    {
      "inputs": [
        {
          "internalType": "address",
          "name": "broker",
          "type": "address"
        }
      ],
      "name": "getBrokerInfo",
      "outputs": [
        {
          "internalType": "int256",
          "name": "usdRewardBalance",
          "type": "int256"
        },
        {
          "internalType": "int256",
          "name": "accumulatedUsdReward",
          "type": "int256"
        },
        {
          "internalType": "uint256",
          "name": "drfRewardBalance",
          "type": "uint256"
        },
        {
          "internalType": "uint256",
          "name": "accumulatedDrfReward",
          "type": "uint256"
        },
        {
          "internalType": "uint256",
          "name": "validPeriodInBlocks",
          "type": "uint256"
        },
        {
          "internalType": "uint256",
          "name": "lastUpdatedBlockNumber",
          "type": "uint256"
        }
      ],
      "stateMutability": "view",
      "type": "function"
    },
    {
      "inputs": [],
      "name": "getAllBrokers",
      "outputs": [
        {
          "internalType": "address[]",
          "name": "",
          "type": "address[]"
        }
      ],
      "stateMutability": "view",
      "type": "function"
    }
  ],
  "bytecode": "0x60806040523480156200001157600080fd5b50604051620030d8380380620030d8833981016040819052620000349162000256565b6200003f3362000151565b60016002556003805462ffff01600160b81b03191663010000006001600160a01b038981169190910291909117909155600480546001600160a01b0319908116888416179091556005805482168784161790556007805490911691851691909117905560088290556009819055620000c06000620000ba3390565b620001a1565b620000ec7f65d7a28e3265b37a6474929f336521b332c1681b933f6cb9f3376673440d862a33620001a1565b620001187f88ffbb7f39c7c9a080835559a2fa77900e52473a53100c58745802dd1000eab033620001a1565b620001447f28d62fc77014de57a1bbaa8212ff0979fa61ab00d377b4b8d9762048fb41996188620001a1565b50505050505050620002d8565b600080546001600160a01b038381166001600160a01b0319831681178455604051919092169283917f8be0079c531659141344cd1fd0a4f28419497f9722a3daafe3b4186f6b6457e09190a35050565b620001ad8282620001b1565b5050565b60008281526001602090815260408083206001600160a01b038516845290915290205460ff16620001ad5760008281526001602081815260408084206001600160a01b0386168086529252808420805460ff19169093179092559051339285917f2f8788117e7eff1d82e926ec794901d17c78024a50270940304540a733656f0d9190a45050565b80516001600160a01b03811681146200025157600080fd5b919050565b600080600080600080600060e0888a03121562000271578283fd5b6200027c8862000239565b96506200028c6020890162000239565b95506200029c6040890162000239565b9450620002ac6060890162000239565b9350620002bc6080890162000239565b925060a0880151915060c0880151905092959891949750929550565b612df080620002e86000396000f3fe608060405234801561001057600080fd5b50600436106102325760003560e01c80638da5cb5b11610130578063bf5acd39116100b8578063d8c4dc2b1161007c578063d8c4dc2b146104d1578063e2b5628a146104e4578063e63ab1e9146104ec578063ee6fc3b414610513578063f2fde38b1461052857600080fd5b8063bf5acd3914610483578063c73c89ca14610496578063cdc704571461049f578063d2f7265a146104ab578063d547741f146104be57600080fd5b8063a1741991116100ff578063a17419911461043d578063a217fddf14610457578063a9ed96dc1461045f578063adaa346214610472578063b2c4a9bb1461047a57600080fd5b80638da5cb5b146103fd57806391d148541461040e578063940152e4146104215780639472053b1461043457600080fd5b80635c975abb116101be578063761a678f11610182578063761a678f1461037c578063785f026e1461038f5780637ed259ed146103cf578063816edc47146103e25780638456cb59146103f557600080fd5b80635c975abb1461032257806361a99d931461032d57806364a67167146103405780637023e86d1461036b578063715018a61461037457600080fd5b806333d728141161020557806333d72814146102cd57806336568abe146102d85780633b734501146102eb5780633d3129d6146103125780633f4ba83a1461031a57600080fd5b806301ffc9a714610237578063248a9ca31461025f5780632bfae9db146102915780632f2ff15d146102b8575b600080fd5b61024a61024536600461290c565b61053b565b60405190151581526020015b60405180910390f35b61028361026d3660046128c9565b6000908152600160208190526040909120015490565b604051908152602001610256565b6102837f88ffbb7f39c7c9a080835559a2fa77900e52473a53100c58745802dd1000eab081565b6102cb6102c63660046128e1565b610572565b005b6102836305f5e10081565b6102cb6102e63660046128e1565b61059d565b6102837f28d62fc77014de57a1bbaa8212ff0979fa61ab00d377b4b8d9762048fb41996181565b6102cb610620565b6102cb6107aa565b60035460ff1661024a565b6102cb61033b3660046128c9565b6107df565b600754610353906001600160a01b031681565b6040516001600160a01b039091168152602001610256565b61028360085481565b6102cb610a09565b6102cb61038a366004612813565b610a3f565b6103a261039d366004612719565b610dd7565b604080519687526020870195909552938501929092526060840152608083015260a082015260c001610256565b600554610353906001600160a01b031681565b6102cb6103f0366004612733565b610e90565b6102cb610f8a565b6000546001600160a01b0316610353565b61024a61041c3660046128e1565b610fbc565b6102cb61042f366004612798565b610fe7565b610283600b5481565b60035461035390630100000090046001600160a01b031681565b610283600081565b6102cb61046d3660046127d3565b61112c565b6102cb611263565b610283600a5481565b600454610353906001600160a01b031681565b61028360095481565b6102836402540be40081565b600654610353906001600160a01b031681565b6102cb6104cc3660046128e1565b6113a2565b6102cb6104df366004612813565b6113c8565b6102cb61192b565b6102837f65d7a28e3265b37a6474929f336521b332c1681b933f6cb9f3376673440d862a81565b61051b611ed0565b60405161025691906129f0565b6102cb610536366004612719565b611ee1565b60006001600160e01b03198216637965db0b60e01b148061056c57506301ffc9a760e01b6001600160e01b03198316145b92915050565b6000828152600160208190526040909120015461058e81611f79565b6105988383611f83565b505050565b6001600160a01b03811633146106125760405162461bcd60e51b815260206004820152602f60248201527f416363657373436f6e74726f6c3a2063616e206f6e6c792072656e6f756e636560448201526e103937b632b9903337b91039b2b63360891b60648201526084015b60405180910390fd5b61061c8282611fee565b5050565b7f88ffbb7f39c7c9a080835559a2fa77900e52473a53100c58745802dd1000eab061064a81611f79565b600754604051633f5d6e3560e21b81523060048201526000916001600160a01b03169063fd75b8d490602401604080518083038186803b15801561068d57600080fd5b505afa1580156106a1573d6000803e3d6000fd5b505050506040513d601f19601f820116820180604052508101906106c59190612934565b915050600760009054906101000a90046001600160a01b03166001600160a01b031663e74f3fbb6040518163ffffffff1660e01b8152600401600060405180830381600087803b15801561071857600080fd5b505af115801561072c573d6000803e3d6000fd5b505050506402540be400816107419190612c14565b600b60008282546107529190612bfc565b909155507f9a363a35983e3e2a813f7c6e9e26a048fb95461f51935a715311d36142d5b0cb9050600061078a6402540be40084612c14565b600b544260405161079e9493929190612aac565b60405180910390a15050565b7f65d7a28e3265b37a6474929f336521b332c1681b933f6cb9f3376673440d862a6107d481611f79565b6107dc612055565b50565b336000818152600e602052604090206006015460ff166108415760405162461bcd60e51b815260206004820152601960248201527f4442726f6b65723a2042454556505f4e4f545f42524f4b4552000000000000006044820152606401610609565b6005546001600160a01b0316639dc29fac826108626402540be40086612cb7565b6040516001600160e01b031960e085901b1681526001600160a01b0390921660048301526024820152604401600060405180830381600087803b1580156108a857600080fd5b505af11580156108bc573d6000803e3d6000fd5b50505050806001600160a01b03167fb09c30b4722ab0e53a5eed0c4c752b9b91ce0094cf2e109430582f5f8f5ecfa0600184600954426040516109029493929190612a3d565b60405180910390a260006009548361091a9190612c14565b6001600160a01b0383166000908152600e6020526040902060048101546005909101549192509061094b9043612d15565b10610973576001600160a01b0382166000908152600e602052604090206004018190556109e7565b6001600160a01b0382166000908152600e60205260409020600501546109999043612d15565b6001600160a01b0383166000908152600e60205260409020600401546109c0908390612bfc565b6109ca9190612d15565b6001600160a01b0383166000908152600e60205260409020600401555b506001600160a01b03166000908152600e602052604090204360059091015550565b6000546001600160a01b03163314610a335760405162461bcd60e51b815260040161060990612b86565b610a3d60006120e8565b565b6000546001600160a01b03163314610a695760405162461bcd60e51b815260040161060990612b86565b6000610a756001612138565b90508015610a8f576003805462ff00001916620100001790555b85848114610ad75760405162461bcd60e51b815260206004820152601560248201527422213937b5b2b91d102622a72fa224a3232fa2a92960591b6044820152606401610609565b808314610b1e5760405162461bcd60e51b815260206004820152601560248201527422213937b5b2b91d102622a72fa224a3232fa2a92960591b6044820152606401610609565b60005b81811015610d8557610b69898983818110610b4c57634e487b7160e01b600052603260045260246000fd5b9050602002016020810190610b619190612719565b600c906121d3565b158015610bcc5750600e60008a8a84818110610b9557634e487b7160e01b600052603260045260246000fd5b9050602002016020810190610baa9190612719565b6001600160a01b0316815260208101919091526040016000206006015460ff16155b15610d7357610c11898983818110610bf457634e487b7160e01b600052603260045260246000fd5b9050602002016020810190610c099190612719565b600c906121f8565b506001600e60008b8b85818110610c3857634e487b7160e01b600052603260045260246000fd5b9050602002016020810190610c4d9190612719565b6001600160a01b031681526020810191909152604001600020600601805460ff1916911515919091179055868682818110610c9857634e487b7160e01b600052603260045260246000fd5b90506020020135600e60008b8b85818110610cc357634e487b7160e01b600052603260045260246000fd5b9050602002016020810190610cd89190612719565b6001600160a01b03168152602081019190915260400160002060040155848482818110610d1557634e487b7160e01b600052603260045260246000fd5b90506020020135600e60008b8b85818110610d4057634e487b7160e01b600052603260045260246000fd5b9050602002016020810190610d559190612719565b6001600160a01b031681526020810191909152604001600020600501555b80610d7d81612d73565b915050610b21565b50508015610dce576003805462ff000019169055604051600181527f7f26b83ff96e1f2b6a682f133852f6798a09c465da95921460cefb38474024989060200160405180910390a15b50505050505050565b6001600160a01b0381166000908152600e60205260408120600601548190819081908190819060ff16610e4c5760405162461bcd60e51b815260206004820152601760248201527f4442726f6b65723a204742495f4e4f545f42524f4b45520000000000000000006044820152606401610609565b5050506001600160a01b039093166000908152600e602052604090208054600182015460028301546003840154600485015460059095015493989297509095509350565b6000546001600160a01b03163314610eba5760405162461bcd60e51b815260040161060990612b86565b600380546001600160a01b0388811663010000009081026301000000600160b81b03199093169290921792839055600480548983166001600160a01b03199182168117909255600580548a85169083168117909155600780548a8616931683179055600888905560098790556040805195909604909316845260208401919091529282015260608101919091526080810183905260a081018290527fef3577bfdb7e6d75f4a956637dbc4869a54df34ab4a8148bc5a5bfc7484f59ac9060c00160405180910390a1505050505050565b7f65d7a28e3265b37a6474929f336521b332c1681b933f6cb9f3376673440d862a610fb481611f79565b6107dc61220d565b60009182526001602090815260408084206001600160a01b0393909316845291905290205460ff1690565b7f28d62fc77014de57a1bbaa8212ff0979fa61ab00d377b4b8d9762048fb41996161101181611f79565b6001600160a01b0384166000908152600e602052604081208054849290611039908490612bbb565b90915550506001600160a01b0384166000908152600e602052604081206001018054849290611069908490612bbb565b9250508190555081600a60008282546110829190612bfc565b90915550506001600160a01b0384166000818152600e6020526040808220805460019091015491517ff600e557a3de65878722200d03abd26ea32e348c05fe9fbc4268559b82eb67a8936110de93909289928992904290612a6d565b60405180910390a27f7746a2dd1144f7bb38dd6286f331af3a2f620369a42b4bb00935060829aa0370600083600a544260405161111e9493929190612aac565b60405180910390a150505050565b6000546001600160a01b031633146111565760405162461bcd60e51b815260040161060990612b86565b60005b8181101561059857611184838383818110610b4c57634e487b7160e01b600052603260045260246000fd5b15611251576111c98383838181106111ac57634e487b7160e01b600052603260045260246000fd5b90506020020160208101906111c19190612719565b600c90612288565b50600e60008484848181106111ee57634e487b7160e01b600052603260045260246000fd5b90506020020160208101906112039190612719565b6001600160a01b0316815260208101919091526040016000908120818155600181018290556002810182905560038101829055600481018290556005810191909155600601805460ff191690555b8061125b81612d73565b915050611159565b3361126f600c826121d3565b15801561129857506001600160a01b0381166000908152600e602052604090206006015460ff16155b156107dc576005546008546001600160a01b0390911690639dc29fac9083906112c7906402540be40090612cb7565b6040516001600160e01b031960e085901b1681526001600160a01b0390921660048301526024820152604401600060405180830381600087803b15801561130d57600080fd5b505af1158015611321573d6000803e3d6000fd5b5050505061133981600c6121f890919063ffffffff16565b506001600160a01b0381166000818152600e6020526040808220600601805460ff1916600117905560085490517fb09c30b4722ab0e53a5eed0c4c752b9b91ce0094cf2e109430582f5f8f5ecfa09261139792909181904290612a3d565b60405180910390a250565b600082815260016020819052604090912001546113be81611f79565b6105988383611fee565b7f88ffbb7f39c7c9a080835559a2fa77900e52473a53100c58745802dd1000eab06113f281611f79565b858481146114425760405162461bcd60e51b815260206004820152601860248201527f4442726f6b65723a205544525f4452465f4c454e5f45525200000000000000006044820152606401610609565b8083146114915760405162461bcd60e51b815260206004820152601b60248201527f4442726f6b65723a205544525f4741534645455f4c454e5f45525200000000006044820152606401610609565b6000805b828110156117795760008a8a838181106114bf57634e487b7160e01b600052603260045260246000fd5b90506020020160208101906114d49190612719565b90508888838181106114f657634e487b7160e01b600052603260045260246000fd5b90506020020135600e6000836001600160a01b03166001600160a01b0316815260200190815260200160002060020160008282546115349190612bfc565b90915550899050888381811061155a57634e487b7160e01b600052603260045260246000fd5b90506020020135600e6000836001600160a01b03166001600160a01b0316815260200190815260200160002060030160008282546115989190612bfc565b90915550506001600160a01b0381167fdd75472211563c12a972f9a960cd2fa9fc64d32aadfeb0263a0cb5699132e68d60008b8b868181106115ea57634e487b7160e01b600052603260045260246000fd5b6001600160a01b0387166000908152600e6020908152604091829020600281015460039091015492516116299796949092029093013593504290612ad5565b60405180910390a286868381811061165157634e487b7160e01b600052603260045260246000fd5b90506020020135600e6000836001600160a01b03166001600160a01b03168152602001908152602001600020600001600082825461168f9190612cd6565b9091555087905086838181106116b557634e487b7160e01b600052603260045260246000fd5b90506020020135836116c79190612bfc565b9250806001600160a01b03167ff600e557a3de65878722200d03abd26ea32e348c05fe9fbc4268559b82eb67a86002838a8a8781811061171757634e487b7160e01b600052603260045260246000fd5b9050602002013560001961172b9190612c34565b6001600160a01b0386166000908152600e6020526040908190208054600190910154915161175e95949392904290612a6d565b60405180910390a2508061177181612d73565b915050611495565b5080600a5410156117cc5760405162461bcd60e51b815260206004820152601f60248201527f4442726f6b65723a205544525f5553445f42414c414e43455f455843454544006044820152606401610609565b80600a60008282546117de9190612d15565b9091555050600354630100000090046001600160a01b031663a9059cbb3361180b6402540be40085612cb7565b6040516001600160e01b031960e085901b1681526001600160a01b0390921660048301526024820152604401602060405180830381600087803b15801561185157600080fd5b505af1158015611865573d6000803e3d6000fd5b505050506040513d601f19601f8201168201806040525081019061188991906128a9565b6118d55760405162461bcd60e51b815260206004820152601d60248201527f4442726f6b65723a205544525f5553445f5452414e534645525f4552520000006044820152606401610609565b7f7746a2dd1144f7bb38dd6286f331af3a2f620369a42b4bb00935060829aa0370600261190483600019612c34565b600a54426040516119189493929190612aac565b60405180910390a1505050505050505050565b60028054141561197d5760405162461bcd60e51b815260206004820152601f60248201527f5265656e7472616e637947756172643a207265656e7472616e742063616c6c006044820152606401610609565b6002805560035460ff16156119c75760405162461bcd60e51b815260206004820152601060248201526f14185d5cd8589b194e881c185d5cd95960821b6044820152606401610609565b336000818152600e60205260408120541315611c42576001600160a01b0381166000908152600e6020526040902054600a54811115611a485760405162461bcd60e51b815260206004820152601f60248201527f4442726f6b65723a205742525f5553445f42414c414e43455f455843454544006044820152606401610609565b6001600160a01b0382166000908152600e602052604081208054839290611a70908490612cd6565b9250508190555080600a6000828254611a899190612d15565b9091555050600354630100000090046001600160a01b031663a9059cbb83611ab66402540be40085612cb7565b6040516001600160e01b031960e085901b1681526001600160a01b0390921660048301526024820152604401602060405180830381600087803b158015611afc57600080fd5b505af1158015611b10573d6000803e3d6000fd5b505050506040513d601f19601f82011682018060405250810190611b3491906128a9565b611b805760405162461bcd60e51b815260206004820152601d60248201527f4442726f6b65723a205742525f5553445f5452414e534645525f4552520000006044820152606401610609565b6001600160a01b0382167ff600e557a3de65878722200d03abd26ea32e348c05fe9fbc4268559b82eb67a8600184611bba85600019612c34565b6001600160a01b0387166000908152600e60205260409081902080546001909101549151611bed95949392904290612a6d565b60405180910390a27f7746a2dd1144f7bb38dd6286f331af3a2f620369a42b4bb00935060829aa03706001611c2483600019612c34565b600a5442604051611c389493929190612aac565b60405180910390a1505b6001600160a01b0381166000908152600e602052604090206002015415611ec8576001600160a01b0381166000908152600e6020526040902060020154600b54811115611cd15760405162461bcd60e51b815260206004820152601f60248201527f4442726f6b65723a205742525f4452465f42414c414e43455f455843454544006044820152606401610609565b6001600160a01b0382166000908152600e602052604081206002018054839290611cfc908490612d15565b9250508190555080600b6000828254611d159190612d15565b90915550506004546001600160a01b031663a9059cbb83611d3b6402540be40085612cb7565b6040516001600160e01b031960e085901b1681526001600160a01b0390921660048301526024820152604401602060405180830381600087803b158015611d8157600080fd5b505af1158015611d95573d6000803e3d6000fd5b505050506040513d601f19601f82011682018060405250810190611db991906128a9565b611e055760405162461bcd60e51b815260206004820152601d60248201527f4442726f6b65723a205742525f4452465f5452414e534645525f4552520000006044820152606401610609565b6001600160a01b0382167fdd75472211563c12a972f9a960cd2fa9fc64d32aadfeb0263a0cb5699132e68d6001611e3e84600019612c34565b6001600160a01b0386166000908152600e60205260409081902060028101546003909101549151611e73949392904290612ad5565b60405180910390a27f9a363a35983e3e2a813f7c6e9e26a048fb95461f51935a715311d36142d5b0cb6001611eaa83600019612c34565b600b5442604051611ebe9493929190612aac565b60405180910390a1505b506001600255565b6060611edc600c61229d565b905090565b6000546001600160a01b03163314611f0b5760405162461bcd60e51b815260040161060990612b86565b6001600160a01b038116611f705760405162461bcd60e51b815260206004820152602660248201527f4f776e61626c653a206e6577206f776e657220697320746865207a65726f206160448201526564647265737360d01b6064820152608401610609565b6107dc816120e8565b6107dc81336122aa565b611f8d8282610fbc565b61061c5760008281526001602081815260408084206001600160a01b0386168086529252808420805460ff19169093179092559051339285917f2f8788117e7eff1d82e926ec794901d17c78024a50270940304540a733656f0d9190a45050565b611ff88282610fbc565b1561061c5760008281526001602090815260408083206001600160a01b0385168085529252808320805460ff1916905551339285917ff6391f5c32d9c69d2a47ea670b442974b53935d1edc7fd64eb21e047a839171b9190a45050565b60035460ff1661209e5760405162461bcd60e51b815260206004820152601460248201527314185d5cd8589b194e881b9bdd081c185d5cd95960621b6044820152606401610609565b6003805460ff191690557f5db9ee0a495bf2e6ff9c91a7834c1ba4fdd244a5e8aa4e537bd38aeae4b073aa335b6040516001600160a01b03909116815260200160405180910390a1565b600080546001600160a01b038381166001600160a01b0319831681178455604051919092169283917f8be0079c531659141344cd1fd0a4f28419497f9722a3daafe3b4186f6b6457e09190a35050565b60035460009062010000900460ff1615612182578160ff16600114801561215e5750303b155b61217a5760405162461bcd60e51b815260040161060990612b38565b506000919050565b60035460ff80841661010090920416106121ae5760405162461bcd60e51b815260040161060990612b38565b506003805460ff9092166101000261ff0019909216919091179055600190565b919050565b6001600160a01b038116600090815260018301602052604081205415155b9392505050565b60006121f1836001600160a01b03841661230e565b60035460ff16156122535760405162461bcd60e51b815260206004820152601060248201526f14185d5cd8589b194e881c185d5cd95960821b6044820152606401610609565b6003805460ff191660011790557f62e78cea01bee320cd4e420270b5ea74000d11b0c9f74754ebdbfc544b05a2586120cb3390565b60006121f1836001600160a01b03841661235d565b606060006121f18361247a565b6122b48282610fbc565b61061c576122cc816001600160a01b031660146124d6565b6122d78360206124d6565b6040516020016122e892919061297b565b60408051601f198184030181529082905262461bcd60e51b825261060991600401612b05565b60008181526001830160205260408120546123555750815460018181018455600084815260208082209093018490558454848252828601909352604090209190915561056c565b50600061056c565b60008181526001830160205260408120548015612470576000612381600183612d15565b855490915060009061239590600190612d15565b90508181146124165760008660000182815481106123c357634e487b7160e01b600052603260045260246000fd5b90600052602060002001549050808760000184815481106123f457634e487b7160e01b600052603260045260246000fd5b6000918252602080832090910192909255918252600188019052604090208390555b855486908061243557634e487b7160e01b600052603160045260246000fd5b60019003818190600052602060002001600090559055856001016000868152602001908152602001600020600090556001935050505061056c565b600091505061056c565b6060816000018054806020026020016040519081016040528092919081815260200182805480156124ca57602002820191906000526020600020905b8154815260200190600101908083116124b6575b50505050509050919050565b606060006124e5836002612cb7565b6124f0906002612bfc565b67ffffffffffffffff81111561251657634e487b7160e01b600052604160045260246000fd5b6040519080825280601f01601f191660200182016040528015612540576020820181803683370190505b509050600360fc1b8160008151811061256957634e487b7160e01b600052603260045260246000fd5b60200101906001600160f81b031916908160001a905350600f60fb1b816001815181106125a657634e487b7160e01b600052603260045260246000fd5b60200101906001600160f81b031916908160001a90535060006125ca846002612cb7565b6125d5906001612bfc565b90505b6001811115612669576f181899199a1a9b1b9c1cb0b131b232b360811b85600f166010811061261757634e487b7160e01b600052603260045260246000fd5b1a60f81b82828151811061263b57634e487b7160e01b600052603260045260246000fd5b60200101906001600160f81b031916908160001a90535060049490941c9361266281612d5c565b90506125d8565b5083156121f15760405162461bcd60e51b815260206004820181905260248201527f537472696e67733a20686578206c656e67746820696e73756666696369656e746044820152606401610609565b80356001600160a01b03811681146121ce57600080fd5b60008083601f8401126126e0578182fd5b50813567ffffffffffffffff8111156126f7578182fd5b6020830191508360208260051b850101111561271257600080fd5b9250929050565b60006020828403121561272a578081fd5b6121f1826126b8565b60008060008060008060c0878903121561274b578182fd5b612754876126b8565b9550612762602088016126b8565b9450612770604088016126b8565b935061277e606088016126b8565b92506080870135915060a087013590509295509295509295565b6000806000606084860312156127ac578283fd5b6127b5846126b8565b92506127c3602085016126b8565b9150604084013590509250925092565b600080602083850312156127e5578182fd5b823567ffffffffffffffff8111156127fb578283fd5b612807858286016126cf565b90969095509350505050565b6000806000806000806060878903121561282b578182fd5b863567ffffffffffffffff80821115612842578384fd5b61284e8a838b016126cf565b90985096506020890135915080821115612866578384fd5b6128728a838b016126cf565b9096509450604089013591508082111561288a578384fd5b5061289789828a016126cf565b979a9699509497509295939492505050565b6000602082840312156128ba578081fd5b815180151581146121f1578182fd5b6000602082840312156128da578081fd5b5035919050565b600080604083850312156128f3578182fd5b82359150612903602084016126b8565b90509250929050565b60006020828403121561291d578081fd5b81356001600160e01b0319811681146121f1578182fd5b60008060408385031215612946578182fd5b825161ffff81168114612957578283fd5b6020939093015192949293505050565b6003811061297757612977612da4565b9052565b7f416363657373436f6e74726f6c3a206163636f756e74200000000000000000008152600083516129b3816017850160208801612d2c565b7001034b99036b4b9b9b4b733903937b6329607d1b60179184019182015283516129e4816028840160208801612d2c565b01602801949350505050565b6020808252825182820181905260009190848201906040850190845b81811015612a315783516001600160a01b031683529284019291840191600101612a0c565b50909695505050505050565b6080810160028610612a5157612a51612da4565b9481526020810193909352604083019190915260609091015290565b60c08101612a7b8289612967565b6001600160a01b0396909616602082015260408101949094526060840192909252608083015260a090910152919050565b60808101612aba8287612967565b84602083015283604083015282606083015295945050505050565b60a08101612ae38288612967565b8560208301528460408301528360608301528260808301529695505050505050565b6020815260008251806020840152612b24816040850160208701612d2c565b601f01601f19169190910160400192915050565b6020808252602e908201527f496e697469616c697a61626c653a20636f6e747261637420697320616c72656160408201526d191e481a5b9a5d1a585b1a5e995960921b606082015260800190565b6020808252818101527f4f776e61626c653a2063616c6c6572206973206e6f7420746865206f776e6572604082015260600190565b600080821280156001600160ff1b0384900385131615612bdd57612bdd612d8e565b600160ff1b8390038412811615612bf657612bf6612d8e565b50500190565b60008219821115612c0f57612c0f612d8e565b500190565b600082612c2f57634e487b7160e01b81526012600452602481fd5b500490565b60006001600160ff1b0381841382841380821686840486111615612c5a57612c5a612d8e565b600160ff1b84871282811687830589121615612c7857612c78612d8e565b858712925087820587128484161615612c9357612c93612d8e565b87850587128184161615612ca957612ca9612d8e565b505050929093029392505050565b6000816000190483118215151615612cd157612cd1612d8e565b500290565b60008083128015600160ff1b850184121615612cf457612cf4612d8e565b6001600160ff1b0384018313811615612d0f57612d0f612d8e565b50500390565b600082821015612d2757612d27612d8e565b500390565b60005b83811015612d47578181015183820152602001612d2f565b83811115612d56576000848401525b50505050565b600081612d6b57612d6b612d8e565b506000190190565b6000600019821415612d8757612d87612d8e565b5060010190565b634e487b7160e01b600052601160045260246000fd5b634e487b7160e01b600052602160045260246000fdfea26469706673582212206bbc9ade1f2e8ebab10d7836fa8bc0dd3059a33284360613030c2da4137ff9f064736f6c63430008040033",
  "immutableReferences": {},
  "source": "// SPDX-License-Identifier: GPL-3.0-or-later\r\npragma solidity 0.8.4;\r\n\r\nimport \"@openzeppelin/contracts/token/ERC20/IERC20.sol\";\r\nimport \"@openzeppelin/contracts/utils/Context.sol\";\r\nimport \"@openzeppelin/contracts/utils/structs/EnumerableSet.sol\";\r\nimport \"@openzeppelin/contracts/proxy/utils/Initializable.sol\";\r\nimport \"@openzeppelin/contracts/access/Ownable.sol\";\r\nimport \"@openzeppelin/contracts/access/AccessControl.sol\";\r\nimport \"@openzeppelin/contracts/security/ReentrancyGuard.sol\";\r\nimport \"@openzeppelin/contracts/security/Pausable.sol\";\r\nimport \"@derify/derify-token/contracts/CommunityVestingVault.sol\";\r\n\r\nimport \"./interfaces/IDerifyBroker.sol\";\r\nimport \"./interfaces/IDerifyERC20.sol\";\r\n\r\n/// @title DerifyBroker - Derify broker moudle.\r\ncontract DerifyBroker is IDerifyBroker, Context, Ownable, AccessControl, ReentrancyGuard, Pausable, Initializable {\r\n    /// @dev Add the library methods\r\n    using EnumerableSet for EnumerableSet.AddressSet;\r\n    \r\n    /// @dev struct to store broker info\r\n    struct BrokerInfo {\r\n        // usd reawrd balance, could be nagative\r\n        int256 usdRewardBalance;\r\n        // accumulated usd reawrd balance, could be nagative\r\n        int256 accumulatedUsdReward;\r\n        // drf reawrd balance\r\n        uint256 drfRewardBalance;\r\n        // accumulated drf reawrd balance\r\n        uint256 accumulatedDrfReward;\r\n        // int without contract decimals\r\n        uint256 validPeriodBlocks;\r\n        // int without contract decimals, the block number of last time updated validPeriodBlocks\r\n        uint256 blockNumber;    \r\n        bool    isUsed;\r\n    }\r\n    \r\n    /// @dev Create a new role identifier for the pauser role\r\n    bytes32 public constant PAUSER_ROLE = keccak256(\"PAUSER_ROLE\");\r\n    /// @dev Create a new role identifier for the exchange role\r\n    bytes32 public constant EXCHANGE_ROLE = keccak256(\"EXCHANGE_ROLE\");\r\n    /// @dev Create a new role identifier for the reward execute role\r\n    bytes32 public constant REWARD_EXECUTE_ROLE = keccak256(\"REWARD_EXECUTE_ROLE\");\r\n\r\n    /// @dev The contract decimals\r\n    uint256 public constant CONTRACT_DECIMAL = 10 ** 8;\r\n    /// @dev The token contract decimals diff with contract decimals\r\n    uint256 public constant TOKEN_DECIMAL_DIFF = 10 ** 10;\r\n\r\n    /// @dev the token USDT contract address \r\n    address public tokenUSD;\r\n    /// @dev the token DRF contract address \r\n    address public tokenDRF;\r\n    /// @dev the token eDRF contract address \r\n    address public tokenEDRF;\r\n    /// @dev the DerifyExchange contract address \r\n    address public exchange;\r\n    /// @dev the CommunityVestingVault contract address \r\n    address public communityVestingVault;\r\n\r\n    /// @inheritdoc IDerifyBroker\r\n    uint256 public override brokerApplyNumber;\r\n    /// @inheritdoc IDerifyBroker\r\n    uint256 public override brokerValidUnitNumber;\r\n    /// @inheritdoc IDerifyBroker\r\n    uint256 public override usdRewardPool;\r\n    /// @inheritdoc IDerifyBroker\r\n    uint256 public override drfRewardPool;\r\n\r\n    /// @dev all brokers\r\n    EnumerableSet.AddressSet private allBrokers;\r\n    /// @dev info of brokers\r\n    mapping(address => BrokerInfo) private brokerInfos;\r\n\r\n    constructor(\r\n        address _exchange,\r\n        address _tokenUSD,\r\n        address _tokenDRF,\r\n        address _tokenEDRF,\r\n        address _communityVestingVault,\r\n        uint256 _brokerApplyNumber,\r\n        uint256 _brokerValidUnitNumber\r\n    ) {\r\n        tokenUSD = _tokenUSD;\r\n        tokenDRF = _tokenDRF;\r\n        tokenEDRF = _tokenEDRF;\r\n        communityVestingVault = _communityVestingVault;\r\n        brokerApplyNumber = _brokerApplyNumber;\r\n        brokerValidUnitNumber = _brokerValidUnitNumber;\r\n\r\n        _setupRole(DEFAULT_ADMIN_ROLE, _msgSender());\r\n        _setupRole(PAUSER_ROLE, _msgSender());\r\n        _setupRole(REWARD_EXECUTE_ROLE, _msgSender());\r\n        _setupRole(EXCHANGE_ROLE, _exchange);\r\n    }\r\n\r\n    /// @inheritdoc IDerifyBroker\r\n    function updateParams(\r\n        address _tokenUSD,\r\n        address _tokenDRF,\r\n        address _tokenEDRF,\r\n        address _communityVestingVault,\r\n        uint256 _brokerApplyNumber,\r\n        uint256 _brokerValidUnitNumber\r\n    ) external override onlyOwner {\r\n        tokenUSD = _tokenUSD;\r\n        tokenDRF = _tokenDRF;\r\n        tokenEDRF = _tokenEDRF;\r\n        communityVestingVault = _communityVestingVault;\r\n        brokerApplyNumber = _brokerApplyNumber;\r\n        brokerValidUnitNumber = _brokerValidUnitNumber;\r\n\r\n        emit ContractParamsUpdate(\r\n            tokenUSD, \r\n            tokenDRF,\r\n            tokenEDRF,\r\n            communityVestingVault,\r\n            brokerApplyNumber,\r\n            brokerValidUnitNumber\r\n        );\r\n    }\r\n\r\n    /// @inheritdoc IDerifyBroker\r\n    function initialBrokersForUpgrade(\r\n        address[] calldata brokers, \r\n        uint256[] calldata validPeriodBlocks,\r\n        uint256[] calldata lastUpdatedBlockNumbers\r\n    ) external override onlyOwner initializer {\r\n        uint256 len = brokers.length;\r\n        require(len == validPeriodBlocks.length, \"DBroker: LEN_DIFF_ERR\");\r\n        require(len == lastUpdatedBlockNumbers.length, \"DBroker: LEN_DIFF_ERR\");\r\n        for(uint256 i = 0; i < len; i++) {\r\n            if (!allBrokers.contains(brokers[i]) && !brokerInfos[brokers[i]].isUsed) {\r\n                allBrokers.add(brokers[i]);\r\n                brokerInfos[brokers[i]].isUsed = true;\r\n                brokerInfos[brokers[i]].validPeriodBlocks = validPeriodBlocks[i];\r\n                brokerInfos[brokers[i]].blockNumber = lastUpdatedBlockNumbers[i];\r\n            }\r\n        }\r\n    }\r\n\r\n    /// @inheritdoc IDerifyBroker\r\n    function removeBrokers(address[] calldata brokers) external override onlyOwner {\r\n        for(uint256 i = 0; i < brokers.length; i++) {\r\n            if (allBrokers.contains(brokers[i])) {\r\n                allBrokers.remove(brokers[i]);\r\n                delete brokerInfos[brokers[i]];\r\n            }\r\n        }\r\n    }\r\n\r\n    /// @inheritdoc IDerifyBroker\r\n    function pause() external override onlyRole(PAUSER_ROLE) {\r\n        _pause();\r\n    }\r\n\r\n    /// @inheritdoc IDerifyBroker\r\n    function unpause() external override onlyRole(PAUSER_ROLE) {\r\n        _unpause();\r\n    }\r\n\r\n    /// @inheritdoc IDerifyBroker\r\n    function addBrokerReward(\r\n        address broker,\r\n        address trader,\r\n        uint256 amount\r\n    ) external override onlyRole(EXCHANGE_ROLE) {\r\n        brokerInfos[broker].usdRewardBalance += int256(amount);\r\n        brokerInfos[broker].accumulatedUsdReward += int256(amount);\r\n        usdRewardPool += amount;\r\n        emit UsdRewardBalanceUpdate(\r\n            UpdateType.Income, \r\n            broker, \r\n            trader, \r\n            int256(amount), \r\n            brokerInfos[broker].usdRewardBalance, \r\n            brokerInfos[broker].accumulatedUsdReward,\r\n            block.timestamp\r\n        );\r\n        emit UsdRewardPoolUpdate(UpdateType.Income, int256(amount), usdRewardPool, block.timestamp);\r\n    }\r\n\r\n    // claim DRF from CommunityVestingVault\r\n    function claimDrfReward() external override onlyRole(REWARD_EXECUTE_ROLE) {\r\n        (, uint256 amountVested) = CommunityVestingVault(communityVestingVault).calculateGrantClaim(address(this));\r\n        CommunityVestingVault(communityVestingVault).claimVestedTokens();\r\n        drfRewardPool += amountVested / TOKEN_DECIMAL_DIFF;\r\n        emit DrfRewardPoolUpdate(UpdateType.Income, int256(amountVested / TOKEN_DECIMAL_DIFF), drfRewardPool, block.timestamp);\r\n    }\r\n\r\n    /// @inheritdoc IDerifyBroker\r\n    function updateDrfReward(\r\n        address[] calldata brokers,\r\n        uint256[] calldata drfAmounts,\r\n        uint256[] calldata gasFeeAmounts\r\n    ) external override onlyRole(REWARD_EXECUTE_ROLE) {\r\n        uint256 len = brokers.length;\r\n        require(len == drfAmounts.length, \"DBroker: UDR_DRF_LEN_ERR\");\r\n        require(len == gasFeeAmounts.length, \"DBroker: UDR_GASFEE_LEN_ERR\");\r\n        uint256 totalGasFee;\r\n        for(uint256 i = 0; i < len; i++) {\r\n            address broker = brokers[i];\r\n            // update DRF reward\r\n            brokerInfos[broker].drfRewardBalance += drfAmounts[i];\r\n            brokerInfos[broker].accumulatedDrfReward += drfAmounts[i];\r\n            emit DrfRewardBalanceUpdate(\r\n                UpdateType.Income, \r\n                broker, \r\n                int256(drfAmounts[i]), \r\n                brokerInfos[broker].drfRewardBalance, \r\n                brokerInfos[broker].accumulatedDrfReward,\r\n                block.timestamp\r\n            );\r\n            // sub gas fee from usd reward\r\n            brokerInfos[broker].usdRewardBalance -= int256(gasFeeAmounts[i]);\r\n            totalGasFee += gasFeeAmounts[i];\r\n            emit UsdRewardBalanceUpdate(\r\n                UpdateType.GasFee, \r\n                broker, \r\n                broker, \r\n                int256(gasFeeAmounts[i]) * -1, \r\n                brokerInfos[broker].usdRewardBalance,\r\n                brokerInfos[broker].accumulatedUsdReward,\r\n                block.timestamp\r\n            );\r\n        }\r\n        // handle the case usdRewardPool < totalGasFee in backend\r\n        require(usdRewardPool >= totalGasFee, \"DBroker: UDR_USD_BALANCE_EXCEED\");\r\n        usdRewardPool -= totalGasFee;\r\n        require(IERC20(tokenUSD).transfer(_msgSender(), totalGasFee * TOKEN_DECIMAL_DIFF), \"DBroker: UDR_USD_TRANSFER_ERR\");\r\n        emit UsdRewardPoolUpdate(UpdateType.GasFee, int256(totalGasFee) * -1, usdRewardPool, block.timestamp);\r\n    }\r\n\r\n    /// @inheritdoc IDerifyBroker\r\n    function withdrawBrokerReward() external override nonReentrant whenNotPaused {\r\n        address broker = _msgSender();\r\n        // withdraw USD reward\r\n        if (brokerInfos[broker].usdRewardBalance > 0) {\r\n            uint256 usdAmount = uint256(brokerInfos[broker].usdRewardBalance);\r\n            require(usdRewardPool >= usdAmount, \"DBroker: WBR_USD_BALANCE_EXCEED\");\r\n            brokerInfos[broker].usdRewardBalance -= int256(usdAmount);\r\n            usdRewardPool -= usdAmount;\r\n            require(IERC20(tokenUSD).transfer(broker, usdAmount * TOKEN_DECIMAL_DIFF), \"DBroker: WBR_USD_TRANSFER_ERR\");\r\n            emit UsdRewardBalanceUpdate(\r\n                UpdateType.Withdraw, \r\n                broker, \r\n                broker, \r\n                int256(usdAmount) * -1, \r\n                brokerInfos[broker].usdRewardBalance,\r\n                brokerInfos[broker].accumulatedUsdReward, \r\n                block.timestamp\r\n            );\r\n            emit UsdRewardPoolUpdate(UpdateType.Withdraw, int256(usdAmount) * -1, usdRewardPool, block.timestamp);\r\n        }\r\n        // withdraw DRF reward\r\n        if (brokerInfos[broker].drfRewardBalance > 0) {\r\n            uint256 drfAmount = brokerInfos[broker].drfRewardBalance;\r\n            require(drfRewardPool >= drfAmount, \"DBroker: WBR_DRF_BALANCE_EXCEED\");\r\n            brokerInfos[broker].drfRewardBalance -= drfAmount;\r\n            drfRewardPool -= drfAmount;\r\n            require(IERC20(tokenDRF).transfer(broker, drfAmount * TOKEN_DECIMAL_DIFF), \"DBroker: WBR_DRF_TRANSFER_ERR\");\r\n            emit DrfRewardBalanceUpdate(\r\n                UpdateType.Withdraw, \r\n                broker, \r\n                int256(drfAmount) * -1, \r\n                brokerInfos[broker].drfRewardBalance, \r\n                brokerInfos[broker].accumulatedDrfReward, \r\n                block.timestamp\r\n            );\r\n            emit DrfRewardPoolUpdate(UpdateType.Withdraw, int256(drfAmount) * -1, drfRewardPool, block.timestamp);\r\n        }\r\n    }\r\n\r\n    /// @inheritdoc IDerifyBroker\r\n    function applyBroker() external override {\r\n        address broker = _msgSender();\r\n        // only burn edrf for not used user\r\n        if (!allBrokers.contains(broker) && !brokerInfos[broker].isUsed) {\r\n            IDerifyERC20(tokenEDRF).burn(broker, brokerApplyNumber * TOKEN_DECIMAL_DIFF);\r\n            allBrokers.add(broker);\r\n            brokerInfos[broker].isUsed = true;\r\n\r\n            emit BrokerQualificationUpdate(\r\n                QualificationType.Apply, \r\n                broker, \r\n                brokerApplyNumber, \r\n                brokerApplyNumber, \r\n                block.timestamp\r\n            );\r\n        }\r\n    }\r\n\r\n    /// @inheritdoc IDerifyBroker\r\n    function burnEdrfExtendValidPeriod(uint256 amount) external override {\r\n        address trader = _msgSender();\r\n        require(brokerInfos[trader].isUsed, \"DBroker: BEEVP_NOT_BROKER\");\r\n        // burn edrf\r\n        IDerifyERC20(tokenEDRF).burn(trader, amount * TOKEN_DECIMAL_DIFF);\r\n        emit BrokerQualificationUpdate(\r\n            QualificationType.Extend, \r\n            trader, \r\n            amount, \r\n            brokerValidUnitNumber, \r\n            block.timestamp\r\n        );\r\n        // update valid period\r\n        uint256 newAddedPeriodBlocks = amount / brokerValidUnitNumber;\r\n        if (block.number - brokerInfos[trader].blockNumber >= brokerInfos[trader].validPeriodBlocks) {\r\n            brokerInfos[trader].validPeriodBlocks = newAddedPeriodBlocks;\r\n        } else {\r\n            brokerInfos[trader].validPeriodBlocks = brokerInfos[trader].validPeriodBlocks + newAddedPeriodBlocks - (block.number - brokerInfos[trader].blockNumber);\r\n        }\r\n        brokerInfos[trader].blockNumber = block.number;\r\n    }\r\n\r\n    /// @inheritdoc IDerifyBroker\r\n    function getBrokerInfo(address broker) external view override returns (\r\n        int256 usdRewardBalance, \r\n        int256 accumulatedUsdReward, \r\n        uint256 drfRewardBalance, \r\n        uint256 accumulatedDrfReward, \r\n        uint256 validPeriodInBlocks, \r\n        uint256 lastUpdatedBlockNumber\r\n    ) {\r\n        require (brokerInfos[broker].isUsed, \"DBroker: GBI_NOT_BROKER\");\r\n        \r\n        usdRewardBalance = brokerInfos[broker].usdRewardBalance;\r\n        accumulatedUsdReward = brokerInfos[broker].accumulatedUsdReward;\r\n        drfRewardBalance = brokerInfos[broker].drfRewardBalance;\r\n        accumulatedDrfReward = brokerInfos[broker].accumulatedDrfReward;\r\n        // int without contract decimals\r\n        validPeriodInBlocks = brokerInfos[broker].validPeriodBlocks;\r\n        lastUpdatedBlockNumber = brokerInfos[broker].blockNumber;\r\n    }\r\n\r\n    /// @inheritdoc IDerifyBroker\r\n    function getAllBrokers() external view override returns(address[] memory) {\r\n        return allBrokers.values();\r\n    }\r\n}",
  "sourcePath": "C:\\ZW_Others\\github\\Blockchain\\Derify-v1\\derify-core\\contracts\\DerifyBroker.sol",
  "compiler": {
    "name": "solc",
    "version": "0.8.4+commit.c7e474f2.Emscripten.clang"
  },
  "schemaVersion": "3.4.8",
  "updatedAt": "2022-09-02T02:12:31.058Z",
  "devdoc": {
    "kind": "dev",
    "methods": {
      "addBrokerReward(address,address,uint256)": {
        "params": {
          "amount": "The amount of broker reward",
          "broker": "The broker of the trader",
          "trader": "The trader"
        }
      },
      "burnEdrfExtendValidPeriod(uint256)": {
        "params": {
          "amount": "The amount of edrf"
        }
      },
      "getBrokerInfo(address)": {
        "params": {
          "broker": "The broker"
        }
      },
      "getRoleAdmin(bytes32)": {
        "details": "Returns the admin role that controls `role`. See {grantRole} and {revokeRole}. To change a role's admin, use {_setRoleAdmin}."
      },
      "grantRole(bytes32,address)": {
        "details": "Grants `role` to `account`. If `account` had not been already granted `role`, emits a {RoleGranted} event. Requirements: - the caller must have ``role``'s admin role."
      },
      "hasRole(bytes32,address)": {
        "details": "Returns `true` if `account` has been granted `role`."
      },
      "initialBrokersForUpgrade(address[],uint256[],uint256[])": {
        "details": "Called only by owner once to intial the contract for upgrade",
        "params": {
          "brokers": "The brokers to initialize ",
          "lastUpdatedBlockNumbers": "The last updated block number of brokers to initialize ",
          "validPeriodBlocks": "The valid period of brokers to initialize "
        }
      },
      "owner()": {
        "details": "Returns the address of the current owner."
      },
      "paused()": {
        "details": "Returns true if the contract is paused, and false otherwise."
      },
      "removeBrokers(address[])": {
        "params": {
          "brokers": "The brokers to remove "
        }
      },
      "renounceOwnership()": {
        "details": "Leaves the contract without owner. It will not be possible to call `onlyOwner` functions anymore. Can only be called by the current owner. NOTE: Renouncing ownership will leave the contract without an owner, thereby removing any functionality that is only available to the owner."
      },
      "renounceRole(bytes32,address)": {
        "details": "Revokes `role` from the calling account. Roles are often managed via {grantRole} and {revokeRole}: this function's purpose is to provide a mechanism for accounts to lose their privileges if they are compromised (such as when a trusted device is misplaced). If the calling account had been revoked `role`, emits a {RoleRevoked} event. Requirements: - the caller must be `account`."
      },
      "revokeRole(bytes32,address)": {
        "details": "Revokes `role` from `account`. If `account` had been granted `role`, emits a {RoleRevoked} event. Requirements: - the caller must have ``role``'s admin role."
      },
      "supportsInterface(bytes4)": {
        "details": "See {IERC165-supportsInterface}."
      },
      "transferOwnership(address)": {
        "details": "Transfers ownership of the contract to a new account (`newOwner`). Can only be called by the current owner."
      },
      "updateDrfReward(address[],uint256[],uint256[])": {
        "params": {
          "brokers": "The brokers to update drf reward",
          "drfAmounts": "The drf amounts",
          "gasFeeAmounts": "The gas fee amounts"
        }
      },
      "updateParams(address,address,address,address,uint256,uint256)": {
        "details": "Only called by owner"
      }
    },
    "stateVariables": {
      "CONTRACT_DECIMAL": {
        "details": "The contract decimals"
      },
      "EXCHANGE_ROLE": {
        "details": "Create a new role identifier for the exchange role"
      },
      "PAUSER_ROLE": {
        "details": "Create a new role identifier for the pauser role"
      },
      "REWARD_EXECUTE_ROLE": {
        "details": "Create a new role identifier for the reward execute role"
      },
      "TOKEN_DECIMAL_DIFF": {
        "details": "The token contract decimals diff with contract decimals"
      },
      "allBrokers": {
        "details": "all brokers"
      },
      "brokerInfos": {
        "details": "info of brokers"
      },
      "communityVestingVault": {
        "details": "the CommunityVestingVault contract address "
      },
      "exchange": {
        "details": "the DerifyExchange contract address "
      },
      "tokenDRF": {
        "details": "the token DRF contract address "
      },
      "tokenEDRF": {
        "details": "the token eDRF contract address "
      },
      "tokenUSD": {
        "details": "the token USDT contract address "
      }
    },
    "title": "DerifyBroker - Derify broker moudle.",
    "version": 1
  },
  "userdoc": {
    "events": {
      "BrokerQualificationUpdate(uint8,address,uint256,uint256,uint256)": {
        "notice": "Emitted when broker qulification updates"
      },
      "ContractParamsUpdate(address,address,address,address,uint256,uint256)": {
        "notice": "Emitted when params of contract updates"
      },
      "DrfRewardBalanceUpdate(uint8,address,int256,uint256,uint256,uint256)": {
        "notice": "Emitted when broker DRF reward balance updates"
      },
      "DrfRewardPoolUpdate(uint8,int256,uint256,uint256)": {
        "notice": "Emitted when DRF reward pool updates"
      },
      "UsdRewardBalanceUpdate(uint8,address,address,int256,int256,int256,uint256)": {
        "notice": "Emitted when broker USD reward balance updates"
      },
      "UsdRewardPoolUpdate(uint8,int256,uint256,uint256)": {
        "notice": "Emitted when USD reward pool updates"
      }
    },
    "kind": "user",
    "methods": {
      "addBrokerReward(address,address,uint256)": {
        "notice": "Add broker reward by trader's trading fee"
      },
      "applyBroker()": {
        "notice": "Apply to be broker"
      },
      "brokerApplyNumber()": {
        "notice": "Get brokerApplyNumber, the eDRF number to apply broker "
      },
      "brokerValidUnitNumber()": {
        "notice": "Get brokerValidUnitNumber, the eDRF number to extend valid period of broker in day"
      },
      "burnEdrfExtendValidPeriod(uint256)": {
        "notice": "Extend valid period of broker to burn edrf"
      },
      "claimDrfReward()": {
        "notice": "Claim broker DRF reward from CommunityVestingVault"
      },
      "drfRewardPool()": {
        "notice": "Get drfRewardPool value"
      },
      "getAllBrokers()": {
        "notice": "Get all brokers"
      },
      "getBrokerInfo(address)": {
        "notice": "Get broker info of a broker"
      },
      "initialBrokersForUpgrade(address[],uint256[],uint256[])": {
        "notice": "Initial brokers by last version of contract for upgrade"
      },
      "pause()": {
        "notice": "Pause key actions for emergency"
      },
      "removeBrokers(address[])": {
        "notice": "Remove bad brokers"
      },
      "unpause()": {
        "notice": "Unpause key actions"
      },
      "updateDrfReward(address[],uint256[],uint256[])": {
        "notice": "Update broker DRF reward"
      },
      "updateParams(address,address,address,address,uint256,uint256)": {
        "notice": "Update params of contract"
      },
      "usdRewardPool()": {
        "notice": "Get usdRewardPool value"
      },
      "withdrawBrokerReward()": {
        "notice": "Withdraw reward of broker"
      }
    },
    "version": 1
  }
}