{
  "contractName": "DRF",
  "abi": [
    {
      "inputs": [
        {
          "internalType": "address",
          "name": "founderTeamAccount",
          "type": "address"
        },
        {
          "internalType": "address",
          "name": "peInvestorsAccount",
          "type": "address"
        },
        {
          "internalType": "address",
          "name": "publicSaleAccount",
          "type": "address"
        },
        {
          "internalType": "address",
          "name": "strategicReserveAccount",
          "type": "address"
        },
        {
          "internalType": "address",
          "name": "communityFundAccount",
          "type": "address"
        }
      ],
      "stateMutability": "nonpayable",
      "type": "constructor"
    },
    {
      "anonymous": false,
      "inputs": [
        {
          "indexed": true,
          "internalType": "address",
          "name": "owner",
          "type": "address"
        },
        {
          "indexed": true,
          "internalType": "address",
          "name": "spender",
          "type": "address"
        },
        {
          "indexed": false,
          "internalType": "uint256",
          "name": "value",
          "type": "uint256"
        }
      ],
      "name": "Approval",
      "type": "event"
    },
    {
      "anonymous": false,
      "inputs": [
        {
          "indexed": true,
          "internalType": "address",
          "name": "from",
          "type": "address"
        },
        {
          "indexed": true,
          "internalType": "address",
          "name": "to",
          "type": "address"
        },
        {
          "indexed": false,
          "internalType": "uint256",
          "name": "value",
          "type": "uint256"
        }
      ],
      "name": "Transfer",
      "type": "event"
    },
    {
      "inputs": [],
      "name": "name",
      "outputs": [
        {
          "internalType": "string",
          "name": "",
          "type": "string"
        }
      ],
      "stateMutability": "view",
      "type": "function"
    },
    {
      "inputs": [],
      "name": "symbol",
      "outputs": [
        {
          "internalType": "string",
          "name": "",
          "type": "string"
        }
      ],
      "stateMutability": "view",
      "type": "function"
    },
    {
      "inputs": [],
      "name": "decimals",
      "outputs": [
        {
          "internalType": "uint8",
          "name": "",
          "type": "uint8"
        }
      ],
      "stateMutability": "view",
      "type": "function"
    },
    {
      "inputs": [],
      "name": "version",
      "outputs": [
        {
          "internalType": "string",
          "name": "",
          "type": "string"
        }
      ],
      "stateMutability": "view",
      "type": "function"
    },
    {
      "inputs": [],
      "name": "totalSupply",
      "outputs": [
        {
          "internalType": "uint256",
          "name": "",
          "type": "uint256"
        }
      ],
      "stateMutability": "view",
      "type": "function"
    },
    {
      "inputs": [
        {
          "internalType": "address",
          "name": "account",
          "type": "address"
        }
      ],
      "name": "balanceOf",
      "outputs": [
        {
          "internalType": "uint256",
          "name": "",
          "type": "uint256"
        }
      ],
      "stateMutability": "view",
      "type": "function"
    },
    {
      "inputs": [
        {
          "internalType": "address",
          "name": "owner",
          "type": "address"
        },
        {
          "internalType": "address",
          "name": "spender",
          "type": "address"
        }
      ],
      "name": "allowance",
      "outputs": [
        {
          "internalType": "uint256",
          "name": "",
          "type": "uint256"
        }
      ],
      "stateMutability": "view",
      "type": "function"
    },
    {
      "inputs": [
        {
          "internalType": "address",
          "name": "spender",
          "type": "address"
        },
        {
          "internalType": "uint256",
          "name": "amount",
          "type": "uint256"
        }
      ],
      "name": "approve",
      "outputs": [
        {
          "internalType": "bool",
          "name": "",
          "type": "bool"
        }
      ],
      "stateMutability": "nonpayable",
      "type": "function"
    },
    {
      "inputs": [
        {
          "internalType": "address",
          "name": "spender",
          "type": "address"
        },
        {
          "internalType": "uint256",
          "name": "addedValue",
          "type": "uint256"
        }
      ],
      "name": "increaseAllowance",
      "outputs": [
        {
          "internalType": "bool",
          "name": "",
          "type": "bool"
        }
      ],
      "stateMutability": "nonpayable",
      "type": "function"
    },
    {
      "inputs": [
        {
          "internalType": "address",
          "name": "spender",
          "type": "address"
        },
        {
          "internalType": "uint256",
          "name": "subtractedValue",
          "type": "uint256"
        }
      ],
      "name": "decreaseAllowance",
      "outputs": [
        {
          "internalType": "bool",
          "name": "",
          "type": "bool"
        }
      ],
      "stateMutability": "nonpayable",
      "type": "function"
    },
    {
      "inputs": [
        {
          "internalType": "address",
          "name": "to",
          "type": "address"
        },
        {
          "internalType": "uint256",
          "name": "amount",
          "type": "uint256"
        }
      ],
      "name": "transfer",
      "outputs": [
        {
          "internalType": "bool",
          "name": "",
          "type": "bool"
        }
      ],
      "stateMutability": "nonpayable",
      "type": "function"
    },
    {
      "inputs": [
        {
          "internalType": "address",
          "name": "from",
          "type": "address"
        },
        {
          "internalType": "address",
          "name": "to",
          "type": "address"
        },
        {
          "internalType": "uint256",
          "name": "amount",
          "type": "uint256"
        }
      ],
      "name": "transferFrom",
      "outputs": [
        {
          "internalType": "bool",
          "name": "",
          "type": "bool"
        }
      ],
      "stateMutability": "nonpayable",
      "type": "function"
    }
  ],
  "bytecode": "0x60806040526a52b7d2dcc80cd2e40000006000553480156200002057600080fd5b5060405162000bf338038062000bf38339810160408190526200004391620002ac565b6064600054600f6200005691906200033c565b6200006291906200031b565b6001600160a01b038616600090815260016020526040812091909155546064906200008f90600f6200033c565b6200009b91906200031b565b6001600160a01b03851660009081526001602052604081209190915554606490620000c89060056200033c565b620000d491906200031b565b6001600160a01b03841660009081526001602052604081209190915554606490620001019060056200033c565b6200010d91906200031b565b6001600160a01b038316600090815260016020526040812091909155546064906200013a90603c6200033c565b6200014691906200031b565b6001600160a01b0380831660009081526001602052604080822093909355908716808252828220549251909260008051602062000bd3833981519152916200019091815260200190565b60405180910390a36001600160a01b038416600081815260016020908152604080832054905190815260008051602062000bd3833981519152910160405180910390a36001600160a01b038316600081815260016020908152604080832054905190815260008051602062000bd3833981519152910160405180910390a36001600160a01b038216600081815260016020908152604080832054905190815260008051602062000bd3833981519152910160405180910390a36001600160a01b038116600081815260016020908152604080832054905190815260008051602062000bd3833981519152910160405180910390a3505050505062000368565b80516001600160a01b0381168114620002a757600080fd5b919050565b600080600080600060a08688031215620002c4578081fd5b620002cf866200028f565b9450620002df602087016200028f565b9350620002ef604087016200028f565b9250620002ff606087016200028f565b91506200030f608087016200028f565b90509295509295909350565b6000826200033757634e487b7160e01b81526012600452602481fd5b500490565b60008160001904831182151516156200036357634e487b7160e01b81526011600452602481fd5b500290565b61085b80620003786000396000f3fe608060405234801561001057600080fd5b50600436106100b45760003560e01c806354fd4d501161007157806354fd4d501461016657806370a082311461018557806395d89b41146101ae578063a457c2d7146101cd578063a9059cbb146101e0578063dd62ed3e146101f357600080fd5b806306fdde03146100b9578063095ea7b3146100fc57806318160ddd1461011f57806323b872dd14610131578063313ce567146101445780633950935114610153575b600080fd5b6040805180820190915260158152742232b934b33c90283937ba37b1b7b6102a37b5b2b760591b60208201525b6040516100f391906107ae565b60405180910390f35b61010f61010a366004610785565b610206565b60405190151581526020016100f3565b6000545b6040519081526020016100f3565b61010f61013f36600461074a565b61021e565b604051601281526020016100f3565b61010f610161366004610785565b610242565b6040805180820190915260038152620312e360ec1b60208201526100e6565b6101236101933660046106f7565b6001600160a01b031660009081526001602052604090205490565b60408051808201909152600381526222292360e91b60208201526100e6565b61010f6101db366004610785565b610264565b61010f6101ee366004610785565b6102f5565b610123610201366004610718565b610303565b60003361021481858561032e565b5060019392505050565b60003361022c858285610463565b6102378585856104f2565b506001949350505050565b6000336102148185856102558383610303565b61025f9190610801565b61032e565b600033816102728286610303565b9050838110156102e85760405162461bcd60e51b815260206004820152603660248201527f4452463a3a6465637265617365416c6c6f77616e63653a2064656372656173656044820152756420616c6c6f77616e63652062656c6f77207a65726f60501b60648201526084015b60405180910390fd5b610237828686840361032e565b6000336102148185856104f2565b6001600160a01b03918216600090815260026020908152604080832093909416825291909152205490565b6001600160a01b0383166103995760405162461bcd60e51b815260206004820152602c60248201527f4452463a3a5f617070726f76653a20617070726f76652066726f6d207468652060448201526b7a65726f206164647265737360a01b60648201526084016102df565b6001600160a01b0382166104025760405162461bcd60e51b815260206004820152602a60248201527f4452463a3a5f617070726f76653a20617070726f766520746f20746865207a65604482015269726f206164647265737360b01b60648201526084016102df565b6001600160a01b0383811660008181526002602090815260408083209487168084529482529182902085905590518481527f8c5be1e5ebec7d5bd14f71427d1e84f3dd0314c0f7b2291e5b200ac8c7c3b925910160405180910390a3505050565b600061046f8484610303565b905060001981146104ec57818110156104df5760405162461bcd60e51b815260206004820152602c60248201527f4452463a3a5f7370656e64416c6c6f77616e63653a20696e737566666963696560448201526b6e7420616c6c6f77616e636560a01b60648201526084016102df565b6104ec848484840361032e565b50505050565b6001600160a01b03831661055f5760405162461bcd60e51b815260206004820152602e60248201527f4452463a3a5f7472616e736665723a207472616e736665722066726f6d20746860448201526d65207a65726f206164647265737360901b60648201526084016102df565b6001600160a01b0382166105ca5760405162461bcd60e51b815260206004820152602c60248201527f4452463a3a5f7472616e736665723a207472616e7366657220746f207468652060448201526b7a65726f206164647265737360a01b60648201526084016102df565b6001600160a01b0383166000908152600160205260409020548181101561064b5760405162461bcd60e51b815260206004820152602f60248201527f4452463a3a5f7472616e736665723a207472616e7366657220616d6f756e742060448201526e657863656564732062616c616e636560881b60648201526084016102df565b6001600160a01b03808516600090815260016020526040808220858503905591851681529081208054849290610682908490610801565b92505081905550826001600160a01b0316846001600160a01b03167fddf252ad1be2c89b69c2b068fc378daa952ba7f163c4a11628f55a4df523b3ef846040516106ce91815260200190565b60405180910390a36104ec565b80356001600160a01b03811681146106f257600080fd5b919050565b600060208284031215610708578081fd5b610711826106db565b9392505050565b6000806040838503121561072a578081fd5b610733836106db565b9150610741602084016106db565b90509250929050565b60008060006060848603121561075e578081fd5b610767846106db565b9250610775602085016106db565b9150604084013590509250925092565b60008060408385031215610797578182fd5b6107a0836106db565b946020939093013593505050565b6000602080835283518082850152825b818110156107da578581018301518582016040015282016107be565b818111156107eb5783604083870101525b50601f01601f1916929092016040019392505050565b6000821982111561082057634e487b7160e01b81526011600452602481fd5b50019056fea26469706673582212205e42ce1d06c86358e9f6a2c05f8a32af58e9fadb5734eeb9397a8d0d9d503a7864736f6c63430008040033ddf252ad1be2c89b69c2b068fc378daa952ba7f163c4a11628f55a4df523b3ef",
  "immutableReferences": {},
  "source": "// SPDX-License-Identifier: GPL-3.0-or-later\r\n\r\npragma solidity ^0.8.0;\r\n\r\nimport '@openzeppelin/contracts/token/ERC20/IERC20.sol';\r\nimport '@openzeppelin/contracts/token/ERC20/extensions/IERC20Metadata.sol';\r\nimport '@openzeppelin/contracts/utils/Context.sol';\r\n\r\n/// @notice DRF Token\r\ncontract DRF is Context, IERC20, IERC20Metadata {\r\n    // --- ERC20 Data ---\r\n    string private constant _name     = \"Derify Protocol Token\";\r\n    string private constant _symbol   = \"DRF\";\r\n    string private constant _version  = \"1.0\";\r\n    uint8  private constant _decimals = 18;\r\n    uint256 private _totalSupply      = 100000000e18;  //100 million DRF\r\n\r\n    mapping (address => uint256) private _balances;\r\n    mapping (address => mapping (address => uint256)) private _allowances;\r\n\r\n    constructor(\r\n        address founderTeamAccount, \r\n        address peInvestorsAccount, \r\n        address publicSaleAccount, \r\n        address strategicReserveAccount, \r\n        address communityFundAccount\r\n    ) {\r\n        _balances[founderTeamAccount] = _totalSupply * 15 / 100;\r\n        _balances[peInvestorsAccount] = _totalSupply * 15 / 100;\r\n        _balances[publicSaleAccount] = _totalSupply * 5 / 100;\r\n        _balances[strategicReserveAccount] = _totalSupply * 5 / 100;\r\n        _balances[communityFundAccount] = _totalSupply * 60 / 100;\r\n        emit Transfer(address(0), founderTeamAccount, _balances[founderTeamAccount]);\r\n        emit Transfer(address(0), peInvestorsAccount, _balances[peInvestorsAccount]);\r\n        emit Transfer(address(0), publicSaleAccount, _balances[publicSaleAccount]);\r\n        emit Transfer(address(0), strategicReserveAccount, _balances[strategicReserveAccount]);\r\n        emit Transfer(address(0), communityFundAccount, _balances[communityFundAccount]);\r\n    }\r\n\r\n    function name() public view virtual override returns (string memory) {\r\n        return _name;\r\n    }\r\n\r\n    function symbol() public view virtual override returns (string memory) {\r\n        return _symbol;\r\n    }\r\n\r\n    function decimals() public view virtual override returns (uint8) {\r\n        return _decimals;\r\n    }\r\n\r\n    function version() public view virtual returns (string memory) {\r\n        return _version;\r\n    }\r\n\r\n    function totalSupply() public view virtual override returns (uint256) {\r\n        return _totalSupply;\r\n    }\r\n\r\n    function balanceOf(address account) public view virtual override returns (uint256) {\r\n        return _balances[account];\r\n    }\r\n\r\n    function allowance(address owner, address spender) public view virtual override returns (uint256) {\r\n        return _allowances[owner][spender];\r\n    }\r\n\r\n    function approve(address spender, uint256 amount) public virtual override returns (bool) {\r\n        address owner = _msgSender();\r\n        _approve(owner, spender, amount);\r\n        return true;\r\n    }\r\n\r\n    function increaseAllowance(address spender, uint256 addedValue) public virtual returns (bool) {\r\n        address owner = _msgSender();\r\n        _approve(owner, spender, allowance(owner, spender) + addedValue);\r\n        return true;\r\n    }\r\n\r\n    function decreaseAllowance(address spender, uint256 subtractedValue) public virtual returns (bool) {\r\n        address owner = _msgSender();\r\n        uint256 currentAllowance = allowance(owner, spender);\r\n        require(currentAllowance >= subtractedValue, \"DRF::decreaseAllowance: decreased allowance below zero\");\r\n        unchecked {\r\n            _approve(owner, spender, currentAllowance - subtractedValue);\r\n        }\r\n\r\n        return true;\r\n    }\r\n\r\n    function transfer(address to, uint256 amount) public virtual override returns (bool) {\r\n        address owner = _msgSender();\r\n        _transfer(owner, to, amount);\r\n        return true;\r\n    }\r\n\r\n    function transferFrom(\r\n        address from, \r\n        address to, \r\n        uint256 amount\r\n    ) public virtual override returns (bool) {\r\n        address spender = _msgSender();\r\n        _spendAllowance(from, spender, amount);\r\n        _transfer(from, to, amount);\r\n        return true;\r\n    }\r\n\r\n    function _approve(\r\n        address owner,\r\n        address spender,\r\n        uint256 amount\r\n    ) internal virtual {\r\n        require(owner != address(0), \"DRF::_approve: approve from the zero address\");\r\n        require(spender != address(0), \"DRF::_approve: approve to the zero address\");\r\n\r\n        _allowances[owner][spender] = amount;\r\n        emit Approval(owner, spender, amount);\r\n    }\r\n\r\n    function _transfer(\r\n        address from,\r\n        address to,\r\n        uint256 amount\r\n    ) internal virtual {\r\n        require(from != address(0), \"DRF::_transfer: transfer from the zero address\");\r\n        require(to != address(0), \"DRF::_transfer: transfer to the zero address\");\r\n\r\n        _beforeTokenTransfer(from, to, amount);\r\n\r\n        uint256 fromBalance = _balances[from];\r\n        require(fromBalance >= amount, \"DRF::_transfer: transfer amount exceeds balance\");\r\n        unchecked {\r\n            _balances[from] = fromBalance - amount;\r\n        }\r\n        _balances[to] += amount;\r\n\r\n        emit Transfer(from, to, amount);\r\n\r\n        _afterTokenTransfer(from, to, amount);\r\n    }\r\n\r\n    function _spendAllowance(\r\n        address owner,\r\n        address spender,\r\n        uint256 amount\r\n    ) internal virtual {\r\n        uint256 currentAllowance = allowance(owner, spender);\r\n        if (currentAllowance != type(uint256).max) {\r\n            require(currentAllowance >= amount, \"DRF::_spendAllowance: insufficient allowance\");\r\n            unchecked {\r\n                _approve(owner, spender, currentAllowance - amount);\r\n            }\r\n        }\r\n    }\r\n\r\n    function _beforeTokenTransfer(\r\n        address from,\r\n        address to,\r\n        uint256 amount\r\n    ) internal virtual {}\r\n\r\n    function _afterTokenTransfer(\r\n        address from,\r\n        address to,\r\n        uint256 amount\r\n    ) internal virtual {}\r\n}\r\n",
  "sourcePath": "C:\\ZW_Others\\github\\Blockchain\\Derify-v1\\derify-core\\contracts\\tokens\\DRF.sol",
  "compiler": {
    "name": "solc",
    "version": "0.8.4+commit.c7e474f2.Emscripten.clang"
  },
  "schemaVersion": "3.4.8",
  "updatedAt": "2022-09-01T05:06:02.107Z",
  "devdoc": {
    "kind": "dev",
    "methods": {
      "allowance(address,address)": {
        "details": "Returns the remaining number of tokens that `spender` will be allowed to spend on behalf of `owner` through {transferFrom}. This is zero by default. This value changes when {approve} or {transferFrom} are called."
      },
      "approve(address,uint256)": {
        "details": "Sets `amount` as the allowance of `spender` over the caller's tokens. Returns a boolean value indicating whether the operation succeeded. IMPORTANT: Beware that changing an allowance with this method brings the risk that someone may use both the old and the new allowance by unfortunate transaction ordering. One possible solution to mitigate this race condition is to first reduce the spender's allowance to 0 and set the desired value afterwards: https://github.com/ethereum/EIPs/issues/20#issuecomment-263524729 Emits an {Approval} event."
      },
      "balanceOf(address)": {
        "details": "Returns the amount of tokens owned by `account`."
      },
      "decimals()": {
        "details": "Returns the decimals places of the token."
      },
      "name()": {
        "details": "Returns the name of the token."
      },
      "symbol()": {
        "details": "Returns the symbol of the token."
      },
      "totalSupply()": {
        "details": "Returns the amount of tokens in existence."
      },
      "transfer(address,uint256)": {
        "details": "Moves `amount` tokens from the caller's account to `to`. Returns a boolean value indicating whether the operation succeeded. Emits a {Transfer} event."
      },
      "transferFrom(address,address,uint256)": {
        "details": "Moves `amount` tokens from `from` to `to` using the allowance mechanism. `amount` is then deducted from the caller's allowance. Returns a boolean value indicating whether the operation succeeded. Emits a {Transfer} event."
      }
    },
    "version": 1
  },
  "userdoc": {
    "kind": "user",
    "methods": {},
    "notice": "DRF Token",
    "version": 1
  }
}