{
  "contractName": "DUSD",
  "abi": [
    {
      "inputs": [
        {
          "internalType": "address",
          "name": "account",
          "type": "address"
        },
        {
          "internalType": "address",
          "name": "minter_",
          "type": "address"
        }
      ],
      "stateMutability": "nonpayable",
      "type": "constructor"
    },
    {
      "anonymous": false,
      "inputs": [
        {
          "indexed": true,
          "internalType": "address",
          "name": "owner",
          "type": "address"
        },
        {
          "indexed": true,
          "internalType": "address",
          "name": "spender",
          "type": "address"
        },
        {
          "indexed": false,
          "internalType": "uint256",
          "name": "value",
          "type": "uint256"
        }
      ],
      "name": "Approval",
      "type": "event"
    },
    {
      "anonymous": false,
      "inputs": [
        {
          "indexed": false,
          "internalType": "address",
          "name": "minter",
          "type": "address"
        },
        {
          "indexed": false,
          "internalType": "address",
          "name": "newMinter",
          "type": "address"
        }
      ],
      "name": "MinterChanged",
      "type": "event"
    },
    {
      "anonymous": false,
      "inputs": [
        {
          "indexed": true,
          "internalType": "address",
          "name": "from",
          "type": "address"
        },
        {
          "indexed": true,
          "internalType": "address",
          "name": "to",
          "type": "address"
        },
        {
          "indexed": false,
          "internalType": "uint256",
          "name": "value",
          "type": "uint256"
        }
      ],
      "name": "Transfer",
      "type": "event"
    },
    {
      "inputs": [],
      "name": "decimals",
      "outputs": [
        {
          "internalType": "uint8",
          "name": "",
          "type": "uint8"
        }
      ],
      "stateMutability": "view",
      "type": "function"
    },
    {
      "inputs": [],
      "name": "minter",
      "outputs": [
        {
          "internalType": "address",
          "name": "",
          "type": "address"
        }
      ],
      "stateMutability": "view",
      "type": "function"
    },
    {
      "inputs": [],
      "name": "name",
      "outputs": [
        {
          "internalType": "string",
          "name": "",
          "type": "string"
        }
      ],
      "stateMutability": "view",
      "type": "function"
    },
    {
      "inputs": [],
      "name": "symbol",
      "outputs": [
        {
          "internalType": "string",
          "name": "",
          "type": "string"
        }
      ],
      "stateMutability": "view",
      "type": "function"
    },
    {
      "inputs": [],
      "name": "version",
      "outputs": [
        {
          "internalType": "string",
          "name": "",
          "type": "string"
        }
      ],
      "stateMutability": "view",
      "type": "function"
    },
    {
      "inputs": [],
      "name": "totalSupply",
      "outputs": [
        {
          "internalType": "uint256",
          "name": "",
          "type": "uint256"
        }
      ],
      "stateMutability": "view",
      "type": "function"
    },
    {
      "inputs": [
        {
          "internalType": "address",
          "name": "account",
          "type": "address"
        }
      ],
      "name": "balanceOf",
      "outputs": [
        {
          "internalType": "uint256",
          "name": "",
          "type": "uint256"
        }
      ],
      "stateMutability": "view",
      "type": "function"
    },
    {
      "inputs": [
        {
          "internalType": "address",
          "name": "owner",
          "type": "address"
        },
        {
          "internalType": "address",
          "name": "spender",
          "type": "address"
        }
      ],
      "name": "allowance",
      "outputs": [
        {
          "internalType": "uint256",
          "name": "",
          "type": "uint256"
        }
      ],
      "stateMutability": "view",
      "type": "function"
    },
    {
      "inputs": [
        {
          "internalType": "address",
          "name": "minter_",
          "type": "address"
        }
      ],
      "name": "setMinter",
      "outputs": [],
      "stateMutability": "nonpayable",
      "type": "function"
    },
    {
      "inputs": [
        {
          "internalType": "address",
          "name": "dst",
          "type": "address"
        },
        {
          "internalType": "uint256",
          "name": "amount",
          "type": "uint256"
        }
      ],
      "name": "mint",
      "outputs": [],
      "stateMutability": "nonpayable",
      "type": "function"
    },
    {
      "inputs": [
        {
          "internalType": "address",
          "name": "spender",
          "type": "address"
        },
        {
          "internalType": "uint256",
          "name": "amount",
          "type": "uint256"
        }
      ],
      "name": "approve",
      "outputs": [
        {
          "internalType": "bool",
          "name": "",
          "type": "bool"
        }
      ],
      "stateMutability": "nonpayable",
      "type": "function"
    },
    {
      "inputs": [
        {
          "internalType": "address",
          "name": "recipient",
          "type": "address"
        },
        {
          "internalType": "uint256",
          "name": "amount",
          "type": "uint256"
        }
      ],
      "name": "transfer",
      "outputs": [
        {
          "internalType": "bool",
          "name": "",
          "type": "bool"
        }
      ],
      "stateMutability": "nonpayable",
      "type": "function"
    },
    {
      "inputs": [
        {
          "internalType": "address",
          "name": "sender",
          "type": "address"
        },
        {
          "internalType": "address",
          "name": "recipient",
          "type": "address"
        },
        {
          "internalType": "uint256",
          "name": "amount",
          "type": "uint256"
        }
      ],
      "name": "transferFrom",
      "outputs": [
        {
          "internalType": "bool",
          "name": "",
          "type": "bool"
        }
      ],
      "stateMutability": "nonpayable",
      "type": "function"
    }
  ],
  "bytecode": "0x60806040526b033b2e3c9fd0803ce800000060005534801561002057600080fd5b50604051610b82380380610b8283398101604081905261003f91610113565b600080546001600160a01b03841680835260016020526040808420839055519092917fddf252ad1be2c89b69c2b068fc378daa952ba7f163c4a11628f55a4df523b3ef9161008f91815260200190565b60405180910390a3600480546001600160a01b0319166001600160a01b038316908117909155604080516000815260208101929092527f3b0007eb941cf645526cbb3a4fdaecda9d28ce4843167d9263b536a1f1edc0f6910160405180910390a15050610145565b80516001600160a01b038116811461010e57600080fd5b919050565b60008060408385031215610125578182fd5b61012e836100f7565b915061013c602084016100f7565b90509250929050565b610a2e806101546000396000f3fe608060405234801561001057600080fd5b50600436106100cf5760003560e01c806340c10f191161008c57806395d89b411161006657806395d89b4114610201578063a9059cbb14610224578063dd62ed3e14610237578063fca3b5aa1461027057600080fd5b806340c10f19146101a157806354fd4d50146101b657806370a08231146101d857600080fd5b806306fdde03146100d45780630754617214610114578063095ea7b31461013f57806318160ddd1461016257806323b872dd14610174578063313ce56714610187575b600080fd5b6100fe6040518060400160405280600b81526020016a11195c9a599e48109554d160aa1b81525081565b60405161010b9190610960565b60405180910390f35b600454610127906001600160a01b031681565b6040516001600160a01b03909116815260200161010b565b61015261014d366004610937565b610283565b604051901515815260200161010b565b6000545b60405190815260200161010b565b6101526101823660046108fc565b6102f0565b61018f601281565b60405160ff909116815260200161010b565b6101b46101af366004610937565b61051a565b005b6100fe604051806040016040528060038152602001620312e360ec1b81525081565b6101666101e63660046108a9565b6001600160a01b031660009081526001602052604090205490565b6100fe60405180604001604052806004815260200163109554d160e21b81525081565b610152610232366004610937565b61067c565b6101666102453660046108ca565b6001600160a01b03918216600090815260026020908152604080832093909416825291909152205490565b6101b461027e3660046108a9565b61076e565b3360008181526002602090815260408083206001600160a01b038716808552925280832085905551919290917f8c5be1e5ebec7d5bd14f71427d1e84f3dd0314c0f7b2291e5b200ac8c7c3b925906102de9086815260200190565b60405180910390a35060015b92915050565b6001600160a01b0383166000908152600160205260408120548211156103595760405162461bcd60e51b8152602060048201526019602482015278445553442f696e73756666696369656e742d62616c616e636560381b60448201526064015b60405180910390fd5b6001600160a01b038416331480159061039757506001600160a01b038416600090815260026020908152604080832033845290915290205460001914155b15610462576001600160a01b038416600090815260026020908152604080832033845290915290205482111561040f5760405162461bcd60e51b815260206004820152601b60248201527f445553442f696e73756666696369656e742d616c6c6f77616e636500000000006044820152606401610350565b6001600160a01b038416600090815260026020908152604080832033845290915290205461043d9083610857565b6001600160a01b03851660009081526002602090815260408083203384529091529020555b6001600160a01b0384166000908152600160205260409020546104859083610857565b6001600160a01b0380861660009081526001602052604080822093909355908516815220546104b49083610872565b6001600160a01b0380851660008181526001602052604090819020939093559151908616907fddf252ad1be2c89b69c2b068fc378daa952ba7f163c4a11628f55a4df523b3ef906105089086815260200190565b60405180910390a35060019392505050565b6004546001600160a01b031633146105805760405162461bcd60e51b8152602060048201526024808201527f445553443a3a6d696e743a206f6e6c7920746865206d696e7465722063616e206044820152631b5a5b9d60e21b6064820152608401610350565b6001600160a01b0382166105ee5760405162461bcd60e51b815260206004820152602f60248201527f445553443a3a6d696e743a2063616e6e6f74207472616e7366657220746f207460448201526e6865207a65726f206164647265737360881b6064820152608401610350565b6105fa60005482610872565b60009081556001600160a01b03831681526001602052604090205461061f9082610872565b6001600160a01b0383166000818152600160205260408082209390935591519091907fddf252ad1be2c89b69c2b068fc378daa952ba7f163c4a11628f55a4df523b3ef906106709085815260200190565b60405180910390a35050565b336000908152600160205260408120548211156106d75760405162461bcd60e51b8152602060048201526019602482015278445553442f696e73756666696369656e742d62616c616e636560381b6044820152606401610350565b336000908152600160205260409020546106f19083610857565b33600090815260016020526040808220929092556001600160a01b0385168152205461071d9083610872565b6001600160a01b0384166000818152600160205260409081902092909255905133907fddf252ad1be2c89b69c2b068fc378daa952ba7f163c4a11628f55a4df523b3ef906102de9086815260200190565b6004546001600160a01b031633146107ee5760405162461bcd60e51b815260206004820152603e60248201527f445553443a3a7365744d696e7465723a206f6e6c7920746865206d696e74657260448201527f2063616e206368616e676520746865206d696e746572206164647265737300006064820152608401610350565b600454604080516001600160a01b03928316815291831660208301527f3b0007eb941cf645526cbb3a4fdaecda9d28ce4843167d9263b536a1f1edc0f6910160405180910390a1600480546001600160a01b0319166001600160a01b0392909216919091179055565b60008261086483826109cb565b91508111156102ea57600080fd5b60008261087f83826109b3565b91508110156102ea57600080fd5b80356001600160a01b03811681146108a457600080fd5b919050565b6000602082840312156108ba578081fd5b6108c38261088d565b9392505050565b600080604083850312156108dc578081fd5b6108e58361088d565b91506108f36020840161088d565b90509250929050565b600080600060608486031215610910578081fd5b6109198461088d565b92506109276020850161088d565b9150604084013590509250925092565b60008060408385031215610949578182fd5b6109528361088d565b946020939093013593505050565b6000602080835283518082850152825b8181101561098c57858101830151858201604001528201610970565b8181111561099d5783604083870101525b50601f01601f1916929092016040019392505050565b600082198211156109c6576109c66109e2565b500190565b6000828210156109dd576109dd6109e2565b500390565b634e487b7160e01b600052601160045260246000fdfea26469706673582212201dff940b78f050e4977fc4edaa31edf704f63ce39d0e3294ccf6e4f53f1bc8bf64736f6c63430008040033",
  "immutableReferences": {},
  "source": "// SPDX-License-Identifier: GPL-3.0-or-later\r\npragma solidity 0.8.4;\r\n\r\n/// @notice DUSD Token used for testnet\r\ncontract DUSD {\r\n    // --- Math ---\r\n    function add(uint x, uint y) internal pure returns (uint z) {\r\n        require((z = x + y) >= x);\r\n    }\r\n    function sub(uint x, uint y) internal pure returns (uint z) {\r\n        require((z = x - y) <= x);\r\n    }\r\n\r\n    // --- ERC20 Data ---\r\n    string public constant name     = \"Derify BUSD\";\r\n    string public constant symbol   = \"BUSD\";\r\n    string public constant version  = \"1.0\";\r\n    uint8  public constant decimals = 18;\r\n\r\n    uint256 _totalSupply      = 1000000000e18;  //1 billion USDT\r\n    mapping (address => uint256)                   _balances;\r\n    mapping (address => mapping (address => uint)) _allowances;\r\n    mapping (address => uint256)                   _nonces;\r\n\r\n    /// @notice Address which may mint new tokens\r\n    address public minter;\r\n\r\n    event Transfer(address indexed from, address indexed to, uint256 value);\r\n    event Approval(address indexed owner, address indexed spender, uint256 value);\r\n    event MinterChanged(address minter, address newMinter);\r\n\r\n    constructor(address account, address minter_) {\r\n        _balances[account] = _totalSupply;\r\n        emit Transfer(address(0), account, _totalSupply);\r\n        minter = minter_;\r\n        emit MinterChanged(address(0), minter);\r\n    }\r\n\r\n    function totalSupply() external view returns (uint256) {\r\n        return _totalSupply;\r\n    }\r\n\r\n    function balanceOf(address account) external view returns (uint256) {\r\n        return _balances[account];\r\n    }\r\n\r\n    function allowance(address owner, address spender) external view returns (uint256) {\r\n        return _allowances[owner][spender];\r\n    }\r\n\r\n    function setMinter(address minter_) external {\r\n        require(msg.sender == minter, \"DUSD::setMinter: only the minter can change the minter address\");\r\n        emit MinterChanged(minter, minter_);\r\n        minter = minter_;\r\n    }\r\n\r\n    function mint(address dst, uint amount) external {\r\n        require(msg.sender == minter, \"DUSD::mint: only the minter can mint\");\r\n        require(dst != address(0), \"DUSD::mint: cannot transfer to the zero address\");\r\n\r\n        // mint the amount\r\n        _totalSupply = add(_totalSupply, amount);\r\n\r\n        // transfer the amount to the recipient\r\n        _balances[dst] = add(_balances[dst], amount);\r\n        emit Transfer(address(0), dst, amount);\r\n    }\r\n\r\n    function approve(address spender, uint256 amount) external returns (bool) {\r\n        _allowances[msg.sender][spender] = amount;\r\n        emit Approval(msg.sender, spender, amount);\r\n        return true;\r\n    }\r\n\r\n    function transfer(address recipient, uint256 amount) external returns (bool) {\r\n        require(_balances[msg.sender] >= amount, \"DUSD/insufficient-balance\");\r\n        _balances[msg.sender] = sub(_balances[msg.sender], amount);\r\n        _balances[recipient] = add(_balances[recipient], amount);\r\n        emit Transfer(msg.sender, recipient, amount);\r\n        return true;\r\n    }\r\n\r\n    function transferFrom(address sender, address recipient, uint256 amount) external returns (bool) {\r\n        require(_balances[sender] >= amount, \"DUSD/insufficient-balance\");\r\n        if (sender != msg.sender && _allowances[sender][msg.sender] != type(uint).max) {\r\n            require(_allowances[sender][msg.sender] >= amount, \"DUSD/insufficient-allowance\");\r\n            _allowances[sender][msg.sender] = sub(_allowances[sender][msg.sender], amount);\r\n        }\r\n        _balances[sender] = sub(_balances[sender], amount);\r\n        _balances[recipient] = add(_balances[recipient], amount);\r\n        emit Transfer(sender, recipient, amount);\r\n        return true;\r\n    }\r\n}\r\n",
  "sourcePath": "C:\\ZW_Others\\github\\Blockchain\\Derify-v1\\derify-core\\contracts\\tokens\\DUSD.sol",
  "compiler": {
    "name": "solc",
    "version": "0.8.4+commit.c7e474f2.Emscripten.clang"
  },
  "schemaVersion": "3.4.8",
  "updatedAt": "2022-09-01T05:06:02.120Z",
  "devdoc": {
    "kind": "dev",
    "methods": {},
    "version": 1
  },
  "userdoc": {
    "kind": "user",
    "methods": {
      "minter()": {
        "notice": "Address which may mint new tokens"
      }
    },
    "notice": "DUSD Token used for testnet",
    "version": 1
  }
}