{
  "contractName": "eDRF",
  "abi": [
    {
      "inputs": [
        {
          "internalType": "address",
          "name": "minter",
          "type": "address"
        }
      ],
      "stateMutability": "nonpayable",
      "type": "constructor"
    },
    {
      "anonymous": false,
      "inputs": [
        {
          "indexed": true,
          "internalType": "address",
          "name": "owner",
          "type": "address"
        },
        {
          "indexed": true,
          "internalType": "address",
          "name": "spender",
          "type": "address"
        },
        {
          "indexed": false,
          "internalType": "uint256",
          "name": "value",
          "type": "uint256"
        }
      ],
      "name": "Approval",
      "type": "event"
    },
    {
      "anonymous": false,
      "inputs": [
        {
          "indexed": false,
          "internalType": "address",
          "name": "minter",
          "type": "address"
        },
        {
          "indexed": false,
          "internalType": "address",
          "name": "newMinter",
          "type": "address"
        }
      ],
      "name": "MinterChanged",
      "type": "event"
    },
    {
      "anonymous": false,
      "inputs": [
        {
          "indexed": true,
          "internalType": "address",
          "name": "previousOwner",
          "type": "address"
        },
        {
          "indexed": true,
          "internalType": "address",
          "name": "newOwner",
          "type": "address"
        }
      ],
      "name": "OwnershipTransferred",
      "type": "event"
    },
    {
      "anonymous": false,
      "inputs": [
        {
          "indexed": false,
          "internalType": "address",
          "name": "account",
          "type": "address"
        }
      ],
      "name": "Paused",
      "type": "event"
    },
    {
      "anonymous": false,
      "inputs": [
        {
          "indexed": true,
          "internalType": "address",
          "name": "from",
          "type": "address"
        },
        {
          "indexed": true,
          "internalType": "address",
          "name": "to",
          "type": "address"
        },
        {
          "indexed": false,
          "internalType": "uint256",
          "name": "value",
          "type": "uint256"
        }
      ],
      "name": "Transfer",
      "type": "event"
    },
    {
      "anonymous": false,
      "inputs": [
        {
          "indexed": false,
          "internalType": "address",
          "name": "account",
          "type": "address"
        }
      ],
      "name": "Unpaused",
      "type": "event"
    },
    {
      "inputs": [],
      "name": "_minter",
      "outputs": [
        {
          "internalType": "address",
          "name": "",
          "type": "address"
        }
      ],
      "stateMutability": "view",
      "type": "function"
    },
    {
      "inputs": [],
      "name": "owner",
      "outputs": [
        {
          "internalType": "address",
          "name": "",
          "type": "address"
        }
      ],
      "stateMutability": "view",
      "type": "function"
    },
    {
      "inputs": [],
      "name": "paused",
      "outputs": [
        {
          "internalType": "bool",
          "name": "",
          "type": "bool"
        }
      ],
      "stateMutability": "view",
      "type": "function"
    },
    {
      "inputs": [],
      "name": "renounceOwnership",
      "outputs": [],
      "stateMutability": "nonpayable",
      "type": "function"
    },
    {
      "inputs": [
        {
          "internalType": "address",
          "name": "newOwner",
          "type": "address"
        }
      ],
      "name": "transferOwnership",
      "outputs": [],
      "stateMutability": "nonpayable",
      "type": "function"
    },
    {
      "inputs": [],
      "name": "name",
      "outputs": [
        {
          "internalType": "string",
          "name": "",
          "type": "string"
        }
      ],
      "stateMutability": "view",
      "type": "function"
    },
    {
      "inputs": [],
      "name": "symbol",
      "outputs": [
        {
          "internalType": "string",
          "name": "",
          "type": "string"
        }
      ],
      "stateMutability": "view",
      "type": "function"
    },
    {
      "inputs": [],
      "name": "decimals",
      "outputs": [
        {
          "internalType": "uint8",
          "name": "",
          "type": "uint8"
        }
      ],
      "stateMutability": "view",
      "type": "function"
    },
    {
      "inputs": [],
      "name": "version",
      "outputs": [
        {
          "internalType": "string",
          "name": "",
          "type": "string"
        }
      ],
      "stateMutability": "view",
      "type": "function"
    },
    {
      "inputs": [],
      "name": "totalSupply",
      "outputs": [
        {
          "internalType": "uint256",
          "name": "",
          "type": "uint256"
        }
      ],
      "stateMutability": "view",
      "type": "function"
    },
    {
      "inputs": [
        {
          "internalType": "address",
          "name": "account",
          "type": "address"
        }
      ],
      "name": "balanceOf",
      "outputs": [
        {
          "internalType": "uint256",
          "name": "",
          "type": "uint256"
        }
      ],
      "stateMutability": "view",
      "type": "function"
    },
    {
      "inputs": [
        {
          "internalType": "address",
          "name": "owner",
          "type": "address"
        },
        {
          "internalType": "address",
          "name": "spender",
          "type": "address"
        }
      ],
      "name": "allowance",
      "outputs": [
        {
          "internalType": "uint256",
          "name": "",
          "type": "uint256"
        }
      ],
      "stateMutability": "view",
      "type": "function"
    },
    {
      "inputs": [],
      "name": "pause",
      "outputs": [],
      "stateMutability": "nonpayable",
      "type": "function"
    },
    {
      "inputs": [],
      "name": "unpause",
      "outputs": [],
      "stateMutability": "nonpayable",
      "type": "function"
    },
    {
      "inputs": [
        {
          "internalType": "address",
          "name": "minter",
          "type": "address"
        }
      ],
      "name": "setMinter",
      "outputs": [],
      "stateMutability": "nonpayable",
      "type": "function"
    },
    {
      "inputs": [
        {
          "internalType": "address",
          "name": "dst",
          "type": "address"
        },
        {
          "internalType": "uint256",
          "name": "amount",
          "type": "uint256"
        }
      ],
      "name": "mint",
      "outputs": [],
      "stateMutability": "nonpayable",
      "type": "function"
    },
    {
      "inputs": [
        {
          "internalType": "address",
          "name": "from",
          "type": "address"
        },
        {
          "internalType": "uint256",
          "name": "amount",
          "type": "uint256"
        }
      ],
      "name": "burn",
      "outputs": [],
      "stateMutability": "nonpayable",
      "type": "function"
    },
    {
      "inputs": [
        {
          "internalType": "address",
          "name": "spender",
          "type": "address"
        },
        {
          "internalType": "uint256",
          "name": "amount",
          "type": "uint256"
        }
      ],
      "name": "approve",
      "outputs": [
        {
          "internalType": "bool",
          "name": "",
          "type": "bool"
        }
      ],
      "stateMutability": "nonpayable",
      "type": "function"
    },
    {
      "inputs": [
        {
          "internalType": "address",
          "name": "spender",
          "type": "address"
        },
        {
          "internalType": "uint256",
          "name": "addedValue",
          "type": "uint256"
        }
      ],
      "name": "increaseAllowance",
      "outputs": [
        {
          "internalType": "bool",
          "name": "",
          "type": "bool"
        }
      ],
      "stateMutability": "nonpayable",
      "type": "function"
    },
    {
      "inputs": [
        {
          "internalType": "address",
          "name": "spender",
          "type": "address"
        },
        {
          "internalType": "uint256",
          "name": "subtractedValue",
          "type": "uint256"
        }
      ],
      "name": "decreaseAllowance",
      "outputs": [
        {
          "internalType": "bool",
          "name": "",
          "type": "bool"
        }
      ],
      "stateMutability": "nonpayable",
      "type": "function"
    },
    {
      "inputs": [
        {
          "internalType": "address",
          "name": "to",
          "type": "address"
        },
        {
          "internalType": "uint256",
          "name": "amount",
          "type": "uint256"
        }
      ],
      "name": "transfer",
      "outputs": [
        {
          "internalType": "bool",
          "name": "",
          "type": "bool"
        }
      ],
      "stateMutability": "nonpayable",
      "type": "function"
    },
    {
      "inputs": [
        {
          "internalType": "address",
          "name": "from",
          "type": "address"
        },
        {
          "internalType": "address",
          "name": "to",
          "type": "address"
        },
        {
          "internalType": "uint256",
          "name": "amount",
          "type": "uint256"
        }
      ],
      "name": "transferFrom",
      "outputs": [
        {
          "internalType": "bool",
          "name": "",
          "type": "bool"
        }
      ],
      "stateMutability": "nonpayable",
      "type": "function"
    }
  ],
  "bytecode": "0x608060405234801561001057600080fd5b5060405161121338038061121383398101604081905261002f916100f3565b610038336100a3565b6000805460ff60a01b19168155600180546001600160a01b0319166001600160a01b0384169081179091556040805192835260208301919091527f3b0007eb941cf645526cbb3a4fdaecda9d28ce4843167d9263b536a1f1edc0f6910160405180910390a150610121565b600080546001600160a01b038381166001600160a01b0319831681178455604051919092169283917f8be0079c531659141344cd1fd0a4f28419497f9722a3daafe3b4186f6b6457e09190a35050565b600060208284031215610104578081fd5b81516001600160a01b038116811461011a578182fd5b9392505050565b6110e3806101306000396000f3fe608060405234801561001057600080fd5b50600436106101425760003560e01c806370a08231116100b85780639dc29fac1161007c5780639dc29fac146102df578063a457c2d7146102f2578063a9059cbb14610305578063dd62ed3e14610318578063f2fde38b1461032b578063fca3b5aa1461033e57600080fd5b806370a0823114610275578063715018a61461029e5780638456cb59146102a65780638da5cb5b146102ae57806395d89b41146102bf57600080fd5b8063395093511161010a57806339509351146101e95780633f4ba83a146101fc57806340c10f191461020657806354fd4d5014610219578063578ec33f146102385780635c975abb1461026357600080fd5b806306fdde0314610147578063095ea7b31461019257806318160ddd146101b557806323b872dd146101c7578063313ce567146101da575b600080fd5b60408051808201909152601981527f657175697479206f66204465726966792050726f746f636f6c0000000000000060208201525b6040516101899190610fe0565b60405180910390f35b6101a56101a0366004610fb7565b610351565b6040519015158152602001610189565b6002545b604051908152602001610189565b6101a56101d5366004610f7c565b610369565b60405160128152602001610189565b6101a56101f7366004610fb7565b61038d565b6102046103af565b005b610204610214366004610fb7565b6103ec565b6040805180820190915260038152620312e360ec1b602082015261017c565b60015461024b906001600160a01b031681565b6040516001600160a01b039091168152602001610189565b600054600160a01b900460ff166101a5565b6101b9610283366004610f29565b6001600160a01b031660009081526003602052604090205490565b610204610463565b610204610497565b6000546001600160a01b031661024b565b60408051808201909152600481526332a2292360e11b602082015261017c565b6102046102ed366004610fb7565b6104c9565b6101a5610300366004610fb7565b6104ef565b6101a5610313366004610fb7565b610582565b6101b9610326366004610f4a565b610590565b610204610339366004610f29565b6105bb565b61020461034c366004610f29565b610656565b60003361035f818585610753565b5060019392505050565b60003361037785828561088a565b61038285858561091a565b506001949350505050565b60003361035f8185856103a08383610590565b6103aa9190611068565b610753565b6000546001600160a01b031633146103e25760405162461bcd60e51b81526004016103d990611033565b60405180910390fd5b6103ea610b11565b565b60015433906001600160a01b031681146104545760405162461bcd60e51b8152602060048201526024808201527f654452463a3a6d696e743a206f6e6c7920746865206d696e7465722063616e206044820152631b5a5b9d60e21b60648201526084016103d9565b61045e8383610bae565b505050565b6000546001600160a01b0316331461048d5760405162461bcd60e51b81526004016103d990611033565b6103ea6000610c99565b6000546001600160a01b031633146104c15760405162461bcd60e51b81526004016103d990611033565b6103ea610ce9565b336001600160a01b03831681146104e5576104e583828461088a565b61045e8383610d71565b600033816104fd8286610590565b9050838110156105755760405162461bcd60e51b815260206004820152603760248201527f654452463a3a6465637265617365416c6c6f77616e63653a206465637265617360448201527f656420616c6c6f77616e63652062656c6f77207a65726f00000000000000000060648201526084016103d9565b6103828286868403610753565b60003361035f81858561091a565b6001600160a01b03918216600090815260046020908152604080832093909416825291909152205490565b6000546001600160a01b031633146105e55760405162461bcd60e51b81526004016103d990611033565b6001600160a01b03811661064a5760405162461bcd60e51b815260206004820152602660248201527f4f776e61626c653a206e6577206f776e657220697320746865207a65726f206160448201526564647265737360d01b60648201526084016103d9565b61065381610c99565b50565b6000546001600160a01b031633146106805760405162461bcd60e51b81526004016103d990611033565b6001600160a01b0381166106ea5760405162461bcd60e51b815260206004820152602b60248201527f654452463a3a7365744d696e7465723a206d696e74657220617320746865207a60448201526a65726f206164647265737360a81b60648201526084016103d9565b600154604080516001600160a01b03928316815291831660208301527f3b0007eb941cf645526cbb3a4fdaecda9d28ce4843167d9263b536a1f1edc0f6910160405180910390a1600180546001600160a01b0319166001600160a01b0392909216919091179055565b6001600160a01b0383166107bf5760405162461bcd60e51b815260206004820152602d60248201527f654452463a3a5f617070726f76653a20617070726f76652066726f6d2074686560448201526c207a65726f206164647265737360981b60648201526084016103d9565b6001600160a01b0382166108295760405162461bcd60e51b815260206004820152602b60248201527f654452463a3a5f617070726f76653a20617070726f766520746f20746865207a60448201526a65726f206164647265737360a81b60648201526084016103d9565b6001600160a01b0383811660008181526004602090815260408083209487168084529482529182902085905590518481527f8c5be1e5ebec7d5bd14f71427d1e84f3dd0314c0f7b2291e5b200ac8c7c3b925910160405180910390a3505050565b60006108968484610590565b9050600019811461091457818110156109075760405162461bcd60e51b815260206004820152602d60248201527f654452463a3a5f7370656e64416c6c6f77616e63653a20696e7375666669636960448201526c656e7420616c6c6f77616e636560981b60648201526084016103d9565b6109148484848403610753565b50505050565b6001600160a01b0383166109885760405162461bcd60e51b815260206004820152602f60248201527f654452463a3a5f7472616e736665723a207472616e736665722066726f6d207460448201526e6865207a65726f206164647265737360881b60648201526084016103d9565b6001600160a01b0382166109f45760405162461bcd60e51b815260206004820152602d60248201527f654452463a3a5f7472616e736665723a207472616e7366657220746f2074686560448201526c207a65726f206164647265737360981b60648201526084016103d9565b6109ff838383610ec0565b6001600160a01b03831660009081526003602052604090205481811015610a815760405162461bcd60e51b815260206004820152603060248201527f654452463a3a5f7472616e736665723a207472616e7366657220616d6f756e7460448201526f20657863656564732062616c616e636560801b60648201526084016103d9565b6001600160a01b03808516600090815260036020526040808220858503905591851681529081208054849290610ab8908490611068565b92505081905550826001600160a01b0316846001600160a01b03167fddf252ad1be2c89b69c2b068fc378daa952ba7f163c4a11628f55a4df523b3ef84604051610b0491815260200190565b60405180910390a3610914565b600054600160a01b900460ff16610b615760405162461bcd60e51b815260206004820152601460248201527314185d5cd8589b194e881b9bdd081c185d5cd95960621b60448201526064016103d9565b6000805460ff60a01b191690557f5db9ee0a495bf2e6ff9c91a7834c1ba4fdd244a5e8aa4e537bd38aeae4b073aa335b6040516001600160a01b03909116815260200160405180910390a1565b6001600160a01b038216610c045760405162461bcd60e51b815260206004820152601e60248201527f654452463a206d696e7420746f20746865207a65726f2061646472657373000060448201526064016103d9565b610c1060008383610ec0565b8060026000828254610c229190611068565b90915550506001600160a01b03821660009081526003602052604081208054839290610c4f908490611068565b90915550506040518181526001600160a01b038316906000907fddf252ad1be2c89b69c2b068fc378daa952ba7f163c4a11628f55a4df523b3ef9060200160405180910390a35050565b600080546001600160a01b038381166001600160a01b0319831681178455604051919092169283917f8be0079c531659141344cd1fd0a4f28419497f9722a3daafe3b4186f6b6457e09190a35050565b600054600160a01b900460ff1615610d365760405162461bcd60e51b815260206004820152601060248201526f14185d5cd8589b194e881c185d5cd95960821b60448201526064016103d9565b6000805460ff60a01b1916600160a01b1790557f62e78cea01bee320cd4e420270b5ea74000d11b0c9f74754ebdbfc544b05a258610b913390565b6001600160a01b038216610dc75760405162461bcd60e51b815260206004820181905260248201527f654452463a206275726e2066726f6d20746865207a65726f206164647265737360448201526064016103d9565b610dd382600083610ec0565b6001600160a01b03821660009081526003602052604090205481811015610e465760405162461bcd60e51b815260206004820152602160248201527f654452463a206275726e20616d6f756e7420657863656564732062616c616e636044820152606560f81b60648201526084016103d9565b6001600160a01b0383166000908152600360205260408120838303905560028054849290610e75908490611080565b90915550506040518281526000906001600160a01b038516907fddf252ad1be2c89b69c2b068fc378daa952ba7f163c4a11628f55a4df523b3ef9060200160405180910390a3505050565b600054600160a01b900460ff161561045e5760405162461bcd60e51b815260206004820152601060248201526f14185d5cd8589b194e881c185d5cd95960821b60448201526064016103d9565b80356001600160a01b0381168114610f2457600080fd5b919050565b600060208284031215610f3a578081fd5b610f4382610f0d565b9392505050565b60008060408385031215610f5c578081fd5b610f6583610f0d565b9150610f7360208401610f0d565b90509250929050565b600080600060608486031215610f90578081fd5b610f9984610f0d565b9250610fa760208501610f0d565b9150604084013590509250925092565b60008060408385031215610fc9578182fd5b610fd283610f0d565b946020939093013593505050565b6000602080835283518082850152825b8181101561100c57858101830151858201604001528201610ff0565b8181111561101d5783604083870101525b50601f01601f1916929092016040019392505050565b6020808252818101527f4f776e61626c653a2063616c6c6572206973206e6f7420746865206f776e6572604082015260600190565b6000821982111561107b5761107b611097565b500190565b60008282101561109257611092611097565b500390565b634e487b7160e01b600052601160045260246000fdfea2646970667358221220c69e4aafc7ec23cf2dc7eb680fb5d56ab7b92aa46b21b10b2f5bd420808ac86a64736f6c63430008040033",
  "immutableReferences": {},
  "source": "// SPDX-License-Identifier: GPL-3.0-or-later\r\npragma solidity 0.8.4;\r\n\r\nimport \"@openzeppelin/contracts/token/ERC20/extensions/IERC20Metadata.sol\";\r\nimport \"@openzeppelin/contracts/utils/Context.sol\";\r\nimport \"@openzeppelin/contracts/access/Ownable.sol\";\r\nimport \"@openzeppelin/contracts/security/Pausable.sol\";\r\n\r\nimport \"../interfaces/IDerifyERC20.sol\";\r\n\r\n/// @title bDRF - equity of Derify Protocol token contract.\r\ncontract eDRF is IDerifyERC20, Context, IERC20Metadata, Ownable, Pausable {\r\n    /// @inheritdoc IDerifyERC20\r\n    address public override _minter;\r\n\r\n    string private constant _name = \"equity of Derify Protocol\";\r\n    string private constant _symbol = \"eDRF\";\r\n    string private constant _version = \"1.0\";\r\n    uint8  private constant _decimals = 18;\r\n\r\n    uint256 private _totalSupply;\r\n    mapping (address => uint256) private _balances;\r\n    mapping (address => mapping (address => uint256)) private _allowances;\r\n\r\n    /// @notice Set the value for {minter}.\r\n    constructor(address minter) {\r\n        _minter = minter;\r\n        emit MinterChanged(address(0), _minter);\r\n    }\r\n\r\n    /// @notice Returns the name of the token.\r\n    function name() external view virtual override returns (string memory) {\r\n        return _name;\r\n    }\r\n\r\n    /// @notice Returns the symbol of the token.\r\n    function symbol() external view virtual override returns (string memory) {\r\n        return _symbol;\r\n    }\r\n\r\n    /// @notice Returns the number of decimals used to get its user representation.\r\n    function decimals() external view virtual override returns (uint8) {\r\n        return _decimals;\r\n    }\r\n\r\n    /// @notice Returns the version of the token.\r\n    function version() external view virtual returns (string memory) {\r\n        return _version;\r\n    }\r\n\r\n    /// @inheritdoc IERC20\r\n    function totalSupply() external view virtual override returns (uint256) {\r\n        return _totalSupply;\r\n    }\r\n\r\n    /// @inheritdoc IERC20\r\n    function balanceOf(address account) external view virtual override returns (uint256) {\r\n        return _balances[account];\r\n    }\r\n\r\n    /// @inheritdoc IERC20\r\n    function allowance(address owner, address spender) public view virtual override returns (uint256) {\r\n        return _allowances[owner][spender];\r\n    }\r\n\r\n    /// @inheritdoc IDerifyERC20\r\n    function pause() external virtual override onlyOwner {\r\n        _pause();\r\n    }\r\n\r\n    /// @inheritdoc IDerifyERC20\r\n    function unpause() external virtual override onlyOwner {\r\n        _unpause();\r\n    }\r\n\r\n    /// @inheritdoc IDerifyERC20\r\n    function setMinter(address minter) external virtual override onlyOwner {\r\n        require(minter != address(0), \"eDRF::setMinter: minter as the zero address\");\r\n        emit MinterChanged(_minter, minter);\r\n        _minter = minter;\r\n    }\r\n\r\n    /// @inheritdoc IDerifyERC20\r\n    function mint(address dst, uint256 amount) external virtual override {\r\n        address minter = _msgSender();\r\n        require(minter == _minter, \"eDRF::mint: only the minter can mint\");\r\n        _mint(dst, amount);\r\n    }\r\n\r\n    /// @inheritdoc IDerifyERC20\r\n    function burn(address from, uint256 amount) external virtual override {\r\n        address spender = _msgSender();\r\n        if (from != spender) {\r\n            _spendAllowance(from, spender, amount);\r\n        }\r\n        _burn(from, amount);\r\n    }\r\n\r\n    /// @inheritdoc IERC20\r\n    function approve(address spender, uint256 amount) external virtual override returns (bool) {\r\n        address owner = _msgSender();\r\n        _approve(owner, spender, amount);\r\n        return true;\r\n    }\r\n\r\n    /// @notice Increases the allowance granted to `spender` by the caller.\r\n    function increaseAllowance(address spender, uint256 addedValue) external virtual returns (bool) {\r\n        address owner = _msgSender();\r\n        _approve(owner, spender, allowance(owner, spender) + addedValue);\r\n        return true;\r\n    }\r\n\r\n    /// @notice Decreases the allowance granted to `spender` by the caller.\r\n    function decreaseAllowance(address spender, uint256 subtractedValue) external virtual returns (bool) {\r\n        address owner = _msgSender();\r\n        uint256 currentAllowance = allowance(owner, spender);\r\n        require(currentAllowance >= subtractedValue, \"eDRF::decreaseAllowance: decreased allowance below zero\");\r\n        unchecked {\r\n            _approve(owner, spender, currentAllowance - subtractedValue);\r\n        }\r\n\r\n        return true;\r\n    }\r\n\r\n    /// @inheritdoc IERC20\r\n    function transfer(address to, uint256 amount) external virtual override returns (bool) {\r\n        address owner = _msgSender();\r\n        _transfer(owner, to, amount);\r\n        return true;\r\n    }\r\n\r\n    /// @inheritdoc IERC20\r\n    function transferFrom(\r\n        address from, \r\n        address to, \r\n        uint256 amount\r\n    ) external virtual override returns (bool) {\r\n        address spender = _msgSender();\r\n        _spendAllowance(from, spender, amount);\r\n        _transfer(from, to, amount);\r\n        return true;\r\n    }\r\n\r\n    function _approve(\r\n        address owner,\r\n        address spender,\r\n        uint256 amount\r\n    ) internal virtual {\r\n        require(owner != address(0), \"eDRF::_approve: approve from the zero address\");\r\n        require(spender != address(0), \"eDRF::_approve: approve to the zero address\");\r\n\r\n        _allowances[owner][spender] = amount;\r\n        emit Approval(owner, spender, amount);\r\n    }\r\n\r\n    function _transfer(\r\n        address from,\r\n        address to,\r\n        uint256 amount\r\n    ) internal virtual {\r\n        require(from != address(0), \"eDRF::_transfer: transfer from the zero address\");\r\n        require(to != address(0), \"eDRF::_transfer: transfer to the zero address\");\r\n\r\n        _beforeTokenTransfer(from, to, amount);\r\n\r\n        uint256 fromBalance = _balances[from];\r\n        require(fromBalance >= amount, \"eDRF::_transfer: transfer amount exceeds balance\");\r\n        unchecked {\r\n            _balances[from] = fromBalance - amount;\r\n        }\r\n        _balances[to] += amount;\r\n\r\n        emit Transfer(from, to, amount);\r\n\r\n        _afterTokenTransfer(from, to, amount);\r\n    }\r\n\r\n    function _spendAllowance(\r\n        address owner,\r\n        address spender,\r\n        uint256 amount\r\n    ) internal virtual {\r\n        uint256 currentAllowance = allowance(owner, spender);\r\n        if (currentAllowance != type(uint256).max) {\r\n            require(currentAllowance >= amount, \"eDRF::_spendAllowance: insufficient allowance\");\r\n            unchecked {\r\n                _approve(owner, spender, currentAllowance - amount);\r\n            }\r\n        }\r\n    }\r\n\r\n    function _mint(address account, uint256 amount) internal virtual {\r\n        require(account != address(0), \"eDRF: mint to the zero address\");\r\n\r\n        _beforeTokenTransfer(address(0), account, amount);\r\n\r\n        _totalSupply += amount;\r\n        _balances[account] += amount;\r\n        emit Transfer(address(0), account, amount);\r\n\r\n        _afterTokenTransfer(address(0), account, amount);\r\n    }\r\n\r\n    function _burn(address account, uint256 amount) internal virtual {\r\n        require(account != address(0), \"eDRF: burn from the zero address\");\r\n\r\n        _beforeTokenTransfer(account, address(0), amount);\r\n\r\n        uint256 accountBalance = _balances[account];\r\n        require(accountBalance >= amount, \"eDRF: burn amount exceeds balance\");\r\n        unchecked {\r\n            _balances[account] = accountBalance - amount;\r\n        }\r\n        _totalSupply -= amount;\r\n\r\n        emit Transfer(account, address(0), amount);\r\n\r\n        _afterTokenTransfer(account, address(0), amount);\r\n    }\r\n\r\n    function _beforeTokenTransfer(\r\n        address from,\r\n        address to,\r\n        uint256 amount\r\n    ) internal virtual whenNotPaused {}\r\n\r\n    function _afterTokenTransfer(\r\n        address from,\r\n        address to,\r\n        uint256 amount\r\n    ) internal virtual {}\r\n}\r\n",
  "sourcePath": "C:\\ZW_Others\\github\\Blockchain\\Derify-v1\\derify-core\\contracts\\tokens\\eDRF.sol",
  "compiler": {
    "name": "solc",
    "version": "0.8.4+commit.c7e474f2.Emscripten.clang"
  },
  "schemaVersion": "3.4.8",
  "updatedAt": "2022-09-01T05:06:02.149Z",
  "devdoc": {
    "kind": "dev",
    "methods": {
      "allowance(address,address)": {
        "details": "Returns the remaining number of tokens that `spender` will be allowed to spend on behalf of `owner` through {transferFrom}. This is zero by default. This value changes when {approve} or {transferFrom} are called."
      },
      "approve(address,uint256)": {
        "details": "Sets `amount` as the allowance of `spender` over the caller's tokens. Returns a boolean value indicating whether the operation succeeded. IMPORTANT: Beware that changing an allowance with this method brings the risk that someone may use both the old and the new allowance by unfortunate transaction ordering. One possible solution to mitigate this race condition is to first reduce the spender's allowance to 0 and set the desired value afterwards: https://github.com/ethereum/EIPs/issues/20#issuecomment-263524729 Emits an {Approval} event."
      },
      "balanceOf(address)": {
        "details": "Returns the amount of tokens owned by `account`."
      },
      "burn(address,uint256)": {
        "params": {
          "amount": "The amount of token to burn",
          "from": "The from address"
        }
      },
      "mint(address,uint256)": {
        "params": {
          "amount": "The amount of token to mint",
          "dst": "The destination address"
        }
      },
      "owner()": {
        "details": "Returns the address of the current owner."
      },
      "paused()": {
        "details": "Returns true if the contract is paused, and false otherwise."
      },
      "renounceOwnership()": {
        "details": "Leaves the contract without owner. It will not be possible to call `onlyOwner` functions anymore. Can only be called by the current owner. NOTE: Renouncing ownership will leave the contract without an owner, thereby removing any functionality that is only available to the owner."
      },
      "setMinter(address)": {
        "params": {
          "minter": "The minter address"
        }
      },
      "totalSupply()": {
        "details": "Returns the amount of tokens in existence."
      },
      "transfer(address,uint256)": {
        "details": "Moves `amount` tokens from the caller's account to `to`. Returns a boolean value indicating whether the operation succeeded. Emits a {Transfer} event."
      },
      "transferFrom(address,address,uint256)": {
        "details": "Moves `amount` tokens from `from` to `to` using the allowance mechanism. `amount` is then deducted from the caller's allowance. Returns a boolean value indicating whether the operation succeeded. Emits a {Transfer} event."
      },
      "transferOwnership(address)": {
        "details": "Transfers ownership of the contract to a new account (`newOwner`). Can only be called by the current owner."
      }
    },
    "title": "bDRF - equity of Derify Protocol token contract.",
    "version": 1
  },
  "userdoc": {
    "events": {
      "MinterChanged(address,address)": {
        "notice": "Emitted when minter changed"
      }
    },
    "kind": "user",
    "methods": {
      "_minter()": {
        "notice": "Get minter address"
      },
      "burn(address,uint256)": {
        "notice": "Burn token"
      },
      "constructor": {
        "notice": "Set the value for {minter}."
      },
      "decimals()": {
        "notice": "Returns the number of decimals used to get its user representation."
      },
      "decreaseAllowance(address,uint256)": {
        "notice": "Decreases the allowance granted to `spender` by the caller."
      },
      "increaseAllowance(address,uint256)": {
        "notice": "Increases the allowance granted to `spender` by the caller."
      },
      "mint(address,uint256)": {
        "notice": "Mint token"
      },
      "name()": {
        "notice": "Returns the name of the token."
      },
      "pause()": {
        "notice": "Triggers stopped state"
      },
      "setMinter(address)": {
        "notice": "Set minter address"
      },
      "symbol()": {
        "notice": "Returns the symbol of the token."
      },
      "unpause()": {
        "notice": "Returns to normal state"
      },
      "version()": {
        "notice": "Returns the version of the token."
      }
    },
    "version": 1
  }
}